{
  "_format": "hh-sol-artifact-1",
  "contractName": "NFT",
  "sourceName": "contracts/NFT.sol",
  "abi": [
    {
      "inputs": [
        {
          "internalType": "address",
          "name": "_VRFCoordinator",
          "type": "address"
        },
        {
          "internalType": "address",
          "name": "_linkToken",
          "type": "address"
        },
        {
          "internalType": "bytes32",
          "name": "_keyHash",
          "type": "bytes32"
        },
        {
          "internalType": "uint256",
          "name": "_fee",
          "type": "uint256"
        },
        {
          "internalType": "address",
          "name": "_utilsContract",
          "type": "address"
        }
      ],
      "stateMutability": "nonpayable",
      "type": "constructor"
    },
    {
      "anonymous": false,
      "inputs": [
        {
          "indexed": true,
          "internalType": "address",
          "name": "owner",
          "type": "address"
        },
        {
          "indexed": true,
          "internalType": "address",
          "name": "approved",
          "type": "address"
        },
        {
          "indexed": true,
          "internalType": "uint256",
          "name": "tokenId",
          "type": "uint256"
        }
      ],
      "name": "Approval",
      "type": "event"
    },
    {
      "anonymous": false,
      "inputs": [
        {
          "indexed": true,
          "internalType": "address",
          "name": "owner",
          "type": "address"
        },
        {
          "indexed": true,
          "internalType": "address",
          "name": "operator",
          "type": "address"
        },
        {
          "indexed": false,
          "internalType": "bool",
          "name": "approved",
          "type": "bool"
        }
      ],
      "name": "ApprovalForAll",
      "type": "event"
    },
    {
      "anonymous": false,
      "inputs": [
        {
          "indexed": true,
          "internalType": "uint256",
          "name": "tokenId",
          "type": "uint256"
        },
        {
          "indexed": false,
          "internalType": "string",
          "name": "tokenURL",
          "type": "string"
        }
      ],
      "name": "CreatedNFT",
      "type": "event"
    },
    {
      "anonymous": false,
      "inputs": [
        {
          "indexed": true,
          "internalType": "uint256",
          "name": "tokenId",
          "type": "uint256"
        },
        {
          "indexed": true,
          "internalType": "uint256",
          "name": "randomNumber",
          "type": "uint256"
        }
      ],
      "name": "CreatedUnfinishedRandomSVG",
      "type": "event"
    },
    {
      "anonymous": false,
      "inputs": [
        {
          "indexed": true,
          "internalType": "address",
          "name": "previousOwner",
          "type": "address"
        },
        {
          "indexed": true,
          "internalType": "address",
          "name": "newOwner",
          "type": "address"
        }
      ],
      "name": "OwnershipTransferred",
      "type": "event"
    },
    {
      "anonymous": false,
      "inputs": [
        {
          "indexed": true,
          "internalType": "bytes32",
          "name": "requestId",
          "type": "bytes32"
        },
        {
          "indexed": true,
          "internalType": "uint256",
          "name": "tokenId",
          "type": "uint256"
        }
      ],
      "name": "RequestedRandomSVG",
      "type": "event"
    },
    {
      "anonymous": false,
      "inputs": [
        {
          "indexed": true,
          "internalType": "address",
          "name": "from",
          "type": "address"
        },
        {
          "indexed": true,
          "internalType": "address",
          "name": "to",
          "type": "address"
        },
        {
          "indexed": true,
          "internalType": "uint256",
          "name": "tokenId",
          "type": "uint256"
        }
      ],
      "name": "Transfer",
      "type": "event"
    },
    {
      "anonymous": false,
      "inputs": [
        {
          "indexed": true,
          "internalType": "uint256",
          "name": "tokenId",
          "type": "uint256"
        },
        {
          "indexed": false,
          "internalType": "string",
          "name": "tokenURL",
          "type": "string"
        }
      ],
      "name": "UpdatedNFT",
      "type": "event"
    },
    {
      "inputs": [
        {
          "internalType": "address",
          "name": "to",
          "type": "address"
        },
        {
          "internalType": "uint256",
          "name": "tokenId",
          "type": "uint256"
        }
      ],
      "name": "approve",
      "outputs": [],
      "stateMutability": "nonpayable",
      "type": "function"
    },
    {
      "inputs": [
        {
          "internalType": "address",
          "name": "owner",
          "type": "address"
        }
      ],
      "name": "balanceOf",
      "outputs": [
        {
          "internalType": "uint256",
          "name": "",
          "type": "uint256"
        }
      ],
      "stateMutability": "view",
      "type": "function"
    },
    {
      "inputs": [],
      "name": "create",
      "outputs": [
        {
          "internalType": "bytes32",
          "name": "requestId",
          "type": "bytes32"
        }
      ],
      "stateMutability": "payable",
      "type": "function"
    },
    {
      "inputs": [],
      "name": "fee",
      "outputs": [
        {
          "internalType": "uint256",
          "name": "",
          "type": "uint256"
        }
      ],
      "stateMutability": "view",
      "type": "function"
    },
    {
      "inputs": [
        {
          "internalType": "uint256",
          "name": "_tokenId",
          "type": "uint256"
        },
        {
          "internalType": "string",
          "name": "_name",
          "type": "string"
        }
      ],
      "name": "finishMint",
      "outputs": [],
      "stateMutability": "nonpayable",
      "type": "function"
    },
    {
      "inputs": [
        {
          "internalType": "uint256",
          "name": "tokenId",
          "type": "uint256"
        }
      ],
      "name": "getApproved",
      "outputs": [
        {
          "internalType": "address",
          "name": "",
          "type": "address"
        }
      ],
      "stateMutability": "view",
      "type": "function"
    },
    {
      "inputs": [
        {
          "internalType": "uint256",
          "name": "_tokenId",
          "type": "uint256"
        }
      ],
      "name": "getFighterById",
      "outputs": [
        {
          "components": [
            {
              "internalType": "uint256",
              "name": "tokenId",
              "type": "uint256"
            },
            {
              "internalType": "string",
              "name": "name",
              "type": "string"
            },
            {
              "internalType": "uint256",
              "name": "level",
              "type": "uint256"
            },
            {
              "internalType": "uint256",
              "name": "wins",
              "type": "uint256"
            },
            {
              "internalType": "uint256",
              "name": "hp",
              "type": "uint256"
            },
            {
              "internalType": "uint256",
              "name": "strength",
              "type": "uint256"
            },
            {
              "internalType": "uint256",
              "name": "dexterity",
              "type": "uint256"
            },
            {
              "internalType": "uint256",
              "name": "agility",
              "type": "uint256"
            },
            {
              "internalType": "uint256",
              "name": "intelligence",
              "type": "uint256"
            },
            {
              "internalType": "uint256",
              "name": "durability",
              "type": "uint256"
            },
            {
              "internalType": "uint256",
              "name": "location",
              "type": "uint256"
            },
            {
              "internalType": "string",
              "name": "fighterType",
              "type": "string"
            }
          ],
          "internalType": "struct lib.Fighter",
          "name": "_fighter",
          "type": "tuple"
        }
      ],
      "stateMutability": "view",
      "type": "function"
    },
    {
      "inputs": [
        {
          "internalType": "address",
          "name": "owner",
          "type": "address"
        },
        {
          "internalType": "address",
          "name": "operator",
          "type": "address"
        }
      ],
      "name": "isApprovedForAll",
      "outputs": [
        {
          "internalType": "bool",
          "name": "",
          "type": "bool"
        }
      ],
      "stateMutability": "view",
      "type": "function"
    },
    {
      "inputs": [],
      "name": "keyHash",
      "outputs": [
        {
          "internalType": "bytes32",
          "name": "",
          "type": "bytes32"
        }
      ],
      "stateMutability": "view",
      "type": "function"
    },
    {
      "inputs": [],
      "name": "name",
      "outputs": [
        {
          "internalType": "string",
          "name": "",
          "type": "string"
        }
      ],
      "stateMutability": "view",
      "type": "function"
    },
    {
      "inputs": [],
      "name": "owner",
      "outputs": [
        {
          "internalType": "address",
          "name": "",
          "type": "address"
        }
      ],
      "stateMutability": "view",
      "type": "function"
    },
    {
      "inputs": [
        {
          "internalType": "uint256",
          "name": "tokenId",
          "type": "uint256"
        }
      ],
      "name": "ownerOf",
      "outputs": [
        {
          "internalType": "address",
          "name": "",
          "type": "address"
        }
      ],
      "stateMutability": "view",
      "type": "function"
    },
    {
      "inputs": [
        {
          "internalType": "bool",
          "name": "_state",
          "type": "bool"
        }
      ],
      "name": "pause",
      "outputs": [],
      "stateMutability": "nonpayable",
      "type": "function"
    },
    {
      "inputs": [
        {
          "internalType": "bytes32",
          "name": "requestId",
          "type": "bytes32"
        },
        {
          "internalType": "uint256",
          "name": "randomness",
          "type": "uint256"
        }
      ],
      "name": "rawFulfillRandomness",
      "outputs": [],
      "stateMutability": "nonpayable",
      "type": "function"
    },
    {
      "inputs": [],
      "name": "renounceOwnership",
      "outputs": [],
      "stateMutability": "nonpayable",
      "type": "function"
    },
    {
      "inputs": [
        {
          "internalType": "address",
          "name": "from",
          "type": "address"
        },
        {
          "internalType": "address",
          "name": "to",
          "type": "address"
        },
        {
          "internalType": "uint256",
          "name": "tokenId",
          "type": "uint256"
        }
      ],
      "name": "safeTransferFrom",
      "outputs": [],
      "stateMutability": "nonpayable",
      "type": "function"
    },
    {
      "inputs": [
        {
          "internalType": "address",
          "name": "from",
          "type": "address"
        },
        {
          "internalType": "address",
          "name": "to",
          "type": "address"
        },
        {
          "internalType": "uint256",
          "name": "tokenId",
          "type": "uint256"
        },
        {
          "internalType": "bytes",
          "name": "_data",
          "type": "bytes"
        }
      ],
      "name": "safeTransferFrom",
      "outputs": [],
      "stateMutability": "nonpayable",
      "type": "function"
    },
    {
      "inputs": [
        {
          "internalType": "address",
          "name": "operator",
          "type": "address"
        },
        {
          "internalType": "bool",
          "name": "approved",
          "type": "bool"
        }
      ],
      "name": "setApprovalForAll",
      "outputs": [],
      "stateMutability": "nonpayable",
      "type": "function"
    },
    {
      "inputs": [
        {
          "internalType": "uint256",
          "name": "_newCost",
          "type": "uint256"
        }
      ],
      "name": "setCost",
      "outputs": [],
      "stateMutability": "nonpayable",
      "type": "function"
    },
    {
      "inputs": [
        {
          "internalType": "address",
          "name": "_newFightingContract",
          "type": "address"
        }
      ],
      "name": "setFightingContract",
      "outputs": [],
      "stateMutability": "nonpayable",
      "type": "function"
    },
    {
      "inputs": [
        {
          "internalType": "uint256",
          "name": "_newMaxSupply",
          "type": "uint256"
        }
      ],
      "name": "setMaxSupply",
      "outputs": [],
      "stateMutability": "nonpayable",
      "type": "function"
    },
    {
      "inputs": [
        {
          "internalType": "address",
          "name": "_newTrainingContract",
          "type": "address"
        }
      ],
      "name": "setTrainingContract",
      "outputs": [],
      "stateMutability": "nonpayable",
      "type": "function"
    },
    {
      "inputs": [
        {
          "internalType": "address",
          "name": "_newUtilsContract",
          "type": "address"
        }
      ],
      "name": "setUtilsContract",
      "outputs": [],
      "stateMutability": "nonpayable",
      "type": "function"
    },
    {
      "inputs": [
        {
          "internalType": "bytes4",
          "name": "interfaceId",
          "type": "bytes4"
        }
      ],
      "name": "supportsInterface",
      "outputs": [
        {
          "internalType": "bool",
          "name": "",
          "type": "bool"
        }
      ],
      "stateMutability": "view",
      "type": "function"
    },
    {
      "inputs": [],
      "name": "symbol",
      "outputs": [
        {
          "internalType": "string",
          "name": "",
          "type": "string"
        }
      ],
      "stateMutability": "view",
      "type": "function"
    },
    {
      "inputs": [],
      "name": "tokenCounter",
      "outputs": [
        {
          "internalType": "uint256",
          "name": "",
          "type": "uint256"
        }
      ],
      "stateMutability": "view",
      "type": "function"
    },
    {
      "inputs": [
        {
          "internalType": "uint256",
          "name": "",
          "type": "uint256"
        }
      ],
      "name": "tokenIdToFighter",
      "outputs": [
        {
          "internalType": "uint256",
          "name": "tokenId",
          "type": "uint256"
        },
        {
          "internalType": "string",
          "name": "name",
          "type": "string"
        },
        {
          "internalType": "uint256",
          "name": "level",
          "type": "uint256"
        },
        {
          "internalType": "uint256",
          "name": "wins",
          "type": "uint256"
        },
        {
          "internalType": "uint256",
          "name": "hp",
          "type": "uint256"
        },
        {
          "internalType": "uint256",
          "name": "strength",
          "type": "uint256"
        },
        {
          "internalType": "uint256",
          "name": "dexterity",
          "type": "uint256"
        },
        {
          "internalType": "uint256",
          "name": "agility",
          "type": "uint256"
        },
        {
          "internalType": "uint256",
          "name": "intelligence",
          "type": "uint256"
        },
        {
          "internalType": "uint256",
          "name": "durability",
          "type": "uint256"
        },
        {
          "internalType": "uint256",
          "name": "location",
          "type": "uint256"
        },
        {
          "internalType": "string",
          "name": "fighterType",
          "type": "string"
        }
      ],
      "stateMutability": "view",
      "type": "function"
    },
    {
      "inputs": [
        {
          "internalType": "uint256",
          "name": "tokenId",
          "type": "uint256"
        }
      ],
      "name": "tokenURI",
      "outputs": [
        {
          "internalType": "string",
          "name": "",
          "type": "string"
        }
      ],
      "stateMutability": "view",
      "type": "function"
    },
    {
      "inputs": [
        {
          "internalType": "address",
          "name": "_owner",
          "type": "address"
        }
      ],
      "name": "tokensOfOwner",
      "outputs": [
        {
          "internalType": "uint256[]",
          "name": "ownerTokens",
          "type": "uint256[]"
        }
      ],
      "stateMutability": "view",
      "type": "function"
    },
    {
      "inputs": [],
      "name": "totalSupply",
      "outputs": [
        {
          "internalType": "uint256",
          "name": "",
          "type": "uint256"
        }
      ],
      "stateMutability": "view",
      "type": "function"
    },
    {
      "inputs": [
        {
          "internalType": "address",
          "name": "from",
          "type": "address"
        },
        {
          "internalType": "address",
          "name": "to",
          "type": "address"
        },
        {
          "internalType": "uint256",
          "name": "tokenId",
          "type": "uint256"
        }
      ],
      "name": "transferFrom",
      "outputs": [],
      "stateMutability": "nonpayable",
      "type": "function"
    },
    {
      "inputs": [
        {
          "internalType": "address",
          "name": "newOwner",
          "type": "address"
        }
      ],
      "name": "transferOwnership",
      "outputs": [],
      "stateMutability": "nonpayable",
      "type": "function"
    },
    {
      "inputs": [
        {
          "internalType": "uint256",
          "name": "_tokenId",
          "type": "uint256"
        },
        {
          "components": [
            {
              "internalType": "uint256",
              "name": "tokenId",
              "type": "uint256"
            },
            {
              "internalType": "string",
              "name": "name",
              "type": "string"
            },
            {
              "internalType": "uint256",
              "name": "level",
              "type": "uint256"
            },
            {
              "internalType": "uint256",
              "name": "wins",
              "type": "uint256"
            },
            {
              "internalType": "uint256",
              "name": "hp",
              "type": "uint256"
            },
            {
              "internalType": "uint256",
              "name": "strength",
              "type": "uint256"
            },
            {
              "internalType": "uint256",
              "name": "dexterity",
              "type": "uint256"
            },
            {
              "internalType": "uint256",
              "name": "agility",
              "type": "uint256"
            },
            {
              "internalType": "uint256",
              "name": "intelligence",
              "type": "uint256"
            },
            {
              "internalType": "uint256",
              "name": "durability",
              "type": "uint256"
            },
            {
              "internalType": "uint256",
              "name": "location",
              "type": "uint256"
            },
            {
              "internalType": "string",
              "name": "fighterType",
              "type": "string"
            }
          ],
          "internalType": "struct lib.Fighter",
          "name": "_fighter",
          "type": "tuple"
        }
      ],
      "name": "updateFighter",
      "outputs": [],
      "stateMutability": "nonpayable",
      "type": "function"
    },
    {
      "inputs": [],
      "name": "withdraw",
      "outputs": [],
      "stateMutability": "payable",
      "type": "function"
    }
  ],
  "bytecode": "0x60c060405260405180608001604052806040518060400160405280600681526020017f4b6e69676874000000000000000000000000000000000000000000000000000081525081526020016040518060400160405280600681526020017f56696b696e67000000000000000000000000000000000000000000000000000081525081526020016040518060400160405280600681526020017f556e64656164000000000000000000000000000000000000000000000000000081525081526020016040518060400160405280600581526020017f44656d6f6e00000000000000000000000000000000000000000000000000000081525081525060119060046200010b929190620003d3565b503480156200011957600080fd5b506040516200633a3803806200633a83398181016040528101906200013f91906200059d565b84846040518060400160405280600981526020017f546f6b656e5261676500000000000000000000000000000000000000000000008152506040518060400160405280600481526020017f52414745000000000000000000000000000000000000000000000000000000008152508160009080519060200190620001c59291906200043a565b508060019080519060200190620001de9291906200043a565b50505062000201620001f56200030560201b60201c565b6200030d60201b60201c565b8173ffffffffffffffffffffffffffffffffffffffff1660a08173ffffffffffffffffffffffffffffffffffffffff1660601b815250508073ffffffffffffffffffffffffffffffffffffffff1660808173ffffffffffffffffffffffffffffffffffffffff1660601b81525050505081600a8190555082600b8190555080600c60006101000a81548173ffffffffffffffffffffffffffffffffffffffff021916908373ffffffffffffffffffffffffffffffffffffffff1602179055506001600981905550662386f26fc10000600f819055506127106010819055506000601260006101000a81548160ff02191690831515021790555050505050506200071a565b600033905090565b6000600760009054906101000a900473ffffffffffffffffffffffffffffffffffffffff16905081600760006101000a81548173ffffffffffffffffffffffffffffffffffffffff021916908373ffffffffffffffffffffffffffffffffffffffff1602179055508173ffffffffffffffffffffffffffffffffffffffff168173ffffffffffffffffffffffffffffffffffffffff167f8be0079c531659141344cd1fd0a4f28419497f9722a3daafe3b4186f6b6457e060405160405180910390a35050565b82805482825590600052602060002090810192821562000427579160200282015b8281111562000426578251829080519060200190620004159291906200043a565b5091602001919060010190620003f4565b5b509050620004369190620004cb565b5090565b828054620004489062000667565b90600052602060002090601f0160209004810192826200046c5760008555620004b8565b82601f106200048757805160ff1916838001178555620004b8565b82800160010185558215620004b8579182015b82811115620004b75782518255916020019190600101906200049a565b5b509050620004c79190620004f3565b5090565b5b80821115620004ef5760008181620004e5919062000512565b50600101620004cc565b5090565b5b808211156200050e576000816000905550600101620004f4565b5090565b508054620005209062000667565b6000825580601f1062000534575062000555565b601f016020900490600052602060002090810190620005549190620004f3565b5b50565b6000815190506200056981620006cc565b92915050565b6000815190506200058081620006e6565b92915050565b600081519050620005978162000700565b92915050565b600080600080600060a08688031215620005b657600080fd5b6000620005c68882890162000558565b9550506020620005d98882890162000558565b9450506040620005ec888289016200056f565b9350506060620005ff8882890162000586565b9250506080620006128882890162000558565b9150509295509295909350565b60006200062c826200063d565b9050919050565b6000819050919050565b600073ffffffffffffffffffffffffffffffffffffffff82169050919050565b6000819050919050565b600060028204905060018216806200068057607f821691505b602082108114156200069757620006966200069d565b5b50919050565b7f4e487b7100000000000000000000000000000000000000000000000000000000600052602260045260246000fd5b620006d7816200061f565b8114620006e357600080fd5b50565b620006f18162000633565b8114620006fd57600080fd5b50565b6200070b816200065d565b81146200071757600080fd5b50565b60805160601c60a05160601c615bed6200074d60003960008181611cde01526130c5015260006130890152615bed6000f3fe6080604052600436106101f95760003560e01c80636f8b44b01161010d578063a22cb465116100a0578063d082e3811161006f578063d082e38114610727578063ddca3f4314610752578063e985e9c51461077d578063efc81a8c146107ba578063f2fde38b146107d8576101f9565b8063a22cb4651461066f578063b88d4fde14610698578063bb2ac40c146106c1578063c87b56dd146106ea576101f9565b80638462151c116100dc5780638462151c146105b35780638da5cb5b146105f057806394985ddd1461061b57806395d89b4114610644576101f9565b80636f8b44b01461050d57806370a0823114610536578063715018a614610573578063716fee4f1461058a576101f9565b8063317276581161019057806342842e0e1161015f57806342842e0e1461042a57806344a0d68a1461045357806348cb16421461047c57806361728f39146104a55780636352211e146104d0576101f9565b80633172765814610391578063368dc9f2146103ba5780633ccfd60b146103f757806341e3e87214610401576101f9565b8063095ea7b3116101cc578063095ea7b3146102cc57806318160ddd146102f557806323b872dd146103205780632bbce2d114610349576101f9565b806301ffc9a7146101fe57806302329a291461023b57806306fdde0314610264578063081812fc1461028f575b600080fd5b34801561020a57600080fd5b5061022560048036038101906102209190613f81565b610801565b6040516102329190614a55565b60405180910390f35b34801561024757600080fd5b50610262600480360381019061025d9190613ef3565b6108e3565b005b34801561027057600080fd5b5061027961097c565b6040516102869190614af9565b60405180910390f35b34801561029b57600080fd5b506102b660048036038101906102b19190614014565b610a0e565b6040516102c3919061498e565b60405180910390f35b3480156102d857600080fd5b506102f360048036038101906102ee9190613eb7565b610a93565b005b34801561030157600080fd5b5061030a610bab565b6040516103179190614f0d565b60405180910390f35b34801561032c57600080fd5b5061034760048036038101906103429190613db1565b610bc1565b005b34801561035557600080fd5b50610370600480360381019061036b9190614014565b610c21565b6040516103889c9b9a99989796959493929190614f28565b60405180910390f35b34801561039d57600080fd5b506103b860048036038101906103b39190613d4c565b610d91565b005b3480156103c657600080fd5b506103e160048036038101906103dc9190614014565b610e51565b6040516103ee9190614ec9565b60405180910390f35b6103ff611007565b005b34801561040d57600080fd5b506104286004803603810190610423919061403d565b6110c3565b005b34801561043657600080fd5b50610451600480360381019061044c9190613db1565b6113a4565b005b34801561045f57600080fd5b5061047a60048036038101906104759190614014565b6113c4565b005b34801561048857600080fd5b506104a3600480360381019061049e9190613d4c565b61144a565b005b3480156104b157600080fd5b506104ba61150a565b6040516104c79190614a70565b60405180910390f35b3480156104dc57600080fd5b506104f760048036038101906104f29190614014565b611510565b604051610504919061498e565b60405180910390f35b34801561051957600080fd5b50610534600480360381019061052f9190614014565b6115c2565b005b34801561054257600080fd5b5061055d60048036038101906105589190613d4c565b611648565b60405161056a9190614f0d565b60405180910390f35b34801561057f57600080fd5b50610588611700565b005b34801561059657600080fd5b506105b160048036038101906105ac9190614091565b611788565b005b3480156105bf57600080fd5b506105da60048036038101906105d59190613d4c565b611adb565b6040516105e79190614a33565b60405180910390f35b3480156105fc57600080fd5b50610605611cb2565b604051610612919061498e565b60405180910390f35b34801561062757600080fd5b50610642600480360381019061063d9190613f45565b611cdc565b005b34801561065057600080fd5b50610659611d78565b6040516106669190614af9565b60405180910390f35b34801561067b57600080fd5b5061069660048036038101906106919190613e7b565b611e0a565b005b3480156106a457600080fd5b506106bf60048036038101906106ba9190613e00565b611f8b565b005b3480156106cd57600080fd5b506106e860048036038101906106e39190613d4c565b611fed565b005b3480156106f657600080fd5b50610711600480360381019061070c9190614014565b6120ad565b60405161071e9190614af9565b60405180910390f35b34801561073357600080fd5b5061073c6121ff565b6040516107499190614f0d565b60405180910390f35b34801561075e57600080fd5b50610767612205565b6040516107749190614f0d565b60405180910390f35b34801561078957600080fd5b506107a4600480360381019061079f9190613d75565b61220b565b6040516107b19190614a55565b60405180910390f35b6107c261229f565b6040516107cf9190614a70565b60405180910390f35b3480156107e457600080fd5b506107ff60048036038101906107fa9190613d4c565b612447565b005b60007f80ac58cd000000000000000000000000000000000000000000000000000000007bffffffffffffffffffffffffffffffffffffffffffffffffffffffff1916827bffffffffffffffffffffffffffffffffffffffffffffffffffffffff191614806108cc57507f5b5e139f000000000000000000000000000000000000000000000000000000007bffffffffffffffffffffffffffffffffffffffffffffffffffffffff1916827bffffffffffffffffffffffffffffffffffffffffffffffffffffffff1916145b806108dc57506108db8261253f565b5b9050919050565b6108eb6125a9565b73ffffffffffffffffffffffffffffffffffffffff16610909611cb2565b73ffffffffffffffffffffffffffffffffffffffff161461095f576040517f08c379a000000000000000000000000000000000000000000000000000000000815260040161095690614d49565b60405180910390fd5b80601260006101000a81548160ff02191690831515021790555050565b60606000805461098b90615321565b80601f01602080910402602001604051908101604052809291908181526020018280546109b790615321565b8015610a045780601f106109d957610100808354040283529160200191610a04565b820191906000526020600020905b8154815290600101906020018083116109e757829003601f168201915b5050505050905090565b6000610a19826125b1565b610a58576040517f08c379a0000000000000000000000000000000000000000000000000000000008152600401610a4f90614d29565b60405180910390fd5b6004600083815260200190815260200160002060009054906101000a900473ffffffffffffffffffffffffffffffffffffffff169050919050565b6000610a9e82611510565b90508073ffffffffffffffffffffffffffffffffffffffff168373ffffffffffffffffffffffffffffffffffffffff161415610b0f576040517f08c379a0000000000000000000000000000000000000000000000000000000008152600401610b0690614e09565b60405180910390fd5b8073ffffffffffffffffffffffffffffffffffffffff16610b2e6125a9565b73ffffffffffffffffffffffffffffffffffffffff161480610b5d5750610b5c81610b576125a9565b61220b565b5b610b9c576040517f08c379a0000000000000000000000000000000000000000000000000000000008152600401610b9390614c69565b60405180910390fd5b610ba6838361261d565b505050565b60006001600954610bbc9190615223565b905090565b610bd2610bcc6125a9565b826126d6565b610c11576040517f08c379a0000000000000000000000000000000000000000000000000000000008152600401610c0890614e49565b60405180910390fd5b610c1c8383836127b4565b505050565b6013602052806000526040600020600091509050806000015490806001018054610c4a90615321565b80601f0160208091040260200160405190810160405280929190818152602001828054610c7690615321565b8015610cc35780601f10610c9857610100808354040283529160200191610cc3565b820191906000526020600020905b815481529060010190602001808311610ca657829003601f168201915b50505050509080600201549080600301549080600401549080600501549080600601549080600701549080600801549080600901549080600a01549080600b018054610d0e90615321565b80601f0160208091040260200160405190810160405280929190818152602001828054610d3a90615321565b8015610d875780601f10610d5c57610100808354040283529160200191610d87565b820191906000526020600020905b815481529060010190602001808311610d6a57829003601f168201915b505050505090508c565b610d996125a9565b73ffffffffffffffffffffffffffffffffffffffff16610db7611cb2565b73ffffffffffffffffffffffffffffffffffffffff1614610e0d576040517f08c379a0000000000000000000000000000000000000000000000000000000008152600401610e0490614d49565b60405180910390fd5b80600c60006101000a81548173ffffffffffffffffffffffffffffffffffffffff021916908373ffffffffffffffffffffffffffffffffffffffff16021790555050565b610e5961392f565b601360008381526020019081526020016000206040518061018001604052908160008201548152602001600182018054610e9290615321565b80601f0160208091040260200160405190810160405280929190818152602001828054610ebe90615321565b8015610f0b5780601f10610ee057610100808354040283529160200191610f0b565b820191906000526020600020905b815481529060010190602001808311610eee57829003601f168201915b505050505081526020016002820154815260200160038201548152602001600482015481526020016005820154815260200160068201548152602001600782015481526020016008820154815260200160098201548152602001600a8201548152602001600b82018054610f7e90615321565b80601f0160208091040260200160405190810160405280929190818152602001828054610faa90615321565b8015610ff75780601f10610fcc57610100808354040283529160200191610ff7565b820191906000526020600020905b815481529060010190602001808311610fda57829003601f168201915b5050505050815250509050919050565b61100f6125a9565b73ffffffffffffffffffffffffffffffffffffffff1661102d611cb2565b73ffffffffffffffffffffffffffffffffffffffff1614611083576040517f08c379a000000000000000000000000000000000000000000000000000000000815260040161107a90614d49565b60405180910390fd5b3373ffffffffffffffffffffffffffffffffffffffff166108fc479081150290604051600060405180830381858888f193505050506110c157600080fd5b565b60006110ce836120ad565b511115611110576040517f08c379a000000000000000000000000000000000000000000000000000000000815260040161110790614b89565b60405180910390fd5b8160095411611154576040517f08c379a000000000000000000000000000000000000000000000000000000000815260040161114b90614e29565b60405180910390fd5b60006016600084815260200190815260200160002054116111aa576040517f08c379a00000000000000000000000000000000000000000000000000000000081526004016111a190614de9565b60405180910390fd5b6000601660008481526020019081526020016000205490506111cd838284612a10565b6000600c60009054906101000a900473ffffffffffffffffffffffffffffffffffffffff1673ffffffffffffffffffffffffffffffffffffffff1663f2db2170601360008781526020019081526020016000206040518263ffffffff1660e01b815260040161123c9190614eeb565b60006040518083038186803b15801561125457600080fd5b505afa158015611268573d6000803e3d6000fd5b505050506040513d6000823e3d601f19601f820116820180604052508101906112919190613fd3565b90506000600c60009054906101000a900473ffffffffffffffffffffffffffffffffffffffff1673ffffffffffffffffffffffffffffffffffffffff1663a62a2fa783601360008981526020019081526020016000206040518363ffffffff1660e01b8152600401611304929190614b52565b60006040518083038186803b15801561131c57600080fd5b505afa158015611330573d6000803e3d6000fd5b505050506040513d6000823e3d601f19601f820116820180604052508101906113599190613fd3565b90506113658582612d8b565b847fb5a8d8cf5d01b5006e471421ba7da032446e2a82412342ed548b7aeed0ea9b69826040516113959190614af9565b60405180910390a25050505050565b6113bf83838360405180602001604052806000815250611f8b565b505050565b6113cc6125a9565b73ffffffffffffffffffffffffffffffffffffffff166113ea611cb2565b73ffffffffffffffffffffffffffffffffffffffff1614611440576040517f08c379a000000000000000000000000000000000000000000000000000000000815260040161143790614d49565b60405180910390fd5b80600f8190555050565b6114526125a9565b73ffffffffffffffffffffffffffffffffffffffff16611470611cb2565b73ffffffffffffffffffffffffffffffffffffffff16146114c6576040517f08c379a00000000000000000000000000000000000000000000000000000000081526004016114bd90614d49565b60405180910390fd5b80600d60006101000a81548173ffffffffffffffffffffffffffffffffffffffff021916908373ffffffffffffffffffffffffffffffffffffffff16021790555050565b600b5481565b6000806002600084815260200190815260200160002060009054906101000a900473ffffffffffffffffffffffffffffffffffffffff169050600073ffffffffffffffffffffffffffffffffffffffff168173ffffffffffffffffffffffffffffffffffffffff1614156115b9576040517f08c379a00000000000000000000000000000000000000000000000000000000081526004016115b090614ca9565b60405180910390fd5b80915050919050565b6115ca6125a9565b73ffffffffffffffffffffffffffffffffffffffff166115e8611cb2565b73ffffffffffffffffffffffffffffffffffffffff161461163e576040517f08c379a000000000000000000000000000000000000000000000000000000000815260040161163590614d49565b60405180910390fd5b8060108190555050565b60008073ffffffffffffffffffffffffffffffffffffffff168273ffffffffffffffffffffffffffffffffffffffff1614156116b9576040517f08c379a00000000000000000000000000000000000000000000000000000000081526004016116b090614c89565b60405180910390fd5b600360008373ffffffffffffffffffffffffffffffffffffffff1673ffffffffffffffffffffffffffffffffffffffff168152602001908152602001600020549050919050565b6117086125a9565b73ffffffffffffffffffffffffffffffffffffffff16611726611cb2565b73ffffffffffffffffffffffffffffffffffffffff161461177c576040517f08c379a000000000000000000000000000000000000000000000000000000000815260040161177390614d49565b60405180910390fd5b6117866000612dff565b565b600d60009054906101000a900473ffffffffffffffffffffffffffffffffffffffff1673ffffffffffffffffffffffffffffffffffffffff163373ffffffffffffffffffffffffffffffffffffffff1614806118315750600e60009054906101000a900473ffffffffffffffffffffffffffffffffffffffff1673ffffffffffffffffffffffffffffffffffffffff163373ffffffffffffffffffffffffffffffffffffffff16145b611870576040517f08c379a000000000000000000000000000000000000000000000000000000000815260040161186790614d69565b60405180910390fd5b80601360008481526020019081526020016000206000820151816000015560208201518160010190805190602001906118aa929190613990565b5060408201518160020155606082015181600301556080820151816004015560a0820151816005015560c0820151816006015560e082015181600701556101008201518160080155610120820151816009015561014082015181600a015561016082015181600b019080519060200190611925929190613990565b509050506000600c60009054906101000a900473ffffffffffffffffffffffffffffffffffffffff1673ffffffffffffffffffffffffffffffffffffffff1663f2db2170836040518263ffffffff1660e01b81526004016119869190614ec9565b60006040518083038186803b15801561199e57600080fd5b505afa1580156119b2573d6000803e3d6000fd5b505050506040513d6000823e3d601f19601f820116820180604052508101906119db9190613fd3565b90506000600c60009054906101000a900473ffffffffffffffffffffffffffffffffffffffff1673ffffffffffffffffffffffffffffffffffffffff1663a62a2fa783856040518363ffffffff1660e01b8152600401611a3c929190614b1b565b60006040518083038186803b158015611a5457600080fd5b505afa158015611a68573d6000803e3d6000fd5b505050506040513d6000823e3d601f19601f82011682018060405250810190611a919190613fd3565b9050611a9d8482612d8b565b837f8088b75520f63d2193a6f5015badbc4cc953e620977a8c91f11b4227043fcb3882604051611acd9190614af9565b60405180910390a250505050565b60606000611ae883611648565b90506000811415611b6b57600067ffffffffffffffff811115611b34577f4e487b7100000000000000000000000000000000000000000000000000000000600052604160045260246000fd5b604051908082528060200260200182016040528015611b625781602001602082028036833780820191505090505b50915050611cad565b60008167ffffffffffffffff811115611bad577f4e487b7100000000000000000000000000000000000000000000000000000000600052604160045260246000fd5b604051908082528060200260200182016040528015611bdb5781602001602082028036833780820191505090505b509050600080600190505b600954811015611ca557611bf9816125b1565b8015611c3857508573ffffffffffffffffffffffffffffffffffffffff16611c2082611510565b73ffffffffffffffffffffffffffffffffffffffff16145b15611c925780838381518110611c77577f4e487b7100000000000000000000000000000000000000000000000000000000600052603260045260246000fd5b6020026020010181815250508180611c8e9061539e565b9250505b8080611c9d9061539e565b915050611be6565b829450505050505b919050565b6000600760009054906101000a900473ffffffffffffffffffffffffffffffffffffffff16905090565b7f000000000000000000000000000000000000000000000000000000000000000073ffffffffffffffffffffffffffffffffffffffff163373ffffffffffffffffffffffffffffffffffffffff1614611d6a576040517f08c379a0000000000000000000000000000000000000000000000000000000008152600401611d6190614dc9565b60405180910390fd5b611d748282612ec5565b5050565b606060018054611d8790615321565b80601f0160208091040260200160405190810160405280929190818152602001828054611db390615321565b8015611e005780601f10611dd557610100808354040283529160200191611e00565b820191906000526020600020905b815481529060010190602001808311611de357829003601f168201915b5050505050905090565b611e126125a9565b73ffffffffffffffffffffffffffffffffffffffff168273ffffffffffffffffffffffffffffffffffffffff161415611e80576040517f08c379a0000000000000000000000000000000000000000000000000000000008152600401611e7790614c29565b60405180910390fd5b8060056000611e8d6125a9565b73ffffffffffffffffffffffffffffffffffffffff1673ffffffffffffffffffffffffffffffffffffffff16815260200190815260200160002060008473ffffffffffffffffffffffffffffffffffffffff1673ffffffffffffffffffffffffffffffffffffffff16815260200190815260200160002060006101000a81548160ff0219169083151502179055508173ffffffffffffffffffffffffffffffffffffffff16611f3a6125a9565b73ffffffffffffffffffffffffffffffffffffffff167f17307eab39ab6107e8899845ad3d59bd9653f200f220920489ca2b5937696c3183604051611f7f9190614a55565b60405180910390a35050565b611f9c611f966125a9565b836126d6565b611fdb576040517f08c379a0000000000000000000000000000000000000000000000000000000008152600401611fd290614e49565b60405180910390fd5b611fe784848484612f6b565b50505050565b611ff56125a9565b73ffffffffffffffffffffffffffffffffffffffff16612013611cb2565b73ffffffffffffffffffffffffffffffffffffffff1614612069576040517f08c379a000000000000000000000000000000000000000000000000000000000815260040161206090614d49565b60405180910390fd5b80600e60006101000a81548173ffffffffffffffffffffffffffffffffffffffff021916908373ffffffffffffffffffffffffffffffffffffffff16021790555050565b60606120b8826125b1565b6120f7576040517f08c379a00000000000000000000000000000000000000000000000000000000081526004016120ee90614d09565b60405180910390fd5b600060066000848152602001908152602001600020805461211790615321565b80601f016020809104026020016040519081016040528092919081815260200182805461214390615321565b80156121905780601f1061216557610100808354040283529160200191612190565b820191906000526020600020905b81548152906001019060200180831161217357829003601f168201915b5050505050905060006121a1612fc7565b90506000815114156121b75781925050506121fa565b6000825111156121ec5780826040516020016121d492919061496a565b604051602081830303815290604052925050506121fa565b6121f584612fde565b925050505b919050565b60095481565b600a5481565b6000600560008473ffffffffffffffffffffffffffffffffffffffff1673ffffffffffffffffffffffffffffffffffffffff16815260200190815260200160002060008373ffffffffffffffffffffffffffffffffffffffff1673ffffffffffffffffffffffffffffffffffffffff16815260200190815260200160002060009054906101000a900460ff16905092915050565b6000601260009054906101000a900460ff16156122f1576040517f08c379a00000000000000000000000000000000000000000000000000000000081526004016122e890614ea9565b60405180910390fd5b60105460095410612337576040517f08c379a000000000000000000000000000000000000000000000000000000000815260040161232e90614e69565b60405180910390fd5b600f5434101561237c576040517f08c379a000000000000000000000000000000000000000000000000000000000815260040161237390614e89565b60405180910390fd5b61238a600b54600a54613085565b9050336014600083815260200190815260200160002060006101000a81548173ffffffffffffffffffffffffffffffffffffffff021916908373ffffffffffffffffffffffffffffffffffffffff16021790555060006009549050806015600084815260200190815260200160002081905550600960008154809291906124109061539e565b919050555080827fd18cd6f82baac9078af064ea020dd3dc7bff649bd8d50684f972d5995fec6e6960405160405180910390a35090565b61244f6125a9565b73ffffffffffffffffffffffffffffffffffffffff1661246d611cb2565b73ffffffffffffffffffffffffffffffffffffffff16146124c3576040517f08c379a00000000000000000000000000000000000000000000000000000000081526004016124ba90614d49565b60405180910390fd5b600073ffffffffffffffffffffffffffffffffffffffff168173ffffffffffffffffffffffffffffffffffffffff161415612533576040517f08c379a000000000000000000000000000000000000000000000000000000000815260040161252a90614bc9565b60405180910390fd5b61253c81612dff565b50565b60007f01ffc9a7000000000000000000000000000000000000000000000000000000007bffffffffffffffffffffffffffffffffffffffffffffffffffffffff1916827bffffffffffffffffffffffffffffffffffffffffffffffffffffffff1916149050919050565b600033905090565b60008073ffffffffffffffffffffffffffffffffffffffff166002600084815260200190815260200160002060009054906101000a900473ffffffffffffffffffffffffffffffffffffffff1673ffffffffffffffffffffffffffffffffffffffff1614159050919050565b816004600083815260200190815260200160002060006101000a81548173ffffffffffffffffffffffffffffffffffffffff021916908373ffffffffffffffffffffffffffffffffffffffff160217905550808273ffffffffffffffffffffffffffffffffffffffff1661269083611510565b73ffffffffffffffffffffffffffffffffffffffff167f8c5be1e5ebec7d5bd14f71427d1e84f3dd0314c0f7b2291e5b200ac8c7c3b92560405160405180910390a45050565b60006126e1826125b1565b612720576040517f08c379a000000000000000000000000000000000000000000000000000000000815260040161271790614c49565b60405180910390fd5b600061272b83611510565b90508073ffffffffffffffffffffffffffffffffffffffff168473ffffffffffffffffffffffffffffffffffffffff16148061279a57508373ffffffffffffffffffffffffffffffffffffffff1661278284610a0e565b73ffffffffffffffffffffffffffffffffffffffff16145b806127ab57506127aa818561220b565b5b91505092915050565b8273ffffffffffffffffffffffffffffffffffffffff166127d482611510565b73ffffffffffffffffffffffffffffffffffffffff161461282a576040517f08c379a000000000000000000000000000000000000000000000000000000000815260040161282190614d89565b60405180910390fd5b600073ffffffffffffffffffffffffffffffffffffffff168273ffffffffffffffffffffffffffffffffffffffff16141561289a576040517f08c379a000000000000000000000000000000000000000000000000000000000815260040161289190614c09565b60405180910390fd5b6128a58383836131e7565b6128b060008261261d565b6001600360008573ffffffffffffffffffffffffffffffffffffffff1673ffffffffffffffffffffffffffffffffffffffff16815260200190815260200160002060008282546129009190615223565b925050819055506001600360008473ffffffffffffffffffffffffffffffffffffffff1673ffffffffffffffffffffffffffffffffffffffff16815260200190815260200160002060008282546129579190615142565b92505081905550816002600083815260200190815260200160002060006101000a81548173ffffffffffffffffffffffffffffffffffffffff021916908373ffffffffffffffffffffffffffffffffffffffff160217905550808273ffffffffffffffffffffffffffffffffffffffff168473ffffffffffffffffffffffffffffffffffffffff167fddf252ad1be2c89b69c2b068fc378daa952ba7f163c4a11628f55a4df523b3ef60405160405180910390a4505050565b60006001601d84612a2191906153fb565b612a2b9190615142565b905060006011600485612a3e91906153fb565b81548110612a75577f4e487b7100000000000000000000000000000000000000000000000000000000600052603260045260246000fd5b906000526020600020018054612a8a90615321565b80601f0160208091040260200160405190810160405280929190818152602001828054612ab690615321565b8015612b035780601f10612ad857610100808354040283529160200191612b03565b820191906000526020600020905b815481529060010190602001808311612ae657829003601f168201915b505050505090506000612b24856005600a86612b1f91906151c9565b6131ec565b905060405180610180016040528087815260200185815260200184815260200160008152602001601485612b5891906151c9565b815260200182600081518110612b97577f4e487b7100000000000000000000000000000000000000000000000000000000600052603260045260246000fd5b6020026020010151815260200182600181518110612bde577f4e487b7100000000000000000000000000000000000000000000000000000000600052603260045260246000fd5b6020026020010151815260200182600281518110612c25577f4e487b7100000000000000000000000000000000000000000000000000000000600052603260045260246000fd5b6020026020010151815260200182600381518110612c6c577f4e487b7100000000000000000000000000000000000000000000000000000000600052603260045260246000fd5b6020026020010151815260200182600481518110612cb3577f4e487b7100000000000000000000000000000000000000000000000000000000600052603260045260246000fd5b60200260200101518152602001600081526020018381525060136000888152602001908152602001600020600082015181600001556020820151816001019080519060200190612d04929190613990565b5060408201518160020155606082015181600301556080820151816004015560a0820151816005015560c0820151816006015560e082015181600701556101008201518160080155610120820151816009015561014082015181600a015561016082015181600b019080519060200190612d7f929190613990565b50905050505050505050565b612d94826125b1565b612dd3576040517f08c379a0000000000000000000000000000000000000000000000000000000008152600401612dca90614cc9565b60405180910390fd5b80600660008481526020019081526020016000209080519060200190612dfa929190613990565b505050565b6000600760009054906101000a900473ffffffffffffffffffffffffffffffffffffffff16905081600760006101000a81548173ffffffffffffffffffffffffffffffffffffffff021916908373ffffffffffffffffffffffffffffffffffffffff1602179055508173ffffffffffffffffffffffffffffffffffffffff168173ffffffffffffffffffffffffffffffffffffffff167f8be0079c531659141344cd1fd0a4f28419497f9722a3daafe3b4186f6b6457e060405160405180910390a35050565b60006014600084815260200190815260200160002060009054906101000a900473ffffffffffffffffffffffffffffffffffffffff169050600060156000858152602001908152602001600020549050612f1f8282613322565b82601660008381526020019081526020016000208190555082817faad5362ce528ed941024b95d4c18dfd49b8503e1f586a5c353631d98c2af41b760405160405180910390a350505050565b612f768484846127b4565b612f8284848484613340565b612fc1576040517f08c379a0000000000000000000000000000000000000000000000000000000008152600401612fb890614ba9565b60405180910390fd5b50505050565b606060405180602001604052806000815250905090565b6060612fe9826125b1565b613028576040517f08c379a000000000000000000000000000000000000000000000000000000000815260040161301f90614da9565b60405180910390fd5b6000613032612fc7565b90506000815111613052576040518060200160405280600081525061307d565b8061305c846134d7565b60405160200161306d92919061496a565b6040516020818303038152906040525b915050919050565b60007f000000000000000000000000000000000000000000000000000000000000000073ffffffffffffffffffffffffffffffffffffffff16634000aea07f0000000000000000000000000000000000000000000000000000000000000000848660006040516020016130f9929190614a8b565b6040516020818303038152906040526040518463ffffffff1660e01b8152600401613126939291906149f5565b602060405180830381600087803b15801561314057600080fd5b505af1158015613154573d6000803e3d6000fd5b505050506040513d601f19601f820116820180604052508101906131789190613f1c565b50600061319b846000306008600089815260200190815260200160002054613684565b9050600160086000868152602001908152602001600020546131bd9190615142565b60086000868152602001908152602001600020819055506131de84826136c0565b91505092915050565b505050565b60608267ffffffffffffffff81111561322e577f4e487b7100000000000000000000000000000000000000000000000000000000600052604160045260246000fd5b60405190808252806020026020018201604052801561325c5781602001602082028036833780820191505090505b5090506000600190505b83811161331a5760008582604051602001613282929190614ff0565b6040516020818303038152906040528051906020012060001c9050600184826132ab91906153fb565b6132b59190615142565b836001846132c39190615223565b815181106132fa577f4e487b7100000000000000000000000000000000000000000000000000000000600052603260045260246000fd5b6020026020010181815250505080806133129061539e565b915050613266565b509392505050565b61333c8282604051806020016040528060008152506136f3565b5050565b60006133618473ffffffffffffffffffffffffffffffffffffffff1661374e565b156134ca578373ffffffffffffffffffffffffffffffffffffffff1663150b7a0261338a6125a9565b8786866040518563ffffffff1660e01b81526004016133ac94939291906149a9565b602060405180830381600087803b1580156133c657600080fd5b505af19250505080156133f757506040513d601f19601f820116820180604052508101906133f49190613faa565b60015b61347a573d8060008114613427576040519150601f19603f3d011682016040523d82523d6000602084013e61342c565b606091505b50600081511415613472576040517f08c379a000000000000000000000000000000000000000000000000000000000815260040161346990614ba9565b60405180910390fd5b805181602001fd5b63150b7a0260e01b7bffffffffffffffffffffffffffffffffffffffffffffffffffffffff1916817bffffffffffffffffffffffffffffffffffffffffffffffffffffffff1916149150506134cf565b600190505b949350505050565b6060600082141561351f576040518060400160405280600181526020017f3000000000000000000000000000000000000000000000000000000000000000815250905061367f565b600082905060005b6000821461355157808061353a9061539e565b915050600a8261354a9190615198565b9150613527565b60008167ffffffffffffffff811115613593577f4e487b7100000000000000000000000000000000000000000000000000000000600052604160045260246000fd5b6040519080825280601f01601f1916602001820160405280156135c55781602001600182028036833780820191505090505b5090505b60008514613678576001826135de9190615223565b9150600a856135ed91906153fb565b60306135f99190615142565b60f81b818381518110613635577f4e487b7100000000000000000000000000000000000000000000000000000000600052603260045260246000fd5b60200101907effffffffffffffffffffffffffffffffffffffffffffffffffffffffffffff1916908160001a905350600a856136719190615198565b94506135c9565b8093505050505b919050565b60008484848460405160200161369d9493929190614ab4565b6040516020818303038152906040528051906020012060001c9050949350505050565b600082826040516020016136d592919061493e565b60405160208183030381529060405280519060200120905092915050565b6136fd8383613761565b61370a6000848484613340565b613749576040517f08c379a000000000000000000000000000000000000000000000000000000000815260040161374090614ba9565b60405180910390fd5b505050565b600080823b905060008111915050919050565b600073ffffffffffffffffffffffffffffffffffffffff168273ffffffffffffffffffffffffffffffffffffffff1614156137d1576040517f08c379a00000000000000000000000000000000000000000000000000000000081526004016137c890614ce9565b60405180910390fd5b6137da816125b1565b1561381a576040517f08c379a000000000000000000000000000000000000000000000000000000000815260040161381190614be9565b60405180910390fd5b613826600083836131e7565b6001600360008473ffffffffffffffffffffffffffffffffffffffff1673ffffffffffffffffffffffffffffffffffffffff16815260200190815260200160002060008282546138769190615142565b92505081905550816002600083815260200190815260200160002060006101000a81548173ffffffffffffffffffffffffffffffffffffffff021916908373ffffffffffffffffffffffffffffffffffffffff160217905550808273ffffffffffffffffffffffffffffffffffffffff16600073ffffffffffffffffffffffffffffffffffffffff167fddf252ad1be2c89b69c2b068fc378daa952ba7f163c4a11628f55a4df523b3ef60405160405180910390a45050565b6040518061018001604052806000815260200160608152602001600081526020016000815260200160008152602001600081526020016000815260200160008152602001600081526020016000815260200160008152602001606081525090565b82805461399c90615321565b90600052602060002090601f0160209004810192826139be5760008555613a05565b82601f106139d757805160ff1916838001178555613a05565b82800160010185558215613a05579182015b82811115613a045782518255916020019190600101906139e9565b5b509050613a129190613a16565b5090565b5b80821115613a2f576000816000905550600101613a17565b5090565b6000613a46613a418461503e565b615019565b905082815260208101848484011115613a5e57600080fd5b613a698482856152df565b509392505050565b6000613a84613a7f8461506f565b615019565b905082815260208101848484011115613a9c57600080fd5b613aa78482856152df565b509392505050565b6000613ac2613abd8461506f565b615019565b905082815260208101848484011115613ada57600080fd5b613ae58482856152ee565b509392505050565b600081359050613afc81615b44565b92915050565b600081359050613b1181615b5b565b92915050565b600081519050613b2681615b5b565b92915050565b600081359050613b3b81615b72565b92915050565b600081359050613b5081615b89565b92915050565b600081519050613b6581615b89565b92915050565b600082601f830112613b7c57600080fd5b8135613b8c848260208601613a33565b91505092915050565b600082601f830112613ba657600080fd5b8135613bb6848260208601613a71565b91505092915050565b600082601f830112613bd057600080fd5b8151613be0848260208601613aaf565b91505092915050565b60006101808284031215613bfc57600080fd5b613c07610180615019565b90506000613c1784828501613d37565b600083015250602082013567ffffffffffffffff811115613c3757600080fd5b613c4384828501613b95565b6020830152506040613c5784828501613d37565b6040830152506060613c6b84828501613d37565b6060830152506080613c7f84828501613d37565b60808301525060a0613c9384828501613d37565b60a08301525060c0613ca784828501613d37565b60c08301525060e0613cbb84828501613d37565b60e083015250610100613cd084828501613d37565b61010083015250610120613ce684828501613d37565b61012083015250610140613cfc84828501613d37565b6101408301525061016082013567ffffffffffffffff811115613d1e57600080fd5b613d2a84828501613b95565b6101608301525092915050565b600081359050613d4681615ba0565b92915050565b600060208284031215613d5e57600080fd5b6000613d6c84828501613aed565b91505092915050565b60008060408385031215613d8857600080fd5b6000613d9685828601613aed565b9250506020613da785828601613aed565b9150509250929050565b600080600060608486031215613dc657600080fd5b6000613dd486828701613aed565b9350506020613de586828701613aed565b9250506040613df686828701613d37565b9150509250925092565b60008060008060808587031215613e1657600080fd5b6000613e2487828801613aed565b9450506020613e3587828801613aed565b9350506040613e4687828801613d37565b925050606085013567ffffffffffffffff811115613e6357600080fd5b613e6f87828801613b6b565b91505092959194509250565b60008060408385031215613e8e57600080fd5b6000613e9c85828601613aed565b9250506020613ead85828601613b02565b9150509250929050565b60008060408385031215613eca57600080fd5b6000613ed885828601613aed565b9250506020613ee985828601613d37565b9150509250929050565b600060208284031215613f0557600080fd5b6000613f1384828501613b02565b91505092915050565b600060208284031215613f2e57600080fd5b6000613f3c84828501613b17565b91505092915050565b60008060408385031215613f5857600080fd5b6000613f6685828601613b2c565b9250506020613f7785828601613d37565b9150509250929050565b600060208284031215613f9357600080fd5b6000613fa184828501613b41565b91505092915050565b600060208284031215613fbc57600080fd5b6000613fca84828501613b56565b91505092915050565b600060208284031215613fe557600080fd5b600082015167ffffffffffffffff811115613fff57600080fd5b61400b84828501613bbf565b91505092915050565b60006020828403121561402657600080fd5b600061403484828501613d37565b91505092915050565b6000806040838503121561405057600080fd5b600061405e85828601613d37565b925050602083013567ffffffffffffffff81111561407b57600080fd5b61408785828601613b95565b9150509250929050565b600080604083850312156140a457600080fd5b60006140b285828601613d37565b925050602083013567ffffffffffffffff8111156140cf57600080fd5b6140db85828601613be9565b9150509250929050565b60006140f18383614909565b60208301905092915050565b61410681615261565b82525050565b6000614117826150c5565b61412181856150f3565b935061412c836150a0565b8060005b8381101561415d57815161414488826140e5565b975061414f836150e6565b925050600181019050614130565b5085935050505092915050565b61417381615273565b82525050565b6141828161527f565b82525050565b6141996141948261527f565b6153e7565b82525050565b60006141aa826150d0565b6141b48185615104565b93506141c48185602086016152ee565b6141cd816154e8565b840191505092915050565b60006141e3826150db565b6141ed8185615115565b93506141fd8185602086016152ee565b614206816154e8565b840191505092915050565b600061421c826150db565b6142268185615126565b93506142368185602086016152ee565b61423f816154e8565b840191505092915050565b6000614255826150db565b61425f8185615137565b935061426f8185602086016152ee565b80840191505092915050565b6000815461428881615321565b6142928186615115565b945060018216600081146142ad57600181146142bf576142f2565b60ff19831686526020860193506142f2565b6142c8856150b0565b60005b838110156142ea578154818901526001820191506020810190506142cb565b808801955050505b50505092915050565b6000614308600383615126565b915061431382615506565b602082019050919050565b600061432b603283615126565b91506143368261552f565b604082019050919050565b600061434e602683615126565b91506143598261557e565b604082019050919050565b6000614371601c83615126565b915061437c826155cd565b602082019050919050565b6000614394602483615126565b915061439f826155f6565b604082019050919050565b60006143b7601983615126565b91506143c282615645565b602082019050919050565b60006143da602c83615126565b91506143e58261566e565b604082019050919050565b60006143fd603883615126565b9150614408826156bd565b604082019050919050565b6000614420602a83615126565b915061442b8261570c565b604082019050919050565b6000614443602983615126565b915061444e8261575b565b604082019050919050565b6000614466602e83615126565b9150614471826157aa565b604082019050919050565b6000614489602083615126565b9150614494826157f9565b602082019050919050565b60006144ac603183615126565b91506144b782615822565b604082019050919050565b60006144cf602c83615126565b91506144da82615871565b604082019050919050565b60006144f2602083615126565b91506144fd826158c0565b602082019050919050565b6000614515600283615126565b9150614520826158e9565b602082019050919050565b6000614538602983615126565b915061454382615912565b604082019050919050565b600061455b602f83615126565b915061456682615961565b604082019050919050565b600061457e601f83615126565b9150614589826159b0565b602082019050919050565b60006145a1600383615126565b91506145ac826159d9565b602082019050919050565b60006145c4602183615126565b91506145cf82615a02565b604082019050919050565b60006145e7600383615126565b91506145f282615a51565b602082019050919050565b600061460a603183615126565b915061461582615a7a565b604082019050919050565b600061462d600283615126565b915061463882615ac9565b602082019050919050565b6000614650600283615126565b915061465b82615af2565b602082019050919050565b6000614673600383615126565b915061467e82615b1b565b602082019050919050565b6000610180830160008301516146a26000860182614909565b50602083015184820360208601526146ba82826141d8565b91505060408301516146cf6040860182614909565b5060608301516146e26060860182614909565b5060808301516146f56080860182614909565b5060a083015161470860a0860182614909565b5060c083015161471b60c0860182614909565b5060e083015161472e60e0860182614909565b50610100830151614743610100860182614909565b50610120830151614758610120860182614909565b5061014083015161476d610140860182614909565b5061016083015184820361016086015261478782826141d8565b9150508091505092915050565b6000610180830160008084015490506147ac81615353565b6147b96000870182614909565b506001840185830360208701526147d0838261427b565b925050600284015490506147e381615353565b6147f06040870182614909565b506003840154905061480181615353565b61480e6060870182614909565b506004840154905061481f81615353565b61482c6080870182614909565b506005840154905061483d81615353565b61484a60a0870182614909565b506006840154905061485b81615353565b61486860c0870182614909565b506007840154905061487981615353565b61488660e0870182614909565b506008840154905061489781615353565b6148a5610100870182614909565b50600984015490506148b681615353565b6148c4610120870182614909565b50600a84015490506148d581615353565b6148e3610140870182614909565b50600b84018583036101608701526148fb838261427b565b925050819250505092915050565b614912816152d5565b82525050565b614921816152d5565b82525050565b614938614933826152d5565b6153f1565b82525050565b600061494a8285614188565b60208201915061495a8284614927565b6020820191508190509392505050565b6000614976828561424a565b9150614982828461424a565b91508190509392505050565b60006020820190506149a360008301846140fd565b92915050565b60006080820190506149be60008301876140fd565b6149cb60208301866140fd565b6149d86040830185614918565b81810360608301526149ea818461419f565b905095945050505050565b6000606082019050614a0a60008301866140fd565b614a176020830185614918565b8181036040830152614a29818461419f565b9050949350505050565b60006020820190508181036000830152614a4d818461410c565b905092915050565b6000602082019050614a6a600083018461416a565b92915050565b6000602082019050614a856000830184614179565b92915050565b6000604082019050614aa06000830185614179565b614aad6020830184614918565b9392505050565b6000608082019050614ac96000830187614179565b614ad66020830186614918565b614ae360408301856140fd565b614af06060830184614918565b95945050505050565b60006020820190508181036000830152614b138184614211565b905092915050565b60006040820190508181036000830152614b358185614211565b90508181036020830152614b498184614689565b90509392505050565b60006040820190508181036000830152614b6c8185614211565b90508181036020830152614b808184614794565b90509392505050565b60006020820190508181036000830152614ba2816142fb565b9050919050565b60006020820190508181036000830152614bc28161431e565b9050919050565b60006020820190508181036000830152614be281614341565b9050919050565b60006020820190508181036000830152614c0281614364565b9050919050565b60006020820190508181036000830152614c2281614387565b9050919050565b60006020820190508181036000830152614c42816143aa565b9050919050565b60006020820190508181036000830152614c62816143cd565b9050919050565b60006020820190508181036000830152614c82816143f0565b9050919050565b60006020820190508181036000830152614ca281614413565b9050919050565b60006020820190508181036000830152614cc281614436565b9050919050565b60006020820190508181036000830152614ce281614459565b9050919050565b60006020820190508181036000830152614d028161447c565b9050919050565b60006020820190508181036000830152614d228161449f565b9050919050565b60006020820190508181036000830152614d42816144c2565b9050919050565b60006020820190508181036000830152614d62816144e5565b9050919050565b60006020820190508181036000830152614d8281614508565b9050919050565b60006020820190508181036000830152614da28161452b565b9050919050565b60006020820190508181036000830152614dc28161454e565b9050919050565b60006020820190508181036000830152614de281614571565b9050919050565b60006020820190508181036000830152614e0281614594565b9050919050565b60006020820190508181036000830152614e22816145b7565b9050919050565b60006020820190508181036000830152614e42816145da565b9050919050565b60006020820190508181036000830152614e62816145fd565b9050919050565b60006020820190508181036000830152614e8281614620565b9050919050565b60006020820190508181036000830152614ea281614643565b9050919050565b60006020820190508181036000830152614ec281614666565b9050919050565b60006020820190508181036000830152614ee38184614689565b905092915050565b60006020820190508181036000830152614f058184614794565b905092915050565b6000602082019050614f226000830184614918565b92915050565b600061018082019050614f3e600083018f614918565b8181036020830152614f50818e614211565b9050614f5f604083018d614918565b614f6c606083018c614918565b614f79608083018b614918565b614f8660a083018a614918565b614f9360c0830189614918565b614fa060e0830188614918565b614fae610100830187614918565b614fbc610120830186614918565b614fca610140830185614918565b818103610160830152614fdd8184614211565b90509d9c50505050505050505050505050565b60006040820190506150056000830185614918565b6150126020830184614918565b9392505050565b6000615023615034565b905061502f828261536d565b919050565b6000604051905090565b600067ffffffffffffffff821115615059576150586154b9565b5b615062826154e8565b9050602081019050919050565b600067ffffffffffffffff82111561508a576150896154b9565b5b615093826154e8565b9050602081019050919050565b6000819050602082019050919050565b60008190508160005260206000209050919050565b600081519050919050565b600081519050919050565b600081519050919050565b6000602082019050919050565b600082825260208201905092915050565b600082825260208201905092915050565b600082825260208201905092915050565b600082825260208201905092915050565b600081905092915050565b600061514d826152d5565b9150615158836152d5565b9250827fffffffffffffffffffffffffffffffffffffffffffffffffffffffffffffffff0382111561518d5761518c61542c565b5b828201905092915050565b60006151a3826152d5565b91506151ae836152d5565b9250826151be576151bd61545b565b5b828204905092915050565b60006151d4826152d5565b91506151df836152d5565b9250817fffffffffffffffffffffffffffffffffffffffffffffffffffffffffffffffff04831182151516156152185761521761542c565b5b828202905092915050565b600061522e826152d5565b9150615239836152d5565b92508282101561524c5761524b61542c565b5b828203905092915050565b6000819050919050565b600061526c826152b5565b9050919050565b60008115159050919050565b6000819050919050565b60007fffffffff0000000000000000000000000000000000000000000000000000000082169050919050565b600073ffffffffffffffffffffffffffffffffffffffff82169050919050565b6000819050919050565b82818337600083830152505050565b60005b8381101561530c5780820151818401526020810190506152f1565b8381111561531b576000848401525b50505050565b6000600282049050600182168061533957607f821691505b6020821081141561534d5761534c61548a565b5b50919050565b6000615366615361836154f9565b615257565b9050919050565b615376826154e8565b810181811067ffffffffffffffff82111715615395576153946154b9565b5b80604052505050565b60006153a9826152d5565b91507fffffffffffffffffffffffffffffffffffffffffffffffffffffffffffffffff8214156153dc576153db61542c565b5b600182019050919050565b6000819050919050565b6000819050919050565b6000615406826152d5565b9150615411836152d5565b9250826154215761542061545b565b5b828206905092915050565b7f4e487b7100000000000000000000000000000000000000000000000000000000600052601160045260246000fd5b7f4e487b7100000000000000000000000000000000000000000000000000000000600052601260045260246000fd5b7f4e487b7100000000000000000000000000000000000000000000000000000000600052602260045260246000fd5b7f4e487b7100000000000000000000000000000000000000000000000000000000600052604160045260246000fd5b6000601f19601f8301169050919050565b60008160001c9050919050565b7f5455530000000000000000000000000000000000000000000000000000000000600082015250565b7f4552433732313a207472616e7366657220746f206e6f6e20455243373231526560008201527f63656976657220696d706c656d656e7465720000000000000000000000000000602082015250565b7f4f776e61626c653a206e6577206f776e657220697320746865207a65726f206160008201527f6464726573730000000000000000000000000000000000000000000000000000602082015250565b7f4552433732313a20746f6b656e20616c7265616479206d696e74656400000000600082015250565b7f4552433732313a207472616e7366657220746f20746865207a65726f2061646460008201527f7265737300000000000000000000000000000000000000000000000000000000602082015250565b7f4552433732313a20617070726f766520746f2063616c6c657200000000000000600082015250565b7f4552433732313a206f70657261746f7220717565727920666f72206e6f6e657860008201527f697374656e7420746f6b656e0000000000000000000000000000000000000000602082015250565b7f4552433732313a20617070726f76652063616c6c6572206973206e6f74206f7760008201527f6e6572206e6f7220617070726f76656420666f7220616c6c0000000000000000602082015250565b7f4552433732313a2062616c616e636520717565727920666f7220746865207a6560008201527f726f206164647265737300000000000000000000000000000000000000000000602082015250565b7f4552433732313a206f776e657220717565727920666f72206e6f6e657869737460008201527f656e7420746f6b656e0000000000000000000000000000000000000000000000602082015250565b7f45524337323155524953746f726167653a2055524920736574206f66206e6f6e60008201527f6578697374656e7420746f6b656e000000000000000000000000000000000000602082015250565b7f4552433732313a206d696e7420746f20746865207a65726f2061646472657373600082015250565b7f45524337323155524953746f726167653a2055524920717565727920666f722060008201527f6e6f6e6578697374656e7420746f6b656e000000000000000000000000000000602082015250565b7f4552433732313a20617070726f76656420717565727920666f72206e6f6e657860008201527f697374656e7420746f6b656e0000000000000000000000000000000000000000602082015250565b7f4f776e61626c653a2063616c6c6572206973206e6f7420746865206f776e6572600082015250565b7f4145000000000000000000000000000000000000000000000000000000000000600082015250565b7f4552433732313a207472616e73666572206f6620746f6b656e2074686174206960008201527f73206e6f74206f776e0000000000000000000000000000000000000000000000602082015250565b7f4552433732314d657461646174613a2055524920717565727920666f72206e6f60008201527f6e6578697374656e7420746f6b656e0000000000000000000000000000000000602082015250565b7f4f6e6c7920565246436f6f7264696e61746f722063616e2066756c66696c6c00600082015250565b7f434e520000000000000000000000000000000000000000000000000000000000600082015250565b7f4552433732313a20617070726f76616c20746f2063757272656e74206f776e6560008201527f7200000000000000000000000000000000000000000000000000000000000000602082015250565b7f544e4d0000000000000000000000000000000000000000000000000000000000600082015250565b7f4552433732313a207472616e736665722063616c6c6572206973206e6f74206f60008201527f776e6572206e6f7220617070726f766564000000000000000000000000000000602082015250565b7f4d4f000000000000000000000000000000000000000000000000000000000000600082015250565b7f5750000000000000000000000000000000000000000000000000000000000000600082015250565b7f4d4e410000000000000000000000000000000000000000000000000000000000600082015250565b615b4d81615261565b8114615b5857600080fd5b50565b615b6481615273565b8114615b6f57600080fd5b50565b615b7b8161527f565b8114615b8657600080fd5b50565b615b9281615289565b8114615b9d57600080fd5b50565b615ba9816152d5565b8114615bb457600080fd5b5056fea264697066735822122028276162c396e960a3536b0ccd6c968ea3adc0c22f94c0300a2423bd1acb8c4164736f6c63430008040033",
  "linkReferences": {},
  "deployedLinkReferences": {}
}