{
  "_format": "hh-sol-artifact-1",
  "contractName": "NFT",
  "sourceName": "contracts/NFT.sol",
  "abi": [
    {
      "inputs": [
        {
          "internalType": "address",
          "name": "_VRFCoordinator",
          "type": "address"
        },
        {
          "internalType": "address",
          "name": "_linkToken",
          "type": "address"
        },
        {
          "internalType": "bytes32",
          "name": "_keyHash",
          "type": "bytes32"
        },
        {
          "internalType": "uint256",
          "name": "_fee",
          "type": "uint256"
        },
        {
          "internalType": "address",
          "name": "_utilsContract",
          "type": "address"
        }
      ],
      "stateMutability": "nonpayable",
      "type": "constructor"
    },
    {
      "anonymous": false,
      "inputs": [
        {
          "indexed": true,
          "internalType": "address",
          "name": "owner",
          "type": "address"
        },
        {
          "indexed": true,
          "internalType": "address",
          "name": "approved",
          "type": "address"
        },
        {
          "indexed": true,
          "internalType": "uint256",
          "name": "tokenId",
          "type": "uint256"
        }
      ],
      "name": "Approval",
      "type": "event"
    },
    {
      "anonymous": false,
      "inputs": [
        {
          "indexed": true,
          "internalType": "address",
          "name": "owner",
          "type": "address"
        },
        {
          "indexed": true,
          "internalType": "address",
          "name": "operator",
          "type": "address"
        },
        {
          "indexed": false,
          "internalType": "bool",
          "name": "approved",
          "type": "bool"
        }
      ],
      "name": "ApprovalForAll",
      "type": "event"
    },
    {
      "anonymous": false,
      "inputs": [
        {
          "indexed": true,
          "internalType": "uint256",
          "name": "tokenId",
          "type": "uint256"
        },
        {
          "indexed": false,
          "internalType": "string",
          "name": "tokenURL",
          "type": "string"
        }
      ],
      "name": "CreatedNFT",
      "type": "event"
    },
    {
      "anonymous": false,
      "inputs": [
        {
          "indexed": true,
          "internalType": "uint256",
          "name": "tokenId",
          "type": "uint256"
        },
        {
          "indexed": true,
          "internalType": "uint256",
          "name": "randomNumber",
          "type": "uint256"
        }
      ],
      "name": "CreatedUnfinishedRandomSVG",
      "type": "event"
    },
    {
      "anonymous": false,
      "inputs": [
        {
          "indexed": true,
          "internalType": "address",
          "name": "previousOwner",
          "type": "address"
        },
        {
          "indexed": true,
          "internalType": "address",
          "name": "newOwner",
          "type": "address"
        }
      ],
      "name": "OwnershipTransferred",
      "type": "event"
    },
    {
      "anonymous": false,
      "inputs": [
        {
          "indexed": true,
          "internalType": "bytes32",
          "name": "requestId",
          "type": "bytes32"
        },
        {
          "indexed": true,
          "internalType": "uint256",
          "name": "tokenId",
          "type": "uint256"
        }
      ],
      "name": "RequestedRandomSVG",
      "type": "event"
    },
    {
      "anonymous": false,
      "inputs": [
        {
          "indexed": true,
          "internalType": "address",
          "name": "from",
          "type": "address"
        },
        {
          "indexed": true,
          "internalType": "address",
          "name": "to",
          "type": "address"
        },
        {
          "indexed": true,
          "internalType": "uint256",
          "name": "tokenId",
          "type": "uint256"
        }
      ],
      "name": "Transfer",
      "type": "event"
    },
    {
      "anonymous": false,
      "inputs": [
        {
          "indexed": true,
          "internalType": "uint256",
          "name": "tokenId",
          "type": "uint256"
        },
        {
          "indexed": false,
          "internalType": "string",
          "name": "tokenURL",
          "type": "string"
        }
      ],
      "name": "UpdatedNFT",
      "type": "event"
    },
    {
      "inputs": [
        {
          "internalType": "uint256",
          "name": "_tokenId",
          "type": "uint256"
        }
      ],
      "name": "_BURN",
      "outputs": [],
      "stateMutability": "nonpayable",
      "type": "function"
    },
    {
      "inputs": [
        {
          "internalType": "address",
          "name": "to",
          "type": "address"
        },
        {
          "internalType": "uint256",
          "name": "tokenId",
          "type": "uint256"
        }
      ],
      "name": "approve",
      "outputs": [],
      "stateMutability": "nonpayable",
      "type": "function"
    },
    {
      "inputs": [
        {
          "internalType": "address",
          "name": "owner",
          "type": "address"
        }
      ],
      "name": "balanceOf",
      "outputs": [
        {
          "internalType": "uint256",
          "name": "",
          "type": "uint256"
        }
      ],
      "stateMutability": "view",
      "type": "function"
    },
    {
      "inputs": [],
      "name": "create",
      "outputs": [
        {
          "internalType": "bytes32",
          "name": "requestId",
          "type": "bytes32"
        }
      ],
      "stateMutability": "payable",
      "type": "function"
    },
    {
      "inputs": [],
      "name": "fee",
      "outputs": [
        {
          "internalType": "uint256",
          "name": "",
          "type": "uint256"
        }
      ],
      "stateMutability": "view",
      "type": "function"
    },
    {
      "inputs": [
        {
          "internalType": "uint256",
          "name": "_tokenId",
          "type": "uint256"
        },
        {
          "internalType": "string",
          "name": "_name",
          "type": "string"
        }
      ],
      "name": "finishMint",
      "outputs": [],
      "stateMutability": "nonpayable",
      "type": "function"
    },
    {
      "inputs": [
        {
          "internalType": "uint256",
          "name": "tokenId",
          "type": "uint256"
        }
      ],
      "name": "getApproved",
      "outputs": [
        {
          "internalType": "address",
          "name": "",
          "type": "address"
        }
      ],
      "stateMutability": "view",
      "type": "function"
    },
    {
      "inputs": [
        {
          "internalType": "uint256",
          "name": "_tokenId",
          "type": "uint256"
        }
      ],
      "name": "getFighterById",
      "outputs": [
        {
          "components": [
            {
              "internalType": "uint256",
              "name": "tokenId",
              "type": "uint256"
            },
            {
              "internalType": "string",
              "name": "name",
              "type": "string"
            },
            {
              "internalType": "uint256",
              "name": "level",
              "type": "uint256"
            },
            {
              "internalType": "uint256",
              "name": "wins",
              "type": "uint256"
            },
            {
              "internalType": "uint256",
              "name": "hp",
              "type": "uint256"
            },
            {
              "internalType": "uint256",
              "name": "strength",
              "type": "uint256"
            },
            {
              "internalType": "uint256",
              "name": "dexterity",
              "type": "uint256"
            },
            {
              "internalType": "uint256",
              "name": "agility",
              "type": "uint256"
            },
            {
              "internalType": "uint256",
              "name": "intelligence",
              "type": "uint256"
            },
            {
              "internalType": "uint256",
              "name": "durability",
              "type": "uint256"
            },
            {
              "internalType": "uint256",
              "name": "location",
              "type": "uint256"
            },
            {
              "internalType": "string",
              "name": "fighterType",
              "type": "string"
            }
          ],
          "internalType": "struct lib.Fighter",
          "name": "_fighter",
          "type": "tuple"
        }
      ],
      "stateMutability": "view",
      "type": "function"
    },
    {
      "inputs": [
        {
          "internalType": "address",
          "name": "owner",
          "type": "address"
        },
        {
          "internalType": "address",
          "name": "operator",
          "type": "address"
        }
      ],
      "name": "isApprovedForAll",
      "outputs": [
        {
          "internalType": "bool",
          "name": "",
          "type": "bool"
        }
      ],
      "stateMutability": "view",
      "type": "function"
    },
    {
      "inputs": [],
      "name": "keyHash",
      "outputs": [
        {
          "internalType": "bytes32",
          "name": "",
          "type": "bytes32"
        }
      ],
      "stateMutability": "view",
      "type": "function"
    },
    {
      "inputs": [],
      "name": "name",
      "outputs": [
        {
          "internalType": "string",
          "name": "",
          "type": "string"
        }
      ],
      "stateMutability": "view",
      "type": "function"
    },
    {
      "inputs": [],
      "name": "owner",
      "outputs": [
        {
          "internalType": "address",
          "name": "",
          "type": "address"
        }
      ],
      "stateMutability": "view",
      "type": "function"
    },
    {
      "inputs": [
        {
          "internalType": "uint256",
          "name": "tokenId",
          "type": "uint256"
        }
      ],
      "name": "ownerOf",
      "outputs": [
        {
          "internalType": "address",
          "name": "",
          "type": "address"
        }
      ],
      "stateMutability": "view",
      "type": "function"
    },
    {
      "inputs": [
        {
          "internalType": "bytes32",
          "name": "requestId",
          "type": "bytes32"
        },
        {
          "internalType": "uint256",
          "name": "randomness",
          "type": "uint256"
        }
      ],
      "name": "rawFulfillRandomness",
      "outputs": [],
      "stateMutability": "nonpayable",
      "type": "function"
    },
    {
      "inputs": [],
      "name": "renounceOwnership",
      "outputs": [],
      "stateMutability": "nonpayable",
      "type": "function"
    },
    {
      "inputs": [
        {
          "internalType": "address",
          "name": "from",
          "type": "address"
        },
        {
          "internalType": "address",
          "name": "to",
          "type": "address"
        },
        {
          "internalType": "uint256",
          "name": "tokenId",
          "type": "uint256"
        }
      ],
      "name": "safeTransferFrom",
      "outputs": [],
      "stateMutability": "nonpayable",
      "type": "function"
    },
    {
      "inputs": [
        {
          "internalType": "address",
          "name": "from",
          "type": "address"
        },
        {
          "internalType": "address",
          "name": "to",
          "type": "address"
        },
        {
          "internalType": "uint256",
          "name": "tokenId",
          "type": "uint256"
        },
        {
          "internalType": "bytes",
          "name": "_data",
          "type": "bytes"
        }
      ],
      "name": "safeTransferFrom",
      "outputs": [],
      "stateMutability": "nonpayable",
      "type": "function"
    },
    {
      "inputs": [
        {
          "internalType": "address",
          "name": "operator",
          "type": "address"
        },
        {
          "internalType": "bool",
          "name": "approved",
          "type": "bool"
        }
      ],
      "name": "setApprovalForAll",
      "outputs": [],
      "stateMutability": "nonpayable",
      "type": "function"
    },
    {
      "inputs": [
        {
          "internalType": "address",
          "name": "_newFightingContract",
          "type": "address"
        }
      ],
      "name": "setFightingContract",
      "outputs": [],
      "stateMutability": "nonpayable",
      "type": "function"
    },
    {
      "inputs": [
        {
          "internalType": "address",
          "name": "_newTrainingContract",
          "type": "address"
        }
      ],
      "name": "setTrainingContract",
      "outputs": [],
      "stateMutability": "nonpayable",
      "type": "function"
    },
    {
      "inputs": [
        {
          "internalType": "address",
          "name": "_newUtilsContract",
          "type": "address"
        }
      ],
      "name": "setUtilsContract",
      "outputs": [],
      "stateMutability": "nonpayable",
      "type": "function"
    },
    {
      "inputs": [
        {
          "internalType": "bytes4",
          "name": "interfaceId",
          "type": "bytes4"
        }
      ],
      "name": "supportsInterface",
      "outputs": [
        {
          "internalType": "bool",
          "name": "",
          "type": "bool"
        }
      ],
      "stateMutability": "view",
      "type": "function"
    },
    {
      "inputs": [],
      "name": "symbol",
      "outputs": [
        {
          "internalType": "string",
          "name": "",
          "type": "string"
        }
      ],
      "stateMutability": "view",
      "type": "function"
    },
    {
      "inputs": [],
      "name": "tokenCounter",
      "outputs": [
        {
          "internalType": "uint256",
          "name": "",
          "type": "uint256"
        }
      ],
      "stateMutability": "view",
      "type": "function"
    },
    {
      "inputs": [
        {
          "internalType": "uint256",
          "name": "",
          "type": "uint256"
        }
      ],
      "name": "tokenIdToFighter",
      "outputs": [
        {
          "internalType": "uint256",
          "name": "tokenId",
          "type": "uint256"
        },
        {
          "internalType": "string",
          "name": "name",
          "type": "string"
        },
        {
          "internalType": "uint256",
          "name": "level",
          "type": "uint256"
        },
        {
          "internalType": "uint256",
          "name": "wins",
          "type": "uint256"
        },
        {
          "internalType": "uint256",
          "name": "hp",
          "type": "uint256"
        },
        {
          "internalType": "uint256",
          "name": "strength",
          "type": "uint256"
        },
        {
          "internalType": "uint256",
          "name": "dexterity",
          "type": "uint256"
        },
        {
          "internalType": "uint256",
          "name": "agility",
          "type": "uint256"
        },
        {
          "internalType": "uint256",
          "name": "intelligence",
          "type": "uint256"
        },
        {
          "internalType": "uint256",
          "name": "durability",
          "type": "uint256"
        },
        {
          "internalType": "uint256",
          "name": "location",
          "type": "uint256"
        },
        {
          "internalType": "string",
          "name": "fighterType",
          "type": "string"
        }
      ],
      "stateMutability": "view",
      "type": "function"
    },
    {
      "inputs": [
        {
          "internalType": "uint256",
          "name": "tokenId",
          "type": "uint256"
        }
      ],
      "name": "tokenURI",
      "outputs": [
        {
          "internalType": "string",
          "name": "",
          "type": "string"
        }
      ],
      "stateMutability": "view",
      "type": "function"
    },
    {
      "inputs": [
        {
          "internalType": "address",
          "name": "_owner",
          "type": "address"
        }
      ],
      "name": "tokensOfOwner",
      "outputs": [
        {
          "internalType": "uint256[]",
          "name": "ownerTokens",
          "type": "uint256[]"
        }
      ],
      "stateMutability": "view",
      "type": "function"
    },
    {
      "inputs": [],
      "name": "totalSupply",
      "outputs": [
        {
          "internalType": "uint256",
          "name": "",
          "type": "uint256"
        }
      ],
      "stateMutability": "view",
      "type": "function"
    },
    {
      "inputs": [
        {
          "internalType": "address",
          "name": "from",
          "type": "address"
        },
        {
          "internalType": "address",
          "name": "to",
          "type": "address"
        },
        {
          "internalType": "uint256",
          "name": "tokenId",
          "type": "uint256"
        }
      ],
      "name": "transferFrom",
      "outputs": [],
      "stateMutability": "nonpayable",
      "type": "function"
    },
    {
      "inputs": [
        {
          "internalType": "address",
          "name": "newOwner",
          "type": "address"
        }
      ],
      "name": "transferOwnership",
      "outputs": [],
      "stateMutability": "nonpayable",
      "type": "function"
    },
    {
      "inputs": [
        {
          "internalType": "uint256",
          "name": "_tokenId",
          "type": "uint256"
        },
        {
          "components": [
            {
              "internalType": "uint256",
              "name": "tokenId",
              "type": "uint256"
            },
            {
              "internalType": "string",
              "name": "name",
              "type": "string"
            },
            {
              "internalType": "uint256",
              "name": "level",
              "type": "uint256"
            },
            {
              "internalType": "uint256",
              "name": "wins",
              "type": "uint256"
            },
            {
              "internalType": "uint256",
              "name": "hp",
              "type": "uint256"
            },
            {
              "internalType": "uint256",
              "name": "strength",
              "type": "uint256"
            },
            {
              "internalType": "uint256",
              "name": "dexterity",
              "type": "uint256"
            },
            {
              "internalType": "uint256",
              "name": "agility",
              "type": "uint256"
            },
            {
              "internalType": "uint256",
              "name": "intelligence",
              "type": "uint256"
            },
            {
              "internalType": "uint256",
              "name": "durability",
              "type": "uint256"
            },
            {
              "internalType": "uint256",
              "name": "location",
              "type": "uint256"
            },
            {
              "internalType": "string",
              "name": "fighterType",
              "type": "string"
            }
          ],
          "internalType": "struct lib.Fighter",
          "name": "_fighter",
          "type": "tuple"
        }
      ],
      "name": "updateFighter",
      "outputs": [],
      "stateMutability": "nonpayable",
      "type": "function"
    }
  ],
  "bytecode": "0x60c060405260405180608001604052806040518060400160405280600681526020017f4b6e69676874000000000000000000000000000000000000000000000000000081525081526020016040518060400160405280600681526020017f56696b696e67000000000000000000000000000000000000000000000000000081525081526020016040518060400160405280600681526020017f556e64656164000000000000000000000000000000000000000000000000000081525081526020016040518060400160405280600581526020017f44656d6f6e00000000000000000000000000000000000000000000000000000081525081525060119060046200010b929190620003d3565b503480156200011957600080fd5b506040516200622e3803806200622e83398181016040528101906200013f91906200059d565b84846040518060400160405280600981526020017f546f6b656e5261676500000000000000000000000000000000000000000000008152506040518060400160405280600481526020017f52414745000000000000000000000000000000000000000000000000000000008152508160009080519060200190620001c59291906200043a565b508060019080519060200190620001de9291906200043a565b50505062000201620001f56200030560201b60201c565b6200030d60201b60201c565b8173ffffffffffffffffffffffffffffffffffffffff1660a08173ffffffffffffffffffffffffffffffffffffffff1660601b815250508073ffffffffffffffffffffffffffffffffffffffff1660808173ffffffffffffffffffffffffffffffffffffffff1660601b81525050505081600a8190555082600b8190555080600c60006101000a81548173ffffffffffffffffffffffffffffffffffffffff021916908373ffffffffffffffffffffffffffffffffffffffff1602179055506001600981905550662386f26fc10000600f819055506127106010819055506000601260006101000a81548160ff02191690831515021790555050505050506200071a565b600033905090565b6000600760009054906101000a900473ffffffffffffffffffffffffffffffffffffffff16905081600760006101000a81548173ffffffffffffffffffffffffffffffffffffffff021916908373ffffffffffffffffffffffffffffffffffffffff1602179055508173ffffffffffffffffffffffffffffffffffffffff168173ffffffffffffffffffffffffffffffffffffffff167f8be0079c531659141344cd1fd0a4f28419497f9722a3daafe3b4186f6b6457e060405160405180910390a35050565b82805482825590600052602060002090810192821562000427579160200282015b8281111562000426578251829080519060200190620004159291906200043a565b5091602001919060010190620003f4565b5b509050620004369190620004cb565b5090565b828054620004489062000667565b90600052602060002090601f0160209004810192826200046c5760008555620004b8565b82601f106200048757805160ff1916838001178555620004b8565b82800160010185558215620004b8579182015b82811115620004b75782518255916020019190600101906200049a565b5b509050620004c79190620004f3565b5090565b5b80821115620004ef5760008181620004e5919062000512565b50600101620004cc565b5090565b5b808211156200050e576000816000905550600101620004f4565b5090565b508054620005209062000667565b6000825580601f1062000534575062000555565b601f016020900490600052602060002090810190620005549190620004f3565b5b50565b6000815190506200056981620006cc565b92915050565b6000815190506200058081620006e6565b92915050565b600081519050620005978162000700565b92915050565b600080600080600060a08688031215620005b657600080fd5b6000620005c68882890162000558565b9550506020620005d98882890162000558565b9450506040620005ec888289016200056f565b9350506060620005ff8882890162000586565b9250506080620006128882890162000558565b9150509295509295909350565b60006200062c826200063d565b9050919050565b6000819050919050565b600073ffffffffffffffffffffffffffffffffffffffff82169050919050565b6000819050919050565b600060028204905060018216806200068057607f821691505b602082108114156200069757620006966200069d565b5b50919050565b7f4e487b7100000000000000000000000000000000000000000000000000000000600052602260045260246000fd5b620006d7816200061f565b8114620006e357600080fd5b50565b620006f18162000633565b8114620006fd57600080fd5b50565b6200070b816200065d565b81146200071757600080fd5b50565b60805160601c60a05160601c615ae16200074d60003960008181611a000152612e9101526000612e550152615ae16000f3fe6080604052600436106101d85760003560e01c8063715018a611610102578063b88d4fde11610095578063ddca3f4311610064578063ddca3f43146106d5578063e985e9c514610700578063efc81a8c1461073d578063f2fde38b1461075b576101d8565b8063b88d4fde1461061b578063bb2ac40c14610644578063c87b56dd1461066d578063d082e381146106aa576101d8565b806394985ddd116100d157806394985ddd1461057557806395d89b411461059e578063a22cb465146105c9578063a87bcb26146105f2576101d8565b8063715018a6146104cd578063716fee4f146104e45780638462151c1461050d5780638da5cb5b1461054a576101d8565b8063317276581161017a57806348cb16421161014957806348cb1642146103ff57806361728f39146104285780636352211e1461045357806370a0823114610490576101d8565b80633172765814610347578063368dc9f21461037057806341e3e872146103ad57806342842e0e146103d6576101d8565b8063095ea7b3116101b6578063095ea7b31461028257806318160ddd146102ab57806323b872dd146102d65780632bbce2d1146102ff576101d8565b806301ffc9a7146101dd57806306fdde031461021a578063081812fc14610245575b600080fd5b3480156101e957600080fd5b5061020460048036038101906101ff9190613e75565b610784565b6040516102119190614949565b60405180910390f35b34801561022657600080fd5b5061022f610866565b60405161023c91906149ed565b60405180910390f35b34801561025157600080fd5b5061026c60048036038101906102679190613f08565b6108f8565b6040516102799190614882565b60405180910390f35b34801561028e57600080fd5b506102a960048036038101906102a49190613dd4565b61097d565b005b3480156102b757600080fd5b506102c0610a95565b6040516102cd9190614e01565b60405180910390f35b3480156102e257600080fd5b506102fd60048036038101906102f89190613cce565b610aab565b005b34801561030b57600080fd5b5061032660048036038101906103219190613f08565b610b0b565b60405161033e9c9b9a99989796959493929190614e1c565b60405180910390f35b34801561035357600080fd5b5061036e60048036038101906103699190613c69565b610c7b565b005b34801561037c57600080fd5b5061039760048036038101906103929190613f08565b610d3b565b6040516103a49190614dbd565b60405180910390f35b3480156103b957600080fd5b506103d460048036038101906103cf9190613f31565b610ef1565b005b3480156103e257600080fd5b506103fd60048036038101906103f89190613cce565b6111d2565b005b34801561040b57600080fd5b5061042660048036038101906104219190613c69565b6111f2565b005b34801561043457600080fd5b5061043d6112b2565b60405161044a9190614964565b60405180910390f35b34801561045f57600080fd5b5061047a60048036038101906104759190613f08565b6112b8565b6040516104879190614882565b60405180910390f35b34801561049c57600080fd5b506104b760048036038101906104b29190613c69565b61136a565b6040516104c49190614e01565b60405180910390f35b3480156104d957600080fd5b506104e2611422565b005b3480156104f057600080fd5b5061050b60048036038101906105069190613f85565b6114aa565b005b34801561051957600080fd5b50610534600480360381019061052f9190613c69565b6117fd565b6040516105419190614927565b60405180910390f35b34801561055657600080fd5b5061055f6119d4565b60405161056c9190614882565b60405180910390f35b34801561058157600080fd5b5061059c60048036038101906105979190613e39565b6119fe565b005b3480156105aa57600080fd5b506105b3611a9a565b6040516105c091906149ed565b60405180910390f35b3480156105d557600080fd5b506105f060048036038101906105eb9190613d98565b611b2c565b005b3480156105fe57600080fd5b5061061960048036038101906106149190613f08565b611cad565b005b34801561062757600080fd5b50610642600480360381019061063d9190613d1d565b611d49565b005b34801561065057600080fd5b5061066b60048036038101906106669190613c69565b611dab565b005b34801561067957600080fd5b50610694600480360381019061068f9190613f08565b611e6b565b6040516106a191906149ed565b60405180910390f35b3480156106b657600080fd5b506106bf611fbd565b6040516106cc9190614e01565b60405180910390f35b3480156106e157600080fd5b506106ea611fc3565b6040516106f79190614e01565b60405180910390f35b34801561070c57600080fd5b5061072760048036038101906107229190613c92565b611fc9565b6040516107349190614949565b60405180910390f35b61074561205d565b6040516107529190614964565b60405180910390f35b34801561076757600080fd5b50610782600480360381019061077d9190613c69565b6121c0565b005b60007f80ac58cd000000000000000000000000000000000000000000000000000000007bffffffffffffffffffffffffffffffffffffffffffffffffffffffff1916827bffffffffffffffffffffffffffffffffffffffffffffffffffffffff1916148061084f57507f5b5e139f000000000000000000000000000000000000000000000000000000007bffffffffffffffffffffffffffffffffffffffffffffffffffffffff1916827bffffffffffffffffffffffffffffffffffffffffffffffffffffffff1916145b8061085f575061085e826122b8565b5b9050919050565b60606000805461087590615215565b80601f01602080910402602001604051908101604052809291908181526020018280546108a190615215565b80156108ee5780601f106108c3576101008083540402835291602001916108ee565b820191906000526020600020905b8154815290600101906020018083116108d157829003601f168201915b5050505050905090565b600061090382612322565b610942576040517f08c379a000000000000000000000000000000000000000000000000000000000815260040161093990614c1d565b60405180910390fd5b6004600083815260200190815260200160002060009054906101000a900473ffffffffffffffffffffffffffffffffffffffff169050919050565b6000610988826112b8565b90508073ffffffffffffffffffffffffffffffffffffffff168373ffffffffffffffffffffffffffffffffffffffff1614156109f9576040517f08c379a00000000000000000000000000000000000000000000000000000000081526004016109f090614cfd565b60405180910390fd5b8073ffffffffffffffffffffffffffffffffffffffff16610a1861238e565b73ffffffffffffffffffffffffffffffffffffffff161480610a475750610a4681610a4161238e565b611fc9565b5b610a86576040517f08c379a0000000000000000000000000000000000000000000000000000000008152600401610a7d90614b5d565b60405180910390fd5b610a908383612396565b505050565b60006001600954610aa69190615117565b905090565b610abc610ab661238e565b8261244f565b610afb576040517f08c379a0000000000000000000000000000000000000000000000000000000008152600401610af290614d5d565b60405180910390fd5b610b0683838361252d565b505050565b6013602052806000526040600020600091509050806000015490806001018054610b3490615215565b80601f0160208091040260200160405190810160405280929190818152602001828054610b6090615215565b8015610bad5780601f10610b8257610100808354040283529160200191610bad565b820191906000526020600020905b815481529060010190602001808311610b9057829003601f168201915b50505050509080600201549080600301549080600401549080600501549080600601549080600701549080600801549080600901549080600a01549080600b018054610bf890615215565b80601f0160208091040260200160405190810160405280929190818152602001828054610c2490615215565b8015610c715780601f10610c4657610100808354040283529160200191610c71565b820191906000526020600020905b815481529060010190602001808311610c5457829003601f168201915b505050505090508c565b610c8361238e565b73ffffffffffffffffffffffffffffffffffffffff16610ca16119d4565b73ffffffffffffffffffffffffffffffffffffffff1614610cf7576040517f08c379a0000000000000000000000000000000000000000000000000000000008152600401610cee90614c3d565b60405180910390fd5b80600c60006101000a81548173ffffffffffffffffffffffffffffffffffffffff021916908373ffffffffffffffffffffffffffffffffffffffff16021790555050565b610d4361380c565b601360008381526020019081526020016000206040518061018001604052908160008201548152602001600182018054610d7c90615215565b80601f0160208091040260200160405190810160405280929190818152602001828054610da890615215565b8015610df55780601f10610dca57610100808354040283529160200191610df5565b820191906000526020600020905b815481529060010190602001808311610dd857829003601f168201915b505050505081526020016002820154815260200160038201548152602001600482015481526020016005820154815260200160068201548152602001600782015481526020016008820154815260200160098201548152602001600a8201548152602001600b82018054610e6890615215565b80601f0160208091040260200160405190810160405280929190818152602001828054610e9490615215565b8015610ee15780601f10610eb657610100808354040283529160200191610ee1565b820191906000526020600020905b815481529060010190602001808311610ec457829003601f168201915b5050505050815250509050919050565b6000610efc83611e6b565b511115610f3e576040517f08c379a0000000000000000000000000000000000000000000000000000000008152600401610f3590614a7d565b60405180910390fd5b8160095411610f82576040517f08c379a0000000000000000000000000000000000000000000000000000000008152600401610f7990614d1d565b60405180910390fd5b6000601660008481526020019081526020016000205411610fd8576040517f08c379a0000000000000000000000000000000000000000000000000000000008152600401610fcf90614cdd565b60405180910390fd5b600060166000848152602001908152602001600020549050610ffb838284612789565b6000600c60009054906101000a900473ffffffffffffffffffffffffffffffffffffffff1673ffffffffffffffffffffffffffffffffffffffff1663f2db2170601360008781526020019081526020016000206040518263ffffffff1660e01b815260040161106a9190614ddf565b60006040518083038186803b15801561108257600080fd5b505afa158015611096573d6000803e3d6000fd5b505050506040513d6000823e3d601f19601f820116820180604052508101906110bf9190613ec7565b90506000600c60009054906101000a900473ffffffffffffffffffffffffffffffffffffffff1673ffffffffffffffffffffffffffffffffffffffff1663a62a2fa783601360008981526020019081526020016000206040518363ffffffff1660e01b8152600401611132929190614a46565b60006040518083038186803b15801561114a57600080fd5b505afa15801561115e573d6000803e3d6000fd5b505050506040513d6000823e3d601f19601f820116820180604052508101906111879190613ec7565b90506111938582612b04565b847fb5a8d8cf5d01b5006e471421ba7da032446e2a82412342ed548b7aeed0ea9b69826040516111c391906149ed565b60405180910390a25050505050565b6111ed83838360405180602001604052806000815250611d49565b505050565b6111fa61238e565b73ffffffffffffffffffffffffffffffffffffffff166112186119d4565b73ffffffffffffffffffffffffffffffffffffffff161461126e576040517f08c379a000000000000000000000000000000000000000000000000000000000815260040161126590614c3d565b60405180910390fd5b80600d60006101000a81548173ffffffffffffffffffffffffffffffffffffffff021916908373ffffffffffffffffffffffffffffffffffffffff16021790555050565b600b5481565b6000806002600084815260200190815260200160002060009054906101000a900473ffffffffffffffffffffffffffffffffffffffff169050600073ffffffffffffffffffffffffffffffffffffffff168173ffffffffffffffffffffffffffffffffffffffff161415611361576040517f08c379a000000000000000000000000000000000000000000000000000000000815260040161135890614b9d565b60405180910390fd5b80915050919050565b60008073ffffffffffffffffffffffffffffffffffffffff168273ffffffffffffffffffffffffffffffffffffffff1614156113db576040517f08c379a00000000000000000000000000000000000000000000000000000000081526004016113d290614b7d565b60405180910390fd5b600360008373ffffffffffffffffffffffffffffffffffffffff1673ffffffffffffffffffffffffffffffffffffffff168152602001908152602001600020549050919050565b61142a61238e565b73ffffffffffffffffffffffffffffffffffffffff166114486119d4565b73ffffffffffffffffffffffffffffffffffffffff161461149e576040517f08c379a000000000000000000000000000000000000000000000000000000000815260040161149590614c3d565b60405180910390fd5b6114a86000612b78565b565b600d60009054906101000a900473ffffffffffffffffffffffffffffffffffffffff1673ffffffffffffffffffffffffffffffffffffffff163373ffffffffffffffffffffffffffffffffffffffff1614806115535750600e60009054906101000a900473ffffffffffffffffffffffffffffffffffffffff1673ffffffffffffffffffffffffffffffffffffffff163373ffffffffffffffffffffffffffffffffffffffff16145b611592576040517f08c379a000000000000000000000000000000000000000000000000000000000815260040161158990614c5d565b60405180910390fd5b80601360008481526020019081526020016000206000820151816000015560208201518160010190805190602001906115cc92919061386d565b5060408201518160020155606082015181600301556080820151816004015560a0820151816005015560c0820151816006015560e082015181600701556101008201518160080155610120820151816009015561014082015181600a015561016082015181600b01908051906020019061164792919061386d565b509050506000600c60009054906101000a900473ffffffffffffffffffffffffffffffffffffffff1673ffffffffffffffffffffffffffffffffffffffff1663f2db2170836040518263ffffffff1660e01b81526004016116a89190614dbd565b60006040518083038186803b1580156116c057600080fd5b505afa1580156116d4573d6000803e3d6000fd5b505050506040513d6000823e3d601f19601f820116820180604052508101906116fd9190613ec7565b90506000600c60009054906101000a900473ffffffffffffffffffffffffffffffffffffffff1673ffffffffffffffffffffffffffffffffffffffff1663a62a2fa783856040518363ffffffff1660e01b815260040161175e929190614a0f565b60006040518083038186803b15801561177657600080fd5b505afa15801561178a573d6000803e3d6000fd5b505050506040513d6000823e3d601f19601f820116820180604052508101906117b39190613ec7565b90506117bf8482612b04565b837f8088b75520f63d2193a6f5015badbc4cc953e620977a8c91f11b4227043fcb38826040516117ef91906149ed565b60405180910390a250505050565b6060600061180a8361136a565b9050600081141561188d57600067ffffffffffffffff811115611856577f4e487b7100000000000000000000000000000000000000000000000000000000600052604160045260246000fd5b6040519080825280602002602001820160405280156118845781602001602082028036833780820191505090505b509150506119cf565b60008167ffffffffffffffff8111156118cf577f4e487b7100000000000000000000000000000000000000000000000000000000600052604160045260246000fd5b6040519080825280602002602001820160405280156118fd5781602001602082028036833780820191505090505b509050600080600190505b6009548110156119c75761191b81612322565b801561195a57508573ffffffffffffffffffffffffffffffffffffffff16611942826112b8565b73ffffffffffffffffffffffffffffffffffffffff16145b156119b45780838381518110611999577f4e487b7100000000000000000000000000000000000000000000000000000000600052603260045260246000fd5b60200260200101818152505081806119b090615292565b9250505b80806119bf90615292565b915050611908565b829450505050505b919050565b6000600760009054906101000a900473ffffffffffffffffffffffffffffffffffffffff16905090565b7f000000000000000000000000000000000000000000000000000000000000000073ffffffffffffffffffffffffffffffffffffffff163373ffffffffffffffffffffffffffffffffffffffff1614611a8c576040517f08c379a0000000000000000000000000000000000000000000000000000000008152600401611a8390614cbd565b60405180910390fd5b611a968282612c3e565b5050565b606060018054611aa990615215565b80601f0160208091040260200160405190810160405280929190818152602001828054611ad590615215565b8015611b225780601f10611af757610100808354040283529160200191611b22565b820191906000526020600020905b815481529060010190602001808311611b0557829003601f168201915b5050505050905090565b611b3461238e565b73ffffffffffffffffffffffffffffffffffffffff168273ffffffffffffffffffffffffffffffffffffffff161415611ba2576040517f08c379a0000000000000000000000000000000000000000000000000000000008152600401611b9990614b1d565b60405180910390fd5b8060056000611baf61238e565b73ffffffffffffffffffffffffffffffffffffffff1673ffffffffffffffffffffffffffffffffffffffff16815260200190815260200160002060008473ffffffffffffffffffffffffffffffffffffffff1673ffffffffffffffffffffffffffffffffffffffff16815260200190815260200160002060006101000a81548160ff0219169083151502179055508173ffffffffffffffffffffffffffffffffffffffff16611c5c61238e565b73ffffffffffffffffffffffffffffffffffffffff167f17307eab39ab6107e8899845ad3d59bd9653f200f220920489ca2b5937696c3183604051611ca19190614949565b60405180910390a35050565b600e60009054906101000a900473ffffffffffffffffffffffffffffffffffffffff1673ffffffffffffffffffffffffffffffffffffffff163373ffffffffffffffffffffffffffffffffffffffff1614611d3d576040517f08c379a0000000000000000000000000000000000000000000000000000000008152600401611d3490614d3d565b60405180910390fd5b611d4681612ce4565b50565b611d5a611d5461238e565b8361244f565b611d99576040517f08c379a0000000000000000000000000000000000000000000000000000000008152600401611d9090614d5d565b60405180910390fd5b611da584848484612d37565b50505050565b611db361238e565b73ffffffffffffffffffffffffffffffffffffffff16611dd16119d4565b73ffffffffffffffffffffffffffffffffffffffff1614611e27576040517f08c379a0000000000000000000000000000000000000000000000000000000008152600401611e1e90614c3d565b60405180910390fd5b80600e60006101000a81548173ffffffffffffffffffffffffffffffffffffffff021916908373ffffffffffffffffffffffffffffffffffffffff16021790555050565b6060611e7682612322565b611eb5576040517f08c379a0000000000000000000000000000000000000000000000000000000008152600401611eac90614bfd565b60405180910390fd5b6000600660008481526020019081526020016000208054611ed590615215565b80601f0160208091040260200160405190810160405280929190818152602001828054611f0190615215565b8015611f4e5780601f10611f2357610100808354040283529160200191611f4e565b820191906000526020600020905b815481529060010190602001808311611f3157829003601f168201915b505050505090506000611f5f612d93565b9050600081511415611f75578192505050611fb8565b600082511115611faa578082604051602001611f9292919061485e565b60405160208183030381529060405292505050611fb8565b611fb384612daa565b925050505b919050565b60095481565b600a5481565b6000600560008473ffffffffffffffffffffffffffffffffffffffff1673ffffffffffffffffffffffffffffffffffffffff16815260200190815260200160002060008373ffffffffffffffffffffffffffffffffffffffff1673ffffffffffffffffffffffffffffffffffffffff16815260200190815260200160002060009054906101000a900460ff16905092915050565b6000601260009054906101000a900460ff16156120af576040517f08c379a00000000000000000000000000000000000000000000000000000000081526004016120a690614d9d565b60405180910390fd5b601054600954106120f5576040517f08c379a00000000000000000000000000000000000000000000000000000000081526004016120ec90614d7d565b60405180910390fd5b612103600b54600a54612e51565b9050336014600083815260200190815260200160002060006101000a81548173ffffffffffffffffffffffffffffffffffffffff021916908373ffffffffffffffffffffffffffffffffffffffff160217905550600060095490508060156000848152602001908152602001600020819055506009600081548092919061218990615292565b919050555080827fd18cd6f82baac9078af064ea020dd3dc7bff649bd8d50684f972d5995fec6e6960405160405180910390a35090565b6121c861238e565b73ffffffffffffffffffffffffffffffffffffffff166121e66119d4565b73ffffffffffffffffffffffffffffffffffffffff161461223c576040517f08c379a000000000000000000000000000000000000000000000000000000000815260040161223390614c3d565b60405180910390fd5b600073ffffffffffffffffffffffffffffffffffffffff168173ffffffffffffffffffffffffffffffffffffffff1614156122ac576040517f08c379a00000000000000000000000000000000000000000000000000000000081526004016122a390614abd565b60405180910390fd5b6122b581612b78565b50565b60007f01ffc9a7000000000000000000000000000000000000000000000000000000007bffffffffffffffffffffffffffffffffffffffffffffffffffffffff1916827bffffffffffffffffffffffffffffffffffffffffffffffffffffffff1916149050919050565b60008073ffffffffffffffffffffffffffffffffffffffff166002600084815260200190815260200160002060009054906101000a900473ffffffffffffffffffffffffffffffffffffffff1673ffffffffffffffffffffffffffffffffffffffff1614159050919050565b600033905090565b816004600083815260200190815260200160002060006101000a81548173ffffffffffffffffffffffffffffffffffffffff021916908373ffffffffffffffffffffffffffffffffffffffff160217905550808273ffffffffffffffffffffffffffffffffffffffff16612409836112b8565b73ffffffffffffffffffffffffffffffffffffffff167f8c5be1e5ebec7d5bd14f71427d1e84f3dd0314c0f7b2291e5b200ac8c7c3b92560405160405180910390a45050565b600061245a82612322565b612499576040517f08c379a000000000000000000000000000000000000000000000000000000000815260040161249090614b3d565b60405180910390fd5b60006124a4836112b8565b90508073ffffffffffffffffffffffffffffffffffffffff168473ffffffffffffffffffffffffffffffffffffffff16148061251357508373ffffffffffffffffffffffffffffffffffffffff166124fb846108f8565b73ffffffffffffffffffffffffffffffffffffffff16145b8061252457506125238185611fc9565b5b91505092915050565b8273ffffffffffffffffffffffffffffffffffffffff1661254d826112b8565b73ffffffffffffffffffffffffffffffffffffffff16146125a3576040517f08c379a000000000000000000000000000000000000000000000000000000000815260040161259a90614c7d565b60405180910390fd5b600073ffffffffffffffffffffffffffffffffffffffff168273ffffffffffffffffffffffffffffffffffffffff161415612613576040517f08c379a000000000000000000000000000000000000000000000000000000000815260040161260a90614afd565b60405180910390fd5b61261e838383612fb3565b612629600082612396565b6001600360008573ffffffffffffffffffffffffffffffffffffffff1673ffffffffffffffffffffffffffffffffffffffff16815260200190815260200160002060008282546126799190615117565b925050819055506001600360008473ffffffffffffffffffffffffffffffffffffffff1673ffffffffffffffffffffffffffffffffffffffff16815260200190815260200160002060008282546126d09190615036565b92505081905550816002600083815260200190815260200160002060006101000a81548173ffffffffffffffffffffffffffffffffffffffff021916908373ffffffffffffffffffffffffffffffffffffffff160217905550808273ffffffffffffffffffffffffffffffffffffffff168473ffffffffffffffffffffffffffffffffffffffff167fddf252ad1be2c89b69c2b068fc378daa952ba7f163c4a11628f55a4df523b3ef60405160405180910390a4505050565b60006001601d8461279a91906152ef565b6127a49190615036565b9050600060116004856127b791906152ef565b815481106127ee577f4e487b7100000000000000000000000000000000000000000000000000000000600052603260045260246000fd5b90600052602060002001805461280390615215565b80601f016020809104026020016040519081016040528092919081815260200182805461282f90615215565b801561287c5780601f106128515761010080835404028352916020019161287c565b820191906000526020600020905b81548152906001019060200180831161285f57829003601f168201915b50505050509050600061289d856005600a8661289891906150bd565b612fb8565b9050604051806101800160405280878152602001858152602001848152602001600081526020016014856128d191906150bd565b815260200182600081518110612910577f4e487b7100000000000000000000000000000000000000000000000000000000600052603260045260246000fd5b6020026020010151815260200182600181518110612957577f4e487b7100000000000000000000000000000000000000000000000000000000600052603260045260246000fd5b602002602001015181526020018260028151811061299e577f4e487b7100000000000000000000000000000000000000000000000000000000600052603260045260246000fd5b60200260200101518152602001826003815181106129e5577f4e487b7100000000000000000000000000000000000000000000000000000000600052603260045260246000fd5b6020026020010151815260200182600481518110612a2c577f4e487b7100000000000000000000000000000000000000000000000000000000600052603260045260246000fd5b60200260200101518152602001600081526020018381525060136000888152602001908152602001600020600082015181600001556020820151816001019080519060200190612a7d92919061386d565b5060408201518160020155606082015181600301556080820151816004015560a0820151816005015560c0820151816006015560e082015181600701556101008201518160080155610120820151816009015561014082015181600a015561016082015181600b019080519060200190612af892919061386d565b50905050505050505050565b612b0d82612322565b612b4c576040517f08c379a0000000000000000000000000000000000000000000000000000000008152600401612b4390614bbd565b60405180910390fd5b80600660008481526020019081526020016000209080519060200190612b7392919061386d565b505050565b6000600760009054906101000a900473ffffffffffffffffffffffffffffffffffffffff16905081600760006101000a81548173ffffffffffffffffffffffffffffffffffffffff021916908373ffffffffffffffffffffffffffffffffffffffff1602179055508173ffffffffffffffffffffffffffffffffffffffff168173ffffffffffffffffffffffffffffffffffffffff167f8be0079c531659141344cd1fd0a4f28419497f9722a3daafe3b4186f6b6457e060405160405180910390a35050565b60006014600084815260200190815260200160002060009054906101000a900473ffffffffffffffffffffffffffffffffffffffff169050600060156000858152602001908152602001600020549050612c9882826130ee565b82601660008381526020019081526020016000208190555082817faad5362ce528ed941024b95d4c18dfd49b8503e1f586a5c353631d98c2af41b760405160405180910390a350505050565b612ced8161310c565b6000600660008381526020019081526020016000208054612d0d90615215565b905014612d3457600660008281526020019081526020016000206000612d3391906138f3565b5b50565b612d4284848461252d565b612d4e8484848461321d565b612d8d576040517f08c379a0000000000000000000000000000000000000000000000000000000008152600401612d8490614a9d565b60405180910390fd5b50505050565b606060405180602001604052806000815250905090565b6060612db582612322565b612df4576040517f08c379a0000000000000000000000000000000000000000000000000000000008152600401612deb90614c9d565b60405180910390fd5b6000612dfe612d93565b90506000815111612e1e5760405180602001604052806000815250612e49565b80612e28846133b4565b604051602001612e3992919061485e565b6040516020818303038152906040525b915050919050565b60007f000000000000000000000000000000000000000000000000000000000000000073ffffffffffffffffffffffffffffffffffffffff16634000aea07f000000000000000000000000000000000000000000000000000000000000000084866000604051602001612ec592919061497f565b6040516020818303038152906040526040518463ffffffff1660e01b8152600401612ef2939291906148e9565b602060405180830381600087803b158015612f0c57600080fd5b505af1158015612f20573d6000803e3d6000fd5b505050506040513d601f19601f82011682018060405250810190612f449190613e10565b506000612f67846000306008600089815260200190815260200160002054613561565b905060016008600086815260200190815260200160002054612f899190615036565b6008600086815260200190815260200160002081905550612faa848261359d565b91505092915050565b505050565b60608267ffffffffffffffff811115612ffa577f4e487b7100000000000000000000000000000000000000000000000000000000600052604160045260246000fd5b6040519080825280602002602001820160405280156130285781602001602082028036833780820191505090505b5090506000600190505b8381116130e6576000858260405160200161304e929190614ee4565b6040516020818303038152906040528051906020012060001c90506001848261307791906152ef565b6130819190615036565b8360018461308f9190615117565b815181106130c6577f4e487b7100000000000000000000000000000000000000000000000000000000600052603260045260246000fd5b6020026020010181815250505080806130de90615292565b915050613032565b509392505050565b6131088282604051806020016040528060008152506135d0565b5050565b6000613117826112b8565b905061312581600084612fb3565b613130600083612396565b6001600360008373ffffffffffffffffffffffffffffffffffffffff1673ffffffffffffffffffffffffffffffffffffffff16815260200190815260200160002060008282546131809190615117565b925050819055506002600083815260200190815260200160002060006101000a81549073ffffffffffffffffffffffffffffffffffffffff021916905581600073ffffffffffffffffffffffffffffffffffffffff168273ffffffffffffffffffffffffffffffffffffffff167fddf252ad1be2c89b69c2b068fc378daa952ba7f163c4a11628f55a4df523b3ef60405160405180910390a45050565b600061323e8473ffffffffffffffffffffffffffffffffffffffff1661362b565b156133a7578373ffffffffffffffffffffffffffffffffffffffff1663150b7a0261326761238e565b8786866040518563ffffffff1660e01b8152600401613289949392919061489d565b602060405180830381600087803b1580156132a357600080fd5b505af19250505080156132d457506040513d601f19601f820116820180604052508101906132d19190613e9e565b60015b613357573d8060008114613304576040519150601f19603f3d011682016040523d82523d6000602084013e613309565b606091505b5060008151141561334f576040517f08c379a000000000000000000000000000000000000000000000000000000000815260040161334690614a9d565b60405180910390fd5b805181602001fd5b63150b7a0260e01b7bffffffffffffffffffffffffffffffffffffffffffffffffffffffff1916817bffffffffffffffffffffffffffffffffffffffffffffffffffffffff1916149150506133ac565b600190505b949350505050565b606060008214156133fc576040518060400160405280600181526020017f3000000000000000000000000000000000000000000000000000000000000000815250905061355c565b600082905060005b6000821461342e57808061341790615292565b915050600a82613427919061508c565b9150613404565b60008167ffffffffffffffff811115613470577f4e487b7100000000000000000000000000000000000000000000000000000000600052604160045260246000fd5b6040519080825280601f01601f1916602001820160405280156134a25781602001600182028036833780820191505090505b5090505b60008514613555576001826134bb9190615117565b9150600a856134ca91906152ef565b60306134d69190615036565b60f81b818381518110613512577f4e487b7100000000000000000000000000000000000000000000000000000000600052603260045260246000fd5b60200101907effffffffffffffffffffffffffffffffffffffffffffffffffffffffffffff1916908160001a905350600a8561354e919061508c565b94506134a6565b8093505050505b919050565b60008484848460405160200161357a94939291906149a8565b6040516020818303038152906040528051906020012060001c9050949350505050565b600082826040516020016135b2929190614832565b60405160208183030381529060405280519060200120905092915050565b6135da838361363e565b6135e7600084848461321d565b613626576040517f08c379a000000000000000000000000000000000000000000000000000000000815260040161361d90614a9d565b60405180910390fd5b505050565b600080823b905060008111915050919050565b600073ffffffffffffffffffffffffffffffffffffffff168273ffffffffffffffffffffffffffffffffffffffff1614156136ae576040517f08c379a00000000000000000000000000000000000000000000000000000000081526004016136a590614bdd565b60405180910390fd5b6136b781612322565b156136f7576040517f08c379a00000000000000000000000000000000000000000000000000000000081526004016136ee90614add565b60405180910390fd5b61370360008383612fb3565b6001600360008473ffffffffffffffffffffffffffffffffffffffff1673ffffffffffffffffffffffffffffffffffffffff16815260200190815260200160002060008282546137539190615036565b92505081905550816002600083815260200190815260200160002060006101000a81548173ffffffffffffffffffffffffffffffffffffffff021916908373ffffffffffffffffffffffffffffffffffffffff160217905550808273ffffffffffffffffffffffffffffffffffffffff16600073ffffffffffffffffffffffffffffffffffffffff167fddf252ad1be2c89b69c2b068fc378daa952ba7f163c4a11628f55a4df523b3ef60405160405180910390a45050565b6040518061018001604052806000815260200160608152602001600081526020016000815260200160008152602001600081526020016000815260200160008152602001600081526020016000815260200160008152602001606081525090565b82805461387990615215565b90600052602060002090601f01602090048101928261389b57600085556138e2565b82601f106138b457805160ff19168380011785556138e2565b828001600101855582156138e2579182015b828111156138e15782518255916020019190600101906138c6565b5b5090506138ef9190613933565b5090565b5080546138ff90615215565b6000825580601f106139115750613930565b601f01602090049060005260206000209081019061392f9190613933565b5b50565b5b8082111561394c576000816000905550600101613934565b5090565b600061396361395e84614f32565b614f0d565b90508281526020810184848401111561397b57600080fd5b6139868482856151d3565b509392505050565b60006139a161399c84614f63565b614f0d565b9050828152602081018484840111156139b957600080fd5b6139c48482856151d3565b509392505050565b60006139df6139da84614f63565b614f0d565b9050828152602081018484840111156139f757600080fd5b613a028482856151e2565b509392505050565b600081359050613a1981615a38565b92915050565b600081359050613a2e81615a4f565b92915050565b600081519050613a4381615a4f565b92915050565b600081359050613a5881615a66565b92915050565b600081359050613a6d81615a7d565b92915050565b600081519050613a8281615a7d565b92915050565b600082601f830112613a9957600080fd5b8135613aa9848260208601613950565b91505092915050565b600082601f830112613ac357600080fd5b8135613ad384826020860161398e565b91505092915050565b600082601f830112613aed57600080fd5b8151613afd8482602086016139cc565b91505092915050565b60006101808284031215613b1957600080fd5b613b24610180614f0d565b90506000613b3484828501613c54565b600083015250602082013567ffffffffffffffff811115613b5457600080fd5b613b6084828501613ab2565b6020830152506040613b7484828501613c54565b6040830152506060613b8884828501613c54565b6060830152506080613b9c84828501613c54565b60808301525060a0613bb084828501613c54565b60a08301525060c0613bc484828501613c54565b60c08301525060e0613bd884828501613c54565b60e083015250610100613bed84828501613c54565b61010083015250610120613c0384828501613c54565b61012083015250610140613c1984828501613c54565b6101408301525061016082013567ffffffffffffffff811115613c3b57600080fd5b613c4784828501613ab2565b6101608301525092915050565b600081359050613c6381615a94565b92915050565b600060208284031215613c7b57600080fd5b6000613c8984828501613a0a565b91505092915050565b60008060408385031215613ca557600080fd5b6000613cb385828601613a0a565b9250506020613cc485828601613a0a565b9150509250929050565b600080600060608486031215613ce357600080fd5b6000613cf186828701613a0a565b9350506020613d0286828701613a0a565b9250506040613d1386828701613c54565b9150509250925092565b60008060008060808587031215613d3357600080fd5b6000613d4187828801613a0a565b9450506020613d5287828801613a0a565b9350506040613d6387828801613c54565b925050606085013567ffffffffffffffff811115613d8057600080fd5b613d8c87828801613a88565b91505092959194509250565b60008060408385031215613dab57600080fd5b6000613db985828601613a0a565b9250506020613dca85828601613a1f565b9150509250929050565b60008060408385031215613de757600080fd5b6000613df585828601613a0a565b9250506020613e0685828601613c54565b9150509250929050565b600060208284031215613e2257600080fd5b6000613e3084828501613a34565b91505092915050565b60008060408385031215613e4c57600080fd5b6000613e5a85828601613a49565b9250506020613e6b85828601613c54565b9150509250929050565b600060208284031215613e8757600080fd5b6000613e9584828501613a5e565b91505092915050565b600060208284031215613eb057600080fd5b6000613ebe84828501613a73565b91505092915050565b600060208284031215613ed957600080fd5b600082015167ffffffffffffffff811115613ef357600080fd5b613eff84828501613adc565b91505092915050565b600060208284031215613f1a57600080fd5b6000613f2884828501613c54565b91505092915050565b60008060408385031215613f4457600080fd5b6000613f5285828601613c54565b925050602083013567ffffffffffffffff811115613f6f57600080fd5b613f7b85828601613ab2565b9150509250929050565b60008060408385031215613f9857600080fd5b6000613fa685828601613c54565b925050602083013567ffffffffffffffff811115613fc357600080fd5b613fcf85828601613b06565b9150509250929050565b6000613fe583836147fd565b60208301905092915050565b613ffa81615155565b82525050565b600061400b82614fb9565b6140158185614fe7565b935061402083614f94565b8060005b838110156140515781516140388882613fd9565b975061404383614fda565b925050600181019050614024565b5085935050505092915050565b61406781615167565b82525050565b61407681615173565b82525050565b61408d61408882615173565b6152db565b82525050565b600061409e82614fc4565b6140a88185614ff8565b93506140b88185602086016151e2565b6140c1816153dc565b840191505092915050565b60006140d782614fcf565b6140e18185615009565b93506140f18185602086016151e2565b6140fa816153dc565b840191505092915050565b600061411082614fcf565b61411a818561501a565b935061412a8185602086016151e2565b614133816153dc565b840191505092915050565b600061414982614fcf565b614153818561502b565b93506141638185602086016151e2565b80840191505092915050565b6000815461417c81615215565b6141868186615009565b945060018216600081146141a157600181146141b3576141e6565b60ff19831686526020860193506141e6565b6141bc85614fa4565b60005b838110156141de578154818901526001820191506020810190506141bf565b808801955050505b50505092915050565b60006141fc60038361501a565b9150614207826153fa565b602082019050919050565b600061421f60328361501a565b915061422a82615423565b604082019050919050565b600061424260268361501a565b915061424d82615472565b604082019050919050565b6000614265601c8361501a565b9150614270826154c1565b602082019050919050565b600061428860248361501a565b9150614293826154ea565b604082019050919050565b60006142ab60198361501a565b91506142b682615539565b602082019050919050565b60006142ce602c8361501a565b91506142d982615562565b604082019050919050565b60006142f160388361501a565b91506142fc826155b1565b604082019050919050565b6000614314602a8361501a565b915061431f82615600565b604082019050919050565b600061433760298361501a565b91506143428261564f565b604082019050919050565b600061435a602e8361501a565b91506143658261569e565b604082019050919050565b600061437d60208361501a565b9150614388826156ed565b602082019050919050565b60006143a060318361501a565b91506143ab82615716565b604082019050919050565b60006143c3602c8361501a565b91506143ce82615765565b604082019050919050565b60006143e660208361501a565b91506143f1826157b4565b602082019050919050565b600061440960028361501a565b9150614414826157dd565b602082019050919050565b600061442c60298361501a565b915061443782615806565b604082019050919050565b600061444f602f8361501a565b915061445a82615855565b604082019050919050565b6000614472601f8361501a565b915061447d826158a4565b602082019050919050565b600061449560038361501a565b91506144a0826158cd565b602082019050919050565b60006144b860218361501a565b91506144c3826158f6565b604082019050919050565b60006144db60038361501a565b91506144e682615945565b602082019050919050565b60006144fe60038361501a565b91506145098261596e565b602082019050919050565b600061452160318361501a565b915061452c82615997565b604082019050919050565b600061454460028361501a565b915061454f826159e6565b602082019050919050565b600061456760038361501a565b915061457282615a0f565b602082019050919050565b60006101808301600083015161459660008601826147fd565b50602083015184820360208601526145ae82826140cc565b91505060408301516145c360408601826147fd565b5060608301516145d660608601826147fd565b5060808301516145e960808601826147fd565b5060a08301516145fc60a08601826147fd565b5060c083015161460f60c08601826147fd565b5060e083015161462260e08601826147fd565b506101008301516146376101008601826147fd565b5061012083015161464c6101208601826147fd565b506101408301516146616101408601826147fd565b5061016083015184820361016086015261467b82826140cc565b9150508091505092915050565b6000610180830160008084015490506146a081615247565b6146ad60008701826147fd565b506001840185830360208701526146c4838261416f565b925050600284015490506146d781615247565b6146e460408701826147fd565b50600384015490506146f581615247565b61470260608701826147fd565b506004840154905061471381615247565b61472060808701826147fd565b506005840154905061473181615247565b61473e60a08701826147fd565b506006840154905061474f81615247565b61475c60c08701826147fd565b506007840154905061476d81615247565b61477a60e08701826147fd565b506008840154905061478b81615247565b6147996101008701826147fd565b50600984015490506147aa81615247565b6147b86101208701826147fd565b50600a84015490506147c981615247565b6147d76101408701826147fd565b50600b84018583036101608701526147ef838261416f565b925050819250505092915050565b614806816151c9565b82525050565b614815816151c9565b82525050565b61482c614827826151c9565b6152e5565b82525050565b600061483e828561407c565b60208201915061484e828461481b565b6020820191508190509392505050565b600061486a828561413e565b9150614876828461413e565b91508190509392505050565b60006020820190506148976000830184613ff1565b92915050565b60006080820190506148b26000830187613ff1565b6148bf6020830186613ff1565b6148cc604083018561480c565b81810360608301526148de8184614093565b905095945050505050565b60006060820190506148fe6000830186613ff1565b61490b602083018561480c565b818103604083015261491d8184614093565b9050949350505050565b600060208201905081810360008301526149418184614000565b905092915050565b600060208201905061495e600083018461405e565b92915050565b6000602082019050614979600083018461406d565b92915050565b6000604082019050614994600083018561406d565b6149a1602083018461480c565b9392505050565b60006080820190506149bd600083018761406d565b6149ca602083018661480c565b6149d76040830185613ff1565b6149e4606083018461480c565b95945050505050565b60006020820190508181036000830152614a078184614105565b905092915050565b60006040820190508181036000830152614a298185614105565b90508181036020830152614a3d818461457d565b90509392505050565b60006040820190508181036000830152614a608185614105565b90508181036020830152614a748184614688565b90509392505050565b60006020820190508181036000830152614a96816141ef565b9050919050565b60006020820190508181036000830152614ab681614212565b9050919050565b60006020820190508181036000830152614ad681614235565b9050919050565b60006020820190508181036000830152614af681614258565b9050919050565b60006020820190508181036000830152614b168161427b565b9050919050565b60006020820190508181036000830152614b368161429e565b9050919050565b60006020820190508181036000830152614b56816142c1565b9050919050565b60006020820190508181036000830152614b76816142e4565b9050919050565b60006020820190508181036000830152614b9681614307565b9050919050565b60006020820190508181036000830152614bb68161432a565b9050919050565b60006020820190508181036000830152614bd68161434d565b9050919050565b60006020820190508181036000830152614bf681614370565b9050919050565b60006020820190508181036000830152614c1681614393565b9050919050565b60006020820190508181036000830152614c36816143b6565b9050919050565b60006020820190508181036000830152614c56816143d9565b9050919050565b60006020820190508181036000830152614c76816143fc565b9050919050565b60006020820190508181036000830152614c968161441f565b9050919050565b60006020820190508181036000830152614cb681614442565b9050919050565b60006020820190508181036000830152614cd681614465565b9050919050565b60006020820190508181036000830152614cf681614488565b9050919050565b60006020820190508181036000830152614d16816144ab565b9050919050565b60006020820190508181036000830152614d36816144ce565b9050919050565b60006020820190508181036000830152614d56816144f1565b9050919050565b60006020820190508181036000830152614d7681614514565b9050919050565b60006020820190508181036000830152614d9681614537565b9050919050565b60006020820190508181036000830152614db68161455a565b9050919050565b60006020820190508181036000830152614dd7818461457d565b905092915050565b60006020820190508181036000830152614df98184614688565b905092915050565b6000602082019050614e16600083018461480c565b92915050565b600061018082019050614e32600083018f61480c565b8181036020830152614e44818e614105565b9050614e53604083018d61480c565b614e60606083018c61480c565b614e6d608083018b61480c565b614e7a60a083018a61480c565b614e8760c083018961480c565b614e9460e083018861480c565b614ea261010083018761480c565b614eb061012083018661480c565b614ebe61014083018561480c565b818103610160830152614ed18184614105565b90509d9c50505050505050505050505050565b6000604082019050614ef9600083018561480c565b614f06602083018461480c565b9392505050565b6000614f17614f28565b9050614f238282615261565b919050565b6000604051905090565b600067ffffffffffffffff821115614f4d57614f4c6153ad565b5b614f56826153dc565b9050602081019050919050565b600067ffffffffffffffff821115614f7e57614f7d6153ad565b5b614f87826153dc565b9050602081019050919050565b6000819050602082019050919050565b60008190508160005260206000209050919050565b600081519050919050565b600081519050919050565b600081519050919050565b6000602082019050919050565b600082825260208201905092915050565b600082825260208201905092915050565b600082825260208201905092915050565b600082825260208201905092915050565b600081905092915050565b6000615041826151c9565b915061504c836151c9565b9250827fffffffffffffffffffffffffffffffffffffffffffffffffffffffffffffffff0382111561508157615080615320565b5b828201905092915050565b6000615097826151c9565b91506150a2836151c9565b9250826150b2576150b161534f565b5b828204905092915050565b60006150c8826151c9565b91506150d3836151c9565b9250817fffffffffffffffffffffffffffffffffffffffffffffffffffffffffffffffff048311821515161561510c5761510b615320565b5b828202905092915050565b6000615122826151c9565b915061512d836151c9565b9250828210156151405761513f615320565b5b828203905092915050565b6000819050919050565b6000615160826151a9565b9050919050565b60008115159050919050565b6000819050919050565b60007fffffffff0000000000000000000000000000000000000000000000000000000082169050919050565b600073ffffffffffffffffffffffffffffffffffffffff82169050919050565b6000819050919050565b82818337600083830152505050565b60005b838110156152005780820151818401526020810190506151e5565b8381111561520f576000848401525b50505050565b6000600282049050600182168061522d57607f821691505b602082108114156152415761524061537e565b5b50919050565b600061525a615255836153ed565b61514b565b9050919050565b61526a826153dc565b810181811067ffffffffffffffff82111715615289576152886153ad565b5b80604052505050565b600061529d826151c9565b91507fffffffffffffffffffffffffffffffffffffffffffffffffffffffffffffffff8214156152d0576152cf615320565b5b600182019050919050565b6000819050919050565b6000819050919050565b60006152fa826151c9565b9150615305836151c9565b9250826153155761531461534f565b5b828206905092915050565b7f4e487b7100000000000000000000000000000000000000000000000000000000600052601160045260246000fd5b7f4e487b7100000000000000000000000000000000000000000000000000000000600052601260045260246000fd5b7f4e487b7100000000000000000000000000000000000000000000000000000000600052602260045260246000fd5b7f4e487b7100000000000000000000000000000000000000000000000000000000600052604160045260246000fd5b6000601f19601f8301169050919050565b60008160001c9050919050565b7f5455530000000000000000000000000000000000000000000000000000000000600082015250565b7f4552433732313a207472616e7366657220746f206e6f6e20455243373231526560008201527f63656976657220696d706c656d656e7465720000000000000000000000000000602082015250565b7f4f776e61626c653a206e6577206f776e657220697320746865207a65726f206160008201527f6464726573730000000000000000000000000000000000000000000000000000602082015250565b7f4552433732313a20746f6b656e20616c7265616479206d696e74656400000000600082015250565b7f4552433732313a207472616e7366657220746f20746865207a65726f2061646460008201527f7265737300000000000000000000000000000000000000000000000000000000602082015250565b7f4552433732313a20617070726f766520746f2063616c6c657200000000000000600082015250565b7f4552433732313a206f70657261746f7220717565727920666f72206e6f6e657860008201527f697374656e7420746f6b656e0000000000000000000000000000000000000000602082015250565b7f4552433732313a20617070726f76652063616c6c6572206973206e6f74206f7760008201527f6e6572206e6f7220617070726f76656420666f7220616c6c0000000000000000602082015250565b7f4552433732313a2062616c616e636520717565727920666f7220746865207a6560008201527f726f206164647265737300000000000000000000000000000000000000000000602082015250565b7f4552433732313a206f776e657220717565727920666f72206e6f6e657869737460008201527f656e7420746f6b656e0000000000000000000000000000000000000000000000602082015250565b7f45524337323155524953746f726167653a2055524920736574206f66206e6f6e60008201527f6578697374656e7420746f6b656e000000000000000000000000000000000000602082015250565b7f4552433732313a206d696e7420746f20746865207a65726f2061646472657373600082015250565b7f45524337323155524953746f726167653a2055524920717565727920666f722060008201527f6e6f6e6578697374656e7420746f6b656e000000000000000000000000000000602082015250565b7f4552433732313a20617070726f76656420717565727920666f72206e6f6e657860008201527f697374656e7420746f6b656e0000000000000000000000000000000000000000602082015250565b7f4f776e61626c653a2063616c6c6572206973206e6f7420746865206f776e6572600082015250565b7f4145000000000000000000000000000000000000000000000000000000000000600082015250565b7f4552433732313a207472616e73666572206f6620746f6b656e2074686174206960008201527f73206e6f74206f776e0000000000000000000000000000000000000000000000602082015250565b7f4552433732314d657461646174613a2055524920717565727920666f72206e6f60008201527f6e6578697374656e7420746f6b656e0000000000000000000000000000000000602082015250565b7f4f6e6c7920565246436f6f7264696e61746f722063616e2066756c66696c6c00600082015250565b7f434e520000000000000000000000000000000000000000000000000000000000600082015250565b7f4552433732313a20617070726f76616c20746f2063757272656e74206f776e6560008201527f7200000000000000000000000000000000000000000000000000000000000000602082015250565b7f544e4d0000000000000000000000000000000000000000000000000000000000600082015250565b7f4145320000000000000000000000000000000000000000000000000000000000600082015250565b7f4552433732313a207472616e736665722063616c6c6572206973206e6f74206f60008201527f776e6572206e6f7220617070726f766564000000000000000000000000000000602082015250565b7f4d4f000000000000000000000000000000000000000000000000000000000000600082015250565b7f4d4e410000000000000000000000000000000000000000000000000000000000600082015250565b615a4181615155565b8114615a4c57600080fd5b50565b615a5881615167565b8114615a6357600080fd5b50565b615a6f81615173565b8114615a7a57600080fd5b50565b615a868161517d565b8114615a9157600080fd5b50565b615a9d816151c9565b8114615aa857600080fd5b5056fea2646970667358221220e910cdddb9b537ed6a774c5865069befd5f84f009d3f53231793d5d9d0ce432e64736f6c63430008040033",
  "linkReferences": {},
  "deployedLinkReferences": {}
}