{
  "_format": "hh-sol-artifact-1",
  "contractName": "NFT",
  "sourceName": "contracts/NFT.sol",
  "abi": [
    {
      "inputs": [
        {
          "internalType": "address",
          "name": "_VRFCoordinator",
          "type": "address"
        },
        {
          "internalType": "address",
          "name": "_linkToken",
          "type": "address"
        },
        {
          "internalType": "bytes32",
          "name": "_keyHash",
          "type": "bytes32"
        },
        {
          "internalType": "uint256",
          "name": "_fee",
          "type": "uint256"
        },
        {
          "internalType": "address",
          "name": "_utilsContract",
          "type": "address"
        }
      ],
      "stateMutability": "nonpayable",
      "type": "constructor"
    },
    {
      "anonymous": false,
      "inputs": [
        {
          "indexed": true,
          "internalType": "address",
          "name": "owner",
          "type": "address"
        },
        {
          "indexed": true,
          "internalType": "address",
          "name": "approved",
          "type": "address"
        },
        {
          "indexed": true,
          "internalType": "uint256",
          "name": "tokenId",
          "type": "uint256"
        }
      ],
      "name": "Approval",
      "type": "event"
    },
    {
      "anonymous": false,
      "inputs": [
        {
          "indexed": true,
          "internalType": "address",
          "name": "owner",
          "type": "address"
        },
        {
          "indexed": true,
          "internalType": "address",
          "name": "operator",
          "type": "address"
        },
        {
          "indexed": false,
          "internalType": "bool",
          "name": "approved",
          "type": "bool"
        }
      ],
      "name": "ApprovalForAll",
      "type": "event"
    },
    {
      "anonymous": false,
      "inputs": [
        {
          "indexed": true,
          "internalType": "uint256",
          "name": "tokenId",
          "type": "uint256"
        },
        {
          "indexed": false,
          "internalType": "string",
          "name": "tokenURL",
          "type": "string"
        }
      ],
      "name": "CreatedNFT",
      "type": "event"
    },
    {
      "anonymous": false,
      "inputs": [
        {
          "indexed": true,
          "internalType": "uint256",
          "name": "tokenId",
          "type": "uint256"
        },
        {
          "indexed": true,
          "internalType": "uint256",
          "name": "randomNumber",
          "type": "uint256"
        }
      ],
      "name": "CreatedUnfinishedRandomSVG",
      "type": "event"
    },
    {
      "anonymous": false,
      "inputs": [
        {
          "indexed": true,
          "internalType": "address",
          "name": "previousOwner",
          "type": "address"
        },
        {
          "indexed": true,
          "internalType": "address",
          "name": "newOwner",
          "type": "address"
        }
      ],
      "name": "OwnershipTransferred",
      "type": "event"
    },
    {
      "anonymous": false,
      "inputs": [
        {
          "indexed": true,
          "internalType": "bytes32",
          "name": "requestId",
          "type": "bytes32"
        },
        {
          "indexed": true,
          "internalType": "uint256",
          "name": "tokenId",
          "type": "uint256"
        }
      ],
      "name": "RequestedRandomSVG",
      "type": "event"
    },
    {
      "anonymous": false,
      "inputs": [
        {
          "indexed": true,
          "internalType": "address",
          "name": "from",
          "type": "address"
        },
        {
          "indexed": true,
          "internalType": "address",
          "name": "to",
          "type": "address"
        },
        {
          "indexed": true,
          "internalType": "uint256",
          "name": "tokenId",
          "type": "uint256"
        }
      ],
      "name": "Transfer",
      "type": "event"
    },
    {
      "anonymous": false,
      "inputs": [
        {
          "indexed": true,
          "internalType": "uint256",
          "name": "tokenId",
          "type": "uint256"
        },
        {
          "indexed": false,
          "internalType": "string",
          "name": "tokenURL",
          "type": "string"
        }
      ],
      "name": "UpdatedNFT",
      "type": "event"
    },
    {
      "inputs": [
        {
          "internalType": "address",
          "name": "to",
          "type": "address"
        },
        {
          "internalType": "uint256",
          "name": "tokenId",
          "type": "uint256"
        }
      ],
      "name": "approve",
      "outputs": [],
      "stateMutability": "nonpayable",
      "type": "function"
    },
    {
      "inputs": [
        {
          "internalType": "address",
          "name": "owner",
          "type": "address"
        }
      ],
      "name": "balanceOf",
      "outputs": [
        {
          "internalType": "uint256",
          "name": "",
          "type": "uint256"
        }
      ],
      "stateMutability": "view",
      "type": "function"
    },
    {
      "inputs": [],
      "name": "create",
      "outputs": [
        {
          "internalType": "bytes32",
          "name": "requestId",
          "type": "bytes32"
        }
      ],
      "stateMutability": "payable",
      "type": "function"
    },
    {
      "inputs": [],
      "name": "fee",
      "outputs": [
        {
          "internalType": "uint256",
          "name": "",
          "type": "uint256"
        }
      ],
      "stateMutability": "view",
      "type": "function"
    },
    {
      "inputs": [
        {
          "internalType": "uint256",
          "name": "_tokenId",
          "type": "uint256"
        },
        {
          "internalType": "string",
          "name": "_name",
          "type": "string"
        }
      ],
      "name": "finishMint",
      "outputs": [],
      "stateMutability": "nonpayable",
      "type": "function"
    },
    {
      "inputs": [
        {
          "internalType": "uint256",
          "name": "tokenId",
          "type": "uint256"
        }
      ],
      "name": "getApproved",
      "outputs": [
        {
          "internalType": "address",
          "name": "",
          "type": "address"
        }
      ],
      "stateMutability": "view",
      "type": "function"
    },
    {
      "inputs": [
        {
          "internalType": "uint256",
          "name": "_tokenId",
          "type": "uint256"
        }
      ],
      "name": "getFighterById",
      "outputs": [
        {
          "components": [
            {
              "internalType": "uint256",
              "name": "tokenId",
              "type": "uint256"
            },
            {
              "internalType": "string",
              "name": "name",
              "type": "string"
            },
            {
              "internalType": "uint256",
              "name": "level",
              "type": "uint256"
            },
            {
              "internalType": "uint256",
              "name": "wins",
              "type": "uint256"
            },
            {
              "internalType": "uint256",
              "name": "hp",
              "type": "uint256"
            },
            {
              "internalType": "uint256",
              "name": "strength",
              "type": "uint256"
            },
            {
              "internalType": "uint256",
              "name": "dexterity",
              "type": "uint256"
            },
            {
              "internalType": "uint256",
              "name": "agility",
              "type": "uint256"
            },
            {
              "internalType": "uint256",
              "name": "intelligence",
              "type": "uint256"
            },
            {
              "internalType": "uint256",
              "name": "durability",
              "type": "uint256"
            },
            {
              "internalType": "uint256",
              "name": "location",
              "type": "uint256"
            },
            {
              "internalType": "string",
              "name": "fighterType",
              "type": "string"
            }
          ],
          "internalType": "struct lib.Fighter",
          "name": "_fighter",
          "type": "tuple"
        }
      ],
      "stateMutability": "view",
      "type": "function"
    },
    {
      "inputs": [
        {
          "internalType": "address",
          "name": "owner",
          "type": "address"
        },
        {
          "internalType": "address",
          "name": "operator",
          "type": "address"
        }
      ],
      "name": "isApprovedForAll",
      "outputs": [
        {
          "internalType": "bool",
          "name": "",
          "type": "bool"
        }
      ],
      "stateMutability": "view",
      "type": "function"
    },
    {
      "inputs": [],
      "name": "keyHash",
      "outputs": [
        {
          "internalType": "bytes32",
          "name": "",
          "type": "bytes32"
        }
      ],
      "stateMutability": "view",
      "type": "function"
    },
    {
      "inputs": [],
      "name": "name",
      "outputs": [
        {
          "internalType": "string",
          "name": "",
          "type": "string"
        }
      ],
      "stateMutability": "view",
      "type": "function"
    },
    {
      "inputs": [],
      "name": "owner",
      "outputs": [
        {
          "internalType": "address",
          "name": "",
          "type": "address"
        }
      ],
      "stateMutability": "view",
      "type": "function"
    },
    {
      "inputs": [
        {
          "internalType": "uint256",
          "name": "tokenId",
          "type": "uint256"
        }
      ],
      "name": "ownerOf",
      "outputs": [
        {
          "internalType": "address",
          "name": "",
          "type": "address"
        }
      ],
      "stateMutability": "view",
      "type": "function"
    },
    {
      "inputs": [
        {
          "internalType": "bytes32",
          "name": "requestId",
          "type": "bytes32"
        },
        {
          "internalType": "uint256",
          "name": "randomness",
          "type": "uint256"
        }
      ],
      "name": "rawFulfillRandomness",
      "outputs": [],
      "stateMutability": "nonpayable",
      "type": "function"
    },
    {
      "inputs": [],
      "name": "renounceOwnership",
      "outputs": [],
      "stateMutability": "nonpayable",
      "type": "function"
    },
    {
      "inputs": [
        {
          "internalType": "address",
          "name": "from",
          "type": "address"
        },
        {
          "internalType": "address",
          "name": "to",
          "type": "address"
        },
        {
          "internalType": "uint256",
          "name": "tokenId",
          "type": "uint256"
        }
      ],
      "name": "safeTransferFrom",
      "outputs": [],
      "stateMutability": "nonpayable",
      "type": "function"
    },
    {
      "inputs": [
        {
          "internalType": "address",
          "name": "from",
          "type": "address"
        },
        {
          "internalType": "address",
          "name": "to",
          "type": "address"
        },
        {
          "internalType": "uint256",
          "name": "tokenId",
          "type": "uint256"
        },
        {
          "internalType": "bytes",
          "name": "_data",
          "type": "bytes"
        }
      ],
      "name": "safeTransferFrom",
      "outputs": [],
      "stateMutability": "nonpayable",
      "type": "function"
    },
    {
      "inputs": [
        {
          "internalType": "address",
          "name": "operator",
          "type": "address"
        },
        {
          "internalType": "bool",
          "name": "approved",
          "type": "bool"
        }
      ],
      "name": "setApprovalForAll",
      "outputs": [],
      "stateMutability": "nonpayable",
      "type": "function"
    },
    {
      "inputs": [
        {
          "internalType": "address",
          "name": "_newFightingContract",
          "type": "address"
        }
      ],
      "name": "setFightingContract",
      "outputs": [],
      "stateMutability": "nonpayable",
      "type": "function"
    },
    {
      "inputs": [
        {
          "internalType": "address",
          "name": "_newTrainingContract",
          "type": "address"
        }
      ],
      "name": "setTrainingContract",
      "outputs": [],
      "stateMutability": "nonpayable",
      "type": "function"
    },
    {
      "inputs": [
        {
          "internalType": "address",
          "name": "_newUtilsContract",
          "type": "address"
        }
      ],
      "name": "setUtilsContract",
      "outputs": [],
      "stateMutability": "nonpayable",
      "type": "function"
    },
    {
      "inputs": [
        {
          "internalType": "bytes4",
          "name": "interfaceId",
          "type": "bytes4"
        }
      ],
      "name": "supportsInterface",
      "outputs": [
        {
          "internalType": "bool",
          "name": "",
          "type": "bool"
        }
      ],
      "stateMutability": "view",
      "type": "function"
    },
    {
      "inputs": [],
      "name": "symbol",
      "outputs": [
        {
          "internalType": "string",
          "name": "",
          "type": "string"
        }
      ],
      "stateMutability": "view",
      "type": "function"
    },
    {
      "inputs": [],
      "name": "tokenCounter",
      "outputs": [
        {
          "internalType": "uint256",
          "name": "",
          "type": "uint256"
        }
      ],
      "stateMutability": "view",
      "type": "function"
    },
    {
      "inputs": [
        {
          "internalType": "uint256",
          "name": "",
          "type": "uint256"
        }
      ],
      "name": "tokenIdToFighter",
      "outputs": [
        {
          "internalType": "uint256",
          "name": "tokenId",
          "type": "uint256"
        },
        {
          "internalType": "string",
          "name": "name",
          "type": "string"
        },
        {
          "internalType": "uint256",
          "name": "level",
          "type": "uint256"
        },
        {
          "internalType": "uint256",
          "name": "wins",
          "type": "uint256"
        },
        {
          "internalType": "uint256",
          "name": "hp",
          "type": "uint256"
        },
        {
          "internalType": "uint256",
          "name": "strength",
          "type": "uint256"
        },
        {
          "internalType": "uint256",
          "name": "dexterity",
          "type": "uint256"
        },
        {
          "internalType": "uint256",
          "name": "agility",
          "type": "uint256"
        },
        {
          "internalType": "uint256",
          "name": "intelligence",
          "type": "uint256"
        },
        {
          "internalType": "uint256",
          "name": "durability",
          "type": "uint256"
        },
        {
          "internalType": "uint256",
          "name": "location",
          "type": "uint256"
        },
        {
          "internalType": "string",
          "name": "fighterType",
          "type": "string"
        }
      ],
      "stateMutability": "view",
      "type": "function"
    },
    {
      "inputs": [
        {
          "internalType": "uint256",
          "name": "tokenId",
          "type": "uint256"
        }
      ],
      "name": "tokenURI",
      "outputs": [
        {
          "internalType": "string",
          "name": "",
          "type": "string"
        }
      ],
      "stateMutability": "view",
      "type": "function"
    },
    {
      "inputs": [
        {
          "internalType": "address",
          "name": "_owner",
          "type": "address"
        }
      ],
      "name": "tokensOfOwner",
      "outputs": [
        {
          "internalType": "uint256[]",
          "name": "ownerTokens",
          "type": "uint256[]"
        }
      ],
      "stateMutability": "view",
      "type": "function"
    },
    {
      "inputs": [],
      "name": "totalSupply",
      "outputs": [
        {
          "internalType": "uint256",
          "name": "",
          "type": "uint256"
        }
      ],
      "stateMutability": "view",
      "type": "function"
    },
    {
      "inputs": [
        {
          "internalType": "address",
          "name": "from",
          "type": "address"
        },
        {
          "internalType": "address",
          "name": "to",
          "type": "address"
        },
        {
          "internalType": "uint256",
          "name": "tokenId",
          "type": "uint256"
        }
      ],
      "name": "transferFrom",
      "outputs": [],
      "stateMutability": "nonpayable",
      "type": "function"
    },
    {
      "inputs": [
        {
          "internalType": "address",
          "name": "newOwner",
          "type": "address"
        }
      ],
      "name": "transferOwnership",
      "outputs": [],
      "stateMutability": "nonpayable",
      "type": "function"
    },
    {
      "inputs": [
        {
          "internalType": "uint256",
          "name": "_tokenId",
          "type": "uint256"
        },
        {
          "components": [
            {
              "internalType": "uint256",
              "name": "tokenId",
              "type": "uint256"
            },
            {
              "internalType": "string",
              "name": "name",
              "type": "string"
            },
            {
              "internalType": "uint256",
              "name": "level",
              "type": "uint256"
            },
            {
              "internalType": "uint256",
              "name": "wins",
              "type": "uint256"
            },
            {
              "internalType": "uint256",
              "name": "hp",
              "type": "uint256"
            },
            {
              "internalType": "uint256",
              "name": "strength",
              "type": "uint256"
            },
            {
              "internalType": "uint256",
              "name": "dexterity",
              "type": "uint256"
            },
            {
              "internalType": "uint256",
              "name": "agility",
              "type": "uint256"
            },
            {
              "internalType": "uint256",
              "name": "intelligence",
              "type": "uint256"
            },
            {
              "internalType": "uint256",
              "name": "durability",
              "type": "uint256"
            },
            {
              "internalType": "uint256",
              "name": "location",
              "type": "uint256"
            },
            {
              "internalType": "string",
              "name": "fighterType",
              "type": "string"
            }
          ],
          "internalType": "struct lib.Fighter",
          "name": "_fighter",
          "type": "tuple"
        }
      ],
      "name": "updateFighter",
      "outputs": [],
      "stateMutability": "nonpayable",
      "type": "function"
    }
  ],
  "bytecode": "0x60c060405260405180608001604052806040518060400160405280600681526020017f4b6e69676874000000000000000000000000000000000000000000000000000081525081526020016040518060400160405280600681526020017f56696b696e67000000000000000000000000000000000000000000000000000081525081526020016040518060400160405280600681526020017f556e64656164000000000000000000000000000000000000000000000000000081525081526020016040518060400160405280600581526020017f44656d6f6e00000000000000000000000000000000000000000000000000000081525081525060119060046200010b929190620003d3565b503480156200011957600080fd5b5060405162005f4e38038062005f4e83398181016040528101906200013f91906200059d565b84846040518060400160405280600981526020017f546f6b656e5261676500000000000000000000000000000000000000000000008152506040518060400160405280600481526020017f52414745000000000000000000000000000000000000000000000000000000008152508160009080519060200190620001c59291906200043a565b508060019080519060200190620001de9291906200043a565b50505062000201620001f56200030560201b60201c565b6200030d60201b60201c565b8173ffffffffffffffffffffffffffffffffffffffff1660a08173ffffffffffffffffffffffffffffffffffffffff1660601b815250508073ffffffffffffffffffffffffffffffffffffffff1660808173ffffffffffffffffffffffffffffffffffffffff1660601b81525050505081600a8190555082600b8190555080600c60006101000a81548173ffffffffffffffffffffffffffffffffffffffff021916908373ffffffffffffffffffffffffffffffffffffffff1602179055506001600981905550662386f26fc10000600f819055506127106010819055506000601260006101000a81548160ff02191690831515021790555050505050506200071a565b600033905090565b6000600760009054906101000a900473ffffffffffffffffffffffffffffffffffffffff16905081600760006101000a81548173ffffffffffffffffffffffffffffffffffffffff021916908373ffffffffffffffffffffffffffffffffffffffff1602179055508173ffffffffffffffffffffffffffffffffffffffff168173ffffffffffffffffffffffffffffffffffffffff167f8be0079c531659141344cd1fd0a4f28419497f9722a3daafe3b4186f6b6457e060405160405180910390a35050565b82805482825590600052602060002090810192821562000427579160200282015b8281111562000426578251829080519060200190620004159291906200043a565b5091602001919060010190620003f4565b5b509050620004369190620004cb565b5090565b828054620004489062000667565b90600052602060002090601f0160209004810192826200046c5760008555620004b8565b82601f106200048757805160ff1916838001178555620004b8565b82800160010185558215620004b8579182015b82811115620004b75782518255916020019190600101906200049a565b5b509050620004c79190620004f3565b5090565b5b80821115620004ef5760008181620004e5919062000512565b50600101620004cc565b5090565b5b808211156200050e576000816000905550600101620004f4565b5090565b508054620005209062000667565b6000825580601f1062000534575062000555565b601f016020900490600052602060002090810190620005549190620004f3565b5b50565b6000815190506200056981620006cc565b92915050565b6000815190506200058081620006e6565b92915050565b600081519050620005978162000700565b92915050565b600080600080600060a08688031215620005b657600080fd5b6000620005c68882890162000558565b9550506020620005d98882890162000558565b9450506040620005ec888289016200056f565b9350506060620005ff8882890162000586565b9250506080620006128882890162000558565b9150509295509295909350565b60006200062c826200063d565b9050919050565b6000819050919050565b600073ffffffffffffffffffffffffffffffffffffffff82169050919050565b6000819050919050565b600060028204905060018216806200068057607f821691505b602082108114156200069757620006966200069d565b5b50919050565b7f4e487b7100000000000000000000000000000000000000000000000000000000600052602260045260246000fd5b620006d7816200061f565b8114620006e357600080fd5b50565b620006f18162000633565b8114620006fd57600080fd5b50565b6200070b816200065d565b81146200071757600080fd5b50565b60805160601c60a05160601c6158016200074d600039600081816119cc0152612d6e01526000612d3201526158016000f3fe6080604052600436106101cd5760003560e01c8063715018a6116100f7578063b88d4fde11610095578063ddca3f4311610064578063ddca3f43146106a1578063e985e9c5146106cc578063efc81a8c14610709578063f2fde38b14610727576101cd565b8063b88d4fde146105e7578063bb2ac40c14610610578063c87b56dd14610639578063d082e38114610676576101cd565b80638da5cb5b116100d15780638da5cb5b1461053f57806394985ddd1461056a57806395d89b4114610593578063a22cb465146105be576101cd565b8063715018a6146104c2578063716fee4f146104d95780638462151c14610502576101cd565b8063317276581161016f57806348cb16421161013e57806348cb1642146103f457806361728f391461041d5780636352211e1461044857806370a0823114610485576101cd565b8063317276581461033c578063368dc9f21461036557806341e3e872146103a257806342842e0e146103cb576101cd565b8063095ea7b3116101ab578063095ea7b31461027757806318160ddd146102a057806323b872dd146102cb5780632bbce2d1146102f4576101cd565b806301ffc9a7146101d257806306fdde031461020f578063081812fc1461023a575b600080fd5b3480156101de57600080fd5b506101f960048036038101906101f49190613c01565b610750565b60405161020691906146b2565b60405180910390f35b34801561021b57600080fd5b50610224610832565b6040516102319190614756565b60405180910390f35b34801561024657600080fd5b50610261600480360381019061025c9190613c94565b6108c4565b60405161026e91906145eb565b60405180910390f35b34801561028357600080fd5b5061029e60048036038101906102999190613b60565b610949565b005b3480156102ac57600080fd5b506102b5610a61565b6040516102c29190614b4a565b60405180910390f35b3480156102d757600080fd5b506102f260048036038101906102ed9190613a5a565b610a77565b005b34801561030057600080fd5b5061031b60048036038101906103169190613c94565b610ad7565b6040516103339c9b9a99989796959493929190614b65565b60405180910390f35b34801561034857600080fd5b50610363600480360381019061035e91906139f5565b610c47565b005b34801561037157600080fd5b5061038c60048036038101906103879190613c94565b610d07565b6040516103999190614b06565b60405180910390f35b3480156103ae57600080fd5b506103c960048036038101906103c49190613cbd565b610ebd565b005b3480156103d757600080fd5b506103f260048036038101906103ed9190613a5a565b61119e565b005b34801561040057600080fd5b5061041b600480360381019061041691906139f5565b6111be565b005b34801561042957600080fd5b5061043261127e565b60405161043f91906146cd565b60405180910390f35b34801561045457600080fd5b5061046f600480360381019061046a9190613c94565b611284565b60405161047c91906145eb565b60405180910390f35b34801561049157600080fd5b506104ac60048036038101906104a791906139f5565b611336565b6040516104b99190614b4a565b60405180910390f35b3480156104ce57600080fd5b506104d76113ee565b005b3480156104e557600080fd5b5061050060048036038101906104fb9190613d11565b611476565b005b34801561050e57600080fd5b50610529600480360381019061052491906139f5565b6117c9565b6040516105369190614690565b60405180910390f35b34801561054b57600080fd5b506105546119a0565b60405161056191906145eb565b60405180910390f35b34801561057657600080fd5b50610591600480360381019061058c9190613bc5565b6119ca565b005b34801561059f57600080fd5b506105a8611a66565b6040516105b59190614756565b60405180910390f35b3480156105ca57600080fd5b506105e560048036038101906105e09190613b24565b611af8565b005b3480156105f357600080fd5b5061060e60048036038101906106099190613aa9565b611c79565b005b34801561061c57600080fd5b50610637600480360381019061063291906139f5565b611cdb565b005b34801561064557600080fd5b50610660600480360381019061065b9190613c94565b611d9b565b60405161066d9190614756565b60405180910390f35b34801561068257600080fd5b5061068b611eed565b6040516106989190614b4a565b60405180910390f35b3480156106ad57600080fd5b506106b6611ef3565b6040516106c39190614b4a565b60405180910390f35b3480156106d857600080fd5b506106f360048036038101906106ee9190613a1e565b611ef9565b60405161070091906146b2565b60405180910390f35b610711611f8d565b60405161071e91906146cd565b60405180910390f35b34801561073357600080fd5b5061074e600480360381019061074991906139f5565b6120f0565b005b60007f80ac58cd000000000000000000000000000000000000000000000000000000007bffffffffffffffffffffffffffffffffffffffffffffffffffffffff1916827bffffffffffffffffffffffffffffffffffffffffffffffffffffffff1916148061081b57507f5b5e139f000000000000000000000000000000000000000000000000000000007bffffffffffffffffffffffffffffffffffffffffffffffffffffffff1916827bffffffffffffffffffffffffffffffffffffffffffffffffffffffff1916145b8061082b575061082a826121e8565b5b9050919050565b60606000805461084190614f5e565b80601f016020809104026020016040519081016040528092919081815260200182805461086d90614f5e565b80156108ba5780601f1061088f576101008083540402835291602001916108ba565b820191906000526020600020905b81548152906001019060200180831161089d57829003601f168201915b5050505050905090565b60006108cf82612252565b61090e576040517f08c379a000000000000000000000000000000000000000000000000000000000815260040161090590614986565b60405180910390fd5b6004600083815260200190815260200160002060009054906101000a900473ffffffffffffffffffffffffffffffffffffffff169050919050565b600061095482611284565b90508073ffffffffffffffffffffffffffffffffffffffff168373ffffffffffffffffffffffffffffffffffffffff1614156109c5576040517f08c379a00000000000000000000000000000000000000000000000000000000081526004016109bc90614a66565b60405180910390fd5b8073ffffffffffffffffffffffffffffffffffffffff166109e46122be565b73ffffffffffffffffffffffffffffffffffffffff161480610a135750610a1281610a0d6122be565b611ef9565b5b610a52576040517f08c379a0000000000000000000000000000000000000000000000000000000008152600401610a49906148c6565b60405180910390fd5b610a5c83836122c6565b505050565b60006001600954610a729190614e60565b905090565b610a88610a826122be565b8261237f565b610ac7576040517f08c379a0000000000000000000000000000000000000000000000000000000008152600401610abe90614aa6565b60405180910390fd5b610ad283838361245d565b505050565b6013602052806000526040600020600091509050806000015490806001018054610b0090614f5e565b80601f0160208091040260200160405190810160405280929190818152602001828054610b2c90614f5e565b8015610b795780601f10610b4e57610100808354040283529160200191610b79565b820191906000526020600020905b815481529060010190602001808311610b5c57829003601f168201915b50505050509080600201549080600301549080600401549080600501549080600601549080600701549080600801549080600901549080600a01549080600b018054610bc490614f5e565b80601f0160208091040260200160405190810160405280929190818152602001828054610bf090614f5e565b8015610c3d5780601f10610c1257610100808354040283529160200191610c3d565b820191906000526020600020905b815481529060010190602001808311610c2057829003601f168201915b505050505090508c565b610c4f6122be565b73ffffffffffffffffffffffffffffffffffffffff16610c6d6119a0565b73ffffffffffffffffffffffffffffffffffffffff1614610cc3576040517f08c379a0000000000000000000000000000000000000000000000000000000008152600401610cba906149a6565b60405180910390fd5b80600c60006101000a81548173ffffffffffffffffffffffffffffffffffffffff021916908373ffffffffffffffffffffffffffffffffffffffff16021790555050565b610d0f6135d8565b601360008381526020019081526020016000206040518061018001604052908160008201548152602001600182018054610d4890614f5e565b80601f0160208091040260200160405190810160405280929190818152602001828054610d7490614f5e565b8015610dc15780601f10610d9657610100808354040283529160200191610dc1565b820191906000526020600020905b815481529060010190602001808311610da457829003601f168201915b505050505081526020016002820154815260200160038201548152602001600482015481526020016005820154815260200160068201548152602001600782015481526020016008820154815260200160098201548152602001600a8201548152602001600b82018054610e3490614f5e565b80601f0160208091040260200160405190810160405280929190818152602001828054610e6090614f5e565b8015610ead5780601f10610e8257610100808354040283529160200191610ead565b820191906000526020600020905b815481529060010190602001808311610e9057829003601f168201915b5050505050815250509050919050565b6000610ec883611d9b565b511115610f0a576040517f08c379a0000000000000000000000000000000000000000000000000000000008152600401610f01906147e6565b60405180910390fd5b8160095411610f4e576040517f08c379a0000000000000000000000000000000000000000000000000000000008152600401610f4590614a86565b60405180910390fd5b6000601660008481526020019081526020016000205411610fa4576040517f08c379a0000000000000000000000000000000000000000000000000000000008152600401610f9b90614a46565b60405180910390fd5b600060166000848152602001908152602001600020549050610fc78382846126b9565b6000600c60009054906101000a900473ffffffffffffffffffffffffffffffffffffffff1673ffffffffffffffffffffffffffffffffffffffff1663f2db2170601360008781526020019081526020016000206040518263ffffffff1660e01b81526004016110369190614b28565b60006040518083038186803b15801561104e57600080fd5b505afa158015611062573d6000803e3d6000fd5b505050506040513d6000823e3d601f19601f8201168201806040525081019061108b9190613c53565b90506000600c60009054906101000a900473ffffffffffffffffffffffffffffffffffffffff1673ffffffffffffffffffffffffffffffffffffffff1663a62a2fa783601360008981526020019081526020016000206040518363ffffffff1660e01b81526004016110fe9291906147af565b60006040518083038186803b15801561111657600080fd5b505afa15801561112a573d6000803e3d6000fd5b505050506040513d6000823e3d601f19601f820116820180604052508101906111539190613c53565b905061115f8582612a34565b847fb5a8d8cf5d01b5006e471421ba7da032446e2a82412342ed548b7aeed0ea9b698260405161118f9190614756565b60405180910390a25050505050565b6111b983838360405180602001604052806000815250611c79565b505050565b6111c66122be565b73ffffffffffffffffffffffffffffffffffffffff166111e46119a0565b73ffffffffffffffffffffffffffffffffffffffff161461123a576040517f08c379a0000000000000000000000000000000000000000000000000000000008152600401611231906149a6565b60405180910390fd5b80600d60006101000a81548173ffffffffffffffffffffffffffffffffffffffff021916908373ffffffffffffffffffffffffffffffffffffffff16021790555050565b600b5481565b6000806002600084815260200190815260200160002060009054906101000a900473ffffffffffffffffffffffffffffffffffffffff169050600073ffffffffffffffffffffffffffffffffffffffff168173ffffffffffffffffffffffffffffffffffffffff16141561132d576040517f08c379a000000000000000000000000000000000000000000000000000000000815260040161132490614906565b60405180910390fd5b80915050919050565b60008073ffffffffffffffffffffffffffffffffffffffff168273ffffffffffffffffffffffffffffffffffffffff1614156113a7576040517f08c379a000000000000000000000000000000000000000000000000000000000815260040161139e906148e6565b60405180910390fd5b600360008373ffffffffffffffffffffffffffffffffffffffff1673ffffffffffffffffffffffffffffffffffffffff168152602001908152602001600020549050919050565b6113f66122be565b73ffffffffffffffffffffffffffffffffffffffff166114146119a0565b73ffffffffffffffffffffffffffffffffffffffff161461146a576040517f08c379a0000000000000000000000000000000000000000000000000000000008152600401611461906149a6565b60405180910390fd5b6114746000612aa8565b565b600d60009054906101000a900473ffffffffffffffffffffffffffffffffffffffff1673ffffffffffffffffffffffffffffffffffffffff163373ffffffffffffffffffffffffffffffffffffffff16148061151f5750600e60009054906101000a900473ffffffffffffffffffffffffffffffffffffffff1673ffffffffffffffffffffffffffffffffffffffff163373ffffffffffffffffffffffffffffffffffffffff16145b61155e576040517f08c379a0000000000000000000000000000000000000000000000000000000008152600401611555906149c6565b60405180910390fd5b8060136000848152602001908152602001600020600082015181600001556020820151816001019080519060200190611598929190613639565b5060408201518160020155606082015181600301556080820151816004015560a0820151816005015560c0820151816006015560e082015181600701556101008201518160080155610120820151816009015561014082015181600a015561016082015181600b019080519060200190611613929190613639565b509050506000600c60009054906101000a900473ffffffffffffffffffffffffffffffffffffffff1673ffffffffffffffffffffffffffffffffffffffff1663f2db2170836040518263ffffffff1660e01b81526004016116749190614b06565b60006040518083038186803b15801561168c57600080fd5b505afa1580156116a0573d6000803e3d6000fd5b505050506040513d6000823e3d601f19601f820116820180604052508101906116c99190613c53565b90506000600c60009054906101000a900473ffffffffffffffffffffffffffffffffffffffff1673ffffffffffffffffffffffffffffffffffffffff1663a62a2fa783856040518363ffffffff1660e01b815260040161172a929190614778565b60006040518083038186803b15801561174257600080fd5b505afa158015611756573d6000803e3d6000fd5b505050506040513d6000823e3d601f19601f8201168201806040525081019061177f9190613c53565b905061178b8482612a34565b837f8088b75520f63d2193a6f5015badbc4cc953e620977a8c91f11b4227043fcb38826040516117bb9190614756565b60405180910390a250505050565b606060006117d683611336565b9050600081141561185957600067ffffffffffffffff811115611822577f4e487b7100000000000000000000000000000000000000000000000000000000600052604160045260246000fd5b6040519080825280602002602001820160405280156118505781602001602082028036833780820191505090505b5091505061199b565b60008167ffffffffffffffff81111561189b577f4e487b7100000000000000000000000000000000000000000000000000000000600052604160045260246000fd5b6040519080825280602002602001820160405280156118c95781602001602082028036833780820191505090505b509050600080600190505b600954811015611993576118e781612252565b801561192657508573ffffffffffffffffffffffffffffffffffffffff1661190e82611284565b73ffffffffffffffffffffffffffffffffffffffff16145b156119805780838381518110611965577f4e487b7100000000000000000000000000000000000000000000000000000000600052603260045260246000fd5b602002602001018181525050818061197c90614fdb565b9250505b808061198b90614fdb565b9150506118d4565b829450505050505b919050565b6000600760009054906101000a900473ffffffffffffffffffffffffffffffffffffffff16905090565b7f000000000000000000000000000000000000000000000000000000000000000073ffffffffffffffffffffffffffffffffffffffff163373ffffffffffffffffffffffffffffffffffffffff1614611a58576040517f08c379a0000000000000000000000000000000000000000000000000000000008152600401611a4f90614a26565b60405180910390fd5b611a628282612b6e565b5050565b606060018054611a7590614f5e565b80601f0160208091040260200160405190810160405280929190818152602001828054611aa190614f5e565b8015611aee5780601f10611ac357610100808354040283529160200191611aee565b820191906000526020600020905b815481529060010190602001808311611ad157829003601f168201915b5050505050905090565b611b006122be565b73ffffffffffffffffffffffffffffffffffffffff168273ffffffffffffffffffffffffffffffffffffffff161415611b6e576040517f08c379a0000000000000000000000000000000000000000000000000000000008152600401611b6590614886565b60405180910390fd5b8060056000611b7b6122be565b73ffffffffffffffffffffffffffffffffffffffff1673ffffffffffffffffffffffffffffffffffffffff16815260200190815260200160002060008473ffffffffffffffffffffffffffffffffffffffff1673ffffffffffffffffffffffffffffffffffffffff16815260200190815260200160002060006101000a81548160ff0219169083151502179055508173ffffffffffffffffffffffffffffffffffffffff16611c286122be565b73ffffffffffffffffffffffffffffffffffffffff167f17307eab39ab6107e8899845ad3d59bd9653f200f220920489ca2b5937696c3183604051611c6d91906146b2565b60405180910390a35050565b611c8a611c846122be565b8361237f565b611cc9576040517f08c379a0000000000000000000000000000000000000000000000000000000008152600401611cc090614aa6565b60405180910390fd5b611cd584848484612c14565b50505050565b611ce36122be565b73ffffffffffffffffffffffffffffffffffffffff16611d016119a0565b73ffffffffffffffffffffffffffffffffffffffff1614611d57576040517f08c379a0000000000000000000000000000000000000000000000000000000008152600401611d4e906149a6565b60405180910390fd5b80600e60006101000a81548173ffffffffffffffffffffffffffffffffffffffff021916908373ffffffffffffffffffffffffffffffffffffffff16021790555050565b6060611da682612252565b611de5576040517f08c379a0000000000000000000000000000000000000000000000000000000008152600401611ddc90614966565b60405180910390fd5b6000600660008481526020019081526020016000208054611e0590614f5e565b80601f0160208091040260200160405190810160405280929190818152602001828054611e3190614f5e565b8015611e7e5780601f10611e5357610100808354040283529160200191611e7e565b820191906000526020600020905b815481529060010190602001808311611e6157829003601f168201915b505050505090506000611e8f612c70565b9050600081511415611ea5578192505050611ee8565b600082511115611eda578082604051602001611ec29291906145c7565b60405160208183030381529060405292505050611ee8565b611ee384612c87565b925050505b919050565b60095481565b600a5481565b6000600560008473ffffffffffffffffffffffffffffffffffffffff1673ffffffffffffffffffffffffffffffffffffffff16815260200190815260200160002060008373ffffffffffffffffffffffffffffffffffffffff1673ffffffffffffffffffffffffffffffffffffffff16815260200190815260200160002060009054906101000a900460ff16905092915050565b6000601260009054906101000a900460ff1615611fdf576040517f08c379a0000000000000000000000000000000000000000000000000000000008152600401611fd690614ae6565b60405180910390fd5b60105460095410612025576040517f08c379a000000000000000000000000000000000000000000000000000000000815260040161201c90614ac6565b60405180910390fd5b612033600b54600a54612d2e565b9050336014600083815260200190815260200160002060006101000a81548173ffffffffffffffffffffffffffffffffffffffff021916908373ffffffffffffffffffffffffffffffffffffffff16021790555060006009549050806015600084815260200190815260200160002081905550600960008154809291906120b990614fdb565b919050555080827fd18cd6f82baac9078af064ea020dd3dc7bff649bd8d50684f972d5995fec6e6960405160405180910390a35090565b6120f86122be565b73ffffffffffffffffffffffffffffffffffffffff166121166119a0565b73ffffffffffffffffffffffffffffffffffffffff161461216c576040517f08c379a0000000000000000000000000000000000000000000000000000000008152600401612163906149a6565b60405180910390fd5b600073ffffffffffffffffffffffffffffffffffffffff168173ffffffffffffffffffffffffffffffffffffffff1614156121dc576040517f08c379a00000000000000000000000000000000000000000000000000000000081526004016121d390614826565b60405180910390fd5b6121e581612aa8565b50565b60007f01ffc9a7000000000000000000000000000000000000000000000000000000007bffffffffffffffffffffffffffffffffffffffffffffffffffffffff1916827bffffffffffffffffffffffffffffffffffffffffffffffffffffffff1916149050919050565b60008073ffffffffffffffffffffffffffffffffffffffff166002600084815260200190815260200160002060009054906101000a900473ffffffffffffffffffffffffffffffffffffffff1673ffffffffffffffffffffffffffffffffffffffff1614159050919050565b600033905090565b816004600083815260200190815260200160002060006101000a81548173ffffffffffffffffffffffffffffffffffffffff021916908373ffffffffffffffffffffffffffffffffffffffff160217905550808273ffffffffffffffffffffffffffffffffffffffff1661233983611284565b73ffffffffffffffffffffffffffffffffffffffff167f8c5be1e5ebec7d5bd14f71427d1e84f3dd0314c0f7b2291e5b200ac8c7c3b92560405160405180910390a45050565b600061238a82612252565b6123c9576040517f08c379a00000000000000000000000000000000000000000000000000000000081526004016123c0906148a6565b60405180910390fd5b60006123d483611284565b90508073ffffffffffffffffffffffffffffffffffffffff168473ffffffffffffffffffffffffffffffffffffffff16148061244357508373ffffffffffffffffffffffffffffffffffffffff1661242b846108c4565b73ffffffffffffffffffffffffffffffffffffffff16145b8061245457506124538185611ef9565b5b91505092915050565b8273ffffffffffffffffffffffffffffffffffffffff1661247d82611284565b73ffffffffffffffffffffffffffffffffffffffff16146124d3576040517f08c379a00000000000000000000000000000000000000000000000000000000081526004016124ca906149e6565b60405180910390fd5b600073ffffffffffffffffffffffffffffffffffffffff168273ffffffffffffffffffffffffffffffffffffffff161415612543576040517f08c379a000000000000000000000000000000000000000000000000000000000815260040161253a90614866565b60405180910390fd5b61254e838383612e90565b6125596000826122c6565b6001600360008573ffffffffffffffffffffffffffffffffffffffff1673ffffffffffffffffffffffffffffffffffffffff16815260200190815260200160002060008282546125a99190614e60565b925050819055506001600360008473ffffffffffffffffffffffffffffffffffffffff1673ffffffffffffffffffffffffffffffffffffffff16815260200190815260200160002060008282546126009190614d7f565b92505081905550816002600083815260200190815260200160002060006101000a81548173ffffffffffffffffffffffffffffffffffffffff021916908373ffffffffffffffffffffffffffffffffffffffff160217905550808273ffffffffffffffffffffffffffffffffffffffff168473ffffffffffffffffffffffffffffffffffffffff167fddf252ad1be2c89b69c2b068fc378daa952ba7f163c4a11628f55a4df523b3ef60405160405180910390a4505050565b60006001601d846126ca9190615038565b6126d49190614d7f565b9050600060116004856126e79190615038565b8154811061271e577f4e487b7100000000000000000000000000000000000000000000000000000000600052603260045260246000fd5b90600052602060002001805461273390614f5e565b80601f016020809104026020016040519081016040528092919081815260200182805461275f90614f5e565b80156127ac5780601f10612781576101008083540402835291602001916127ac565b820191906000526020600020905b81548152906001019060200180831161278f57829003601f168201915b5050505050905060006127cd856005600a866127c89190614e06565b612e95565b9050604051806101800160405280878152602001858152602001848152602001600081526020016014856128019190614e06565b815260200182600081518110612840577f4e487b7100000000000000000000000000000000000000000000000000000000600052603260045260246000fd5b6020026020010151815260200182600181518110612887577f4e487b7100000000000000000000000000000000000000000000000000000000600052603260045260246000fd5b60200260200101518152602001826002815181106128ce577f4e487b7100000000000000000000000000000000000000000000000000000000600052603260045260246000fd5b6020026020010151815260200182600381518110612915577f4e487b7100000000000000000000000000000000000000000000000000000000600052603260045260246000fd5b602002602001015181526020018260048151811061295c577f4e487b7100000000000000000000000000000000000000000000000000000000600052603260045260246000fd5b602002602001015181526020016000815260200183815250601360008881526020019081526020016000206000820151816000015560208201518160010190805190602001906129ad929190613639565b5060408201518160020155606082015181600301556080820151816004015560a0820151816005015560c0820151816006015560e082015181600701556101008201518160080155610120820151816009015561014082015181600a015561016082015181600b019080519060200190612a28929190613639565b50905050505050505050565b612a3d82612252565b612a7c576040517f08c379a0000000000000000000000000000000000000000000000000000000008152600401612a7390614926565b60405180910390fd5b80600660008481526020019081526020016000209080519060200190612aa3929190613639565b505050565b6000600760009054906101000a900473ffffffffffffffffffffffffffffffffffffffff16905081600760006101000a81548173ffffffffffffffffffffffffffffffffffffffff021916908373ffffffffffffffffffffffffffffffffffffffff1602179055508173ffffffffffffffffffffffffffffffffffffffff168173ffffffffffffffffffffffffffffffffffffffff167f8be0079c531659141344cd1fd0a4f28419497f9722a3daafe3b4186f6b6457e060405160405180910390a35050565b60006014600084815260200190815260200160002060009054906101000a900473ffffffffffffffffffffffffffffffffffffffff169050600060156000858152602001908152602001600020549050612bc88282612fcb565b82601660008381526020019081526020016000208190555082817faad5362ce528ed941024b95d4c18dfd49b8503e1f586a5c353631d98c2af41b760405160405180910390a350505050565b612c1f84848461245d565b612c2b84848484612fe9565b612c6a576040517f08c379a0000000000000000000000000000000000000000000000000000000008152600401612c6190614806565b60405180910390fd5b50505050565b606060405180602001604052806000815250905090565b6060612c9282612252565b612cd1576040517f08c379a0000000000000000000000000000000000000000000000000000000008152600401612cc890614a06565b60405180910390fd5b6000612cdb612c70565b90506000815111612cfb5760405180602001604052806000815250612d26565b80612d0584613180565b604051602001612d169291906145c7565b6040516020818303038152906040525b915050919050565b60007f000000000000000000000000000000000000000000000000000000000000000073ffffffffffffffffffffffffffffffffffffffff16634000aea07f000000000000000000000000000000000000000000000000000000000000000084866000604051602001612da29291906146e8565b6040516020818303038152906040526040518463ffffffff1660e01b8152600401612dcf93929190614652565b602060405180830381600087803b158015612de957600080fd5b505af1158015612dfd573d6000803e3d6000fd5b505050506040513d601f19601f82011682018060405250810190612e219190613b9c565b506000612e4484600030600860008981526020019081526020016000205461332d565b905060016008600086815260200190815260200160002054612e669190614d7f565b6008600086815260200190815260200160002081905550612e878482613369565b91505092915050565b505050565b60608267ffffffffffffffff811115612ed7577f4e487b7100000000000000000000000000000000000000000000000000000000600052604160045260246000fd5b604051908082528060200260200182016040528015612f055781602001602082028036833780820191505090505b5090506000600190505b838111612fc35760008582604051602001612f2b929190614c2d565b6040516020818303038152906040528051906020012060001c905060018482612f549190615038565b612f5e9190614d7f565b83600184612f6c9190614e60565b81518110612fa3577f4e487b7100000000000000000000000000000000000000000000000000000000600052603260045260246000fd5b602002602001018181525050508080612fbb90614fdb565b915050612f0f565b509392505050565b612fe582826040518060200160405280600081525061339c565b5050565b600061300a8473ffffffffffffffffffffffffffffffffffffffff166133f7565b15613173578373ffffffffffffffffffffffffffffffffffffffff1663150b7a026130336122be565b8786866040518563ffffffff1660e01b81526004016130559493929190614606565b602060405180830381600087803b15801561306f57600080fd5b505af19250505080156130a057506040513d601f19601f8201168201806040525081019061309d9190613c2a565b60015b613123573d80600081146130d0576040519150601f19603f3d011682016040523d82523d6000602084013e6130d5565b606091505b5060008151141561311b576040517f08c379a000000000000000000000000000000000000000000000000000000000815260040161311290614806565b60405180910390fd5b805181602001fd5b63150b7a0260e01b7bffffffffffffffffffffffffffffffffffffffffffffffffffffffff1916817bffffffffffffffffffffffffffffffffffffffffffffffffffffffff191614915050613178565b600190505b949350505050565b606060008214156131c8576040518060400160405280600181526020017f30000000000000000000000000000000000000000000000000000000000000008152509050613328565b600082905060005b600082146131fa5780806131e390614fdb565b915050600a826131f39190614dd5565b91506131d0565b60008167ffffffffffffffff81111561323c577f4e487b7100000000000000000000000000000000000000000000000000000000600052604160045260246000fd5b6040519080825280601f01601f19166020018201604052801561326e5781602001600182028036833780820191505090505b5090505b60008514613321576001826132879190614e60565b9150600a856132969190615038565b60306132a29190614d7f565b60f81b8183815181106132de577f4e487b7100000000000000000000000000000000000000000000000000000000600052603260045260246000fd5b60200101907effffffffffffffffffffffffffffffffffffffffffffffffffffffffffffff1916908160001a905350600a8561331a9190614dd5565b9450613272565b8093505050505b919050565b6000848484846040516020016133469493929190614711565b6040516020818303038152906040528051906020012060001c9050949350505050565b6000828260405160200161337e92919061459b565b60405160208183030381529060405280519060200120905092915050565b6133a6838361340a565b6133b36000848484612fe9565b6133f2576040517f08c379a00000000000000000000000000000000000000000000000000000000081526004016133e990614806565b60405180910390fd5b505050565b600080823b905060008111915050919050565b600073ffffffffffffffffffffffffffffffffffffffff168273ffffffffffffffffffffffffffffffffffffffff16141561347a576040517f08c379a000000000000000000000000000000000000000000000000000000000815260040161347190614946565b60405180910390fd5b61348381612252565b156134c3576040517f08c379a00000000000000000000000000000000000000000000000000000000081526004016134ba90614846565b60405180910390fd5b6134cf60008383612e90565b6001600360008473ffffffffffffffffffffffffffffffffffffffff1673ffffffffffffffffffffffffffffffffffffffff168152602001908152602001600020600082825461351f9190614d7f565b92505081905550816002600083815260200190815260200160002060006101000a81548173ffffffffffffffffffffffffffffffffffffffff021916908373ffffffffffffffffffffffffffffffffffffffff160217905550808273ffffffffffffffffffffffffffffffffffffffff16600073ffffffffffffffffffffffffffffffffffffffff167fddf252ad1be2c89b69c2b068fc378daa952ba7f163c4a11628f55a4df523b3ef60405160405180910390a45050565b6040518061018001604052806000815260200160608152602001600081526020016000815260200160008152602001600081526020016000815260200160008152602001600081526020016000815260200160008152602001606081525090565b82805461364590614f5e565b90600052602060002090601f01602090048101928261366757600085556136ae565b82601f1061368057805160ff19168380011785556136ae565b828001600101855582156136ae579182015b828111156136ad578251825591602001919060010190613692565b5b5090506136bb91906136bf565b5090565b5b808211156136d85760008160009055506001016136c0565b5090565b60006136ef6136ea84614c7b565b614c56565b90508281526020810184848401111561370757600080fd5b613712848285614f1c565b509392505050565b600061372d61372884614cac565b614c56565b90508281526020810184848401111561374557600080fd5b613750848285614f1c565b509392505050565b600061376b61376684614cac565b614c56565b90508281526020810184848401111561378357600080fd5b61378e848285614f2b565b509392505050565b6000813590506137a581615758565b92915050565b6000813590506137ba8161576f565b92915050565b6000815190506137cf8161576f565b92915050565b6000813590506137e481615786565b92915050565b6000813590506137f98161579d565b92915050565b60008151905061380e8161579d565b92915050565b600082601f83011261382557600080fd5b81356138358482602086016136dc565b91505092915050565b600082601f83011261384f57600080fd5b813561385f84826020860161371a565b91505092915050565b600082601f83011261387957600080fd5b8151613889848260208601613758565b91505092915050565b600061018082840312156138a557600080fd5b6138b0610180614c56565b905060006138c0848285016139e0565b600083015250602082013567ffffffffffffffff8111156138e057600080fd5b6138ec8482850161383e565b6020830152506040613900848285016139e0565b6040830152506060613914848285016139e0565b6060830152506080613928848285016139e0565b60808301525060a061393c848285016139e0565b60a08301525060c0613950848285016139e0565b60c08301525060e0613964848285016139e0565b60e083015250610100613979848285016139e0565b6101008301525061012061398f848285016139e0565b610120830152506101406139a5848285016139e0565b6101408301525061016082013567ffffffffffffffff8111156139c757600080fd5b6139d38482850161383e565b6101608301525092915050565b6000813590506139ef816157b4565b92915050565b600060208284031215613a0757600080fd5b6000613a1584828501613796565b91505092915050565b60008060408385031215613a3157600080fd5b6000613a3f85828601613796565b9250506020613a5085828601613796565b9150509250929050565b600080600060608486031215613a6f57600080fd5b6000613a7d86828701613796565b9350506020613a8e86828701613796565b9250506040613a9f868287016139e0565b9150509250925092565b60008060008060808587031215613abf57600080fd5b6000613acd87828801613796565b9450506020613ade87828801613796565b9350506040613aef878288016139e0565b925050606085013567ffffffffffffffff811115613b0c57600080fd5b613b1887828801613814565b91505092959194509250565b60008060408385031215613b3757600080fd5b6000613b4585828601613796565b9250506020613b56858286016137ab565b9150509250929050565b60008060408385031215613b7357600080fd5b6000613b8185828601613796565b9250506020613b92858286016139e0565b9150509250929050565b600060208284031215613bae57600080fd5b6000613bbc848285016137c0565b91505092915050565b60008060408385031215613bd857600080fd5b6000613be6858286016137d5565b9250506020613bf7858286016139e0565b9150509250929050565b600060208284031215613c1357600080fd5b6000613c21848285016137ea565b91505092915050565b600060208284031215613c3c57600080fd5b6000613c4a848285016137ff565b91505092915050565b600060208284031215613c6557600080fd5b600082015167ffffffffffffffff811115613c7f57600080fd5b613c8b84828501613868565b91505092915050565b600060208284031215613ca657600080fd5b6000613cb4848285016139e0565b91505092915050565b60008060408385031215613cd057600080fd5b6000613cde858286016139e0565b925050602083013567ffffffffffffffff811115613cfb57600080fd5b613d078582860161383e565b9150509250929050565b60008060408385031215613d2457600080fd5b6000613d32858286016139e0565b925050602083013567ffffffffffffffff811115613d4f57600080fd5b613d5b85828601613892565b9150509250929050565b6000613d718383614566565b60208301905092915050565b613d8681614e9e565b82525050565b6000613d9782614d02565b613da18185614d30565b9350613dac83614cdd565b8060005b83811015613ddd578151613dc48882613d65565b9750613dcf83614d23565b925050600181019050613db0565b5085935050505092915050565b613df381614eb0565b82525050565b613e0281614ebc565b82525050565b613e19613e1482614ebc565b615024565b82525050565b6000613e2a82614d0d565b613e348185614d41565b9350613e44818560208601614f2b565b613e4d81615125565b840191505092915050565b6000613e6382614d18565b613e6d8185614d52565b9350613e7d818560208601614f2b565b613e8681615125565b840191505092915050565b6000613e9c82614d18565b613ea68185614d63565b9350613eb6818560208601614f2b565b613ebf81615125565b840191505092915050565b6000613ed582614d18565b613edf8185614d74565b9350613eef818560208601614f2b565b80840191505092915050565b60008154613f0881614f5e565b613f128186614d52565b94506001821660008114613f2d5760018114613f3f57613f72565b60ff1983168652602086019350613f72565b613f4885614ced565b60005b83811015613f6a57815481890152600182019150602081019050613f4b565b808801955050505b50505092915050565b6000613f88600383614d63565b9150613f9382615143565b602082019050919050565b6000613fab603283614d63565b9150613fb68261516c565b604082019050919050565b6000613fce602683614d63565b9150613fd9826151bb565b604082019050919050565b6000613ff1601c83614d63565b9150613ffc8261520a565b602082019050919050565b6000614014602483614d63565b915061401f82615233565b604082019050919050565b6000614037601983614d63565b915061404282615282565b602082019050919050565b600061405a602c83614d63565b9150614065826152ab565b604082019050919050565b600061407d603883614d63565b9150614088826152fa565b604082019050919050565b60006140a0602a83614d63565b91506140ab82615349565b604082019050919050565b60006140c3602983614d63565b91506140ce82615398565b604082019050919050565b60006140e6602e83614d63565b91506140f1826153e7565b604082019050919050565b6000614109602083614d63565b915061411482615436565b602082019050919050565b600061412c603183614d63565b91506141378261545f565b604082019050919050565b600061414f602c83614d63565b915061415a826154ae565b604082019050919050565b6000614172602083614d63565b915061417d826154fd565b602082019050919050565b6000614195600283614d63565b91506141a082615526565b602082019050919050565b60006141b8602983614d63565b91506141c38261554f565b604082019050919050565b60006141db602f83614d63565b91506141e68261559e565b604082019050919050565b60006141fe601f83614d63565b9150614209826155ed565b602082019050919050565b6000614221600383614d63565b915061422c82615616565b602082019050919050565b6000614244602183614d63565b915061424f8261563f565b604082019050919050565b6000614267600383614d63565b91506142728261568e565b602082019050919050565b600061428a603183614d63565b9150614295826156b7565b604082019050919050565b60006142ad600283614d63565b91506142b882615706565b602082019050919050565b60006142d0600383614d63565b91506142db8261572f565b602082019050919050565b6000610180830160008301516142ff6000860182614566565b50602083015184820360208601526143178282613e58565b915050604083015161432c6040860182614566565b50606083015161433f6060860182614566565b5060808301516143526080860182614566565b5060a083015161436560a0860182614566565b5060c083015161437860c0860182614566565b5060e083015161438b60e0860182614566565b506101008301516143a0610100860182614566565b506101208301516143b5610120860182614566565b506101408301516143ca610140860182614566565b506101608301518482036101608601526143e48282613e58565b9150508091505092915050565b60006101808301600080840154905061440981614f90565b6144166000870182614566565b5060018401858303602087015261442d8382613efb565b9250506002840154905061444081614f90565b61444d6040870182614566565b506003840154905061445e81614f90565b61446b6060870182614566565b506004840154905061447c81614f90565b6144896080870182614566565b506005840154905061449a81614f90565b6144a760a0870182614566565b50600684015490506144b881614f90565b6144c560c0870182614566565b50600784015490506144d681614f90565b6144e360e0870182614566565b50600884015490506144f481614f90565b614502610100870182614566565b506009840154905061451381614f90565b614521610120870182614566565b50600a840154905061453281614f90565b614540610140870182614566565b50600b84018583036101608701526145588382613efb565b925050819250505092915050565b61456f81614f12565b82525050565b61457e81614f12565b82525050565b61459561459082614f12565b61502e565b82525050565b60006145a78285613e08565b6020820191506145b78284614584565b6020820191508190509392505050565b60006145d38285613eca565b91506145df8284613eca565b91508190509392505050565b60006020820190506146006000830184613d7d565b92915050565b600060808201905061461b6000830187613d7d565b6146286020830186613d7d565b6146356040830185614575565b81810360608301526146478184613e1f565b905095945050505050565b60006060820190506146676000830186613d7d565b6146746020830185614575565b81810360408301526146868184613e1f565b9050949350505050565b600060208201905081810360008301526146aa8184613d8c565b905092915050565b60006020820190506146c76000830184613dea565b92915050565b60006020820190506146e26000830184613df9565b92915050565b60006040820190506146fd6000830185613df9565b61470a6020830184614575565b9392505050565b60006080820190506147266000830187613df9565b6147336020830186614575565b6147406040830185613d7d565b61474d6060830184614575565b95945050505050565b600060208201905081810360008301526147708184613e91565b905092915050565b600060408201905081810360008301526147928185613e91565b905081810360208301526147a681846142e6565b90509392505050565b600060408201905081810360008301526147c98185613e91565b905081810360208301526147dd81846143f1565b90509392505050565b600060208201905081810360008301526147ff81613f7b565b9050919050565b6000602082019050818103600083015261481f81613f9e565b9050919050565b6000602082019050818103600083015261483f81613fc1565b9050919050565b6000602082019050818103600083015261485f81613fe4565b9050919050565b6000602082019050818103600083015261487f81614007565b9050919050565b6000602082019050818103600083015261489f8161402a565b9050919050565b600060208201905081810360008301526148bf8161404d565b9050919050565b600060208201905081810360008301526148df81614070565b9050919050565b600060208201905081810360008301526148ff81614093565b9050919050565b6000602082019050818103600083015261491f816140b6565b9050919050565b6000602082019050818103600083015261493f816140d9565b9050919050565b6000602082019050818103600083015261495f816140fc565b9050919050565b6000602082019050818103600083015261497f8161411f565b9050919050565b6000602082019050818103600083015261499f81614142565b9050919050565b600060208201905081810360008301526149bf81614165565b9050919050565b600060208201905081810360008301526149df81614188565b9050919050565b600060208201905081810360008301526149ff816141ab565b9050919050565b60006020820190508181036000830152614a1f816141ce565b9050919050565b60006020820190508181036000830152614a3f816141f1565b9050919050565b60006020820190508181036000830152614a5f81614214565b9050919050565b60006020820190508181036000830152614a7f81614237565b9050919050565b60006020820190508181036000830152614a9f8161425a565b9050919050565b60006020820190508181036000830152614abf8161427d565b9050919050565b60006020820190508181036000830152614adf816142a0565b9050919050565b60006020820190508181036000830152614aff816142c3565b9050919050565b60006020820190508181036000830152614b2081846142e6565b905092915050565b60006020820190508181036000830152614b4281846143f1565b905092915050565b6000602082019050614b5f6000830184614575565b92915050565b600061018082019050614b7b600083018f614575565b8181036020830152614b8d818e613e91565b9050614b9c604083018d614575565b614ba9606083018c614575565b614bb6608083018b614575565b614bc360a083018a614575565b614bd060c0830189614575565b614bdd60e0830188614575565b614beb610100830187614575565b614bf9610120830186614575565b614c07610140830185614575565b818103610160830152614c1a8184613e91565b90509d9c50505050505050505050505050565b6000604082019050614c426000830185614575565b614c4f6020830184614575565b9392505050565b6000614c60614c71565b9050614c6c8282614faa565b919050565b6000604051905090565b600067ffffffffffffffff821115614c9657614c956150f6565b5b614c9f82615125565b9050602081019050919050565b600067ffffffffffffffff821115614cc757614cc66150f6565b5b614cd082615125565b9050602081019050919050565b6000819050602082019050919050565b60008190508160005260206000209050919050565b600081519050919050565b600081519050919050565b600081519050919050565b6000602082019050919050565b600082825260208201905092915050565b600082825260208201905092915050565b600082825260208201905092915050565b600082825260208201905092915050565b600081905092915050565b6000614d8a82614f12565b9150614d9583614f12565b9250827fffffffffffffffffffffffffffffffffffffffffffffffffffffffffffffffff03821115614dca57614dc9615069565b5b828201905092915050565b6000614de082614f12565b9150614deb83614f12565b925082614dfb57614dfa615098565b5b828204905092915050565b6000614e1182614f12565b9150614e1c83614f12565b9250817fffffffffffffffffffffffffffffffffffffffffffffffffffffffffffffffff0483118215151615614e5557614e54615069565b5b828202905092915050565b6000614e6b82614f12565b9150614e7683614f12565b925082821015614e8957614e88615069565b5b828203905092915050565b6000819050919050565b6000614ea982614ef2565b9050919050565b60008115159050919050565b6000819050919050565b60007fffffffff0000000000000000000000000000000000000000000000000000000082169050919050565b600073ffffffffffffffffffffffffffffffffffffffff82169050919050565b6000819050919050565b82818337600083830152505050565b60005b83811015614f49578082015181840152602081019050614f2e565b83811115614f58576000848401525b50505050565b60006002820490506001821680614f7657607f821691505b60208210811415614f8a57614f896150c7565b5b50919050565b6000614fa3614f9e83615136565b614e94565b9050919050565b614fb382615125565b810181811067ffffffffffffffff82111715614fd257614fd16150f6565b5b80604052505050565b6000614fe682614f12565b91507fffffffffffffffffffffffffffffffffffffffffffffffffffffffffffffffff82141561501957615018615069565b5b600182019050919050565b6000819050919050565b6000819050919050565b600061504382614f12565b915061504e83614f12565b92508261505e5761505d615098565b5b828206905092915050565b7f4e487b7100000000000000000000000000000000000000000000000000000000600052601160045260246000fd5b7f4e487b7100000000000000000000000000000000000000000000000000000000600052601260045260246000fd5b7f4e487b7100000000000000000000000000000000000000000000000000000000600052602260045260246000fd5b7f4e487b7100000000000000000000000000000000000000000000000000000000600052604160045260246000fd5b6000601f19601f8301169050919050565b60008160001c9050919050565b7f5455530000000000000000000000000000000000000000000000000000000000600082015250565b7f4552433732313a207472616e7366657220746f206e6f6e20455243373231526560008201527f63656976657220696d706c656d656e7465720000000000000000000000000000602082015250565b7f4f776e61626c653a206e6577206f776e657220697320746865207a65726f206160008201527f6464726573730000000000000000000000000000000000000000000000000000602082015250565b7f4552433732313a20746f6b656e20616c7265616479206d696e74656400000000600082015250565b7f4552433732313a207472616e7366657220746f20746865207a65726f2061646460008201527f7265737300000000000000000000000000000000000000000000000000000000602082015250565b7f4552433732313a20617070726f766520746f2063616c6c657200000000000000600082015250565b7f4552433732313a206f70657261746f7220717565727920666f72206e6f6e657860008201527f697374656e7420746f6b656e0000000000000000000000000000000000000000602082015250565b7f4552433732313a20617070726f76652063616c6c6572206973206e6f74206f7760008201527f6e6572206e6f7220617070726f76656420666f7220616c6c0000000000000000602082015250565b7f4552433732313a2062616c616e636520717565727920666f7220746865207a6560008201527f726f206164647265737300000000000000000000000000000000000000000000602082015250565b7f4552433732313a206f776e657220717565727920666f72206e6f6e657869737460008201527f656e7420746f6b656e0000000000000000000000000000000000000000000000602082015250565b7f45524337323155524953746f726167653a2055524920736574206f66206e6f6e60008201527f6578697374656e7420746f6b656e000000000000000000000000000000000000602082015250565b7f4552433732313a206d696e7420746f20746865207a65726f2061646472657373600082015250565b7f45524337323155524953746f726167653a2055524920717565727920666f722060008201527f6e6f6e6578697374656e7420746f6b656e000000000000000000000000000000602082015250565b7f4552433732313a20617070726f76656420717565727920666f72206e6f6e657860008201527f697374656e7420746f6b656e0000000000000000000000000000000000000000602082015250565b7f4f776e61626c653a2063616c6c6572206973206e6f7420746865206f776e6572600082015250565b7f4145000000000000000000000000000000000000000000000000000000000000600082015250565b7f4552433732313a207472616e73666572206f6620746f6b656e2074686174206960008201527f73206e6f74206f776e0000000000000000000000000000000000000000000000602082015250565b7f4552433732314d657461646174613a2055524920717565727920666f72206e6f60008201527f6e6578697374656e7420746f6b656e0000000000000000000000000000000000602082015250565b7f4f6e6c7920565246436f6f7264696e61746f722063616e2066756c66696c6c00600082015250565b7f434e520000000000000000000000000000000000000000000000000000000000600082015250565b7f4552433732313a20617070726f76616c20746f2063757272656e74206f776e6560008201527f7200000000000000000000000000000000000000000000000000000000000000602082015250565b7f544e4d0000000000000000000000000000000000000000000000000000000000600082015250565b7f4552433732313a207472616e736665722063616c6c6572206973206e6f74206f60008201527f776e6572206e6f7220617070726f766564000000000000000000000000000000602082015250565b7f4d4f000000000000000000000000000000000000000000000000000000000000600082015250565b7f4d4e410000000000000000000000000000000000000000000000000000000000600082015250565b61576181614e9e565b811461576c57600080fd5b50565b61577881614eb0565b811461578357600080fd5b50565b61578f81614ebc565b811461579a57600080fd5b50565b6157a681614ec6565b81146157b157600080fd5b50565b6157bd81614f12565b81146157c857600080fd5b5056fea2646970667358221220238c51be365391c2a69be5c6869803aeddb83f9db2b4b59709b568da4f503ffa64736f6c63430008040033",
  "linkReferences": {},
  "deployedLinkReferences": {}
}