{
  "_format": "hh-sol-artifact-1",
  "contractName": "Fighting",
  "sourceName": "contracts/Fighting.sol",
  "abi": [
    {
      "inputs": [
        {
          "internalType": "address",
          "name": "_nftContract",
          "type": "address"
        },
        {
          "internalType": "address",
          "name": "_VRFCoordinator",
          "type": "address"
        },
        {
          "internalType": "address",
          "name": "_linkToken",
          "type": "address"
        },
        {
          "internalType": "bytes32",
          "name": "_keyHash",
          "type": "bytes32"
        },
        {
          "internalType": "uint256",
          "name": "_fee",
          "type": "uint256"
        }
      ],
      "stateMutability": "nonpayable",
      "type": "constructor"
    },
    {
      "anonymous": false,
      "inputs": [
        {
          "indexed": true,
          "internalType": "address",
          "name": "previousOwner",
          "type": "address"
        },
        {
          "indexed": true,
          "internalType": "address",
          "name": "newOwner",
          "type": "address"
        }
      ],
      "name": "OwnershipTransferred",
      "type": "event"
    },
    {
      "anonymous": false,
      "inputs": [
        {
          "indexed": true,
          "internalType": "bytes32",
          "name": "requestId",
          "type": "bytes32"
        },
        {
          "indexed": true,
          "internalType": "uint256",
          "name": "matchId",
          "type": "uint256"
        }
      ],
      "name": "RequestedMatch",
      "type": "event"
    },
    {
      "inputs": [],
      "name": "fee",
      "outputs": [
        {
          "internalType": "uint256",
          "name": "",
          "type": "uint256"
        }
      ],
      "stateMutability": "view",
      "type": "function"
    },
    {
      "inputs": [
        {
          "internalType": "uint256",
          "name": "_matchId",
          "type": "uint256"
        }
      ],
      "name": "finishMatch",
      "outputs": [],
      "stateMutability": "nonpayable",
      "type": "function"
    },
    {
      "inputs": [],
      "name": "finishedMatches",
      "outputs": [
        {
          "internalType": "uint256",
          "name": "",
          "type": "uint256"
        }
      ],
      "stateMutability": "view",
      "type": "function"
    },
    {
      "inputs": [
        {
          "internalType": "uint256",
          "name": "tokenId",
          "type": "uint256"
        }
      ],
      "name": "getFinishedMatchIds",
      "outputs": [
        {
          "internalType": "uint256[]",
          "name": "",
          "type": "uint256[]"
        }
      ],
      "stateMutability": "view",
      "type": "function"
    },
    {
      "inputs": [
        {
          "internalType": "uint256",
          "name": "tokenId",
          "type": "uint256"
        }
      ],
      "name": "getUnFinishedMatchIds",
      "outputs": [
        {
          "internalType": "uint256[]",
          "name": "",
          "type": "uint256[]"
        }
      ],
      "stateMutability": "view",
      "type": "function"
    },
    {
      "inputs": [],
      "name": "keyHash",
      "outputs": [
        {
          "internalType": "bytes32",
          "name": "",
          "type": "bytes32"
        }
      ],
      "stateMutability": "view",
      "type": "function"
    },
    {
      "inputs": [],
      "name": "matchCounter",
      "outputs": [
        {
          "internalType": "uint256",
          "name": "",
          "type": "uint256"
        }
      ],
      "stateMutability": "view",
      "type": "function"
    },
    {
      "inputs": [
        {
          "internalType": "uint256",
          "name": "",
          "type": "uint256"
        }
      ],
      "name": "matchIdToMatch",
      "outputs": [
        {
          "internalType": "uint256",
          "name": "matchId",
          "type": "uint256"
        },
        {
          "internalType": "uint256",
          "name": "fighterOne",
          "type": "uint256"
        },
        {
          "internalType": "uint256",
          "name": "fighterTwo",
          "type": "uint256"
        },
        {
          "internalType": "uint256",
          "name": "winner",
          "type": "uint256"
        },
        {
          "internalType": "uint256",
          "name": "looser",
          "type": "uint256"
        },
        {
          "internalType": "bool",
          "name": "end",
          "type": "bool"
        },
        {
          "internalType": "string",
          "name": "matchLogs",
          "type": "string"
        }
      ],
      "stateMutability": "view",
      "type": "function"
    },
    {
      "inputs": [],
      "name": "owner",
      "outputs": [
        {
          "internalType": "address",
          "name": "",
          "type": "address"
        }
      ],
      "stateMutability": "view",
      "type": "function"
    },
    {
      "inputs": [
        {
          "internalType": "bool",
          "name": "_state",
          "type": "bool"
        }
      ],
      "name": "pause",
      "outputs": [],
      "stateMutability": "nonpayable",
      "type": "function"
    },
    {
      "inputs": [],
      "name": "paused",
      "outputs": [
        {
          "internalType": "bool",
          "name": "",
          "type": "bool"
        }
      ],
      "stateMutability": "view",
      "type": "function"
    },
    {
      "inputs": [
        {
          "internalType": "bytes32",
          "name": "requestId",
          "type": "bytes32"
        },
        {
          "internalType": "uint256",
          "name": "randomness",
          "type": "uint256"
        }
      ],
      "name": "rawFulfillRandomness",
      "outputs": [],
      "stateMutability": "nonpayable",
      "type": "function"
    },
    {
      "inputs": [],
      "name": "renounceOwnership",
      "outputs": [],
      "stateMutability": "nonpayable",
      "type": "function"
    },
    {
      "inputs": [
        {
          "internalType": "uint256",
          "name": "_tokenId",
          "type": "uint256"
        }
      ],
      "name": "toggleOpenToFight",
      "outputs": [],
      "stateMutability": "nonpayable",
      "type": "function"
    },
    {
      "inputs": [
        {
          "internalType": "address",
          "name": "newOwner",
          "type": "address"
        }
      ],
      "name": "transferOwnership",
      "outputs": [],
      "stateMutability": "nonpayable",
      "type": "function"
    }
  ],
  "bytecode": "0x60c06040523480156200001157600080fd5b506040516200456738038062004567833981810160405281019062000037919062000269565b838360016000819055508173ffffffffffffffffffffffffffffffffffffffff1660a08173ffffffffffffffffffffffffffffffffffffffff1660601b815250508073ffffffffffffffffffffffffffffffffffffffff1660808173ffffffffffffffffffffffffffffffffffffffff1660601b815250505050620000d1620000c56200015660201b60201c565b6200015e60201b60201c565b806004819055508160058190555084600360006101000a81548173ffffffffffffffffffffffffffffffffffffffff021916908373ffffffffffffffffffffffffffffffffffffffff160217905550600060068190555060006007819055506000600860006101000a81548160ff021916908315150217905550505050505062000381565b600033905090565b6000600260009054906101000a900473ffffffffffffffffffffffffffffffffffffffff16905081600260006101000a81548173ffffffffffffffffffffffffffffffffffffffff021916908373ffffffffffffffffffffffffffffffffffffffff1602179055508173ffffffffffffffffffffffffffffffffffffffff168173ffffffffffffffffffffffffffffffffffffffff167f8be0079c531659141344cd1fd0a4f28419497f9722a3daafe3b4186f6b6457e060405160405180910390a35050565b600081519050620002358162000333565b92915050565b6000815190506200024c816200034d565b92915050565b600081519050620002638162000367565b92915050565b600080600080600060a086880312156200028257600080fd5b6000620002928882890162000224565b9550506020620002a58882890162000224565b9450506040620002b88882890162000224565b9350506060620002cb888289016200023b565b9250506080620002de8882890162000252565b9150509295509295909350565b6000620002f88262000309565b9050919050565b6000819050919050565b600073ffffffffffffffffffffffffffffffffffffffff82169050919050565b6000819050919050565b6200033e81620002eb565b81146200034a57600080fd5b50565b6200035881620002ff565b81146200036457600080fd5b50565b620003728162000329565b81146200037e57600080fd5b50565b60805160601c60a05160601c6141b3620003b4600039600081816108340152612bad01526000612b7101526141b36000f3fe608060405234801561001057600080fd5b50600436106100f55760003560e01c806361728f3911610097578063ae09944811610066578063ae0994481461024e578063cec205d714610284578063ddca3f43146102a0578063f2fde38b146102be576100f5565b806361728f39146101ec578063715018a61461020a5780638da5cb5b1461021457806394985ddd14610232576100f5565b806322dfb9f2116100d357806322dfb9f214610164578063337808da1461019457806354c9d709146101b25780635c975abb146101ce576100f5565b806301fd1951146100fa57806302329a291461011857806304e4883414610134575b600080fd5b6101026102da565b60405161010f919061392f565b60405180910390f35b610132600480360381019061012d91906130bb565b6102e0565b005b61014e6004803603810190610149919061318a565b610379565b60405161015b9190613729565b60405180910390f35b61017e6004803603810190610179919061318a565b6104f6565b60405161018b9190613729565b60405180910390f35b61019c610673565b6040516101a9919061392f565b60405180910390f35b6101cc60048036038101906101c7919061318a565b610679565b005b6101d6610767565b6040516101e3919061374b565b60405180910390f35b6101f461077a565b6040516102019190613766565b60405180910390f35b610212610780565b005b61021c610808565b60405161022991906136d0565b60405180910390f35b61024c6004803603810190610247919061310d565b610832565b005b6102686004803603810190610263919061318a565b6108ce565b60405161027b97969594939291906139da565b60405180910390f35b61029e6004803603810190610299919061318a565b6109a5565b005b6102a861127a565b6040516102b5919061392f565b60405180910390f35b6102d860048036038101906102d39190613069565b611280565b005b60065481565b6102e8611378565b73ffffffffffffffffffffffffffffffffffffffff16610306610808565b73ffffffffffffffffffffffffffffffffffffffff161461035c576040517f08c379a00000000000000000000000000000000000000000000000000000000081526004016103539061384f565b60405180910390fd5b80600860006101000a81548160ff02191690831515021790555050565b6060600060065467ffffffffffffffff8111156103bf577f4e487b7100000000000000000000000000000000000000000000000000000000600052604160045260246000fd5b6040519080825280602002602001820160405280156103ed5781602001602082028036833780820191505090505b5090506000805b6006548110156104eb5760001515600c600083815260200190815260200160002060050160009054906101000a900460ff16151514156104d85784600c6000838152602001908152602001600020600101541480610467575084600c600083815260200190815260200160002060020154145b156104d757600c6000828152602001908152602001600020600001548383815181106104bc577f4e487b7100000000000000000000000000000000000000000000000000000000600052603260045260246000fd5b60200260200101818152505081806104d390613d74565b9250505b5b80806104e390613d74565b9150506103f4565b508192505050919050565b6060600060075467ffffffffffffffff81111561053c577f4e487b7100000000000000000000000000000000000000000000000000000000600052604160045260246000fd5b60405190808252806020026020018201604052801561056a5781602001602082028036833780820191505090505b5090506000805b6006548110156106685760011515600c600083815260200190815260200160002060050160009054906101000a900460ff16151514156106555784600c60008381526020019081526020016000206001015414806105e4575084600c600083815260200190815260200160002060020154145b1561065457600c600082815260200190815260200160002060000154838381518110610639577f4e487b7100000000000000000000000000000000000000000000000000000000600052603260045260246000fd5b602002602001018181525050818061065090613d74565b9250505b5b808061066090613d74565b915050610571565b508192505050919050565b60075481565b60001515600c600083815260200190815260200160002060050160009054906101000a900460ff1615151480156106c657506000600c600083815260200190815260200160002060030154145b610705576040517f08c379a00000000000000000000000000000000000000000000000000000000081526004016106fc9061388f565b60405180910390fd5b6000600a6000838152602001908152602001600020541161075b576040517f08c379a0000000000000000000000000000000000000000000000000000000008152600401610752906138af565b60405180910390fd5b61076481611380565b50565b600860009054906101000a900460ff1681565b60055481565b610788611378565b73ffffffffffffffffffffffffffffffffffffffff166107a6610808565b73ffffffffffffffffffffffffffffffffffffffff16146107fc576040517f08c379a00000000000000000000000000000000000000000000000000000000081526004016107f39061384f565b60405180910390fd5b6108066000611c03565b565b6000600260009054906101000a900473ffffffffffffffffffffffffffffffffffffffff16905090565b7f000000000000000000000000000000000000000000000000000000000000000073ffffffffffffffffffffffffffffffffffffffff163373ffffffffffffffffffffffffffffffffffffffff16146108c0576040517f08c379a00000000000000000000000000000000000000000000000000000000081526004016108b79061386f565b60405180910390fd5b6108ca8282611cc9565b5050565b600c6020528060005260406000206000915090508060000154908060010154908060020154908060030154908060040154908060050160009054906101000a900460ff169080600601805461092290613d11565b80601f016020809104026020016040519081016040528092919081815260200182805461094e90613d11565b801561099b5780601f106109705761010080835404028352916020019161099b565b820191906000526020600020905b81548152906001019060200180831161097e57829003601f168201915b5050505050905087565b600260005414156109eb576040517f08c379a00000000000000000000000000000000000000000000000000000000081526004016109e29061390f565b60405180910390fd5b6002600081905550600360009054906101000a900473ffffffffffffffffffffffffffffffffffffffff1673ffffffffffffffffffffffffffffffffffffffff16636352211e826040518263ffffffff1660e01b8152600401610a4e919061392f565b60206040518083038186803b158015610a6657600080fd5b505afa158015610a7a573d6000803e3d6000fd5b505050506040513d601f19601f82011682018060405250810190610a9e9190613092565b73ffffffffffffffffffffffffffffffffffffffff163373ffffffffffffffffffffffffffffffffffffffff1614610b0b576040517f08c379a0000000000000000000000000000000000000000000000000000000008152600401610b02906138cf565b60405180910390fd5b600860009054906101000a900460ff1615610b5b576040517f08c379a0000000000000000000000000000000000000000000000000000000008152600401610b52906138ef565b60405180910390fd5b6000600360009054906101000a900473ffffffffffffffffffffffffffffffffffffffff1673ffffffffffffffffffffffffffffffffffffffff1663368dc9f2836040518263ffffffff1660e01b8152600401610bb8919061392f565b60006040518083038186803b158015610bd057600080fd5b505afa158015610be4573d6000803e3d6000fd5b505050506040513d6000823e3d601f19601f82011682018060405250810190610c0d9190613149565b90506000600a8260400151610c229190613bc0565b90506000600b60008381526020019081526020016000206040518061018001604052908160008201548152602001600182018054610c5f90613d11565b80601f0160208091040260200160405190810160405280929190818152602001828054610c8b90613d11565b8015610cd85780601f10610cad57610100808354040283529160200191610cd8565b820191906000526020600020905b815481529060010190602001808311610cbb57829003601f168201915b505050505081526020016002820154815260200160038201548152602001600482015481526020016005820154815260200160068201548152602001600782015481526020016008820154815260200160098201548152602001600a8201548152602001600b82018054610d4b90613d11565b80601f0160208091040260200160405190810160405280929190818152602001828054610d7790613d11565b8015610dc45780601f10610d9957610100808354040283529160200191610dc4565b820191906000526020600020905b815481529060010190602001808311610da757829003601f168201915b50505050508152505090508381600001511415610f4957600283610140015114610e23576040517f08c379a0000000000000000000000000000000000000000000000000000000008152600401610e1a906137ef565b60405180910390fd5b600083610140018181525050600360009054906101000a900473ffffffffffffffffffffffffffffffffffffffff1673ffffffffffffffffffffffffffffffffffffffff1663716fee4f85856040518363ffffffff1660e01b8152600401610e8c92919061394a565b600060405180830381600087803b158015610ea657600080fd5b505af1158015610eba573d6000803e3d6000fd5b50505050600b6000838152602001908152602001600020600080820160009055600182016000610eea9190612d3d565b60028201600090556003820160009055600482016000905560058201600090556006820160009055600782016000905560088201600090556009820160009055600a820160009055600b82016000610f429190612d3d565b505061126c565b6001816000015110156110f757600083610140015114610f9e576040517f08c379a0000000000000000000000000000000000000000000000000000000008152600401610f959061382f565b60405180910390fd5b600283610140018181525050600360009054906101000a900473ffffffffffffffffffffffffffffffffffffffff1673ffffffffffffffffffffffffffffffffffffffff1663716fee4f85856040518363ffffffff1660e01b815260040161100792919061394a565b600060405180830381600087803b15801561102157600080fd5b505af1158015611035573d6000803e3d6000fd5b5050505082600b6000848152602001908152602001600020600082015181600001556020820151816001019080519060200190611073929190612d7d565b5060408201518160020155606082015181600301556080820151816004015560a0820151816005015560c0820151816006015560e082015181600701556101008201518160080155610120820151816009015561014082015181600a015561016082015181600b0190805190602001906110ee929190612d7d565b5090505061126b565b60008361014001511461113f576040517f08c379a00000000000000000000000000000000000000000000000000000000081526004016111369061382f565b60405180910390fd5b600283610140018181525050600360009054906101000a900473ffffffffffffffffffffffffffffffffffffffff1673ffffffffffffffffffffffffffffffffffffffff1663716fee4f85856040518363ffffffff1660e01b81526004016111a892919061394a565b600060405180830381600087803b1580156111c257600080fd5b505af11580156111d6573d6000803e3d6000fd5b505050506111e48184611cfe565b600b60008381526020019081526020016000206000808201600090556001820160006112109190612d3d565b60028201600090556003820160009055600482016000905560058201600090556006820160009055600782016000905560088201600090556009820160009055600a820160009055600b820160006112689190612d3d565b50505b5b505050600160008190555050565b60045481565b611288611378565b73ffffffffffffffffffffffffffffffffffffffff166112a6610808565b73ffffffffffffffffffffffffffffffffffffffff16146112fc576040517f08c379a00000000000000000000000000000000000000000000000000000000081526004016112f39061384f565b60405180910390fd5b600073ffffffffffffffffffffffffffffffffffffffff168173ffffffffffffffffffffffffffffffffffffffff16141561136c576040517f08c379a00000000000000000000000000000000000000000000000000000000081526004016113639061380f565b60405180910390fd5b61137581611c03565b50565b600033905090565b6000600a60008381526020019081526020016000205490506000600c60008481526020019081526020016000206040518060e001604052908160008201548152602001600182015481526020016002820154815260200160038201548152602001600482015481526020016005820160009054906101000a900460ff1615151515815260200160068201805461141590613d11565b80601f016020809104026020016040519081016040528092919081815260200182805461144190613d11565b801561148e5780601f106114635761010080835404028352916020019161148e565b820191906000526020600020905b81548152906001019060200180831161147157829003601f168201915b50505050508152505090506000600360009054906101000a900473ffffffffffffffffffffffffffffffffffffffff1673ffffffffffffffffffffffffffffffffffffffff1663368dc9f283602001516040518263ffffffff1660e01b81526004016114fa919061392f565b60006040518083038186803b15801561151257600080fd5b505afa158015611526573d6000803e3d6000fd5b505050506040513d6000823e3d601f19601f8201168201806040525081019061154f9190613149565b90506000600360009054906101000a900473ffffffffffffffffffffffffffffffffffffffff1673ffffffffffffffffffffffffffffffffffffffff1663368dc9f284604001516040518263ffffffff1660e01b81526004016115b2919061392f565b60006040518083038186803b1580156115ca57600080fd5b505afa1580156115de573d6000803e3d6000fd5b505050506040513d6000823e3d601f19601f820116820180604052508101906116079190613149565b905060006116188560c86064611e4f565b90506000604051806020016040528060008152509050600080600190505b60288111611b75576000604051806080016040528083815260200160008152602001600081526020016000815250905060016002836116759190613dd1565b14156118bc576116ce8760c001518760e001518786815181106116c1577f4e487b7100000000000000000000000000000000000000000000000000000000600052603260045260246000fd5b6020026020010151611f85565b6116d95760006116dc565b60015b60ff168160200181815250506001816020015114156117ec57828061170090613d74565b9350506117628761010001518761010001518960c001518960e00151898881518110611755577f4e487b7100000000000000000000000000000000000000000000000000000000600052603260045260246000fd5b6020026020010151611fb5565b61176d576000611770565b60015b60ff16816040018181525050828061178790613d74565b9350506117e28760a00151886040015183604001518887815181106117d5577f4e487b7100000000000000000000000000000000000000000000000000000000600052603260045260246000fd5b6020026020010151611ff2565b8160600181815250505b85608001518160600151111561189a578361180a8260000151612083565b6118178360200151612083565b6118248460400151612083565b6118318560600151612083565b604051602001611845959493929190613659565b60405160208183030381529060405293508660000151600c60008c8152602001908152602001600020600301819055508560000151600c60008c81526020019081526020016000206004018190555050611b75565b8060600151866080018181516118b09190613c4b565b91508181525050611af9565b61190f8660c001518860e00151878681518110611902577f4e487b7100000000000000000000000000000000000000000000000000000000600052603260045260246000fd5b6020026020010151611f85565b61191a57600061191d565b60015b60ff16816020018181525050600181602001511415611a2d57828061194190613d74565b9350506119a38661010001518861010001518860c001518a60e00151898881518110611996577f4e487b7100000000000000000000000000000000000000000000000000000000600052603260045260246000fd5b6020026020010151611fb5565b6119ae5760006119b1565b60015b60ff1681604001818152505082806119c890613d74565b935050611a238660a0015187604001518360400151888781518110611a16577f4e487b7100000000000000000000000000000000000000000000000000000000600052603260045260246000fd5b6020026020010151611ff2565b8160600181815250505b866080015181606001511115611adb5783611a4b8260000151612083565b611a588360200151612083565b611a658460400151612083565b611a728560600151612083565b604051602001611a86959493929190613659565b60405160208183030381529060405293508560000151600c60008c8152602001908152602001600020600301819055508660000151600c60008c81526020019081526020016000206004018190555050611b75565b806060015187608001818151611af19190613c4b565b915081815250505b83611b078260000151612083565b611b148360200151612083565b611b218460400151612083565b611b2e8560600151612083565b604051602001611b42959493929190613659565b60405160208183030381529060405293508280611b5e90613d74565b935050508080611b6d90613d74565b915050611636565b506001600c60008a815260200190815260200160002060050160006101000a81548160ff02191690831515021790555060076000815480929190611bb890613d74565b9190505550611bc682612258565b600c60008a81526020019081526020016000206006019080519060200190611bef929190612d7d565b50611bf9886123f7565b5050505050505050565b6000600260009054906101000a900473ffffffffffffffffffffffffffffffffffffffff16905081600260006101000a81548173ffffffffffffffffffffffffffffffffffffffff021916908373ffffffffffffffffffffffffffffffffffffffff1602179055508173ffffffffffffffffffffffffffffffffffffffff168173ffffffffffffffffffffffffffffffffffffffff167f8be0079c531659141344cd1fd0a4f28419497f9722a3daafe3b4186f6b6457e060405160405180910390a35050565b60006009600084815260200190815260200160002054905081600a600083815260200190815260200160002081905550505050565b6000611d0e600554600454612b6d565b90506040518060e0016040528060065481526020018460000151815260200183600001518152602001600081526020016000815260200160001515815260200160405180602001604052806000815250815250600c60006006548152602001908152602001600020600082015181600001556020820151816001015560408201518160020155606082015181600301556080820151816004015560a08201518160050160006101000a81548160ff02191690831515021790555060c0820151816006019080519060200190611de4929190612d7d565b509050506006546009600083815260200190815260200160002081905550600654817fbd02201f590eab74f686b3644304da890a94673318b3cb0a120c6cc183c2638d60405160405180910390a360066000815480929190611e4590613d74565b9190505550505050565b60608267ffffffffffffffff811115611e91577f4e487b7100000000000000000000000000000000000000000000000000000000600052604160045260246000fd5b604051908082528060200260200182016040528015611ebf5781602001602082028036833780820191505090505b5090506000600190505b838111611f7d5760008582604051602001611ee592919061397a565b6040516020818303038152906040528051906020012060001c905060018482611f0e9190613dd1565b611f189190613b33565b83600184611f269190613c4b565b81518110611f5d577f4e487b7100000000000000000000000000000000000000000000000000000000600052603260045260246000fd5b602002602001018181525050508080611f7590613d74565b915050611ec9565b509392505050565b6000818385611f949190613b33565b609686611fa19190613bf1565b611fab9190613bc0565b1190509392505050565b60008160288487611fc69190613b33565b8689611fd29190613bf1565b611fdc9190613bc0565b611fe69190613bf1565b11905095945050505050565b60008082868660405160200161200a939291906139a3565b6040516020818303038152906040528051906020012060001c9050600086905060006002886120399190613bc0565b90508081836120489190613c4b565b846120539190613dd1565b61205d9190613b33565b93506001861415612078576002846120759190613bf1565b93505b505050949350505050565b606060008214156120cb576040518060400160405280600181526020017f30000000000000000000000000000000000000000000000000000000000000008152509050612253565b600082905060005b600082146120fd5780806120e690613d74565b915050600a826120f69190613bc0565b91506120d3565b60008167ffffffffffffffff81111561213f577f4e487b7100000000000000000000000000000000000000000000000000000000600052604160045260246000fd5b6040519080825280601f01601f1916602001820160405280156121715781602001600182028036833780820191505090505b50905060008290505b6000861461224b5760018161218f9190613c4b565b90506000600a80886121a19190613bc0565b6121ab9190613bf1565b876121b69190613c4b565b60306121c29190613b89565b905060008160f81b905080848481518110612206577f4e487b7100000000000000000000000000000000000000000000000000000000600052603260045260246000fd5b60200101907effffffffffffffffffffffffffffffffffffffffffffffffffffffffffffff1916908160001a905350600a886122429190613bc0565b9750505061217a565b819450505050505b919050565b606060008251141561227b576040518060200160405280600081525090506123f2565b600060405180606001604052806040815260200161413e60409139905060006003600285516122aa9190613b33565b6122b49190613bc0565b60046122c09190613bf1565b905060006020826122d19190613b33565b67ffffffffffffffff811115612310577f4e487b7100000000000000000000000000000000000000000000000000000000600052604160045260246000fd5b6040519080825280601f01601f1916602001820160405280156123425781602001600182028036833780820191505090505b509050818152600183018586518101602084015b818310156123b1576003830192508251603f8160121c168501518253600182019150603f81600c1c168501518253600182019150603f8160061c168501518253600182019150603f8116850151825360018201915050612356565b6003895106600181146123cb57600281146123db576123e6565b613d3d60f01b60028303526123e6565b603d60f81b60018303525b50505050508093505050505b919050565b6000600c60008381526020019081526020016000206040518060e001604052908160008201548152602001600182015481526020016002820154815260200160038201548152602001600482015481526020016005820160009054906101000a900460ff1615151515815260200160068201805461247490613d11565b80601f01602080910402602001604051908101604052809291908181526020018280546124a090613d11565b80156124ed5780601f106124c2576101008083540402835291602001916124ed565b820191906000526020600020905b8154815290600101906020018083116124d057829003601f168201915b50505050508152505090506000816060015114156127e9576001600c600084815260200190815260200160002060050160006101000a81548160ff0219169083151502179055506000600360009054906101000a900473ffffffffffffffffffffffffffffffffffffffff1673ffffffffffffffffffffffffffffffffffffffff1663368dc9f283602001516040518263ffffffff1660e01b8152600401612595919061392f565b60006040518083038186803b1580156125ad57600080fd5b505afa1580156125c1573d6000803e3d6000fd5b505050506040513d6000823e3d601f19601f820116820180604052508101906125ea9190613149565b90506000600360009054906101000a900473ffffffffffffffffffffffffffffffffffffffff1673ffffffffffffffffffffffffffffffffffffffff1663368dc9f284604001516040518263ffffffff1660e01b815260040161264d919061392f565b60006040518083038186803b15801561266557600080fd5b505afa158015612679573d6000803e3d6000fd5b505050506040513d6000823e3d601f19601f820116820180604052508101906126a29190613149565b9050600082610140018181525050600081610140018181525050600360009054906101000a900473ffffffffffffffffffffffffffffffffffffffff1673ffffffffffffffffffffffffffffffffffffffff1663716fee4f8460200151846040518363ffffffff1660e01b815260040161271d92919061394a565b600060405180830381600087803b15801561273757600080fd5b505af115801561274b573d6000803e3d6000fd5b50505050600360009054906101000a900473ffffffffffffffffffffffffffffffffffffffff1673ffffffffffffffffffffffffffffffffffffffff1663716fee4f8460400151836040518363ffffffff1660e01b81526004016127b092919061394a565b600060405180830381600087803b1580156127ca57600080fd5b505af11580156127de573d6000803e3d6000fd5b505050505050612b69565b60006064600a60008581526020019081526020016000205461280b9190613dd1565b90506000600360009054906101000a900473ffffffffffffffffffffffffffffffffffffffff1673ffffffffffffffffffffffffffffffffffffffff1663368dc9f284606001516040518263ffffffff1660e01b815260040161286e919061392f565b60006040518083038186803b15801561288657600080fd5b505afa15801561289a573d6000803e3d6000fd5b505050506040513d6000823e3d601f19601f820116820180604052508101906128c39190613149565b90506000600360009054906101000a900473ffffffffffffffffffffffffffffffffffffffff1673ffffffffffffffffffffffffffffffffffffffff1663368dc9f285608001516040518263ffffffff1660e01b8152600401612926919061392f565b60006040518083038186803b15801561293e57600080fd5b505afa158015612952573d6000803e3d6000fd5b505050506040513d6000823e3d601f19601f8201168201806040525081019061297b9190613149565b905081606001805180919061298f90613d74565b8152505060008261014001818152505060328311156129d7578060400151826040018181516129be9190613b33565b915081815250506103e781610140018181525050612a0d565b600381604001516129e89190613bc0565b826040018181516129f99190613b33565b915081815250506000816101400181815250505b6064826040015110612a255760648260400181815250505b60148260400151612a369190613bf1565b826080018181525050600360009054906101000a900473ffffffffffffffffffffffffffffffffffffffff1673ffffffffffffffffffffffffffffffffffffffff1663716fee4f8560600151846040518363ffffffff1660e01b8152600401612aa092919061394a565b600060405180830381600087803b158015612aba57600080fd5b505af1158015612ace573d6000803e3d6000fd5b50505050600360009054906101000a900473ffffffffffffffffffffffffffffffffffffffff1673ffffffffffffffffffffffffffffffffffffffff1663716fee4f8560800151836040518363ffffffff1660e01b8152600401612b3392919061394a565b600060405180830381600087803b158015612b4d57600080fd5b505af1158015612b61573d6000803e3d6000fd5b505050505050505b5050565b60007f000000000000000000000000000000000000000000000000000000000000000073ffffffffffffffffffffffffffffffffffffffff16634000aea07f000000000000000000000000000000000000000000000000000000000000000084866000604051602001612be1929190613781565b6040516020818303038152906040526040518463ffffffff1660e01b8152600401612c0e939291906136eb565b602060405180830381600087803b158015612c2857600080fd5b505af1158015612c3c573d6000803e3d6000fd5b505050506040513d601f19601f82011682018060405250810190612c6091906130e4565b506000612c83846000306001600089815260200190815260200160002054612cce565b9050600180600086815260200190815260200160002054612ca49190613b33565b6001600086815260200190815260200160002081905550612cc58482612d0a565b91505092915050565b600084848484604051602001612ce794939291906137aa565b6040516020818303038152906040528051906020012060001c9050949350505050565b60008282604051602001612d1f92919061362d565b60405160208183030381529060405280519060200120905092915050565b508054612d4990613d11565b6000825580601f10612d5b5750612d7a565b601f016020900490600052602060002090810190612d799190612e03565b5b50565b828054612d8990613d11565b90600052602060002090601f016020900481019282612dab5760008555612df2565b82601f10612dc457805160ff1916838001178555612df2565b82800160010185558215612df2579182015b82811115612df1578251825591602001919060010190612dd6565b5b509050612dff9190612e03565b5090565b5b80821115612e1c576000816000905550600101612e04565b5090565b6000612e33612e2e84613a75565b613a50565b905082815260208101848484011115612e4b57600080fd5b612e56848285613cde565b509392505050565b600081359050612e6d816140e1565b92915050565b600081519050612e82816140e1565b92915050565b600081359050612e97816140f8565b92915050565b600081519050612eac816140f8565b92915050565b600081359050612ec18161410f565b92915050565b600082601f830112612ed857600080fd5b8151612ee8848260208601612e20565b91505092915050565b60006101808284031215612f0457600080fd5b612f0f610180613a50565b90506000612f1f84828501613054565b600083015250602082015167ffffffffffffffff811115612f3f57600080fd5b612f4b84828501612ec7565b6020830152506040612f5f84828501613054565b6040830152506060612f7384828501613054565b6060830152506080612f8784828501613054565b60808301525060a0612f9b84828501613054565b60a08301525060c0612faf84828501613054565b60c08301525060e0612fc384828501613054565b60e083015250610100612fd884828501613054565b61010083015250610120612fee84828501613054565b6101208301525061014061300484828501613054565b6101408301525061016082015167ffffffffffffffff81111561302657600080fd5b61303284828501612ec7565b6101608301525092915050565b60008135905061304e81614126565b92915050565b60008151905061306381614126565b92915050565b60006020828403121561307b57600080fd5b600061308984828501612e5e565b91505092915050565b6000602082840312156130a457600080fd5b60006130b284828501612e73565b91505092915050565b6000602082840312156130cd57600080fd5b60006130db84828501612e88565b91505092915050565b6000602082840312156130f657600080fd5b600061310484828501612e9d565b91505092915050565b6000806040838503121561312057600080fd5b600061312e85828601612eb2565b925050602061313f8582860161303f565b9150509250929050565b60006020828403121561315b57600080fd5b600082015167ffffffffffffffff81111561317557600080fd5b61318184828501612ef1565b91505092915050565b60006020828403121561319c57600080fd5b60006131aa8482850161303f565b91505092915050565b60006131bf83836135f8565b60208301905092915050565b6131d481613c7f565b82525050565b60006131e582613ab6565b6131ef8185613ae4565b93506131fa83613aa6565b8060005b8381101561322b57815161321288826131b3565b975061321d83613ad7565b9250506001810190506131fe565b5085935050505092915050565b61324181613c91565b82525050565b61325081613c9d565b82525050565b61326761326282613c9d565b613dbd565b82525050565b600061327882613ac1565b6132828185613af5565b9350613292818560208601613cde565b61329b81613ebe565b840191505092915050565b60006132b182613acc565b6132bb8185613b06565b93506132cb818560208601613cde565b6132d481613ebe565b840191505092915050565b60006132ea82613acc565b6132f48185613b17565b9350613304818560208601613cde565b61330d81613ebe565b840191505092915050565b600061332382613acc565b61332d8185613b28565b935061333d818560208601613cde565b80840191505092915050565b6000613356601783613b17565b915061336182613ecf565b602082019050919050565b6000613379602683613b17565b915061338482613ef8565b604082019050919050565b600061339c601783613b17565b91506133a782613f47565b602082019050919050565b60006133bf600183613b28565b91506133ca82613f70565b600182019050919050565b60006133e2602083613b17565b91506133ed82613f99565b602082019050919050565b6000613405601f83613b17565b915061341082613fc2565b602082019050919050565b6000613428601583613b17565b915061343382613feb565b602082019050919050565b600061344b601a83613b17565b915061345682614014565b602082019050919050565b600061346e601783613b17565b91506134798261403d565b602082019050919050565b6000613491601683613b17565b915061349c82614066565b602082019050919050565b60006134b4601f83613b17565b91506134bf8261408f565b602082019050919050565b60006134d7600183613b28565b91506134e2826140b8565b600182019050919050565b60006101808301600083015161350660008601826135f8565b506020830151848203602086015261351e82826132a6565b915050604083015161353360408601826135f8565b50606083015161354660608601826135f8565b50608083015161355960808601826135f8565b5060a083015161356c60a08601826135f8565b5060c083015161357f60c08601826135f8565b5060e083015161359260e08601826135f8565b506101008301516135a76101008601826135f8565b506101208301516135bc6101208601826135f8565b506101408301516135d16101408601826135f8565b506101608301518482036101608601526135eb82826132a6565b9150508091505092915050565b61360181613cc7565b82525050565b61361081613cc7565b82525050565b61362761362282613cc7565b613dc7565b82525050565b60006136398285613256565b6020820191506136498284613616565b6020820191508190509392505050565b60006136658288613318565b9150613670826134ca565b915061367c8287613318565b9150613687826133b2565b91506136938286613318565b915061369e826133b2565b91506136aa8285613318565b91506136b5826133b2565b91506136c18284613318565b91508190509695505050505050565b60006020820190506136e560008301846131cb565b92915050565b600060608201905061370060008301866131cb565b61370d6020830185613607565b818103604083015261371f818461326d565b9050949350505050565b6000602082019050818103600083015261374381846131da565b905092915050565b60006020820190506137606000830184613238565b92915050565b600060208201905061377b6000830184613247565b92915050565b60006040820190506137966000830185613247565b6137a36020830184613607565b9392505050565b60006080820190506137bf6000830187613247565b6137cc6020830186613607565b6137d960408301856131cb565b6137e66060830184613607565b95945050505050565b6000602082019050818103600083015261380881613349565b9050919050565b600060208201905081810360008301526138288161336c565b9050919050565b600060208201905081810360008301526138488161338f565b9050919050565b60006020820190508181036000830152613868816133d5565b9050919050565b60006020820190508181036000830152613888816133f8565b9050919050565b600060208201905081810360008301526138a88161341b565b9050919050565b600060208201905081810360008301526138c88161343e565b9050919050565b600060208201905081810360008301526138e881613461565b9050919050565b6000602082019050818103600083015261390881613484565b9050919050565b60006020820190508181036000830152613928816134a7565b9050919050565b60006020820190506139446000830184613607565b92915050565b600060408201905061395f6000830185613607565b818103602083015261397181846134ed565b90509392505050565b600060408201905061398f6000830185613607565b61399c6020830184613607565b9392505050565b60006060820190506139b86000830186613607565b6139c56020830185613607565b6139d26040830184613607565b949350505050565b600060e0820190506139ef600083018a613607565b6139fc6020830189613607565b613a096040830188613607565b613a166060830187613607565b613a236080830186613607565b613a3060a0830185613238565b81810360c0830152613a4281846132df565b905098975050505050505050565b6000613a5a613a6b565b9050613a668282613d43565b919050565b6000604051905090565b600067ffffffffffffffff821115613a9057613a8f613e8f565b5b613a9982613ebe565b9050602081019050919050565b6000819050602082019050919050565b600081519050919050565b600081519050919050565b600081519050919050565b6000602082019050919050565b600082825260208201905092915050565b600082825260208201905092915050565b600082825260208201905092915050565b600082825260208201905092915050565b600081905092915050565b6000613b3e82613cc7565b9150613b4983613cc7565b9250827fffffffffffffffffffffffffffffffffffffffffffffffffffffffffffffffff03821115613b7e57613b7d613e02565b5b828201905092915050565b6000613b9482613cd1565b9150613b9f83613cd1565b92508260ff03821115613bb557613bb4613e02565b5b828201905092915050565b6000613bcb82613cc7565b9150613bd683613cc7565b925082613be657613be5613e31565b5b828204905092915050565b6000613bfc82613cc7565b9150613c0783613cc7565b9250817fffffffffffffffffffffffffffffffffffffffffffffffffffffffffffffffff0483118215151615613c4057613c3f613e02565b5b828202905092915050565b6000613c5682613cc7565b9150613c6183613cc7565b925082821015613c7457613c73613e02565b5b828203905092915050565b6000613c8a82613ca7565b9050919050565b60008115159050919050565b6000819050919050565b600073ffffffffffffffffffffffffffffffffffffffff82169050919050565b6000819050919050565b600060ff82169050919050565b60005b83811015613cfc578082015181840152602081019050613ce1565b83811115613d0b576000848401525b50505050565b60006002820490506001821680613d2957607f821691505b60208210811415613d3d57613d3c613e60565b5b50919050565b613d4c82613ebe565b810181811067ffffffffffffffff82111715613d6b57613d6a613e8f565b5b80604052505050565b6000613d7f82613cc7565b91507fffffffffffffffffffffffffffffffffffffffffffffffffffffffffffffffff821415613db257613db1613e02565b5b600182019050919050565b6000819050919050565b6000819050919050565b6000613ddc82613cc7565b9150613de783613cc7565b925082613df757613df6613e31565b5b828206905092915050565b7f4e487b7100000000000000000000000000000000000000000000000000000000600052601160045260246000fd5b7f4e487b7100000000000000000000000000000000000000000000000000000000600052601260045260246000fd5b7f4e487b7100000000000000000000000000000000000000000000000000000000600052602260045260246000fd5b7f4e487b7100000000000000000000000000000000000000000000000000000000600052604160045260246000fd5b6000601f19601f8301169050919050565b7f46696768746572206973206e6f7420696e206172656e61000000000000000000600082015250565b7f4f776e61626c653a206e6577206f776e657220697320746865207a65726f206160008201527f6464726573730000000000000000000000000000000000000000000000000000602082015250565b7f466967687465722069732062757379206f722064656164000000000000000000600082015250565b7f2000000000000000000000000000000000000000000000000000000000000000600082015250565b7f4f776e61626c653a2063616c6c6572206973206e6f7420746865206f776e6572600082015250565b7f4f6e6c7920565246436f6f7264696e61746f722063616e2066756c66696c6c00600082015250565b7f4d6174636820697320616c726561647920646f6e650000000000000000000000600082015250565b7f436861696e4c696e6b20565246206973206e6f74207265616479000000000000600082015250565b7f4e6f74206f776e6572206f66207468697320746f6b656e000000000000000000600082015250565b7f4669676874696e67206973206e6f742061637469766500000000000000000000600082015250565b7f5265656e7472616e637947756172643a207265656e7472616e742063616c6c00600082015250565b7f2f00000000000000000000000000000000000000000000000000000000000000600082015250565b6140ea81613c7f565b81146140f557600080fd5b50565b61410181613c91565b811461410c57600080fd5b50565b61411881613c9d565b811461412357600080fd5b50565b61412f81613cc7565b811461413a57600080fd5b5056fe4142434445464748494a4b4c4d4e4f505152535455565758595a6162636465666768696a6b6c6d6e6f707172737475767778797a303132333435363738392b2fa2646970667358221220e97ca57a7feba31cb9cf6fca3133016defdc0cb0824cdd03be32bd2f5fbc2da564736f6c63430008040033",
  "linkReferences": {},
  "deployedLinkReferences": {}
}