{
  "_format": "hh-sol-artifact-1",
  "contractName": "Fighting",
  "sourceName": "contracts/Fighting.sol",
  "abi": [
    {
      "inputs": [
        {
          "internalType": "address",
          "name": "_nftContract",
          "type": "address"
        },
        {
          "internalType": "address",
          "name": "_VRFCoordinator",
          "type": "address"
        },
        {
          "internalType": "address",
          "name": "_linkToken",
          "type": "address"
        },
        {
          "internalType": "bytes32",
          "name": "_keyHash",
          "type": "bytes32"
        },
        {
          "internalType": "uint256",
          "name": "_fee",
          "type": "uint256"
        }
      ],
      "stateMutability": "nonpayable",
      "type": "constructor"
    },
    {
      "anonymous": false,
      "inputs": [
        {
          "indexed": true,
          "internalType": "address",
          "name": "previousOwner",
          "type": "address"
        },
        {
          "indexed": true,
          "internalType": "address",
          "name": "newOwner",
          "type": "address"
        }
      ],
      "name": "OwnershipTransferred",
      "type": "event"
    },
    {
      "anonymous": false,
      "inputs": [
        {
          "indexed": true,
          "internalType": "bytes32",
          "name": "requestId",
          "type": "bytes32"
        },
        {
          "indexed": true,
          "internalType": "uint256",
          "name": "matchId",
          "type": "uint256"
        }
      ],
      "name": "RequestedMatch",
      "type": "event"
    },
    {
      "inputs": [],
      "name": "fee",
      "outputs": [
        {
          "internalType": "uint256",
          "name": "",
          "type": "uint256"
        }
      ],
      "stateMutability": "view",
      "type": "function"
    },
    {
      "inputs": [
        {
          "internalType": "uint256",
          "name": "_matchId",
          "type": "uint256"
        }
      ],
      "name": "finishMatch",
      "outputs": [],
      "stateMutability": "nonpayable",
      "type": "function"
    },
    {
      "inputs": [],
      "name": "finishedMatches",
      "outputs": [
        {
          "internalType": "uint256",
          "name": "",
          "type": "uint256"
        }
      ],
      "stateMutability": "view",
      "type": "function"
    },
    {
      "inputs": [
        {
          "internalType": "uint256",
          "name": "_tokenId",
          "type": "uint256"
        }
      ],
      "name": "getMatchesByTokenId",
      "outputs": [
        {
          "internalType": "uint256[]",
          "name": "",
          "type": "uint256[]"
        }
      ],
      "stateMutability": "view",
      "type": "function"
    },
    {
      "inputs": [],
      "name": "keyHash",
      "outputs": [
        {
          "internalType": "bytes32",
          "name": "",
          "type": "bytes32"
        }
      ],
      "stateMutability": "view",
      "type": "function"
    },
    {
      "inputs": [],
      "name": "matchCounter",
      "outputs": [
        {
          "internalType": "uint256",
          "name": "",
          "type": "uint256"
        }
      ],
      "stateMutability": "view",
      "type": "function"
    },
    {
      "inputs": [
        {
          "internalType": "uint256",
          "name": "",
          "type": "uint256"
        }
      ],
      "name": "matchIdToMatch",
      "outputs": [
        {
          "internalType": "uint256",
          "name": "matchId",
          "type": "uint256"
        },
        {
          "internalType": "uint256",
          "name": "fighterOne",
          "type": "uint256"
        },
        {
          "internalType": "uint256",
          "name": "fighterTwo",
          "type": "uint256"
        },
        {
          "internalType": "uint256",
          "name": "winner",
          "type": "uint256"
        },
        {
          "internalType": "uint256",
          "name": "looser",
          "type": "uint256"
        },
        {
          "internalType": "bool",
          "name": "end",
          "type": "bool"
        },
        {
          "internalType": "string",
          "name": "matchLogs",
          "type": "string"
        }
      ],
      "stateMutability": "view",
      "type": "function"
    },
    {
      "inputs": [],
      "name": "owner",
      "outputs": [
        {
          "internalType": "address",
          "name": "",
          "type": "address"
        }
      ],
      "stateMutability": "view",
      "type": "function"
    },
    {
      "inputs": [
        {
          "internalType": "bool",
          "name": "_state",
          "type": "bool"
        }
      ],
      "name": "pause",
      "outputs": [],
      "stateMutability": "nonpayable",
      "type": "function"
    },
    {
      "inputs": [],
      "name": "paused",
      "outputs": [
        {
          "internalType": "bool",
          "name": "",
          "type": "bool"
        }
      ],
      "stateMutability": "view",
      "type": "function"
    },
    {
      "inputs": [
        {
          "internalType": "bytes32",
          "name": "requestId",
          "type": "bytes32"
        },
        {
          "internalType": "uint256",
          "name": "randomness",
          "type": "uint256"
        }
      ],
      "name": "rawFulfillRandomness",
      "outputs": [],
      "stateMutability": "nonpayable",
      "type": "function"
    },
    {
      "inputs": [],
      "name": "renounceOwnership",
      "outputs": [],
      "stateMutability": "nonpayable",
      "type": "function"
    },
    {
      "inputs": [
        {
          "internalType": "uint256",
          "name": "_tokenId",
          "type": "uint256"
        }
      ],
      "name": "toggleOpenToFight",
      "outputs": [],
      "stateMutability": "nonpayable",
      "type": "function"
    },
    {
      "inputs": [
        {
          "internalType": "uint256",
          "name": "",
          "type": "uint256"
        },
        {
          "internalType": "uint256",
          "name": "",
          "type": "uint256"
        }
      ],
      "name": "tokenIdToMatchIds",
      "outputs": [
        {
          "internalType": "uint256",
          "name": "",
          "type": "uint256"
        }
      ],
      "stateMutability": "view",
      "type": "function"
    },
    {
      "inputs": [
        {
          "internalType": "address",
          "name": "newOwner",
          "type": "address"
        }
      ],
      "name": "transferOwnership",
      "outputs": [],
      "stateMutability": "nonpayable",
      "type": "function"
    }
  ],
  "bytecode": "0x60c06040523480156200001157600080fd5b50604051620043a5380380620043a5833981810160405281019062000037919062000269565b838360016000819055508173ffffffffffffffffffffffffffffffffffffffff1660a08173ffffffffffffffffffffffffffffffffffffffff1660601b815250508073ffffffffffffffffffffffffffffffffffffffff1660808173ffffffffffffffffffffffffffffffffffffffff1660601b815250505050620000d1620000c56200015660201b60201c565b6200015e60201b60201c565b806004819055508160058190555084600360006101000a81548173ffffffffffffffffffffffffffffffffffffffff021916908373ffffffffffffffffffffffffffffffffffffffff160217905550600060068190555060006007819055506000600860006101000a81548160ff021916908315150217905550505050505062000381565b600033905090565b6000600260009054906101000a900473ffffffffffffffffffffffffffffffffffffffff16905081600260006101000a81548173ffffffffffffffffffffffffffffffffffffffff021916908373ffffffffffffffffffffffffffffffffffffffff1602179055508173ffffffffffffffffffffffffffffffffffffffff168173ffffffffffffffffffffffffffffffffffffffff167f8be0079c531659141344cd1fd0a4f28419497f9722a3daafe3b4186f6b6457e060405160405180910390a35050565b600081519050620002358162000333565b92915050565b6000815190506200024c816200034d565b92915050565b600081519050620002638162000367565b92915050565b600080600080600060a086880312156200028257600080fd5b6000620002928882890162000224565b9550506020620002a58882890162000224565b9450506040620002b88882890162000224565b9350506060620002cb888289016200023b565b9250506080620002de8882890162000252565b9150509295509295909350565b6000620002f88262000309565b9050919050565b6000819050919050565b600073ffffffffffffffffffffffffffffffffffffffff82169050919050565b6000819050919050565b6200033e81620002eb565b81146200034a57600080fd5b50565b6200035881620002ff565b81146200036457600080fd5b50565b620003728162000329565b81146200037e57600080fd5b50565b60805160601c60a05160601c613ff1620003b4600039600081816105a501526129af015260006129730152613ff16000f3fe608060405234801561001057600080fd5b50600436106100f55760003560e01c806387f77b3311610097578063c694bffa11610066578063c694bffa14610254578063cec205d714610284578063ddca3f43146102a0578063f2fde38b146102be576100f5565b806387f77b33146101b45780638da5cb5b146101e457806394985ddd14610202578063ae0994481461021e576100f5565b806354c9d709116100d357806354c9d709146101525780635c975abb1461016e57806361728f391461018c578063715018a6146101aa576100f5565b806301fd1951146100fa57806302329a2914610118578063337808da14610134575b600080fd5b6101026102da565b60405161010f919061376d565b60405180910390f35b610132600480360381019061012d9190612ebd565b6102e0565b005b61013c610379565b604051610149919061376d565b60405180910390f35b61016c60048036038101906101679190612f8c565b61037f565b005b61017661046d565b6040516101839190613589565b60405180910390f35b610194610480565b6040516101a191906135a4565b60405180910390f35b6101b2610486565b005b6101ce60048036038101906101c99190612f8c565b61050e565b6040516101db9190613567565b60405180910390f35b6101ec610579565b6040516101f9919061350e565b60405180910390f35b61021c60048036038101906102179190612f0f565b6105a3565b005b61023860048036038101906102339190612f8c565b61063f565b60405161024b9796959493929190613818565b60405180910390f35b61026e60048036038101906102699190612fb5565b610716565b60405161027b919061376d565b60405180910390f35b61029e60048036038101906102999190612f8c565b610747565b005b6102a861101c565b6040516102b5919061376d565b60405180910390f35b6102d860048036038101906102d39190612e6b565b611022565b005b60065481565b6102e861111a565b73ffffffffffffffffffffffffffffffffffffffff16610306610579565b73ffffffffffffffffffffffffffffffffffffffff161461035c576040517f08c379a00000000000000000000000000000000000000000000000000000000081526004016103539061368d565b60405180910390fd5b80600860006101000a81548160ff02191690831515021790555050565b60075481565b60001515600c600083815260200190815260200160002060050160009054906101000a900460ff1615151480156103cc57506000600c600083815260200190815260200160002060030154145b61040b576040517f08c379a0000000000000000000000000000000000000000000000000000000008152600401610402906136cd565b60405180910390fd5b6000600a60008381526020019081526020016000205411610461576040517f08c379a0000000000000000000000000000000000000000000000000000000008152600401610458906136ed565b60405180910390fd5b61046a81611122565b50565b600860009054906101000a900460ff1681565b60055481565b61048e61111a565b73ffffffffffffffffffffffffffffffffffffffff166104ac610579565b73ffffffffffffffffffffffffffffffffffffffff1614610502576040517f08c379a00000000000000000000000000000000000000000000000000000000081526004016104f99061368d565b60405180910390fd5b61050c60006119a5565b565b6060600d600083815260200190815260200160002080548060200260200160405190810160405280929190818152602001828054801561056d57602002820191906000526020600020905b815481526020019060010190808311610559575b50505050509050919050565b6000600260009054906101000a900473ffffffffffffffffffffffffffffffffffffffff16905090565b7f000000000000000000000000000000000000000000000000000000000000000073ffffffffffffffffffffffffffffffffffffffff163373ffffffffffffffffffffffffffffffffffffffff1614610631576040517f08c379a0000000000000000000000000000000000000000000000000000000008152600401610628906136ad565b60405180910390fd5b61063b8282611a6b565b5050565b600c6020528060005260406000206000915090508060000154908060010154908060020154908060030154908060040154908060050160009054906101000a900460ff169080600601805461069390613b4f565b80601f01602080910402602001604051908101604052809291908181526020018280546106bf90613b4f565b801561070c5780601f106106e15761010080835404028352916020019161070c565b820191906000526020600020905b8154815290600101906020018083116106ef57829003601f168201915b5050505050905087565b600d602052816000526040600020818154811061073257600080fd5b90600052602060002001600091509150505481565b6002600054141561078d576040517f08c379a00000000000000000000000000000000000000000000000000000000081526004016107849061374d565b60405180910390fd5b6002600081905550600360009054906101000a900473ffffffffffffffffffffffffffffffffffffffff1673ffffffffffffffffffffffffffffffffffffffff16636352211e826040518263ffffffff1660e01b81526004016107f0919061376d565b60206040518083038186803b15801561080857600080fd5b505afa15801561081c573d6000803e3d6000fd5b505050506040513d601f19601f820116820180604052508101906108409190612e94565b73ffffffffffffffffffffffffffffffffffffffff163373ffffffffffffffffffffffffffffffffffffffff16146108ad576040517f08c379a00000000000000000000000000000000000000000000000000000000081526004016108a49061370d565b60405180910390fd5b600860009054906101000a900460ff16156108fd576040517f08c379a00000000000000000000000000000000000000000000000000000000081526004016108f49061372d565b60405180910390fd5b6000600360009054906101000a900473ffffffffffffffffffffffffffffffffffffffff1673ffffffffffffffffffffffffffffffffffffffff1663368dc9f2836040518263ffffffff1660e01b815260040161095a919061376d565b60006040518083038186803b15801561097257600080fd5b505afa158015610986573d6000803e3d6000fd5b505050506040513d6000823e3d601f19601f820116820180604052508101906109af9190612f4b565b90506000600a82604001516109c491906139fe565b90506000600b60008381526020019081526020016000206040518061018001604052908160008201548152602001600182018054610a0190613b4f565b80601f0160208091040260200160405190810160405280929190818152602001828054610a2d90613b4f565b8015610a7a5780601f10610a4f57610100808354040283529160200191610a7a565b820191906000526020600020905b815481529060010190602001808311610a5d57829003601f168201915b505050505081526020016002820154815260200160038201548152602001600482015481526020016005820154815260200160068201548152602001600782015481526020016008820154815260200160098201548152602001600a8201548152602001600b82018054610aed90613b4f565b80601f0160208091040260200160405190810160405280929190818152602001828054610b1990613b4f565b8015610b665780601f10610b3b57610100808354040283529160200191610b66565b820191906000526020600020905b815481529060010190602001808311610b4957829003601f168201915b50505050508152505090508381600001511415610ceb57600283610140015114610bc5576040517f08c379a0000000000000000000000000000000000000000000000000000000008152600401610bbc9061362d565b60405180910390fd5b600083610140018181525050600360009054906101000a900473ffffffffffffffffffffffffffffffffffffffff1673ffffffffffffffffffffffffffffffffffffffff1663716fee4f85856040518363ffffffff1660e01b8152600401610c2e929190613788565b600060405180830381600087803b158015610c4857600080fd5b505af1158015610c5c573d6000803e3d6000fd5b50505050600b6000838152602001908152602001600020600080820160009055600182016000610c8c9190612b3f565b60028201600090556003820160009055600482016000905560058201600090556006820160009055600782016000905560088201600090556009820160009055600a820160009055600b82016000610ce49190612b3f565b505061100e565b600181600001511015610e9957600083610140015114610d40576040517f08c379a0000000000000000000000000000000000000000000000000000000008152600401610d379061366d565b60405180910390fd5b600283610140018181525050600360009054906101000a900473ffffffffffffffffffffffffffffffffffffffff1673ffffffffffffffffffffffffffffffffffffffff1663716fee4f85856040518363ffffffff1660e01b8152600401610da9929190613788565b600060405180830381600087803b158015610dc357600080fd5b505af1158015610dd7573d6000803e3d6000fd5b5050505082600b6000848152602001908152602001600020600082015181600001556020820151816001019080519060200190610e15929190612b7f565b5060408201518160020155606082015181600301556080820151816004015560a0820151816005015560c0820151816006015560e082015181600701556101008201518160080155610120820151816009015561014082015181600a015561016082015181600b019080519060200190610e90929190612b7f565b5090505061100d565b600083610140015114610ee1576040517f08c379a0000000000000000000000000000000000000000000000000000000008152600401610ed89061366d565b60405180910390fd5b600283610140018181525050600360009054906101000a900473ffffffffffffffffffffffffffffffffffffffff1673ffffffffffffffffffffffffffffffffffffffff1663716fee4f85856040518363ffffffff1660e01b8152600401610f4a929190613788565b600060405180830381600087803b158015610f6457600080fd5b505af1158015610f78573d6000803e3d6000fd5b50505050610f868184611aa0565b600b6000838152602001908152602001600020600080820160009055600182016000610fb29190612b3f565b60028201600090556003820160009055600482016000905560058201600090556006820160009055600782016000905560088201600090556009820160009055600a820160009055600b8201600061100a9190612b3f565b50505b5b505050600160008190555050565b60045481565b61102a61111a565b73ffffffffffffffffffffffffffffffffffffffff16611048610579565b73ffffffffffffffffffffffffffffffffffffffff161461109e576040517f08c379a00000000000000000000000000000000000000000000000000000000081526004016110959061368d565b60405180910390fd5b600073ffffffffffffffffffffffffffffffffffffffff168173ffffffffffffffffffffffffffffffffffffffff16141561110e576040517f08c379a00000000000000000000000000000000000000000000000000000000081526004016111059061364d565b60405180910390fd5b611117816119a5565b50565b600033905090565b6000600a60008381526020019081526020016000205490506000600c60008481526020019081526020016000206040518060e001604052908160008201548152602001600182015481526020016002820154815260200160038201548152602001600482015481526020016005820160009054906101000a900460ff161515151581526020016006820180546111b790613b4f565b80601f01602080910402602001604051908101604052809291908181526020018280546111e390613b4f565b80156112305780601f1061120557610100808354040283529160200191611230565b820191906000526020600020905b81548152906001019060200180831161121357829003601f168201915b50505050508152505090506000600360009054906101000a900473ffffffffffffffffffffffffffffffffffffffff1673ffffffffffffffffffffffffffffffffffffffff1663368dc9f283602001516040518263ffffffff1660e01b815260040161129c919061376d565b60006040518083038186803b1580156112b457600080fd5b505afa1580156112c8573d6000803e3d6000fd5b505050506040513d6000823e3d601f19601f820116820180604052508101906112f19190612f4b565b90506000600360009054906101000a900473ffffffffffffffffffffffffffffffffffffffff1673ffffffffffffffffffffffffffffffffffffffff1663368dc9f284604001516040518263ffffffff1660e01b8152600401611354919061376d565b60006040518083038186803b15801561136c57600080fd5b505afa158015611380573d6000803e3d6000fd5b505050506040513d6000823e3d601f19601f820116820180604052508101906113a99190612f4b565b905060006113ba8560c86064611c71565b90506000604051806020016040528060008152509050600080600190505b60288111611917576000604051806080016040528083815260200160008152602001600081526020016000815250905060016002836114179190613c0f565b141561165e576114708760c001518760e00151878681518110611463577f4e487b7100000000000000000000000000000000000000000000000000000000600052603260045260246000fd5b6020026020010151611da7565b61147b57600061147e565b60015b60ff1681602001818152505060018160200151141561158e5782806114a290613bb2565b9350506115048761010001518761010001518960c001518960e001518988815181106114f7577f4e487b7100000000000000000000000000000000000000000000000000000000600052603260045260246000fd5b6020026020010151611dd7565b61150f576000611512565b60015b60ff16816040018181525050828061152990613bb2565b9350506115848760a0015188604001518360400151888781518110611577577f4e487b7100000000000000000000000000000000000000000000000000000000600052603260045260246000fd5b6020026020010151611e14565b8160600181815250505b85608001518160600151111561163c57836115ac8260000151611ea5565b6115b98360200151611ea5565b6115c68460400151611ea5565b6115d38560600151611ea5565b6040516020016115e7959493929190613497565b60405160208183030381529060405293508660000151600c60008c8152602001908152602001600020600301819055508560000151600c60008c81526020019081526020016000206004018190555050611917565b8060600151866080018181516116529190613a89565b9150818152505061189b565b6116b18660c001518860e001518786815181106116a4577f4e487b7100000000000000000000000000000000000000000000000000000000600052603260045260246000fd5b6020026020010151611da7565b6116bc5760006116bf565b60015b60ff168160200181815250506001816020015114156117cf5782806116e390613bb2565b9350506117458661010001518861010001518860c001518a60e00151898881518110611738577f4e487b7100000000000000000000000000000000000000000000000000000000600052603260045260246000fd5b6020026020010151611dd7565b611750576000611753565b60015b60ff16816040018181525050828061176a90613bb2565b9350506117c58660a00151876040015183604001518887815181106117b8577f4e487b7100000000000000000000000000000000000000000000000000000000600052603260045260246000fd5b6020026020010151611e14565b8160600181815250505b86608001518160600151111561187d57836117ed8260000151611ea5565b6117fa8360200151611ea5565b6118078460400151611ea5565b6118148560600151611ea5565b604051602001611828959493929190613497565b60405160208183030381529060405293508560000151600c60008c8152602001908152602001600020600301819055508660000151600c60008c81526020019081526020016000206004018190555050611917565b8060600151876080018181516118939190613a89565b915081815250505b836118a98260000151611ea5565b6118b68360200151611ea5565b6118c38460400151611ea5565b6118d08560600151611ea5565b6040516020016118e4959493929190613497565b6040516020818303038152906040529350828061190090613bb2565b93505050808061190f90613bb2565b9150506113d8565b506001600c60008a815260200190815260200160002060050160006101000a81548160ff0219169083151502179055506007600081548092919061195a90613bb2565b91905055506119688261207a565b600c60008a81526020019081526020016000206006019080519060200190611991929190612b7f565b5061199b88612219565b5050505050505050565b6000600260009054906101000a900473ffffffffffffffffffffffffffffffffffffffff16905081600260006101000a81548173ffffffffffffffffffffffffffffffffffffffff021916908373ffffffffffffffffffffffffffffffffffffffff1602179055508173ffffffffffffffffffffffffffffffffffffffff168173ffffffffffffffffffffffffffffffffffffffff167f8be0079c531659141344cd1fd0a4f28419497f9722a3daafe3b4186f6b6457e060405160405180910390a35050565b60006009600084815260200190815260200160002054905081600a600083815260200190815260200160002081905550505050565b6000611ab060055460045461296f565b90506040518060e0016040528060065481526020018460000151815260200183600001518152602001600081526020016000815260200160001515815260200160405180602001604052806000815250815250600c60006006548152602001908152602001600020600082015181600001556020820151816001015560408201518160020155606082015181600301556080820151816004015560a08201518160050160006101000a81548160ff02191690831515021790555060c0820151816006019080519060200190611b86929190612b7f565b50905050600d6000846000015181526020019081526020016000206006549080600181540180825580915050600190039060005260206000200160009091909190915055600d60008360000151815260200190815260200160002060065490806001815401808255809150506001900390600052602060002001600090919091909150556006546009600083815260200190815260200160002081905550600654817fbd02201f590eab74f686b3644304da890a94673318b3cb0a120c6cc183c2638d60405160405180910390a360066000815480929190611c6790613bb2565b9190505550505050565b60608267ffffffffffffffff811115611cb3577f4e487b7100000000000000000000000000000000000000000000000000000000600052604160045260246000fd5b604051908082528060200260200182016040528015611ce15781602001602082028036833780820191505090505b5090506000600190505b838111611d9f5760008582604051602001611d079291906137b8565b6040516020818303038152906040528051906020012060001c905060018482611d309190613c0f565b611d3a9190613971565b83600184611d489190613a89565b81518110611d7f577f4e487b7100000000000000000000000000000000000000000000000000000000600052603260045260246000fd5b602002602001018181525050508080611d9790613bb2565b915050611ceb565b509392505050565b6000818385611db69190613971565b609686611dc39190613a2f565b611dcd91906139fe565b1190509392505050565b60008160288487611de89190613971565b8689611df49190613a2f565b611dfe91906139fe565b611e089190613a2f565b11905095945050505050565b600080828686604051602001611e2c939291906137e1565b6040516020818303038152906040528051906020012060001c905060008690506000600288611e5b91906139fe565b9050808183611e6a9190613a89565b84611e759190613c0f565b611e7f9190613971565b93506001861415611e9a57600284611e979190613a2f565b93505b505050949350505050565b60606000821415611eed576040518060400160405280600181526020017f30000000000000000000000000000000000000000000000000000000000000008152509050612075565b600082905060005b60008214611f1f578080611f0890613bb2565b915050600a82611f1891906139fe565b9150611ef5565b60008167ffffffffffffffff811115611f61577f4e487b7100000000000000000000000000000000000000000000000000000000600052604160045260246000fd5b6040519080825280601f01601f191660200182016040528015611f935781602001600182028036833780820191505090505b50905060008290505b6000861461206d57600181611fb19190613a89565b90506000600a8088611fc391906139fe565b611fcd9190613a2f565b87611fd89190613a89565b6030611fe491906139c7565b905060008160f81b905080848481518110612028577f4e487b7100000000000000000000000000000000000000000000000000000000600052603260045260246000fd5b60200101907effffffffffffffffffffffffffffffffffffffffffffffffffffffffffffff1916908160001a905350600a8861206491906139fe565b97505050611f9c565b819450505050505b919050565b606060008251141561209d57604051806020016040528060008152509050612214565b6000604051806060016040528060408152602001613f7c60409139905060006003600285516120cc9190613971565b6120d691906139fe565b60046120e29190613a2f565b905060006020826120f39190613971565b67ffffffffffffffff811115612132577f4e487b7100000000000000000000000000000000000000000000000000000000600052604160045260246000fd5b6040519080825280601f01601f1916602001820160405280156121645781602001600182028036833780820191505090505b509050818152600183018586518101602084015b818310156121d3576003830192508251603f8160121c168501518253600182019150603f81600c1c168501518253600182019150603f8160061c168501518253600182019150603f8116850151825360018201915050612178565b6003895106600181146121ed57600281146121fd57612208565b613d3d60f01b6002830352612208565b603d60f81b60018303525b50505050508093505050505b919050565b6000600c60008381526020019081526020016000206040518060e001604052908160008201548152602001600182015481526020016002820154815260200160038201548152602001600482015481526020016005820160009054906101000a900460ff1615151515815260200160068201805461229690613b4f565b80601f01602080910402602001604051908101604052809291908181526020018280546122c290613b4f565b801561230f5780601f106122e45761010080835404028352916020019161230f565b820191906000526020600020905b8154815290600101906020018083116122f257829003601f168201915b505050505081525050905060008160600151141561260b576001600c600084815260200190815260200160002060050160006101000a81548160ff0219169083151502179055506000600360009054906101000a900473ffffffffffffffffffffffffffffffffffffffff1673ffffffffffffffffffffffffffffffffffffffff1663368dc9f283602001516040518263ffffffff1660e01b81526004016123b7919061376d565b60006040518083038186803b1580156123cf57600080fd5b505afa1580156123e3573d6000803e3d6000fd5b505050506040513d6000823e3d601f19601f8201168201806040525081019061240c9190612f4b565b90506000600360009054906101000a900473ffffffffffffffffffffffffffffffffffffffff1673ffffffffffffffffffffffffffffffffffffffff1663368dc9f284604001516040518263ffffffff1660e01b815260040161246f919061376d565b60006040518083038186803b15801561248757600080fd5b505afa15801561249b573d6000803e3d6000fd5b505050506040513d6000823e3d601f19601f820116820180604052508101906124c49190612f4b565b9050600082610140018181525050600081610140018181525050600360009054906101000a900473ffffffffffffffffffffffffffffffffffffffff1673ffffffffffffffffffffffffffffffffffffffff1663716fee4f8460200151846040518363ffffffff1660e01b815260040161253f929190613788565b600060405180830381600087803b15801561255957600080fd5b505af115801561256d573d6000803e3d6000fd5b50505050600360009054906101000a900473ffffffffffffffffffffffffffffffffffffffff1673ffffffffffffffffffffffffffffffffffffffff1663716fee4f8460400151836040518363ffffffff1660e01b81526004016125d2929190613788565b600060405180830381600087803b1580156125ec57600080fd5b505af1158015612600573d6000803e3d6000fd5b50505050505061296b565b6000600360009054906101000a900473ffffffffffffffffffffffffffffffffffffffff1673ffffffffffffffffffffffffffffffffffffffff1663368dc9f283606001516040518263ffffffff1660e01b815260040161266c919061376d565b60006040518083038186803b15801561268457600080fd5b505afa158015612698573d6000803e3d6000fd5b505050506040513d6000823e3d601f19601f820116820180604052508101906126c19190612f4b565b90506000600360009054906101000a900473ffffffffffffffffffffffffffffffffffffffff1673ffffffffffffffffffffffffffffffffffffffff1663368dc9f284608001516040518263ffffffff1660e01b8152600401612724919061376d565b60006040518083038186803b15801561273c57600080fd5b505afa158015612750573d6000803e3d6000fd5b505050506040513d6000823e3d601f19601f820116820180604052508101906127799190612f4b565b905081606001805180919061278d90613bb2565b81525050600082610140018181525050610258816080015110156127da578060400151826040018181516127c19190613971565b915081815250506103e781610140018181525050612810565b600381604001516127eb91906139fe565b826040018181516127fc9190613971565b915081815250506000816101400181815250505b60648260400151106128285760648260400181815250505b601482604001516128399190613a2f565b826080018181525050600360009054906101000a900473ffffffffffffffffffffffffffffffffffffffff1673ffffffffffffffffffffffffffffffffffffffff1663716fee4f8460600151846040518363ffffffff1660e01b81526004016128a3929190613788565b600060405180830381600087803b1580156128bd57600080fd5b505af11580156128d1573d6000803e3d6000fd5b50505050600360009054906101000a900473ffffffffffffffffffffffffffffffffffffffff1673ffffffffffffffffffffffffffffffffffffffff1663716fee4f8460800151836040518363ffffffff1660e01b8152600401612936929190613788565b600060405180830381600087803b15801561295057600080fd5b505af1158015612964573d6000803e3d6000fd5b5050505050505b5050565b60007f000000000000000000000000000000000000000000000000000000000000000073ffffffffffffffffffffffffffffffffffffffff16634000aea07f0000000000000000000000000000000000000000000000000000000000000000848660006040516020016129e39291906135bf565b6040516020818303038152906040526040518463ffffffff1660e01b8152600401612a1093929190613529565b602060405180830381600087803b158015612a2a57600080fd5b505af1158015612a3e573d6000803e3d6000fd5b505050506040513d601f19601f82011682018060405250810190612a629190612ee6565b506000612a85846000306001600089815260200190815260200160002054612ad0565b9050600180600086815260200190815260200160002054612aa69190613971565b6001600086815260200190815260200160002081905550612ac78482612b0c565b91505092915050565b600084848484604051602001612ae994939291906135e8565b6040516020818303038152906040528051906020012060001c9050949350505050565b60008282604051602001612b2192919061346b565b60405160208183030381529060405280519060200120905092915050565b508054612b4b90613b4f565b6000825580601f10612b5d5750612b7c565b601f016020900490600052602060002090810190612b7b9190612c05565b5b50565b828054612b8b90613b4f565b90600052602060002090601f016020900481019282612bad5760008555612bf4565b82601f10612bc657805160ff1916838001178555612bf4565b82800160010185558215612bf4579182015b82811115612bf3578251825591602001919060010190612bd8565b5b509050612c019190612c05565b5090565b5b80821115612c1e576000816000905550600101612c06565b5090565b6000612c35612c30846138b3565b61388e565b905082815260208101848484011115612c4d57600080fd5b612c58848285613b1c565b509392505050565b600081359050612c6f81613f1f565b92915050565b600081519050612c8481613f1f565b92915050565b600081359050612c9981613f36565b92915050565b600081519050612cae81613f36565b92915050565b600081359050612cc381613f4d565b92915050565b600082601f830112612cda57600080fd5b8151612cea848260208601612c22565b91505092915050565b60006101808284031215612d0657600080fd5b612d1161018061388e565b90506000612d2184828501612e56565b600083015250602082015167ffffffffffffffff811115612d4157600080fd5b612d4d84828501612cc9565b6020830152506040612d6184828501612e56565b6040830152506060612d7584828501612e56565b6060830152506080612d8984828501612e56565b60808301525060a0612d9d84828501612e56565b60a08301525060c0612db184828501612e56565b60c08301525060e0612dc584828501612e56565b60e083015250610100612dda84828501612e56565b61010083015250610120612df084828501612e56565b61012083015250610140612e0684828501612e56565b6101408301525061016082015167ffffffffffffffff811115612e2857600080fd5b612e3484828501612cc9565b6101608301525092915050565b600081359050612e5081613f64565b92915050565b600081519050612e6581613f64565b92915050565b600060208284031215612e7d57600080fd5b6000612e8b84828501612c60565b91505092915050565b600060208284031215612ea657600080fd5b6000612eb484828501612c75565b91505092915050565b600060208284031215612ecf57600080fd5b6000612edd84828501612c8a565b91505092915050565b600060208284031215612ef857600080fd5b6000612f0684828501612c9f565b91505092915050565b60008060408385031215612f2257600080fd5b6000612f3085828601612cb4565b9250506020612f4185828601612e41565b9150509250929050565b600060208284031215612f5d57600080fd5b600082015167ffffffffffffffff811115612f7757600080fd5b612f8384828501612cf3565b91505092915050565b600060208284031215612f9e57600080fd5b6000612fac84828501612e41565b91505092915050565b60008060408385031215612fc857600080fd5b6000612fd685828601612e41565b9250506020612fe785828601612e41565b9150509250929050565b6000612ffd8383613436565b60208301905092915050565b61301281613abd565b82525050565b6000613023826138f4565b61302d8185613922565b9350613038836138e4565b8060005b838110156130695781516130508882612ff1565b975061305b83613915565b92505060018101905061303c565b5085935050505092915050565b61307f81613acf565b82525050565b61308e81613adb565b82525050565b6130a56130a082613adb565b613bfb565b82525050565b60006130b6826138ff565b6130c08185613933565b93506130d0818560208601613b1c565b6130d981613cfc565b840191505092915050565b60006130ef8261390a565b6130f98185613944565b9350613109818560208601613b1c565b61311281613cfc565b840191505092915050565b60006131288261390a565b6131328185613955565b9350613142818560208601613b1c565b61314b81613cfc565b840191505092915050565b60006131618261390a565b61316b8185613966565b935061317b818560208601613b1c565b80840191505092915050565b6000613194601783613955565b915061319f82613d0d565b602082019050919050565b60006131b7602683613955565b91506131c282613d36565b604082019050919050565b60006131da601783613955565b91506131e582613d85565b602082019050919050565b60006131fd600183613966565b915061320882613dae565b600182019050919050565b6000613220602083613955565b915061322b82613dd7565b602082019050919050565b6000613243601f83613955565b915061324e82613e00565b602082019050919050565b6000613266601583613955565b915061327182613e29565b602082019050919050565b6000613289601a83613955565b915061329482613e52565b602082019050919050565b60006132ac601783613955565b91506132b782613e7b565b602082019050919050565b60006132cf601683613955565b91506132da82613ea4565b602082019050919050565b60006132f2601f83613955565b91506132fd82613ecd565b602082019050919050565b6000613315600183613966565b915061332082613ef6565b600182019050919050565b6000610180830160008301516133446000860182613436565b506020830151848203602086015261335c82826130e4565b91505060408301516133716040860182613436565b5060608301516133846060860182613436565b5060808301516133976080860182613436565b5060a08301516133aa60a0860182613436565b5060c08301516133bd60c0860182613436565b5060e08301516133d060e0860182613436565b506101008301516133e5610100860182613436565b506101208301516133fa610120860182613436565b5061014083015161340f610140860182613436565b5061016083015184820361016086015261342982826130e4565b9150508091505092915050565b61343f81613b05565b82525050565b61344e81613b05565b82525050565b61346561346082613b05565b613c05565b82525050565b60006134778285613094565b6020820191506134878284613454565b6020820191508190509392505050565b60006134a38288613156565b91506134ae82613308565b91506134ba8287613156565b91506134c5826131f0565b91506134d18286613156565b91506134dc826131f0565b91506134e88285613156565b91506134f3826131f0565b91506134ff8284613156565b91508190509695505050505050565b60006020820190506135236000830184613009565b92915050565b600060608201905061353e6000830186613009565b61354b6020830185613445565b818103604083015261355d81846130ab565b9050949350505050565b600060208201905081810360008301526135818184613018565b905092915050565b600060208201905061359e6000830184613076565b92915050565b60006020820190506135b96000830184613085565b92915050565b60006040820190506135d46000830185613085565b6135e16020830184613445565b9392505050565b60006080820190506135fd6000830187613085565b61360a6020830186613445565b6136176040830185613009565b6136246060830184613445565b95945050505050565b6000602082019050818103600083015261364681613187565b9050919050565b60006020820190508181036000830152613666816131aa565b9050919050565b60006020820190508181036000830152613686816131cd565b9050919050565b600060208201905081810360008301526136a681613213565b9050919050565b600060208201905081810360008301526136c681613236565b9050919050565b600060208201905081810360008301526136e681613259565b9050919050565b600060208201905081810360008301526137068161327c565b9050919050565b600060208201905081810360008301526137268161329f565b9050919050565b60006020820190508181036000830152613746816132c2565b9050919050565b60006020820190508181036000830152613766816132e5565b9050919050565b60006020820190506137826000830184613445565b92915050565b600060408201905061379d6000830185613445565b81810360208301526137af818461332b565b90509392505050565b60006040820190506137cd6000830185613445565b6137da6020830184613445565b9392505050565b60006060820190506137f66000830186613445565b6138036020830185613445565b6138106040830184613445565b949350505050565b600060e08201905061382d600083018a613445565b61383a6020830189613445565b6138476040830188613445565b6138546060830187613445565b6138616080830186613445565b61386e60a0830185613076565b81810360c0830152613880818461311d565b905098975050505050505050565b60006138986138a9565b90506138a48282613b81565b919050565b6000604051905090565b600067ffffffffffffffff8211156138ce576138cd613ccd565b5b6138d782613cfc565b9050602081019050919050565b6000819050602082019050919050565b600081519050919050565b600081519050919050565b600081519050919050565b6000602082019050919050565b600082825260208201905092915050565b600082825260208201905092915050565b600082825260208201905092915050565b600082825260208201905092915050565b600081905092915050565b600061397c82613b05565b915061398783613b05565b9250827fffffffffffffffffffffffffffffffffffffffffffffffffffffffffffffffff038211156139bc576139bb613c40565b5b828201905092915050565b60006139d282613b0f565b91506139dd83613b0f565b92508260ff038211156139f3576139f2613c40565b5b828201905092915050565b6000613a0982613b05565b9150613a1483613b05565b925082613a2457613a23613c6f565b5b828204905092915050565b6000613a3a82613b05565b9150613a4583613b05565b9250817fffffffffffffffffffffffffffffffffffffffffffffffffffffffffffffffff0483118215151615613a7e57613a7d613c40565b5b828202905092915050565b6000613a9482613b05565b9150613a9f83613b05565b925082821015613ab257613ab1613c40565b5b828203905092915050565b6000613ac882613ae5565b9050919050565b60008115159050919050565b6000819050919050565b600073ffffffffffffffffffffffffffffffffffffffff82169050919050565b6000819050919050565b600060ff82169050919050565b60005b83811015613b3a578082015181840152602081019050613b1f565b83811115613b49576000848401525b50505050565b60006002820490506001821680613b6757607f821691505b60208210811415613b7b57613b7a613c9e565b5b50919050565b613b8a82613cfc565b810181811067ffffffffffffffff82111715613ba957613ba8613ccd565b5b80604052505050565b6000613bbd82613b05565b91507fffffffffffffffffffffffffffffffffffffffffffffffffffffffffffffffff821415613bf057613bef613c40565b5b600182019050919050565b6000819050919050565b6000819050919050565b6000613c1a82613b05565b9150613c2583613b05565b925082613c3557613c34613c6f565b5b828206905092915050565b7f4e487b7100000000000000000000000000000000000000000000000000000000600052601160045260246000fd5b7f4e487b7100000000000000000000000000000000000000000000000000000000600052601260045260246000fd5b7f4e487b7100000000000000000000000000000000000000000000000000000000600052602260045260246000fd5b7f4e487b7100000000000000000000000000000000000000000000000000000000600052604160045260246000fd5b6000601f19601f8301169050919050565b7f46696768746572206973206e6f7420696e206172656e61000000000000000000600082015250565b7f4f776e61626c653a206e6577206f776e657220697320746865207a65726f206160008201527f6464726573730000000000000000000000000000000000000000000000000000602082015250565b7f466967687465722069732062757379206f722064656164000000000000000000600082015250565b7f2000000000000000000000000000000000000000000000000000000000000000600082015250565b7f4f776e61626c653a2063616c6c6572206973206e6f7420746865206f776e6572600082015250565b7f4f6e6c7920565246436f6f7264696e61746f722063616e2066756c66696c6c00600082015250565b7f4d6174636820697320616c726561647920646f6e650000000000000000000000600082015250565b7f436861696e4c696e6b20565246206973206e6f74207265616479000000000000600082015250565b7f4e6f74206f776e6572206f66207468697320746f6b656e000000000000000000600082015250565b7f4669676874696e67206973206e6f742061637469766500000000000000000000600082015250565b7f5265656e7472616e637947756172643a207265656e7472616e742063616c6c00600082015250565b7f2f00000000000000000000000000000000000000000000000000000000000000600082015250565b613f2881613abd565b8114613f3357600080fd5b50565b613f3f81613acf565b8114613f4a57600080fd5b50565b613f5681613adb565b8114613f6157600080fd5b50565b613f6d81613b05565b8114613f7857600080fd5b5056fe4142434445464748494a4b4c4d4e4f505152535455565758595a6162636465666768696a6b6c6d6e6f707172737475767778797a303132333435363738392b2fa2646970667358221220453311b482cadf47b609de59ad61afca074d0a7df0de754705f74f776b71d7a464736f6c63430008040033",
  "linkReferences": {},
  "deployedLinkReferences": {}
}