{
  "_format": "hh-sol-artifact-1",
  "contractName": "Fighting",
  "sourceName": "contracts/Fighting.sol",
  "abi": [
    {
      "inputs": [
        {
          "internalType": "address",
          "name": "_nftContract",
          "type": "address"
        },
        {
          "internalType": "address",
          "name": "_VRFCoordinator",
          "type": "address"
        },
        {
          "internalType": "address",
          "name": "_linkToken",
          "type": "address"
        },
        {
          "internalType": "bytes32",
          "name": "_keyHash",
          "type": "bytes32"
        },
        {
          "internalType": "uint256",
          "name": "_fee",
          "type": "uint256"
        }
      ],
      "stateMutability": "nonpayable",
      "type": "constructor"
    },
    {
      "anonymous": false,
      "inputs": [
        {
          "indexed": true,
          "internalType": "address",
          "name": "previousOwner",
          "type": "address"
        },
        {
          "indexed": true,
          "internalType": "address",
          "name": "newOwner",
          "type": "address"
        }
      ],
      "name": "OwnershipTransferred",
      "type": "event"
    },
    {
      "anonymous": false,
      "inputs": [
        {
          "indexed": true,
          "internalType": "bytes32",
          "name": "requestId",
          "type": "bytes32"
        },
        {
          "indexed": true,
          "internalType": "uint256",
          "name": "matchId",
          "type": "uint256"
        }
      ],
      "name": "RequestedMatch",
      "type": "event"
    },
    {
      "inputs": [],
      "name": "fee",
      "outputs": [
        {
          "internalType": "uint256",
          "name": "",
          "type": "uint256"
        }
      ],
      "stateMutability": "view",
      "type": "function"
    },
    {
      "inputs": [
        {
          "internalType": "uint256",
          "name": "_matchId",
          "type": "uint256"
        }
      ],
      "name": "finishMatch",
      "outputs": [],
      "stateMutability": "nonpayable",
      "type": "function"
    },
    {
      "inputs": [],
      "name": "finishedMatches",
      "outputs": [
        {
          "internalType": "uint256",
          "name": "",
          "type": "uint256"
        }
      ],
      "stateMutability": "view",
      "type": "function"
    },
    {
      "inputs": [
        {
          "internalType": "uint256",
          "name": "tokenId",
          "type": "uint256"
        }
      ],
      "name": "getFinishedMatchIds",
      "outputs": [
        {
          "internalType": "uint256[]",
          "name": "",
          "type": "uint256[]"
        }
      ],
      "stateMutability": "view",
      "type": "function"
    },
    {
      "inputs": [
        {
          "internalType": "uint256",
          "name": "tokenId",
          "type": "uint256"
        }
      ],
      "name": "getUnFinishedMatchIds",
      "outputs": [
        {
          "internalType": "uint256[]",
          "name": "",
          "type": "uint256[]"
        }
      ],
      "stateMutability": "view",
      "type": "function"
    },
    {
      "inputs": [],
      "name": "keyHash",
      "outputs": [
        {
          "internalType": "bytes32",
          "name": "",
          "type": "bytes32"
        }
      ],
      "stateMutability": "view",
      "type": "function"
    },
    {
      "inputs": [],
      "name": "matchCounter",
      "outputs": [
        {
          "internalType": "uint256",
          "name": "",
          "type": "uint256"
        }
      ],
      "stateMutability": "view",
      "type": "function"
    },
    {
      "inputs": [
        {
          "internalType": "uint256",
          "name": "",
          "type": "uint256"
        }
      ],
      "name": "matchIdToMatch",
      "outputs": [
        {
          "internalType": "uint256",
          "name": "matchId",
          "type": "uint256"
        },
        {
          "internalType": "uint256",
          "name": "fighterOne",
          "type": "uint256"
        },
        {
          "internalType": "uint256",
          "name": "fighterTwo",
          "type": "uint256"
        },
        {
          "internalType": "uint256",
          "name": "winner",
          "type": "uint256"
        },
        {
          "internalType": "uint256",
          "name": "looser",
          "type": "uint256"
        },
        {
          "internalType": "bool",
          "name": "end",
          "type": "bool"
        },
        {
          "internalType": "string",
          "name": "matchLogs",
          "type": "string"
        }
      ],
      "stateMutability": "view",
      "type": "function"
    },
    {
      "inputs": [],
      "name": "owner",
      "outputs": [
        {
          "internalType": "address",
          "name": "",
          "type": "address"
        }
      ],
      "stateMutability": "view",
      "type": "function"
    },
    {
      "inputs": [
        {
          "internalType": "bool",
          "name": "_state",
          "type": "bool"
        }
      ],
      "name": "pause",
      "outputs": [],
      "stateMutability": "nonpayable",
      "type": "function"
    },
    {
      "inputs": [],
      "name": "paused",
      "outputs": [
        {
          "internalType": "bool",
          "name": "",
          "type": "bool"
        }
      ],
      "stateMutability": "view",
      "type": "function"
    },
    {
      "inputs": [
        {
          "internalType": "bytes32",
          "name": "requestId",
          "type": "bytes32"
        },
        {
          "internalType": "uint256",
          "name": "randomness",
          "type": "uint256"
        }
      ],
      "name": "rawFulfillRandomness",
      "outputs": [],
      "stateMutability": "nonpayable",
      "type": "function"
    },
    {
      "inputs": [],
      "name": "renounceOwnership",
      "outputs": [],
      "stateMutability": "nonpayable",
      "type": "function"
    },
    {
      "inputs": [
        {
          "internalType": "uint256",
          "name": "_tokenId",
          "type": "uint256"
        }
      ],
      "name": "toggleOpenToFight",
      "outputs": [],
      "stateMutability": "nonpayable",
      "type": "function"
    },
    {
      "inputs": [
        {
          "internalType": "address",
          "name": "newOwner",
          "type": "address"
        }
      ],
      "name": "transferOwnership",
      "outputs": [],
      "stateMutability": "nonpayable",
      "type": "function"
    }
  ],
  "bytecode": "0x60c06040523480156200001157600080fd5b506040516200450938038062004509833981810160405281019062000037919062000269565b838360016000819055508173ffffffffffffffffffffffffffffffffffffffff1660a08173ffffffffffffffffffffffffffffffffffffffff1660601b815250508073ffffffffffffffffffffffffffffffffffffffff1660808173ffffffffffffffffffffffffffffffffffffffff1660601b815250505050620000d1620000c56200015660201b60201c565b6200015e60201b60201c565b806004819055508160058190555084600360006101000a81548173ffffffffffffffffffffffffffffffffffffffff021916908373ffffffffffffffffffffffffffffffffffffffff160217905550600060068190555060006007819055506000600860006101000a81548160ff021916908315150217905550505050505062000381565b600033905090565b6000600260009054906101000a900473ffffffffffffffffffffffffffffffffffffffff16905081600260006101000a81548173ffffffffffffffffffffffffffffffffffffffff021916908373ffffffffffffffffffffffffffffffffffffffff1602179055508173ffffffffffffffffffffffffffffffffffffffff168173ffffffffffffffffffffffffffffffffffffffff167f8be0079c531659141344cd1fd0a4f28419497f9722a3daafe3b4186f6b6457e060405160405180910390a35050565b600081519050620002358162000333565b92915050565b6000815190506200024c816200034d565b92915050565b600081519050620002638162000367565b92915050565b600080600080600060a086880312156200028257600080fd5b6000620002928882890162000224565b9550506020620002a58882890162000224565b9450506040620002b88882890162000224565b9350506060620002cb888289016200023b565b9250506080620002de8882890162000252565b9150509295509295909350565b6000620002f88262000309565b9050919050565b6000819050919050565b600073ffffffffffffffffffffffffffffffffffffffff82169050919050565b6000819050919050565b6200033e81620002eb565b81146200034a57600080fd5b50565b6200035881620002ff565b81146200036457600080fd5b50565b620003728162000329565b81146200037e57600080fd5b50565b60805160601c60a05160601c614155620003b46000396000818161084e0152612b4f01526000612b1301526141556000f3fe608060405234801561001057600080fd5b50600436106100f55760003560e01c806361728f3911610097578063ae09944811610066578063ae0994481461024e578063cec205d714610284578063ddca3f43146102a0578063f2fde38b146102be576100f5565b806361728f39146101ec578063715018a61461020a5780638da5cb5b1461021457806394985ddd14610232576100f5565b806322dfb9f2116100d357806322dfb9f214610164578063337808da1461019457806354c9d709146101b25780635c975abb146101ce576100f5565b806301fd1951146100fa57806302329a291461011857806304e4883414610134575b600080fd5b6101026102da565b60405161010f91906138d1565b60405180910390f35b610132600480360381019061012d919061305d565b6102e0565b005b61014e6004803603810190610149919061312c565b610379565b60405161015b91906136cb565b60405180910390f35b61017e6004803603810190610179919061312c565b610510565b60405161018b91906136cb565b60405180910390f35b61019c61068d565b6040516101a991906138d1565b60405180910390f35b6101cc60048036038101906101c7919061312c565b610693565b005b6101d6610781565b6040516101e391906136ed565b60405180910390f35b6101f4610794565b6040516102019190613708565b60405180910390f35b61021261079a565b005b61021c610822565b6040516102299190613672565b60405180910390f35b61024c600480360381019061024791906130af565b61084c565b005b6102686004803603810190610263919061312c565b6108e8565b60405161027b979695949392919061397c565b60405180910390f35b61029e6004803603810190610299919061312c565b6109bf565b005b6102a8611294565b6040516102b591906138d1565b60405180910390f35b6102d860048036038101906102d3919061300b565b61129a565b005b60065481565b6102e8611392565b73ffffffffffffffffffffffffffffffffffffffff16610306610822565b73ffffffffffffffffffffffffffffffffffffffff161461035c576040517f08c379a0000000000000000000000000000000000000000000000000000000008152600401610353906137f1565b60405180910390fd5b80600860006101000a81548160ff02191690831515021790555050565b6060600060075460065461038d9190613bed565b67ffffffffffffffff8111156103cc577f4e487b7100000000000000000000000000000000000000000000000000000000600052604160045260246000fd5b6040519080825280602002602001820160405280156103fa5781602001602082028036833780820191505090505b5090506000805b6007546006546104119190613bed565b8110156105055760001515600c600083815260200190815260200160002060050160009054906101000a900460ff16151514156104f25784600c6000838152602001908152602001600020600101541480610481575084600c600083815260200190815260200160002060020154145b156104f157600c6000828152602001908152602001600020600001548383815181106104d6577f4e487b7100000000000000000000000000000000000000000000000000000000600052603260045260246000fd5b60200260200101818152505081806104ed90613d16565b9250505b5b80806104fd90613d16565b915050610401565b508192505050919050565b6060600060075467ffffffffffffffff811115610556577f4e487b7100000000000000000000000000000000000000000000000000000000600052604160045260246000fd5b6040519080825280602002602001820160405280156105845781602001602082028036833780820191505090505b5090506000805b6006548110156106825760011515600c600083815260200190815260200160002060050160009054906101000a900460ff161515141561066f5784600c60008381526020019081526020016000206001015414806105fe575084600c600083815260200190815260200160002060020154145b1561066e57600c600082815260200190815260200160002060000154838381518110610653577f4e487b7100000000000000000000000000000000000000000000000000000000600052603260045260246000fd5b602002602001018181525050818061066a90613d16565b9250505b5b808061067a90613d16565b91505061058b565b508192505050919050565b60075481565b60001515600c600083815260200190815260200160002060050160009054906101000a900460ff1615151480156106e057506000600c600083815260200190815260200160002060030154145b61071f576040517f08c379a000000000000000000000000000000000000000000000000000000000815260040161071690613831565b60405180910390fd5b6000600a60008381526020019081526020016000205411610775576040517f08c379a000000000000000000000000000000000000000000000000000000000815260040161076c90613851565b60405180910390fd5b61077e8161139a565b50565b600860009054906101000a900460ff1681565b60055481565b6107a2611392565b73ffffffffffffffffffffffffffffffffffffffff166107c0610822565b73ffffffffffffffffffffffffffffffffffffffff1614610816576040517f08c379a000000000000000000000000000000000000000000000000000000000815260040161080d906137f1565b60405180910390fd5b6108206000611c1d565b565b6000600260009054906101000a900473ffffffffffffffffffffffffffffffffffffffff16905090565b7f000000000000000000000000000000000000000000000000000000000000000073ffffffffffffffffffffffffffffffffffffffff163373ffffffffffffffffffffffffffffffffffffffff16146108da576040517f08c379a00000000000000000000000000000000000000000000000000000000081526004016108d190613811565b60405180910390fd5b6108e48282611ce3565b5050565b600c6020528060005260406000206000915090508060000154908060010154908060020154908060030154908060040154908060050160009054906101000a900460ff169080600601805461093c90613cb3565b80601f016020809104026020016040519081016040528092919081815260200182805461096890613cb3565b80156109b55780601f1061098a576101008083540402835291602001916109b5565b820191906000526020600020905b81548152906001019060200180831161099857829003601f168201915b5050505050905087565b60026000541415610a05576040517f08c379a00000000000000000000000000000000000000000000000000000000081526004016109fc906138b1565b60405180910390fd5b6002600081905550600360009054906101000a900473ffffffffffffffffffffffffffffffffffffffff1673ffffffffffffffffffffffffffffffffffffffff16636352211e826040518263ffffffff1660e01b8152600401610a6891906138d1565b60206040518083038186803b158015610a8057600080fd5b505afa158015610a94573d6000803e3d6000fd5b505050506040513d601f19601f82011682018060405250810190610ab89190613034565b73ffffffffffffffffffffffffffffffffffffffff163373ffffffffffffffffffffffffffffffffffffffff1614610b25576040517f08c379a0000000000000000000000000000000000000000000000000000000008152600401610b1c90613871565b60405180910390fd5b600860009054906101000a900460ff1615610b75576040517f08c379a0000000000000000000000000000000000000000000000000000000008152600401610b6c90613891565b60405180910390fd5b6000600360009054906101000a900473ffffffffffffffffffffffffffffffffffffffff1673ffffffffffffffffffffffffffffffffffffffff1663368dc9f2836040518263ffffffff1660e01b8152600401610bd291906138d1565b60006040518083038186803b158015610bea57600080fd5b505afa158015610bfe573d6000803e3d6000fd5b505050506040513d6000823e3d601f19601f82011682018060405250810190610c2791906130eb565b90506000600a8260400151610c3c9190613b62565b90506000600b60008381526020019081526020016000206040518061018001604052908160008201548152602001600182018054610c7990613cb3565b80601f0160208091040260200160405190810160405280929190818152602001828054610ca590613cb3565b8015610cf25780601f10610cc757610100808354040283529160200191610cf2565b820191906000526020600020905b815481529060010190602001808311610cd557829003601f168201915b505050505081526020016002820154815260200160038201548152602001600482015481526020016005820154815260200160068201548152602001600782015481526020016008820154815260200160098201548152602001600a8201548152602001600b82018054610d6590613cb3565b80601f0160208091040260200160405190810160405280929190818152602001828054610d9190613cb3565b8015610dde5780601f10610db357610100808354040283529160200191610dde565b820191906000526020600020905b815481529060010190602001808311610dc157829003601f168201915b50505050508152505090508381600001511415610f6357600283610140015114610e3d576040517f08c379a0000000000000000000000000000000000000000000000000000000008152600401610e3490613791565b60405180910390fd5b600083610140018181525050600360009054906101000a900473ffffffffffffffffffffffffffffffffffffffff1673ffffffffffffffffffffffffffffffffffffffff1663716fee4f85856040518363ffffffff1660e01b8152600401610ea69291906138ec565b600060405180830381600087803b158015610ec057600080fd5b505af1158015610ed4573d6000803e3d6000fd5b50505050600b6000838152602001908152602001600020600080820160009055600182016000610f049190612cdf565b60028201600090556003820160009055600482016000905560058201600090556006820160009055600782016000905560088201600090556009820160009055600a820160009055600b82016000610f5c9190612cdf565b5050611286565b60018160000151101561111157600083610140015114610fb8576040517f08c379a0000000000000000000000000000000000000000000000000000000008152600401610faf906137d1565b60405180910390fd5b600283610140018181525050600360009054906101000a900473ffffffffffffffffffffffffffffffffffffffff1673ffffffffffffffffffffffffffffffffffffffff1663716fee4f85856040518363ffffffff1660e01b81526004016110219291906138ec565b600060405180830381600087803b15801561103b57600080fd5b505af115801561104f573d6000803e3d6000fd5b5050505082600b600084815260200190815260200160002060008201518160000155602082015181600101908051906020019061108d929190612d1f565b5060408201518160020155606082015181600301556080820151816004015560a0820151816005015560c0820151816006015560e082015181600701556101008201518160080155610120820151816009015561014082015181600a015561016082015181600b019080519060200190611108929190612d1f565b50905050611285565b600083610140015114611159576040517f08c379a0000000000000000000000000000000000000000000000000000000008152600401611150906137d1565b60405180910390fd5b600283610140018181525050600360009054906101000a900473ffffffffffffffffffffffffffffffffffffffff1673ffffffffffffffffffffffffffffffffffffffff1663716fee4f85856040518363ffffffff1660e01b81526004016111c29291906138ec565b600060405180830381600087803b1580156111dc57600080fd5b505af11580156111f0573d6000803e3d6000fd5b505050506111fe8184611d18565b600b600083815260200190815260200160002060008082016000905560018201600061122a9190612cdf565b60028201600090556003820160009055600482016000905560058201600090556006820160009055600782016000905560088201600090556009820160009055600a820160009055600b820160006112829190612cdf565b50505b5b505050600160008190555050565b60045481565b6112a2611392565b73ffffffffffffffffffffffffffffffffffffffff166112c0610822565b73ffffffffffffffffffffffffffffffffffffffff1614611316576040517f08c379a000000000000000000000000000000000000000000000000000000000815260040161130d906137f1565b60405180910390fd5b600073ffffffffffffffffffffffffffffffffffffffff168173ffffffffffffffffffffffffffffffffffffffff161415611386576040517f08c379a000000000000000000000000000000000000000000000000000000000815260040161137d906137b1565b60405180910390fd5b61138f81611c1d565b50565b600033905090565b6000600a60008381526020019081526020016000205490506000600c60008481526020019081526020016000206040518060e001604052908160008201548152602001600182015481526020016002820154815260200160038201548152602001600482015481526020016005820160009054906101000a900460ff1615151515815260200160068201805461142f90613cb3565b80601f016020809104026020016040519081016040528092919081815260200182805461145b90613cb3565b80156114a85780601f1061147d576101008083540402835291602001916114a8565b820191906000526020600020905b81548152906001019060200180831161148b57829003601f168201915b50505050508152505090506000600360009054906101000a900473ffffffffffffffffffffffffffffffffffffffff1673ffffffffffffffffffffffffffffffffffffffff1663368dc9f283602001516040518263ffffffff1660e01b815260040161151491906138d1565b60006040518083038186803b15801561152c57600080fd5b505afa158015611540573d6000803e3d6000fd5b505050506040513d6000823e3d601f19601f8201168201806040525081019061156991906130eb565b90506000600360009054906101000a900473ffffffffffffffffffffffffffffffffffffffff1673ffffffffffffffffffffffffffffffffffffffff1663368dc9f284604001516040518263ffffffff1660e01b81526004016115cc91906138d1565b60006040518083038186803b1580156115e457600080fd5b505afa1580156115f8573d6000803e3d6000fd5b505050506040513d6000823e3d601f19601f8201168201806040525081019061162191906130eb565b905060006116328560c86064611e69565b90506000604051806020016040528060008152509050600080600190505b60288111611b8f5760006040518060800160405280838152602001600081526020016000815260200160008152509050600160028361168f9190613d73565b14156118d6576116e88760c001518760e001518786815181106116db577f4e487b7100000000000000000000000000000000000000000000000000000000600052603260045260246000fd5b6020026020010151611f9f565b6116f35760006116f6565b60015b60ff1681602001818152505060018160200151141561180657828061171a90613d16565b93505061177c8761010001518761010001518960c001518960e0015189888151811061176f577f4e487b7100000000000000000000000000000000000000000000000000000000600052603260045260246000fd5b6020026020010151611fcf565b61178757600061178a565b60015b60ff1681604001818152505082806117a190613d16565b9350506117fc8760a00151886040015183604001518887815181106117ef577f4e487b7100000000000000000000000000000000000000000000000000000000600052603260045260246000fd5b602002602001015161200c565b8160600181815250505b8560800151816060015111156118b45783611824826000015161209d565b611831836020015161209d565b61183e846040015161209d565b61184b856060015161209d565b60405160200161185f9594939291906135fb565b60405160208183030381529060405293508660000151600c60008c8152602001908152602001600020600301819055508560000151600c60008c81526020019081526020016000206004018190555050611b8f565b8060600151866080018181516118ca9190613bed565b91508181525050611b13565b6119298660c001518860e0015187868151811061191c577f4e487b7100000000000000000000000000000000000000000000000000000000600052603260045260246000fd5b6020026020010151611f9f565b611934576000611937565b60015b60ff16816020018181525050600181602001511415611a4757828061195b90613d16565b9350506119bd8661010001518861010001518860c001518a60e001518988815181106119b0577f4e487b7100000000000000000000000000000000000000000000000000000000600052603260045260246000fd5b6020026020010151611fcf565b6119c85760006119cb565b60015b60ff1681604001818152505082806119e290613d16565b935050611a3d8660a0015187604001518360400151888781518110611a30577f4e487b7100000000000000000000000000000000000000000000000000000000600052603260045260246000fd5b602002602001015161200c565b8160600181815250505b866080015181606001511115611af55783611a65826000015161209d565b611a72836020015161209d565b611a7f846040015161209d565b611a8c856060015161209d565b604051602001611aa09594939291906135fb565b60405160208183030381529060405293508560000151600c60008c8152602001908152602001600020600301819055508660000151600c60008c81526020019081526020016000206004018190555050611b8f565b806060015187608001818151611b0b9190613bed565b915081815250505b83611b21826000015161209d565b611b2e836020015161209d565b611b3b846040015161209d565b611b48856060015161209d565b604051602001611b5c9594939291906135fb565b60405160208183030381529060405293508280611b7890613d16565b935050508080611b8790613d16565b915050611650565b506001600c60008a815260200190815260200160002060050160006101000a81548160ff02191690831515021790555060076000815480929190611bd290613d16565b9190505550611be082612272565b600c60008a81526020019081526020016000206006019080519060200190611c09929190612d1f565b50611c1388612411565b5050505050505050565b6000600260009054906101000a900473ffffffffffffffffffffffffffffffffffffffff16905081600260006101000a81548173ffffffffffffffffffffffffffffffffffffffff021916908373ffffffffffffffffffffffffffffffffffffffff1602179055508173ffffffffffffffffffffffffffffffffffffffff168173ffffffffffffffffffffffffffffffffffffffff167f8be0079c531659141344cd1fd0a4f28419497f9722a3daafe3b4186f6b6457e060405160405180910390a35050565b60006009600084815260200190815260200160002054905081600a600083815260200190815260200160002081905550505050565b6000611d28600554600454612b0f565b90506040518060e0016040528060065481526020018460000151815260200183600001518152602001600081526020016000815260200160001515815260200160405180602001604052806000815250815250600c60006006548152602001908152602001600020600082015181600001556020820151816001015560408201518160020155606082015181600301556080820151816004015560a08201518160050160006101000a81548160ff02191690831515021790555060c0820151816006019080519060200190611dfe929190612d1f565b509050506006546009600083815260200190815260200160002081905550600654817fbd02201f590eab74f686b3644304da890a94673318b3cb0a120c6cc183c2638d60405160405180910390a360066000815480929190611e5f90613d16565b9190505550505050565b60608267ffffffffffffffff811115611eab577f4e487b7100000000000000000000000000000000000000000000000000000000600052604160045260246000fd5b604051908082528060200260200182016040528015611ed95781602001602082028036833780820191505090505b5090506000600190505b838111611f975760008582604051602001611eff92919061391c565b6040516020818303038152906040528051906020012060001c905060018482611f289190613d73565b611f329190613ad5565b83600184611f409190613bed565b81518110611f77577f4e487b7100000000000000000000000000000000000000000000000000000000600052603260045260246000fd5b602002602001018181525050508080611f8f90613d16565b915050611ee3565b509392505050565b6000818385611fae9190613ad5565b609686611fbb9190613b93565b611fc59190613b62565b1190509392505050565b60008160288487611fe09190613ad5565b8689611fec9190613b93565b611ff69190613b62565b6120009190613b93565b11905095945050505050565b60008082868660405160200161202493929190613945565b6040516020818303038152906040528051906020012060001c9050600086905060006002886120539190613b62565b90508081836120629190613bed565b8461206d9190613d73565b6120779190613ad5565b935060018614156120925760028461208f9190613b93565b93505b505050949350505050565b606060008214156120e5576040518060400160405280600181526020017f3000000000000000000000000000000000000000000000000000000000000000815250905061226d565b600082905060005b6000821461211757808061210090613d16565b915050600a826121109190613b62565b91506120ed565b60008167ffffffffffffffff811115612159577f4e487b7100000000000000000000000000000000000000000000000000000000600052604160045260246000fd5b6040519080825280601f01601f19166020018201604052801561218b5781602001600182028036833780820191505090505b50905060008290505b60008614612265576001816121a99190613bed565b90506000600a80886121bb9190613b62565b6121c59190613b93565b876121d09190613bed565b60306121dc9190613b2b565b905060008160f81b905080848481518110612220577f4e487b7100000000000000000000000000000000000000000000000000000000600052603260045260246000fd5b60200101907effffffffffffffffffffffffffffffffffffffffffffffffffffffffffffff1916908160001a905350600a8861225c9190613b62565b97505050612194565b819450505050505b919050565b60606000825114156122955760405180602001604052806000815250905061240c565b60006040518060600160405280604081526020016140e060409139905060006003600285516122c49190613ad5565b6122ce9190613b62565b60046122da9190613b93565b905060006020826122eb9190613ad5565b67ffffffffffffffff81111561232a577f4e487b7100000000000000000000000000000000000000000000000000000000600052604160045260246000fd5b6040519080825280601f01601f19166020018201604052801561235c5781602001600182028036833780820191505090505b509050818152600183018586518101602084015b818310156123cb576003830192508251603f8160121c168501518253600182019150603f81600c1c168501518253600182019150603f8160061c168501518253600182019150603f8116850151825360018201915050612370565b6003895106600181146123e557600281146123f557612400565b613d3d60f01b6002830352612400565b603d60f81b60018303525b50505050508093505050505b919050565b6000600c60008381526020019081526020016000206040518060e001604052908160008201548152602001600182015481526020016002820154815260200160038201548152602001600482015481526020016005820160009054906101000a900460ff1615151515815260200160068201805461248e90613cb3565b80601f01602080910402602001604051908101604052809291908181526020018280546124ba90613cb3565b80156125075780601f106124dc57610100808354040283529160200191612507565b820191906000526020600020905b8154815290600101906020018083116124ea57829003601f168201915b5050505050815250509050600081606001511415612803576001600c600084815260200190815260200160002060050160006101000a81548160ff0219169083151502179055506000600360009054906101000a900473ffffffffffffffffffffffffffffffffffffffff1673ffffffffffffffffffffffffffffffffffffffff1663368dc9f283602001516040518263ffffffff1660e01b81526004016125af91906138d1565b60006040518083038186803b1580156125c757600080fd5b505afa1580156125db573d6000803e3d6000fd5b505050506040513d6000823e3d601f19601f8201168201806040525081019061260491906130eb565b90506000600360009054906101000a900473ffffffffffffffffffffffffffffffffffffffff1673ffffffffffffffffffffffffffffffffffffffff1663368dc9f284604001516040518263ffffffff1660e01b815260040161266791906138d1565b60006040518083038186803b15801561267f57600080fd5b505afa158015612693573d6000803e3d6000fd5b505050506040513d6000823e3d601f19601f820116820180604052508101906126bc91906130eb565b9050600082610140018181525050600081610140018181525050600360009054906101000a900473ffffffffffffffffffffffffffffffffffffffff1673ffffffffffffffffffffffffffffffffffffffff1663716fee4f8460200151846040518363ffffffff1660e01b81526004016127379291906138ec565b600060405180830381600087803b15801561275157600080fd5b505af1158015612765573d6000803e3d6000fd5b50505050600360009054906101000a900473ffffffffffffffffffffffffffffffffffffffff1673ffffffffffffffffffffffffffffffffffffffff1663716fee4f8460400151836040518363ffffffff1660e01b81526004016127ca9291906138ec565b600060405180830381600087803b1580156127e457600080fd5b505af11580156127f8573d6000803e3d6000fd5b505050505050612b0b565b6000600360009054906101000a900473ffffffffffffffffffffffffffffffffffffffff1673ffffffffffffffffffffffffffffffffffffffff1663368dc9f283606001516040518263ffffffff1660e01b815260040161286491906138d1565b60006040518083038186803b15801561287c57600080fd5b505afa158015612890573d6000803e3d6000fd5b505050506040513d6000823e3d601f19601f820116820180604052508101906128b991906130eb565b90506000600360009054906101000a900473ffffffffffffffffffffffffffffffffffffffff1673ffffffffffffffffffffffffffffffffffffffff1663368dc9f284608001516040518263ffffffff1660e01b815260040161291c91906138d1565b60006040518083038186803b15801561293457600080fd5b505afa158015612948573d6000803e3d6000fd5b505050506040513d6000823e3d601f19601f8201168201806040525081019061297191906130eb565b905081606001805180919061298590613d16565b815250506000826101400181815250508060400151826040018181516129ab9190613ad5565b9150818152505060648260400151106129ca5760648260400181815250505b601482604001516129db9190613b93565b826080018181525050600360009054906101000a900473ffffffffffffffffffffffffffffffffffffffff1673ffffffffffffffffffffffffffffffffffffffff1663716fee4f8460600151846040518363ffffffff1660e01b8152600401612a459291906138ec565b600060405180830381600087803b158015612a5f57600080fd5b505af1158015612a73573d6000803e3d6000fd5b50505050600360009054906101000a900473ffffffffffffffffffffffffffffffffffffffff1673ffffffffffffffffffffffffffffffffffffffff1663a87bcb2684608001516040518263ffffffff1660e01b8152600401612ad691906138d1565b600060405180830381600087803b158015612af057600080fd5b505af1158015612b04573d6000803e3d6000fd5b5050505050505b5050565b60007f000000000000000000000000000000000000000000000000000000000000000073ffffffffffffffffffffffffffffffffffffffff16634000aea07f000000000000000000000000000000000000000000000000000000000000000084866000604051602001612b83929190613723565b6040516020818303038152906040526040518463ffffffff1660e01b8152600401612bb09392919061368d565b602060405180830381600087803b158015612bca57600080fd5b505af1158015612bde573d6000803e3d6000fd5b505050506040513d601f19601f82011682018060405250810190612c029190613086565b506000612c25846000306001600089815260200190815260200160002054612c70565b9050600180600086815260200190815260200160002054612c469190613ad5565b6001600086815260200190815260200160002081905550612c678482612cac565b91505092915050565b600084848484604051602001612c89949392919061374c565b6040516020818303038152906040528051906020012060001c9050949350505050565b60008282604051602001612cc19291906135cf565b60405160208183030381529060405280519060200120905092915050565b508054612ceb90613cb3565b6000825580601f10612cfd5750612d1c565b601f016020900490600052602060002090810190612d1b9190612da5565b5b50565b828054612d2b90613cb3565b90600052602060002090601f016020900481019282612d4d5760008555612d94565b82601f10612d6657805160ff1916838001178555612d94565b82800160010185558215612d94579182015b82811115612d93578251825591602001919060010190612d78565b5b509050612da19190612da5565b5090565b5b80821115612dbe576000816000905550600101612da6565b5090565b6000612dd5612dd084613a17565b6139f2565b905082815260208101848484011115612ded57600080fd5b612df8848285613c80565b509392505050565b600081359050612e0f81614083565b92915050565b600081519050612e2481614083565b92915050565b600081359050612e398161409a565b92915050565b600081519050612e4e8161409a565b92915050565b600081359050612e63816140b1565b92915050565b600082601f830112612e7a57600080fd5b8151612e8a848260208601612dc2565b91505092915050565b60006101808284031215612ea657600080fd5b612eb16101806139f2565b90506000612ec184828501612ff6565b600083015250602082015167ffffffffffffffff811115612ee157600080fd5b612eed84828501612e69565b6020830152506040612f0184828501612ff6565b6040830152506060612f1584828501612ff6565b6060830152506080612f2984828501612ff6565b60808301525060a0612f3d84828501612ff6565b60a08301525060c0612f5184828501612ff6565b60c08301525060e0612f6584828501612ff6565b60e083015250610100612f7a84828501612ff6565b61010083015250610120612f9084828501612ff6565b61012083015250610140612fa684828501612ff6565b6101408301525061016082015167ffffffffffffffff811115612fc857600080fd5b612fd484828501612e69565b6101608301525092915050565b600081359050612ff0816140c8565b92915050565b600081519050613005816140c8565b92915050565b60006020828403121561301d57600080fd5b600061302b84828501612e00565b91505092915050565b60006020828403121561304657600080fd5b600061305484828501612e15565b91505092915050565b60006020828403121561306f57600080fd5b600061307d84828501612e2a565b91505092915050565b60006020828403121561309857600080fd5b60006130a684828501612e3f565b91505092915050565b600080604083850312156130c257600080fd5b60006130d085828601612e54565b92505060206130e185828601612fe1565b9150509250929050565b6000602082840312156130fd57600080fd5b600082015167ffffffffffffffff81111561311757600080fd5b61312384828501612e93565b91505092915050565b60006020828403121561313e57600080fd5b600061314c84828501612fe1565b91505092915050565b6000613161838361359a565b60208301905092915050565b61317681613c21565b82525050565b600061318782613a58565b6131918185613a86565b935061319c83613a48565b8060005b838110156131cd5781516131b48882613155565b97506131bf83613a79565b9250506001810190506131a0565b5085935050505092915050565b6131e381613c33565b82525050565b6131f281613c3f565b82525050565b61320961320482613c3f565b613d5f565b82525050565b600061321a82613a63565b6132248185613a97565b9350613234818560208601613c80565b61323d81613e60565b840191505092915050565b600061325382613a6e565b61325d8185613aa8565b935061326d818560208601613c80565b61327681613e60565b840191505092915050565b600061328c82613a6e565b6132968185613ab9565b93506132a6818560208601613c80565b6132af81613e60565b840191505092915050565b60006132c582613a6e565b6132cf8185613aca565b93506132df818560208601613c80565b80840191505092915050565b60006132f8601783613ab9565b915061330382613e71565b602082019050919050565b600061331b602683613ab9565b915061332682613e9a565b604082019050919050565b600061333e600183613aca565b915061334982613ee9565b600182019050919050565b6000613361600f83613ab9565b915061336c82613f12565b602082019050919050565b6000613384602083613ab9565b915061338f82613f3b565b602082019050919050565b60006133a7601f83613ab9565b91506133b282613f64565b602082019050919050565b60006133ca601583613ab9565b91506133d582613f8d565b602082019050919050565b60006133ed601a83613ab9565b91506133f882613fb6565b602082019050919050565b6000613410601783613ab9565b915061341b82613fdf565b602082019050919050565b6000613433601683613ab9565b915061343e82614008565b602082019050919050565b6000613456601f83613ab9565b915061346182614031565b602082019050919050565b6000613479600183613aca565b91506134848261405a565b600182019050919050565b6000610180830160008301516134a8600086018261359a565b50602083015184820360208601526134c08282613248565b91505060408301516134d5604086018261359a565b5060608301516134e8606086018261359a565b5060808301516134fb608086018261359a565b5060a083015161350e60a086018261359a565b5060c083015161352160c086018261359a565b5060e083015161353460e086018261359a565b5061010083015161354961010086018261359a565b5061012083015161355e61012086018261359a565b5061014083015161357361014086018261359a565b5061016083015184820361016086015261358d8282613248565b9150508091505092915050565b6135a381613c69565b82525050565b6135b281613c69565b82525050565b6135c96135c482613c69565b613d69565b82525050565b60006135db82856131f8565b6020820191506135eb82846135b8565b6020820191508190509392505050565b600061360782886132ba565b91506136128261346c565b915061361e82876132ba565b915061362982613331565b915061363582866132ba565b915061364082613331565b915061364c82856132ba565b915061365782613331565b915061366382846132ba565b91508190509695505050505050565b6000602082019050613687600083018461316d565b92915050565b60006060820190506136a2600083018661316d565b6136af60208301856135a9565b81810360408301526136c1818461320f565b9050949350505050565b600060208201905081810360008301526136e5818461317c565b905092915050565b600060208201905061370260008301846131da565b92915050565b600060208201905061371d60008301846131e9565b92915050565b600060408201905061373860008301856131e9565b61374560208301846135a9565b9392505050565b600060808201905061376160008301876131e9565b61376e60208301866135a9565b61377b604083018561316d565b61378860608301846135a9565b95945050505050565b600060208201905081810360008301526137aa816132eb565b9050919050565b600060208201905081810360008301526137ca8161330e565b9050919050565b600060208201905081810360008301526137ea81613354565b9050919050565b6000602082019050818103600083015261380a81613377565b9050919050565b6000602082019050818103600083015261382a8161339a565b9050919050565b6000602082019050818103600083015261384a816133bd565b9050919050565b6000602082019050818103600083015261386a816133e0565b9050919050565b6000602082019050818103600083015261388a81613403565b9050919050565b600060208201905081810360008301526138aa81613426565b9050919050565b600060208201905081810360008301526138ca81613449565b9050919050565b60006020820190506138e660008301846135a9565b92915050565b600060408201905061390160008301856135a9565b8181036020830152613913818461348f565b90509392505050565b600060408201905061393160008301856135a9565b61393e60208301846135a9565b9392505050565b600060608201905061395a60008301866135a9565b61396760208301856135a9565b61397460408301846135a9565b949350505050565b600060e082019050613991600083018a6135a9565b61399e60208301896135a9565b6139ab60408301886135a9565b6139b860608301876135a9565b6139c560808301866135a9565b6139d260a08301856131da565b81810360c08301526139e48184613281565b905098975050505050505050565b60006139fc613a0d565b9050613a088282613ce5565b919050565b6000604051905090565b600067ffffffffffffffff821115613a3257613a31613e31565b5b613a3b82613e60565b9050602081019050919050565b6000819050602082019050919050565b600081519050919050565b600081519050919050565b600081519050919050565b6000602082019050919050565b600082825260208201905092915050565b600082825260208201905092915050565b600082825260208201905092915050565b600082825260208201905092915050565b600081905092915050565b6000613ae082613c69565b9150613aeb83613c69565b9250827fffffffffffffffffffffffffffffffffffffffffffffffffffffffffffffffff03821115613b2057613b1f613da4565b5b828201905092915050565b6000613b3682613c73565b9150613b4183613c73565b92508260ff03821115613b5757613b56613da4565b5b828201905092915050565b6000613b6d82613c69565b9150613b7883613c69565b925082613b8857613b87613dd3565b5b828204905092915050565b6000613b9e82613c69565b9150613ba983613c69565b9250817fffffffffffffffffffffffffffffffffffffffffffffffffffffffffffffffff0483118215151615613be257613be1613da4565b5b828202905092915050565b6000613bf882613c69565b9150613c0383613c69565b925082821015613c1657613c15613da4565b5b828203905092915050565b6000613c2c82613c49565b9050919050565b60008115159050919050565b6000819050919050565b600073ffffffffffffffffffffffffffffffffffffffff82169050919050565b6000819050919050565b600060ff82169050919050565b60005b83811015613c9e578082015181840152602081019050613c83565b83811115613cad576000848401525b50505050565b60006002820490506001821680613ccb57607f821691505b60208210811415613cdf57613cde613e02565b5b50919050565b613cee82613e60565b810181811067ffffffffffffffff82111715613d0d57613d0c613e31565b5b80604052505050565b6000613d2182613c69565b91507fffffffffffffffffffffffffffffffffffffffffffffffffffffffffffffffff821415613d5457613d53613da4565b5b600182019050919050565b6000819050919050565b6000819050919050565b6000613d7e82613c69565b9150613d8983613c69565b925082613d9957613d98613dd3565b5b828206905092915050565b7f4e487b7100000000000000000000000000000000000000000000000000000000600052601160045260246000fd5b7f4e487b7100000000000000000000000000000000000000000000000000000000600052601260045260246000fd5b7f4e487b7100000000000000000000000000000000000000000000000000000000600052602260045260246000fd5b7f4e487b7100000000000000000000000000000000000000000000000000000000600052604160045260246000fd5b6000601f19601f8301169050919050565b7f46696768746572206973206e6f7420696e206172656e61000000000000000000600082015250565b7f4f776e61626c653a206e6577206f776e657220697320746865207a65726f206160008201527f6464726573730000000000000000000000000000000000000000000000000000602082015250565b7f2000000000000000000000000000000000000000000000000000000000000000600082015250565b7f4669676874657220697320627573790000000000000000000000000000000000600082015250565b7f4f776e61626c653a2063616c6c6572206973206e6f7420746865206f776e6572600082015250565b7f4f6e6c7920565246436f6f7264696e61746f722063616e2066756c66696c6c00600082015250565b7f4d6174636820697320616c726561647920646f6e650000000000000000000000600082015250565b7f436861696e4c696e6b20565246206973206e6f74207265616479000000000000600082015250565b7f4e6f74206f776e6572206f66207468697320746f6b656e000000000000000000600082015250565b7f4669676874696e67206973206e6f742061637469766500000000000000000000600082015250565b7f5265656e7472616e637947756172643a207265656e7472616e742063616c6c00600082015250565b7f2f00000000000000000000000000000000000000000000000000000000000000600082015250565b61408c81613c21565b811461409757600080fd5b50565b6140a381613c33565b81146140ae57600080fd5b50565b6140ba81613c3f565b81146140c557600080fd5b50565b6140d181613c69565b81146140dc57600080fd5b5056fe4142434445464748494a4b4c4d4e4f505152535455565758595a6162636465666768696a6b6c6d6e6f707172737475767778797a303132333435363738392b2fa264697066735822122036e73835e5a2fcae2904f6e55c540a36e8ae198264ae137c51cd1af4e0ddf5da64736f6c63430008040033",
  "linkReferences": {},
  "deployedLinkReferences": {}
}