{
  "_format": "hh-sol-artifact-1",
  "contractName": "Fighting",
  "sourceName": "contracts/Fighting.sol",
  "abi": [
    {
      "inputs": [
        {
          "internalType": "address",
          "name": "_nftContract",
          "type": "address"
        },
        {
          "internalType": "address",
          "name": "_VRFCoordinator",
          "type": "address"
        },
        {
          "internalType": "address",
          "name": "_linkToken",
          "type": "address"
        },
        {
          "internalType": "bytes32",
          "name": "_keyHash",
          "type": "bytes32"
        },
        {
          "internalType": "uint256",
          "name": "_fee",
          "type": "uint256"
        }
      ],
      "stateMutability": "nonpayable",
      "type": "constructor"
    },
    {
      "anonymous": false,
      "inputs": [
        {
          "indexed": true,
          "internalType": "address",
          "name": "previousOwner",
          "type": "address"
        },
        {
          "indexed": true,
          "internalType": "address",
          "name": "newOwner",
          "type": "address"
        }
      ],
      "name": "OwnershipTransferred",
      "type": "event"
    },
    {
      "anonymous": false,
      "inputs": [
        {
          "indexed": true,
          "internalType": "bytes32",
          "name": "requestId",
          "type": "bytes32"
        },
        {
          "indexed": true,
          "internalType": "uint256",
          "name": "matchId",
          "type": "uint256"
        }
      ],
      "name": "RequestedMatch",
      "type": "event"
    },
    {
      "inputs": [],
      "name": "fee",
      "outputs": [
        {
          "internalType": "uint256",
          "name": "",
          "type": "uint256"
        }
      ],
      "stateMutability": "view",
      "type": "function"
    },
    {
      "inputs": [
        {
          "internalType": "uint256",
          "name": "_matchId",
          "type": "uint256"
        }
      ],
      "name": "finishMatch",
      "outputs": [],
      "stateMutability": "nonpayable",
      "type": "function"
    },
    {
      "inputs": [],
      "name": "finishedMatches",
      "outputs": [
        {
          "internalType": "uint256",
          "name": "",
          "type": "uint256"
        }
      ],
      "stateMutability": "view",
      "type": "function"
    },
    {
      "inputs": [
        {
          "internalType": "uint256",
          "name": "_tokenId",
          "type": "uint256"
        }
      ],
      "name": "getMatchesByTokenId",
      "outputs": [
        {
          "internalType": "uint256[]",
          "name": "",
          "type": "uint256[]"
        }
      ],
      "stateMutability": "view",
      "type": "function"
    },
    {
      "inputs": [],
      "name": "keyHash",
      "outputs": [
        {
          "internalType": "bytes32",
          "name": "",
          "type": "bytes32"
        }
      ],
      "stateMutability": "view",
      "type": "function"
    },
    {
      "inputs": [],
      "name": "matchCounter",
      "outputs": [
        {
          "internalType": "uint256",
          "name": "",
          "type": "uint256"
        }
      ],
      "stateMutability": "view",
      "type": "function"
    },
    {
      "inputs": [
        {
          "internalType": "uint256",
          "name": "",
          "type": "uint256"
        }
      ],
      "name": "matchIdToMatch",
      "outputs": [
        {
          "internalType": "uint256",
          "name": "matchId",
          "type": "uint256"
        },
        {
          "internalType": "uint256",
          "name": "fighterOne",
          "type": "uint256"
        },
        {
          "internalType": "uint256",
          "name": "fighterTwo",
          "type": "uint256"
        },
        {
          "internalType": "uint256",
          "name": "winner",
          "type": "uint256"
        },
        {
          "internalType": "uint256",
          "name": "looser",
          "type": "uint256"
        },
        {
          "internalType": "bool",
          "name": "end",
          "type": "bool"
        },
        {
          "internalType": "string",
          "name": "matchLogs",
          "type": "string"
        }
      ],
      "stateMutability": "view",
      "type": "function"
    },
    {
      "inputs": [],
      "name": "owner",
      "outputs": [
        {
          "internalType": "address",
          "name": "",
          "type": "address"
        }
      ],
      "stateMutability": "view",
      "type": "function"
    },
    {
      "inputs": [
        {
          "internalType": "bool",
          "name": "_state",
          "type": "bool"
        }
      ],
      "name": "pause",
      "outputs": [],
      "stateMutability": "nonpayable",
      "type": "function"
    },
    {
      "inputs": [],
      "name": "paused",
      "outputs": [
        {
          "internalType": "bool",
          "name": "",
          "type": "bool"
        }
      ],
      "stateMutability": "view",
      "type": "function"
    },
    {
      "inputs": [
        {
          "internalType": "bytes32",
          "name": "requestId",
          "type": "bytes32"
        },
        {
          "internalType": "uint256",
          "name": "randomness",
          "type": "uint256"
        }
      ],
      "name": "rawFulfillRandomness",
      "outputs": [],
      "stateMutability": "nonpayable",
      "type": "function"
    },
    {
      "inputs": [],
      "name": "renounceOwnership",
      "outputs": [],
      "stateMutability": "nonpayable",
      "type": "function"
    },
    {
      "inputs": [
        {
          "internalType": "uint256",
          "name": "_tokenId",
          "type": "uint256"
        }
      ],
      "name": "toggleOpenToFight",
      "outputs": [],
      "stateMutability": "nonpayable",
      "type": "function"
    },
    {
      "inputs": [
        {
          "internalType": "uint256",
          "name": "",
          "type": "uint256"
        },
        {
          "internalType": "uint256",
          "name": "",
          "type": "uint256"
        }
      ],
      "name": "tokenIdToMatchIds",
      "outputs": [
        {
          "internalType": "uint256",
          "name": "",
          "type": "uint256"
        }
      ],
      "stateMutability": "view",
      "type": "function"
    },
    {
      "inputs": [
        {
          "internalType": "address",
          "name": "newOwner",
          "type": "address"
        }
      ],
      "name": "transferOwnership",
      "outputs": [],
      "stateMutability": "nonpayable",
      "type": "function"
    }
  ],
  "bytecode": "0x60c06040523480156200001157600080fd5b506040516200446e3803806200446e833981810160405281019062000037919062000269565b838360016000819055508173ffffffffffffffffffffffffffffffffffffffff1660a08173ffffffffffffffffffffffffffffffffffffffff1660601b815250508073ffffffffffffffffffffffffffffffffffffffff1660808173ffffffffffffffffffffffffffffffffffffffff1660601b815250505050620000d1620000c56200015660201b60201c565b6200015e60201b60201c565b806004819055508160058190555084600360006101000a81548173ffffffffffffffffffffffffffffffffffffffff021916908373ffffffffffffffffffffffffffffffffffffffff160217905550600060068190555060006007819055506000600860006101000a81548160ff021916908315150217905550505050505062000381565b600033905090565b6000600260009054906101000a900473ffffffffffffffffffffffffffffffffffffffff16905081600260006101000a81548173ffffffffffffffffffffffffffffffffffffffff021916908373ffffffffffffffffffffffffffffffffffffffff1602179055508173ffffffffffffffffffffffffffffffffffffffff168173ffffffffffffffffffffffffffffffffffffffff167f8be0079c531659141344cd1fd0a4f28419497f9722a3daafe3b4186f6b6457e060405160405180910390a35050565b600081519050620002358162000333565b92915050565b6000815190506200024c816200034d565b92915050565b600081519050620002638162000367565b92915050565b600080600080600060a086880312156200028257600080fd5b6000620002928882890162000224565b9550506020620002a58882890162000224565b9450506040620002b88882890162000224565b9350506060620002cb888289016200023b565b9250506080620002de8882890162000252565b9150509295509295909350565b6000620002f88262000309565b9050919050565b6000819050919050565b600073ffffffffffffffffffffffffffffffffffffffff82169050919050565b6000819050919050565b6200033e81620002eb565b81146200034a57600080fd5b50565b6200035881620002ff565b81146200036457600080fd5b50565b620003728162000329565b81146200037e57600080fd5b50565b60805160601c60a05160601c6140ba620003b4600039600081816105a501526129e9015260006129ad01526140ba6000f3fe608060405234801561001057600080fd5b50600436106100f55760003560e01c806387f77b3311610097578063c694bffa11610066578063c694bffa14610254578063cec205d714610284578063ddca3f43146102a0578063f2fde38b146102be576100f5565b806387f77b33146101b45780638da5cb5b146101e457806394985ddd14610202578063ae0994481461021e576100f5565b806354c9d709116100d357806354c9d709146101525780635c975abb1461016e57806361728f391461018c578063715018a6146101aa576100f5565b806301fd1951146100fa57806302329a2914610118578063337808da14610134575b600080fd5b6101026102da565b60405161010f9190613836565b60405180910390f35b610132600480360381019061012d9190612ef7565b6102e0565b005b61013c610379565b6040516101499190613836565b60405180910390f35b61016c60048036038101906101679190612fc6565b61037f565b005b61017661046d565b6040516101839190613652565b60405180910390f35b610194610480565b6040516101a1919061366d565b60405180910390f35b6101b2610486565b005b6101ce60048036038101906101c99190612fc6565b61050e565b6040516101db9190613630565b60405180910390f35b6101ec610579565b6040516101f991906135d7565b60405180910390f35b61021c60048036038101906102179190612f49565b6105a3565b005b61023860048036038101906102339190612fc6565b61063f565b60405161024b97969594939291906138e1565b60405180910390f35b61026e60048036038101906102699190612fef565b610716565b60405161027b9190613836565b60405180910390f35b61029e60048036038101906102999190612fc6565b610747565b005b6102a861101c565b6040516102b59190613836565b60405180910390f35b6102d860048036038101906102d39190612ea5565b611022565b005b60065481565b6102e861111a565b73ffffffffffffffffffffffffffffffffffffffff16610306610579565b73ffffffffffffffffffffffffffffffffffffffff161461035c576040517f08c379a000000000000000000000000000000000000000000000000000000000815260040161035390613756565b60405180910390fd5b80600860006101000a81548160ff02191690831515021790555050565b60075481565b60001515600c600083815260200190815260200160002060050160009054906101000a900460ff1615151480156103cc57506000600c600083815260200190815260200160002060030154145b61040b576040517f08c379a000000000000000000000000000000000000000000000000000000000815260040161040290613796565b60405180910390fd5b6000600a60008381526020019081526020016000205411610461576040517f08c379a0000000000000000000000000000000000000000000000000000000008152600401610458906137b6565b60405180910390fd5b61046a81611122565b50565b600860009054906101000a900460ff1681565b60055481565b61048e61111a565b73ffffffffffffffffffffffffffffffffffffffff166104ac610579565b73ffffffffffffffffffffffffffffffffffffffff1614610502576040517f08c379a00000000000000000000000000000000000000000000000000000000081526004016104f990613756565b60405180910390fd5b61050c60006119b7565b565b6060600d600083815260200190815260200160002080548060200260200160405190810160405280929190818152602001828054801561056d57602002820191906000526020600020905b815481526020019060010190808311610559575b50505050509050919050565b6000600260009054906101000a900473ffffffffffffffffffffffffffffffffffffffff16905090565b7f000000000000000000000000000000000000000000000000000000000000000073ffffffffffffffffffffffffffffffffffffffff163373ffffffffffffffffffffffffffffffffffffffff1614610631576040517f08c379a000000000000000000000000000000000000000000000000000000000815260040161062890613776565b60405180910390fd5b61063b8282611a7d565b5050565b600c6020528060005260406000206000915090508060000154908060010154908060020154908060030154908060040154908060050160009054906101000a900460ff169080600601805461069390613c18565b80601f01602080910402602001604051908101604052809291908181526020018280546106bf90613c18565b801561070c5780601f106106e15761010080835404028352916020019161070c565b820191906000526020600020905b8154815290600101906020018083116106ef57829003601f168201915b5050505050905087565b600d602052816000526040600020818154811061073257600080fd5b90600052602060002001600091509150505481565b6002600054141561078d576040517f08c379a000000000000000000000000000000000000000000000000000000000815260040161078490613816565b60405180910390fd5b6002600081905550600360009054906101000a900473ffffffffffffffffffffffffffffffffffffffff1673ffffffffffffffffffffffffffffffffffffffff16636352211e826040518263ffffffff1660e01b81526004016107f09190613836565b60206040518083038186803b15801561080857600080fd5b505afa15801561081c573d6000803e3d6000fd5b505050506040513d601f19601f820116820180604052508101906108409190612ece565b73ffffffffffffffffffffffffffffffffffffffff163373ffffffffffffffffffffffffffffffffffffffff16146108ad576040517f08c379a00000000000000000000000000000000000000000000000000000000081526004016108a4906137d6565b60405180910390fd5b600860009054906101000a900460ff16156108fd576040517f08c379a00000000000000000000000000000000000000000000000000000000081526004016108f4906137f6565b60405180910390fd5b6000600360009054906101000a900473ffffffffffffffffffffffffffffffffffffffff1673ffffffffffffffffffffffffffffffffffffffff1663368dc9f2836040518263ffffffff1660e01b815260040161095a9190613836565b60006040518083038186803b15801561097257600080fd5b505afa158015610986573d6000803e3d6000fd5b505050506040513d6000823e3d601f19601f820116820180604052508101906109af9190612f85565b90506000600a82604001516109c49190613ac7565b90506000600b60008381526020019081526020016000206040518061018001604052908160008201548152602001600182018054610a0190613c18565b80601f0160208091040260200160405190810160405280929190818152602001828054610a2d90613c18565b8015610a7a5780601f10610a4f57610100808354040283529160200191610a7a565b820191906000526020600020905b815481529060010190602001808311610a5d57829003601f168201915b505050505081526020016002820154815260200160038201548152602001600482015481526020016005820154815260200160068201548152602001600782015481526020016008820154815260200160098201548152602001600a8201548152602001600b82018054610aed90613c18565b80601f0160208091040260200160405190810160405280929190818152602001828054610b1990613c18565b8015610b665780601f10610b3b57610100808354040283529160200191610b66565b820191906000526020600020905b815481529060010190602001808311610b4957829003601f168201915b50505050508152505090508381600001511415610ceb57600283610140015114610bc5576040517f08c379a0000000000000000000000000000000000000000000000000000000008152600401610bbc906136f6565b60405180910390fd5b600083610140018181525050600360009054906101000a900473ffffffffffffffffffffffffffffffffffffffff1673ffffffffffffffffffffffffffffffffffffffff1663716fee4f85856040518363ffffffff1660e01b8152600401610c2e929190613851565b600060405180830381600087803b158015610c4857600080fd5b505af1158015610c5c573d6000803e3d6000fd5b50505050600b6000838152602001908152602001600020600080820160009055600182016000610c8c9190612b79565b60028201600090556003820160009055600482016000905560058201600090556006820160009055600782016000905560088201600090556009820160009055600a820160009055600b82016000610ce49190612b79565b505061100e565b600181600001511015610e9957600083610140015114610d40576040517f08c379a0000000000000000000000000000000000000000000000000000000008152600401610d3790613736565b60405180910390fd5b600283610140018181525050600360009054906101000a900473ffffffffffffffffffffffffffffffffffffffff1673ffffffffffffffffffffffffffffffffffffffff1663716fee4f85856040518363ffffffff1660e01b8152600401610da9929190613851565b600060405180830381600087803b158015610dc357600080fd5b505af1158015610dd7573d6000803e3d6000fd5b5050505082600b6000848152602001908152602001600020600082015181600001556020820151816001019080519060200190610e15929190612bb9565b5060408201518160020155606082015181600301556080820151816004015560a0820151816005015560c0820151816006015560e082015181600701556101008201518160080155610120820151816009015561014082015181600a015561016082015181600b019080519060200190610e90929190612bb9565b5090505061100d565b600083610140015114610ee1576040517f08c379a0000000000000000000000000000000000000000000000000000000008152600401610ed890613736565b60405180910390fd5b600283610140018181525050600360009054906101000a900473ffffffffffffffffffffffffffffffffffffffff1673ffffffffffffffffffffffffffffffffffffffff1663716fee4f85856040518363ffffffff1660e01b8152600401610f4a929190613851565b600060405180830381600087803b158015610f6457600080fd5b505af1158015610f78573d6000803e3d6000fd5b50505050610f868184611ab2565b600b6000838152602001908152602001600020600080820160009055600182016000610fb29190612b79565b60028201600090556003820160009055600482016000905560058201600090556006820160009055600782016000905560088201600090556009820160009055600a820160009055600b8201600061100a9190612b79565b50505b5b505050600160008190555050565b60045481565b61102a61111a565b73ffffffffffffffffffffffffffffffffffffffff16611048610579565b73ffffffffffffffffffffffffffffffffffffffff161461109e576040517f08c379a000000000000000000000000000000000000000000000000000000000815260040161109590613756565b60405180910390fd5b600073ffffffffffffffffffffffffffffffffffffffff168173ffffffffffffffffffffffffffffffffffffffff16141561110e576040517f08c379a000000000000000000000000000000000000000000000000000000000815260040161110590613716565b60405180910390fd5b611117816119b7565b50565b600033905090565b6000600a60008381526020019081526020016000205490506000600c60008481526020019081526020016000206040518060e001604052908160008201548152602001600182015481526020016002820154815260200160038201548152602001600482015481526020016005820160009054906101000a900460ff161515151581526020016006820180546111b790613c18565b80601f01602080910402602001604051908101604052809291908181526020018280546111e390613c18565b80156112305780601f1061120557610100808354040283529160200191611230565b820191906000526020600020905b81548152906001019060200180831161121357829003601f168201915b50505050508152505090506000600360009054906101000a900473ffffffffffffffffffffffffffffffffffffffff1673ffffffffffffffffffffffffffffffffffffffff1663368dc9f283602001516040518263ffffffff1660e01b815260040161129c9190613836565b60006040518083038186803b1580156112b457600080fd5b505afa1580156112c8573d6000803e3d6000fd5b505050506040513d6000823e3d601f19601f820116820180604052508101906112f19190612f85565b90506000600360009054906101000a900473ffffffffffffffffffffffffffffffffffffffff1673ffffffffffffffffffffffffffffffffffffffff1663368dc9f284604001516040518263ffffffff1660e01b81526004016113549190613836565b60006040518083038186803b15801561136c57600080fd5b505afa158015611380573d6000803e3d6000fd5b505050506040513d6000823e3d601f19601f820116820180604052508101906113a99190612f85565b905060006113ba8560c86064611c83565b9050600060405180602001604052806000815250905060008080600190505b60328111611928576000604051806080016040528083815260200160008152602001600081526020016000815250905060016002836114189190613cd8565b1415611662576114718860c001518860e00151888781518110611464577f4e487b7100000000000000000000000000000000000000000000000000000000600052603260045260246000fd5b6020026020010151611db9565b61147c57600061147f565b60015b60ff1681602001818152505060018160200151141561158f5783806114a390613c7b565b9450506115058861010001518861010001518a60c001518a60e001518a89815181106114f8577f4e487b7100000000000000000000000000000000000000000000000000000000600052603260045260246000fd5b6020026020010151611de9565b611510576000611513565b60015b60ff16816040018181525050838061152a90613c7b565b9450506115858860a0015189604001518360400151898881518110611578577f4e487b7100000000000000000000000000000000000000000000000000000000600052603260045260246000fd5b6020026020010151611e26565b8160600181815250505b86608001518160600151111561163d57846115ad8260000151611eb7565b6115ba8360200151611eb7565b6115c78460400151611eb7565b6115d48560600151611eb7565b6040516020016115e89594939291906134d1565b60405160208183030381529060405294508760000151600c60008d8152602001908152602001600020600301819055508660000151600c60008d81526020019081526020016000206004018190555050611928565b806060015187608001516116519190613b52565b9250828760800181815250506118a2565b6116b58760c001518960e001518887815181106116a8577f4e487b7100000000000000000000000000000000000000000000000000000000600052603260045260246000fd5b6020026020010151611db9565b6116c05760006116c3565b60015b60ff168160200181815250506001816020015114156117d35783806116e790613c7b565b9450506117498761010001518961010001518960c001518b60e001518a898151811061173c577f4e487b7100000000000000000000000000000000000000000000000000000000600052603260045260246000fd5b6020026020010151611de9565b611754576000611757565b60015b60ff16816040018181525050838061176e90613c7b565b9450506117c98760a00151886040015183604001518988815181106117bc577f4e487b7100000000000000000000000000000000000000000000000000000000600052603260045260246000fd5b6020026020010151611e26565b8160600181815250505b87608001518160600151111561188157846117f18260000151611eb7565b6117fe8360200151611eb7565b61180b8460400151611eb7565b6118188560600151611eb7565b60405160200161182c9594939291906134d1565b60405160208183030381529060405294508660000151600c60008d8152602001908152602001600020600301819055508760000151600c60008d81526020019081526020016000206004018190555050611928565b806060015188608001516118959190613b52565b9250828860800181815250505b846118b08260000151611eb7565b6118bd8360200151611eb7565b6118ca8460400151611eb7565b6118d78560600151611eb7565b6118e088611eb7565b6040516020016118f596959493929190613548565b6040516020818303038152906040529450838061191190613c7b565b94505050808061192090613c7b565b9150506113d9565b506001600c60008b815260200190815260200160002060050160006101000a81548160ff0219169083151502179055506007600081548092919061196b90613c7b565b91905055506119798361208c565b600c60008b815260200190815260200160002060060190805190602001906119a2929190612bb9565b506119ac8961222b565b505050505050505050565b6000600260009054906101000a900473ffffffffffffffffffffffffffffffffffffffff16905081600260006101000a81548173ffffffffffffffffffffffffffffffffffffffff021916908373ffffffffffffffffffffffffffffffffffffffff1602179055508173ffffffffffffffffffffffffffffffffffffffff168173ffffffffffffffffffffffffffffffffffffffff167f8be0079c531659141344cd1fd0a4f28419497f9722a3daafe3b4186f6b6457e060405160405180910390a35050565b60006009600084815260200190815260200160002054905081600a600083815260200190815260200160002081905550505050565b6000611ac26005546004546129a9565b90506040518060e0016040528060065481526020018460000151815260200183600001518152602001600081526020016000815260200160001515815260200160405180602001604052806000815250815250600c60006006548152602001908152602001600020600082015181600001556020820151816001015560408201518160020155606082015181600301556080820151816004015560a08201518160050160006101000a81548160ff02191690831515021790555060c0820151816006019080519060200190611b98929190612bb9565b50905050600d6000846000015181526020019081526020016000206006549080600181540180825580915050600190039060005260206000200160009091909190915055600d60008360000151815260200190815260200160002060065490806001815401808255809150506001900390600052602060002001600090919091909150556006546009600083815260200190815260200160002081905550600654817fbd02201f590eab74f686b3644304da890a94673318b3cb0a120c6cc183c2638d60405160405180910390a360066000815480929190611c7990613c7b565b9190505550505050565b60608267ffffffffffffffff811115611cc5577f4e487b7100000000000000000000000000000000000000000000000000000000600052604160045260246000fd5b604051908082528060200260200182016040528015611cf35781602001602082028036833780820191505090505b5090506000600190505b838111611db15760008582604051602001611d19929190613881565b6040516020818303038152906040528051906020012060001c905060018482611d429190613cd8565b611d4c9190613a3a565b83600184611d5a9190613b52565b81518110611d91577f4e487b7100000000000000000000000000000000000000000000000000000000600052603260045260246000fd5b602002602001018181525050508080611da990613c7b565b915050611cfd565b509392505050565b6000818385611dc89190613a3a565b606486611dd59190613af8565b611ddf9190613ac7565b1190509392505050565b60008160148487611dfa9190613a3a565b8689611e069190613a3a565b611e109190613ac7565b611e1a9190613af8565b11905095945050505050565b600080828686604051602001611e3e939291906138aa565b6040516020818303038152906040528051906020012060001c905060008690506000600288611e6d9190613ac7565b9050808183611e7c9190613b52565b84611e879190613cd8565b611e919190613a3a565b93506001861415611eac57600284611ea99190613af8565b93505b505050949350505050565b60606000821415611eff576040518060400160405280600181526020017f30000000000000000000000000000000000000000000000000000000000000008152509050612087565b600082905060005b60008214611f31578080611f1a90613c7b565b915050600a82611f2a9190613ac7565b9150611f07565b60008167ffffffffffffffff811115611f73577f4e487b7100000000000000000000000000000000000000000000000000000000600052604160045260246000fd5b6040519080825280601f01601f191660200182016040528015611fa55781602001600182028036833780820191505090505b50905060008290505b6000861461207f57600181611fc39190613b52565b90506000600a8088611fd59190613ac7565b611fdf9190613af8565b87611fea9190613b52565b6030611ff69190613a90565b905060008160f81b90508084848151811061203a577f4e487b7100000000000000000000000000000000000000000000000000000000600052603260045260246000fd5b60200101907effffffffffffffffffffffffffffffffffffffffffffffffffffffffffffff1916908160001a905350600a886120769190613ac7565b97505050611fae565b819450505050505b919050565b60606000825114156120af57604051806020016040528060008152509050612226565b600060405180606001604052806040815260200161404560409139905060006003600285516120de9190613a3a565b6120e89190613ac7565b60046120f49190613af8565b905060006020826121059190613a3a565b67ffffffffffffffff811115612144577f4e487b7100000000000000000000000000000000000000000000000000000000600052604160045260246000fd5b6040519080825280601f01601f1916602001820160405280156121765781602001600182028036833780820191505090505b509050818152600183018586518101602084015b818310156121e5576003830192508251603f8160121c168501518253600182019150603f81600c1c168501518253600182019150603f8160061c168501518253600182019150603f811685015182536001820191505061218a565b6003895106600181146121ff576002811461220f5761221a565b613d3d60f01b600283035261221a565b603d60f81b60018303525b50505050508093505050505b919050565b6000600c60008381526020019081526020016000206040518060e001604052908160008201548152602001600182015481526020016002820154815260200160038201548152602001600482015481526020016005820160009054906101000a900460ff161515151581526020016006820180546122a890613c18565b80601f01602080910402602001604051908101604052809291908181526020018280546122d490613c18565b80156123215780601f106122f657610100808354040283529160200191612321565b820191906000526020600020905b81548152906001019060200180831161230457829003601f168201915b505050505081525050905060008160600151141561261d576001600c600084815260200190815260200160002060050160006101000a81548160ff0219169083151502179055506000600360009054906101000a900473ffffffffffffffffffffffffffffffffffffffff1673ffffffffffffffffffffffffffffffffffffffff1663368dc9f283602001516040518263ffffffff1660e01b81526004016123c99190613836565b60006040518083038186803b1580156123e157600080fd5b505afa1580156123f5573d6000803e3d6000fd5b505050506040513d6000823e3d601f19601f8201168201806040525081019061241e9190612f85565b90506000600360009054906101000a900473ffffffffffffffffffffffffffffffffffffffff1673ffffffffffffffffffffffffffffffffffffffff1663368dc9f284604001516040518263ffffffff1660e01b81526004016124819190613836565b60006040518083038186803b15801561249957600080fd5b505afa1580156124ad573d6000803e3d6000fd5b505050506040513d6000823e3d601f19601f820116820180604052508101906124d69190612f85565b9050600082610140018181525050600081610140018181525050600360009054906101000a900473ffffffffffffffffffffffffffffffffffffffff1673ffffffffffffffffffffffffffffffffffffffff1663716fee4f8460200151846040518363ffffffff1660e01b8152600401612551929190613851565b600060405180830381600087803b15801561256b57600080fd5b505af115801561257f573d6000803e3d6000fd5b50505050600360009054906101000a900473ffffffffffffffffffffffffffffffffffffffff1673ffffffffffffffffffffffffffffffffffffffff1663716fee4f8460400151836040518363ffffffff1660e01b81526004016125e4929190613851565b600060405180830381600087803b1580156125fe57600080fd5b505af1158015612612573d6000803e3d6000fd5b5050505050506129a5565b6000600360009054906101000a900473ffffffffffffffffffffffffffffffffffffffff1673ffffffffffffffffffffffffffffffffffffffff1663368dc9f283606001516040518263ffffffff1660e01b815260040161267e9190613836565b60006040518083038186803b15801561269657600080fd5b505afa1580156126aa573d6000803e3d6000fd5b505050506040513d6000823e3d601f19601f820116820180604052508101906126d39190612f85565b90506000600360009054906101000a900473ffffffffffffffffffffffffffffffffffffffff1673ffffffffffffffffffffffffffffffffffffffff1663368dc9f284608001516040518263ffffffff1660e01b81526004016127369190613836565b60006040518083038186803b15801561274e57600080fd5b505afa158015612762573d6000803e3d6000fd5b505050506040513d6000823e3d601f19601f8201168201806040525081019061278b9190612f85565b905081606001805180919061279f90613c7b565b8152505060008261014001818152505060c8816080015110156127eb578060400151826040018181516127d29190613a3a565b915081815250506103e78161014001818152505061284a565b600481604001516127fc9190613ac7565b8260400181815161280d9190613a3a565b91508181525050600081610140018181525050600481608001516128319190613ac7565b81608001516128409190613b52565b8160800181815250505b60648260400151106128625760648260400181815250505b601482604001516128739190613af8565b826080018181525050600360009054906101000a900473ffffffffffffffffffffffffffffffffffffffff1673ffffffffffffffffffffffffffffffffffffffff1663716fee4f8460600151846040518363ffffffff1660e01b81526004016128dd929190613851565b600060405180830381600087803b1580156128f757600080fd5b505af115801561290b573d6000803e3d6000fd5b50505050600360009054906101000a900473ffffffffffffffffffffffffffffffffffffffff1673ffffffffffffffffffffffffffffffffffffffff1663716fee4f8460800151836040518363ffffffff1660e01b8152600401612970929190613851565b600060405180830381600087803b15801561298a57600080fd5b505af115801561299e573d6000803e3d6000fd5b5050505050505b5050565b60007f000000000000000000000000000000000000000000000000000000000000000073ffffffffffffffffffffffffffffffffffffffff16634000aea07f000000000000000000000000000000000000000000000000000000000000000084866000604051602001612a1d929190613688565b6040516020818303038152906040526040518463ffffffff1660e01b8152600401612a4a939291906135f2565b602060405180830381600087803b158015612a6457600080fd5b505af1158015612a78573d6000803e3d6000fd5b505050506040513d601f19601f82011682018060405250810190612a9c9190612f20565b506000612abf846000306001600089815260200190815260200160002054612b0a565b9050600180600086815260200190815260200160002054612ae09190613a3a565b6001600086815260200190815260200160002081905550612b018482612b46565b91505092915050565b600084848484604051602001612b2394939291906136b1565b6040516020818303038152906040528051906020012060001c9050949350505050565b60008282604051602001612b5b9291906134a5565b60405160208183030381529060405280519060200120905092915050565b508054612b8590613c18565b6000825580601f10612b975750612bb6565b601f016020900490600052602060002090810190612bb59190612c3f565b5b50565b828054612bc590613c18565b90600052602060002090601f016020900481019282612be75760008555612c2e565b82601f10612c0057805160ff1916838001178555612c2e565b82800160010185558215612c2e579182015b82811115612c2d578251825591602001919060010190612c12565b5b509050612c3b9190612c3f565b5090565b5b80821115612c58576000816000905550600101612c40565b5090565b6000612c6f612c6a8461397c565b613957565b905082815260208101848484011115612c8757600080fd5b612c92848285613be5565b509392505050565b600081359050612ca981613fe8565b92915050565b600081519050612cbe81613fe8565b92915050565b600081359050612cd381613fff565b92915050565b600081519050612ce881613fff565b92915050565b600081359050612cfd81614016565b92915050565b600082601f830112612d1457600080fd5b8151612d24848260208601612c5c565b91505092915050565b60006101808284031215612d4057600080fd5b612d4b610180613957565b90506000612d5b84828501612e90565b600083015250602082015167ffffffffffffffff811115612d7b57600080fd5b612d8784828501612d03565b6020830152506040612d9b84828501612e90565b6040830152506060612daf84828501612e90565b6060830152506080612dc384828501612e90565b60808301525060a0612dd784828501612e90565b60a08301525060c0612deb84828501612e90565b60c08301525060e0612dff84828501612e90565b60e083015250610100612e1484828501612e90565b61010083015250610120612e2a84828501612e90565b61012083015250610140612e4084828501612e90565b6101408301525061016082015167ffffffffffffffff811115612e6257600080fd5b612e6e84828501612d03565b6101608301525092915050565b600081359050612e8a8161402d565b92915050565b600081519050612e9f8161402d565b92915050565b600060208284031215612eb757600080fd5b6000612ec584828501612c9a565b91505092915050565b600060208284031215612ee057600080fd5b6000612eee84828501612caf565b91505092915050565b600060208284031215612f0957600080fd5b6000612f1784828501612cc4565b91505092915050565b600060208284031215612f3257600080fd5b6000612f4084828501612cd9565b91505092915050565b60008060408385031215612f5c57600080fd5b6000612f6a85828601612cee565b9250506020612f7b85828601612e7b565b9150509250929050565b600060208284031215612f9757600080fd5b600082015167ffffffffffffffff811115612fb157600080fd5b612fbd84828501612d2d565b91505092915050565b600060208284031215612fd857600080fd5b6000612fe684828501612e7b565b91505092915050565b6000806040838503121561300257600080fd5b600061301085828601612e7b565b925050602061302185828601612e7b565b9150509250929050565b60006130378383613470565b60208301905092915050565b61304c81613b86565b82525050565b600061305d826139bd565b61306781856139eb565b9350613072836139ad565b8060005b838110156130a357815161308a888261302b565b9750613095836139de565b925050600181019050613076565b5085935050505092915050565b6130b981613b98565b82525050565b6130c881613ba4565b82525050565b6130df6130da82613ba4565b613cc4565b82525050565b60006130f0826139c8565b6130fa81856139fc565b935061310a818560208601613be5565b61311381613dc5565b840191505092915050565b6000613129826139d3565b6131338185613a0d565b9350613143818560208601613be5565b61314c81613dc5565b840191505092915050565b6000613162826139d3565b61316c8185613a1e565b935061317c818560208601613be5565b61318581613dc5565b840191505092915050565b600061319b826139d3565b6131a58185613a2f565b93506131b5818560208601613be5565b80840191505092915050565b60006131ce601783613a1e565b91506131d982613dd6565b602082019050919050565b60006131f1602683613a1e565b91506131fc82613dff565b604082019050919050565b6000613214601783613a1e565b915061321f82613e4e565b602082019050919050565b6000613237600183613a2f565b915061324282613e77565b600182019050919050565b600061325a602083613a1e565b915061326582613ea0565b602082019050919050565b600061327d601f83613a1e565b915061328882613ec9565b602082019050919050565b60006132a0601583613a1e565b91506132ab82613ef2565b602082019050919050565b60006132c3601a83613a1e565b91506132ce82613f1b565b602082019050919050565b60006132e6601783613a1e565b91506132f182613f44565b602082019050919050565b6000613309601683613a1e565b915061331482613f6d565b602082019050919050565b600061332c601f83613a1e565b915061333782613f96565b602082019050919050565b600061334f600183613a2f565b915061335a82613fbf565b600182019050919050565b60006101808301600083015161337e6000860182613470565b5060208301518482036020860152613396828261311e565b91505060408301516133ab6040860182613470565b5060608301516133be6060860182613470565b5060808301516133d16080860182613470565b5060a08301516133e460a0860182613470565b5060c08301516133f760c0860182613470565b5060e083015161340a60e0860182613470565b5061010083015161341f610100860182613470565b50610120830151613434610120860182613470565b50610140830151613449610140860182613470565b50610160830151848203610160860152613463828261311e565b9150508091505092915050565b61347981613bce565b82525050565b61348881613bce565b82525050565b61349f61349a82613bce565b613cce565b82525050565b60006134b182856130ce565b6020820191506134c1828461348e565b6020820191508190509392505050565b60006134dd8288613190565b91506134e882613342565b91506134f48287613190565b91506134ff8261322a565b915061350b8286613190565b91506135168261322a565b91506135228285613190565b915061352d8261322a565b91506135398284613190565b91508190509695505050505050565b60006135548289613190565b915061355f82613342565b915061356b8288613190565b91506135768261322a565b91506135828287613190565b915061358d8261322a565b91506135998286613190565b91506135a48261322a565b91506135b08285613190565b91506135bb8261322a565b91506135c78284613190565b9150819050979650505050505050565b60006020820190506135ec6000830184613043565b92915050565b60006060820190506136076000830186613043565b613614602083018561347f565b818103604083015261362681846130e5565b9050949350505050565b6000602082019050818103600083015261364a8184613052565b905092915050565b600060208201905061366760008301846130b0565b92915050565b600060208201905061368260008301846130bf565b92915050565b600060408201905061369d60008301856130bf565b6136aa602083018461347f565b9392505050565b60006080820190506136c660008301876130bf565b6136d3602083018661347f565b6136e06040830185613043565b6136ed606083018461347f565b95945050505050565b6000602082019050818103600083015261370f816131c1565b9050919050565b6000602082019050818103600083015261372f816131e4565b9050919050565b6000602082019050818103600083015261374f81613207565b9050919050565b6000602082019050818103600083015261376f8161324d565b9050919050565b6000602082019050818103600083015261378f81613270565b9050919050565b600060208201905081810360008301526137af81613293565b9050919050565b600060208201905081810360008301526137cf816132b6565b9050919050565b600060208201905081810360008301526137ef816132d9565b9050919050565b6000602082019050818103600083015261380f816132fc565b9050919050565b6000602082019050818103600083015261382f8161331f565b9050919050565b600060208201905061384b600083018461347f565b92915050565b6000604082019050613866600083018561347f565b81810360208301526138788184613365565b90509392505050565b6000604082019050613896600083018561347f565b6138a3602083018461347f565b9392505050565b60006060820190506138bf600083018661347f565b6138cc602083018561347f565b6138d9604083018461347f565b949350505050565b600060e0820190506138f6600083018a61347f565b613903602083018961347f565b613910604083018861347f565b61391d606083018761347f565b61392a608083018661347f565b61393760a08301856130b0565b81810360c08301526139498184613157565b905098975050505050505050565b6000613961613972565b905061396d8282613c4a565b919050565b6000604051905090565b600067ffffffffffffffff82111561399757613996613d96565b5b6139a082613dc5565b9050602081019050919050565b6000819050602082019050919050565b600081519050919050565b600081519050919050565b600081519050919050565b6000602082019050919050565b600082825260208201905092915050565b600082825260208201905092915050565b600082825260208201905092915050565b600082825260208201905092915050565b600081905092915050565b6000613a4582613bce565b9150613a5083613bce565b9250827fffffffffffffffffffffffffffffffffffffffffffffffffffffffffffffffff03821115613a8557613a84613d09565b5b828201905092915050565b6000613a9b82613bd8565b9150613aa683613bd8565b92508260ff03821115613abc57613abb613d09565b5b828201905092915050565b6000613ad282613bce565b9150613add83613bce565b925082613aed57613aec613d38565b5b828204905092915050565b6000613b0382613bce565b9150613b0e83613bce565b9250817fffffffffffffffffffffffffffffffffffffffffffffffffffffffffffffffff0483118215151615613b4757613b46613d09565b5b828202905092915050565b6000613b5d82613bce565b9150613b6883613bce565b925082821015613b7b57613b7a613d09565b5b828203905092915050565b6000613b9182613bae565b9050919050565b60008115159050919050565b6000819050919050565b600073ffffffffffffffffffffffffffffffffffffffff82169050919050565b6000819050919050565b600060ff82169050919050565b60005b83811015613c03578082015181840152602081019050613be8565b83811115613c12576000848401525b50505050565b60006002820490506001821680613c3057607f821691505b60208210811415613c4457613c43613d67565b5b50919050565b613c5382613dc5565b810181811067ffffffffffffffff82111715613c7257613c71613d96565b5b80604052505050565b6000613c8682613bce565b91507fffffffffffffffffffffffffffffffffffffffffffffffffffffffffffffffff821415613cb957613cb8613d09565b5b600182019050919050565b6000819050919050565b6000819050919050565b6000613ce382613bce565b9150613cee83613bce565b925082613cfe57613cfd613d38565b5b828206905092915050565b7f4e487b7100000000000000000000000000000000000000000000000000000000600052601160045260246000fd5b7f4e487b7100000000000000000000000000000000000000000000000000000000600052601260045260246000fd5b7f4e487b7100000000000000000000000000000000000000000000000000000000600052602260045260246000fd5b7f4e487b7100000000000000000000000000000000000000000000000000000000600052604160045260246000fd5b6000601f19601f8301169050919050565b7f46696768746572206973206e6f7420696e206172656e61000000000000000000600082015250565b7f4f776e61626c653a206e6577206f776e657220697320746865207a65726f206160008201527f6464726573730000000000000000000000000000000000000000000000000000602082015250565b7f466967687465722069732062757379206f722064656164000000000000000000600082015250565b7f2000000000000000000000000000000000000000000000000000000000000000600082015250565b7f4f776e61626c653a2063616c6c6572206973206e6f7420746865206f776e6572600082015250565b7f4f6e6c7920565246436f6f7264696e61746f722063616e2066756c66696c6c00600082015250565b7f4d6174636820697320616c726561647920646f6e650000000000000000000000600082015250565b7f436861696e4c696e6b20565246206973206e6f74207265616479000000000000600082015250565b7f4e6f74206f776e6572206f66207468697320746f6b656e000000000000000000600082015250565b7f4669676874696e67206973206e6f742061637469766500000000000000000000600082015250565b7f5265656e7472616e637947756172643a207265656e7472616e742063616c6c00600082015250565b7f2f00000000000000000000000000000000000000000000000000000000000000600082015250565b613ff181613b86565b8114613ffc57600080fd5b50565b61400881613b98565b811461401357600080fd5b50565b61401f81613ba4565b811461402a57600080fd5b50565b61403681613bce565b811461404157600080fd5b5056fe4142434445464748494a4b4c4d4e4f505152535455565758595a6162636465666768696a6b6c6d6e6f707172737475767778797a303132333435363738392b2fa26469706673582212206b629a69dd9d5a384d3f2814268ae6d2a61acca17edb3ee70f692ee97b0ff1ed64736f6c63430008040033",
  "linkReferences": {},
  "deployedLinkReferences": {}
}