{
  "_format": "hh-sol-artifact-1",
  "contractName": "FighterUtils",
  "sourceName": "contracts/FighterUtils.sol",
  "abi": [
    {
      "inputs": [
        {
          "components": [
            {
              "internalType": "uint256",
              "name": "tokenId",
              "type": "uint256"
            },
            {
              "internalType": "string",
              "name": "name",
              "type": "string"
            },
            {
              "internalType": "uint256",
              "name": "level",
              "type": "uint256"
            },
            {
              "internalType": "uint256",
              "name": "wins",
              "type": "uint256"
            },
            {
              "internalType": "uint256",
              "name": "hp",
              "type": "uint256"
            },
            {
              "internalType": "uint256",
              "name": "strength",
              "type": "uint256"
            },
            {
              "internalType": "uint256",
              "name": "dexterity",
              "type": "uint256"
            },
            {
              "internalType": "uint256",
              "name": "agility",
              "type": "uint256"
            },
            {
              "internalType": "uint256",
              "name": "intelligence",
              "type": "uint256"
            },
            {
              "internalType": "uint256",
              "name": "durability",
              "type": "uint256"
            },
            {
              "internalType": "uint256",
              "name": "location",
              "type": "uint256"
            },
            {
              "internalType": "string",
              "name": "fighterType",
              "type": "string"
            }
          ],
          "internalType": "struct lib.Fighter",
          "name": "_fighter",
          "type": "tuple"
        }
      ],
      "name": "createImageURL",
      "outputs": [
        {
          "internalType": "string",
          "name": "",
          "type": "string"
        }
      ],
      "stateMutability": "pure",
      "type": "function"
    },
    {
      "inputs": [
        {
          "internalType": "string",
          "name": "_imageURL",
          "type": "string"
        },
        {
          "components": [
            {
              "internalType": "uint256",
              "name": "tokenId",
              "type": "uint256"
            },
            {
              "internalType": "string",
              "name": "name",
              "type": "string"
            },
            {
              "internalType": "uint256",
              "name": "level",
              "type": "uint256"
            },
            {
              "internalType": "uint256",
              "name": "wins",
              "type": "uint256"
            },
            {
              "internalType": "uint256",
              "name": "hp",
              "type": "uint256"
            },
            {
              "internalType": "uint256",
              "name": "strength",
              "type": "uint256"
            },
            {
              "internalType": "uint256",
              "name": "dexterity",
              "type": "uint256"
            },
            {
              "internalType": "uint256",
              "name": "agility",
              "type": "uint256"
            },
            {
              "internalType": "uint256",
              "name": "intelligence",
              "type": "uint256"
            },
            {
              "internalType": "uint256",
              "name": "durability",
              "type": "uint256"
            },
            {
              "internalType": "uint256",
              "name": "location",
              "type": "uint256"
            },
            {
              "internalType": "string",
              "name": "fighterType",
              "type": "string"
            }
          ],
          "internalType": "struct lib.Fighter",
          "name": "_fighter",
          "type": "tuple"
        }
      ],
      "name": "createTokenURL",
      "outputs": [
        {
          "internalType": "string",
          "name": "",
          "type": "string"
        }
      ],
      "stateMutability": "pure",
      "type": "function"
    }
  ],
  "bytecode": "0x608060405234801561001057600080fd5b50611cae806100206000396000f3fe608060405234801561001057600080fd5b50600436106100365760003560e01c8063a62a2fa71461003b578063f2db21701461006b575b600080fd5b6100556004803603810190610050919061080c565b61009b565b6040516100629190610faf565b60405180910390f35b61008560048036038101906100809190610878565b61017a565b6040516100929190610faf565b60405180910390f35b606061015382602001518361016001516100b9856101400151610221565b6100c68660400151610221565b6100d38760600151610221565b6100e08860800151610221565b6100ed8960a00151610221565b6100fa8a60c00151610221565b6101078b60e00151610221565b6101158c6101000151610221565b6101238d6101200151610221565b8e60405160200161013f9c9b9a99989796959493929190610e42565b6040516020818303038152906040526103f6565b6040516020016101639190610f8d565b604051602081830303815290604052905092915050565b6060600061018783610595565b905060006040518060400160405280601a81526020017f646174613a696d6167652f7376672b786d6c3b6261736536342c000000000000815250905060006101ed836040516020016101d99190610cf7565b6040516020818303038152906040526103f6565b905060008282604051602001610204929190610d0e565b604051602081830303815290604052905080945050505050919050565b60606000821415610269576040518060400160405280600181526020017f300000000000000000000000000000000000000000000000000000000000000081525090506103f1565b600082905060005b6000821461029b57808061028490611224565b915050600a8261029491906110db565b9150610271565b60008167ffffffffffffffff8111156102dd577f4e487b7100000000000000000000000000000000000000000000000000000000600052604160045260246000fd5b6040519080825280601f01601f19166020018201604052801561030f5781602001600182028036833780820191505090505b50905060008290505b600086146103e95760018161032d9190611166565b90506000600a808861033f91906110db565b610349919061110c565b876103549190611166565b603061036091906110a4565b905060008160f81b9050808484815181106103a4577f4e487b7100000000000000000000000000000000000000000000000000000000600052603260045260246000fd5b60200101907effffffffffffffffffffffffffffffffffffffffffffffffffffffffffffff1916908160001a905350600a886103e091906110db565b97505050610318565b819450505050505b919050565b606060008251141561041957604051806020016040528060008152509050610590565b6000604051806060016040528060408152602001611c396040913990506000600360028551610448919061104e565b61045291906110db565b600461045e919061110c565b9050600060208261046f919061104e565b67ffffffffffffffff8111156104ae577f4e487b7100000000000000000000000000000000000000000000000000000000600052604160045260246000fd5b6040519080825280601f01601f1916602001820160405280156104e05781602001600182028036833780820191505090505b509050818152600183018586518101602084015b8183101561054f576003830192508251603f8160121c168501518253600182019150603f81600c1c168501518253600182019150603f8160061c168501518253600182019150603f81168501518253600182019150506104f4565b600389510660018114610569576002811461057957610584565b613d3d60f01b6002830352610584565b603d60f81b60018303525b50505050508093505050505b919050565b6060600082602001516105ab8460400151610221565b6105b88560600151610221565b6105c58660800151610221565b6105d28760a00151610221565b6105df8860c00151610221565b6105ec8960e00151610221565b6105fa8a6101000151610221565b6106088b6101200151610221565b8b61016001516040516020016106279a99989796959493929190610d32565b604051602081830303815290604052905080915050919050565b600061065461064f84610ff6565b610fd1565b90508281526020810184848401111561066c57600080fd5b6106778482856111b1565b509392505050565b600082601f83011261069057600080fd5b81356106a0848260208601610641565b91505092915050565b600061018082840312156106bc57600080fd5b6106c7610180610fd1565b905060006106d7848285016107f7565b600083015250602082013567ffffffffffffffff8111156106f757600080fd5b6107038482850161067f565b6020830152506040610717848285016107f7565b604083015250606061072b848285016107f7565b606083015250608061073f848285016107f7565b60808301525060a0610753848285016107f7565b60a08301525060c0610767848285016107f7565b60c08301525060e061077b848285016107f7565b60e083015250610100610790848285016107f7565b610100830152506101206107a6848285016107f7565b610120830152506101406107bc848285016107f7565b6101408301525061016082013567ffffffffffffffff8111156107de57600080fd5b6107ea8482850161067f565b6101608301525092915050565b60008135905061080681611c21565b92915050565b6000806040838503121561081f57600080fd5b600083013567ffffffffffffffff81111561083957600080fd5b6108458582860161067f565b925050602083013567ffffffffffffffff81111561086257600080fd5b61086e858286016106a9565b9150509250929050565b60006020828403121561088a57600080fd5b600082013567ffffffffffffffff8111156108a457600080fd5b6108b0848285016106a9565b91505092915050565b60006108c482611027565b6108ce8185611032565b93506108de8185602086016111c0565b6108e7816112fa565b840191505092915050565b60006108fd82611027565b6109078185611043565b93506109178185602086016111c0565b80840191505092915050565b6000610930603d83611043565b915061093b8261130b565b603d82019050919050565b6000610953603a83611043565b915061095e8261135a565b603a82019050919050565b6000610976602783611043565b9150610981826113a9565b602782019050919050565b600061099960cf83611043565b91506109a4826113f8565b60cf82019050919050565b60006109bc602983611043565b91506109c782611505565b602982019050919050565b60006109df603383611043565b91506109ea82611554565b603382019050919050565b6000610a02603583611043565b9150610a0d826115a3565b603582019050919050565b6000610a25603583611043565b9150610a30826115f2565b603582019050919050565b6000610a48601683611043565b9150610a5382611641565b601682019050919050565b6000610a6b600d83611043565b9150610a768261166a565b600d82019050919050565b6000610a8e602883611043565b9150610a9982611693565b602882019050919050565b6000610ab1600e83611043565b9150610abc826116e2565b600e82019050919050565b6000610ad4604783611043565b9150610adf8261170b565b604782019050919050565b6000610af7602683611043565b9150610b0282611780565b602682019050919050565b6000610b1a602783611043565b9150610b25826117cf565b602782019050919050565b6000610b3d600283611043565b9150610b488261181e565b600282019050919050565b6000610b60603b83611043565b9150610b6b82611847565b603b82019050919050565b6000610b83603983611043565b9150610b8e82611896565b603982019050919050565b6000610ba6602183611043565b9150610bb1826118e5565b602182019050919050565b6000610bc9602b83611043565b9150610bd482611934565b602b82019050919050565b6000610bec600a83611043565b9150610bf782611983565b600a82019050919050565b6000610c0f602883611043565b9150610c1a826119ac565b602882019050919050565b6000610c32601d83611043565b9150610c3d826119fb565b601d82019050919050565b6000610c55602283611043565b9150610c6082611a24565b602282019050919050565b6000610c78607683611043565b9150610c8382611a73565b607682019050919050565b6000610c9b606183611043565b9150610ca682611b0e565b606182019050919050565b6000610cbe600e83611043565b9150610cc982611ba9565b600e82019050919050565b6000610ce1603883611043565b9150610cec82611bd2565b603882019050919050565b6000610d0382846108f2565b915081905092915050565b6000610d1a82856108f2565b9150610d2682846108f2565b91508190509392505050565b6000610d3d8261098c565b9150610d49828d6108f2565b9150610d5482610c6b565b9150610d60828c6108f2565b9150610d6b82610a18565b9150610d77828b6108f2565b9150610d8282610c8e565b9150610d8e828a6108f2565b9150610d9982610969565b9150610da582896108f2565b9150610db082610c02565b9150610dbc82886108f2565b9150610dc782610aea565b9150610dd382876108f2565b9150610dde82610bbc565b9150610dea82866108f2565b9150610df5826109af565b9150610e0182856108f2565b9150610e0c82610ac7565b9150610e1782610a3b565b9150610e2382846108f2565b9150610e2e82610a5e565b91508190509b9a5050505050505050505050565b6000610e4d82610bdf565b9150610e59828f6108f2565b9150610e6482610a81565b9150610e6f82610cb1565b9150610e7a82610b99565b9150610e86828e6108f2565b9150610e9182610b0d565b9150610e9d828d6108f2565b9150610ea8826109f5565b9150610eb4828c6108f2565b9150610ebf82610c48565b9150610ecb828b6108f2565b9150610ed6826109d2565b9150610ee2828a6108f2565b9150610eed82610b76565b9150610ef982896108f2565b9150610f0482610946565b9150610f1082886108f2565b9150610f1b82610cd4565b9150610f2782876108f2565b9150610f3282610923565b9150610f3e82866108f2565b9150610f4982610b53565b9150610f5582856108f2565b9150610f6082610aa4565b9150610f6c82846108f2565b9150610f7782610b30565b91508190509d9c50505050505050505050505050565b6000610f9882610c25565b9150610fa482846108f2565b915081905092915050565b60006020820190508181036000830152610fc981846108b9565b905092915050565b6000610fdb610fec565b9050610fe782826111f3565b919050565b6000604051905090565b600067ffffffffffffffff821115611011576110106112cb565b5b61101a826112fa565b9050602081019050919050565b600081519050919050565b600082825260208201905092915050565b600081905092915050565b60006110598261119a565b91506110648361119a565b9250827fffffffffffffffffffffffffffffffffffffffffffffffffffffffffffffffff038211156110995761109861126d565b5b828201905092915050565b60006110af826111a4565b91506110ba836111a4565b92508260ff038211156110d0576110cf61126d565b5b828201905092915050565b60006110e68261119a565b91506110f18361119a565b9250826111015761110061129c565b5b828204905092915050565b60006111178261119a565b91506111228361119a565b9250817fffffffffffffffffffffffffffffffffffffffffffffffffffffffffffffffff048311821515161561115b5761115a61126d565b5b828202905092915050565b60006111718261119a565b915061117c8361119a565b92508282101561118f5761118e61126d565b5b828203905092915050565b6000819050919050565b600060ff82169050919050565b82818337600083830152505050565b60005b838110156111de5780820151818401526020810190506111c3565b838111156111ed576000848401525b50505050565b6111fc826112fa565b810181811067ffffffffffffffff8211171561121b5761121a6112cb565b5b80604052505050565b600061122f8261119a565b91507fffffffffffffffffffffffffffffffffffffffffffffffffffffffffffffffff8214156112625761126161126d565b5b600182019050919050565b7f4e487b7100000000000000000000000000000000000000000000000000000000600052601160045260246000fd5b7f4e487b7100000000000000000000000000000000000000000000000000000000600052601260045260246000fd5b7f4e487b7100000000000000000000000000000000000000000000000000000000600052604160045260246000fd5b6000601f19601f8301169050919050565b7f7d2c7b2274726169745f74797065223a2022496e74656c6c6967656e6365222c60008201527f20226d61785f76616c7565223a20313030302c202276616c7565223a20000000602082015250565b7f7d2c7b2274726169745f74797065223a2022446578746572697479222c20226d60008201527f61785f76616c7565223a20313030302c202276616c7565223a20000000000000602082015250565b7f3c2f746578743e3c7465787420783d273530252720793d27363225273e53747260008201527f656e6774683a2000000000000000000000000000000000000000000000000000602082015250565b7f3c73766720786d6c6e733d27687474703a2f2f7777772e77332e6f72672f323060008201527f30302f73766727206865696768743d27353030272077696474683d273530302760208201527f20746578742d616e63686f723d276d6964646c65272066696c6c3d277768697460408201527f652720666f6e742d73697a653d27312e35656d273e3c7265637420776964746860608201527f3d2735303027206865696768743d2735303027207374796c653d2766696c6c3a60808201527f626c61636b3b272f3e3c7465787420783d273530252720793d2732302527206660a08201527f6f6e742d73697a653d2732656d273e000000000000000000000000000000000060c082015250565b7f3c2f746578743e3c7465787420783d273530252720793d27383225273e44757260008201527f6162696c6974793a200000000000000000000000000000000000000000000000602082015250565b7f7d2c7b2274726169745f74797065223a20224850222c20226d61785f76616c7560008201527f65223a20323030302c202276616c7565223a2000000000000000000000000000602082015250565b7f7d2c7b2274726169745f74797065223a20224c6576656c222c20226d61785f7660008201527f616c7565223a203130302c202276616c7565223a200000000000000000000000602082015250565b7f3c2f746578743e3c7465787420783d273530252720793d273435252720666f6e60008201527f742d73697a653d27312e35656d273e57696e733a200000000000000000000000602082015250565b7f3c7465787420783d273530252720793d27393525273e00000000000000000000600082015250565b7f3c2f746578743e3c2f7376673e00000000000000000000000000000000000000600082015250565b7f222c226465736372697074696f6e223a2022416e204e4654206669676874696e60008201527f672067616d65222c000000000000000000000000000000000000000000000000602082015250565b7f7d5d2c2022696d616765223a2022000000000000000000000000000000000000600082015250565b7f3c2f746578743e3c6c696e652078313d27323025272079313d2738382527207860008201527f323d27383025272079323d2738382527207374796c653d277374726f6b653a7760208201527f68697465272f3e00000000000000000000000000000000000000000000000000604082015250565b7f3c2f746578743e3c7465787420783d273530252720793d27373225273e41676960008201527f6c6974793a200000000000000000000000000000000000000000000000000000602082015250565b7f227d2c7b2274726169745f74797065223a20224c6f636174696f6e222c20227660008201527f616c7565223a2000000000000000000000000000000000000000000000000000602082015250565b7f227d000000000000000000000000000000000000000000000000000000000000600082015250565b7f7d2c7b2274726169745f74797065223a20224475726162696c697479222c202260008201527f6d61785f76616c7565223a20313030302c202276616c7565223a200000000000602082015250565b7f7d2c7b2274726169745f74797065223a2022537472656e677468222c20226d6160008201527f785f76616c7565223a20313030302c202276616c7565223a2000000000000000602082015250565b7f7b2274726169745f74797065223a202254797065222c202276616c7565223a2060008201527f2200000000000000000000000000000000000000000000000000000000000000602082015250565b7f3c2f746578743e3c7465787420783d273530252720793d27373725273e496e7460008201527f656c6c6967656e63653a20000000000000000000000000000000000000000000602082015250565b7f7b226e616d65223a202200000000000000000000000000000000000000000000600082015250565b7f3c2f746578743e3c7465787420783d273530252720793d27363725273e44657860008201527f7465726974793a20000000000000000000000000000000000000000000000000602082015250565b7f646174613a6170706c69636174696f6e2f6a736f6e3b6261736536342c000000600082015250565b7f7d2c7b2274726169745f74797065223a202257696e73222c202276616c75652260008201527f3a20000000000000000000000000000000000000000000000000000000000000602082015250565b7f3c2f746578743e3c6c696e652078313d27323025272079313d2732372527207860008201527f323d27383025272079323d2732372527207374796c653d277374726f6b653a7760208201527f68697465272f3e3c7465787420783d273530252720793d273337252720666f6e60408201527f742d73697a653d27312e35656d273e4c6576656c3a2000000000000000000000606082015250565b7f3c2f746578743e3c6c696e652078313d27323025272079313d2735302527207860008201527f323d27383025272079323d2735302527207374796c653d277374726f6b653a7760208201527f68697465272f3e3c7465787420783d273530252720793d27353725273e48503a60408201527f2000000000000000000000000000000000000000000000000000000000000000606082015250565b7f2261747472696275746573223a5b000000000000000000000000000000000000600082015250565b7f7d2c7b2274726169745f74797065223a20224167696c697479222c20226d617860008201527f5f76616c7565223a20313030302c202276616c7565223a200000000000000000602082015250565b611c2a8161119a565b8114611c3557600080fd5b5056fe4142434445464748494a4b4c4d4e4f505152535455565758595a6162636465666768696a6b6c6d6e6f707172737475767778797a303132333435363738392b2fa2646970667358221220674e3f75d0647062abcbaed841623bc7914a9d353fc271557aa721ddf9c412a964736f6c63430008040033",
  "linkReferences": {},
  "deployedLinkReferences": {}
}