{
  "address": "0x971b036Ba8c4A02D4b42E932bfe92f9047dc18e2",
  "abi": [
    {
      "inputs": [],
      "stateMutability": "nonpayable",
      "type": "constructor"
    },
    {
      "anonymous": false,
      "inputs": [
        {
          "indexed": true,
          "internalType": "address",
          "name": "owner",
          "type": "address"
        },
        {
          "indexed": true,
          "internalType": "address",
          "name": "approved",
          "type": "address"
        },
        {
          "indexed": true,
          "internalType": "uint256",
          "name": "tokenId",
          "type": "uint256"
        }
      ],
      "name": "Approval",
      "type": "event"
    },
    {
      "anonymous": false,
      "inputs": [
        {
          "indexed": true,
          "internalType": "address",
          "name": "owner",
          "type": "address"
        },
        {
          "indexed": true,
          "internalType": "address",
          "name": "operator",
          "type": "address"
        },
        {
          "indexed": false,
          "internalType": "bool",
          "name": "approved",
          "type": "bool"
        }
      ],
      "name": "ApprovalForAll",
      "type": "event"
    },
    {
      "anonymous": false,
      "inputs": [
        {
          "indexed": true,
          "internalType": "uint256",
          "name": "tokenId",
          "type": "uint256"
        },
        {
          "indexed": false,
          "internalType": "string",
          "name": "tokenURL",
          "type": "string"
        }
      ],
      "name": "CreatedNFT",
      "type": "event"
    },
    {
      "anonymous": false,
      "inputs": [
        {
          "indexed": true,
          "internalType": "address",
          "name": "previousOwner",
          "type": "address"
        },
        {
          "indexed": true,
          "internalType": "address",
          "name": "newOwner",
          "type": "address"
        }
      ],
      "name": "OwnershipTransferred",
      "type": "event"
    },
    {
      "anonymous": false,
      "inputs": [
        {
          "indexed": true,
          "internalType": "address",
          "name": "from",
          "type": "address"
        },
        {
          "indexed": true,
          "internalType": "address",
          "name": "to",
          "type": "address"
        },
        {
          "indexed": true,
          "internalType": "uint256",
          "name": "tokenId",
          "type": "uint256"
        }
      ],
      "name": "Transfer",
      "type": "event"
    },
    {
      "inputs": [
        {
          "internalType": "address",
          "name": "to",
          "type": "address"
        },
        {
          "internalType": "uint256",
          "name": "tokenId",
          "type": "uint256"
        }
      ],
      "name": "approve",
      "outputs": [],
      "stateMutability": "nonpayable",
      "type": "function"
    },
    {
      "inputs": [
        {
          "internalType": "address",
          "name": "owner",
          "type": "address"
        }
      ],
      "name": "balanceOf",
      "outputs": [
        {
          "internalType": "uint256",
          "name": "",
          "type": "uint256"
        }
      ],
      "stateMutability": "view",
      "type": "function"
    },
    {
      "inputs": [
        {
          "internalType": "string",
          "name": "_name",
          "type": "string"
        }
      ],
      "name": "create",
      "outputs": [],
      "stateMutability": "nonpayable",
      "type": "function"
    },
    {
      "inputs": [
        {
          "internalType": "uint256",
          "name": "tokenId",
          "type": "uint256"
        }
      ],
      "name": "getApproved",
      "outputs": [
        {
          "internalType": "address",
          "name": "",
          "type": "address"
        }
      ],
      "stateMutability": "view",
      "type": "function"
    },
    {
      "inputs": [
        {
          "internalType": "address",
          "name": "owner",
          "type": "address"
        },
        {
          "internalType": "address",
          "name": "operator",
          "type": "address"
        }
      ],
      "name": "isApprovedForAll",
      "outputs": [
        {
          "internalType": "bool",
          "name": "",
          "type": "bool"
        }
      ],
      "stateMutability": "view",
      "type": "function"
    },
    {
      "inputs": [],
      "name": "name",
      "outputs": [
        {
          "internalType": "string",
          "name": "",
          "type": "string"
        }
      ],
      "stateMutability": "view",
      "type": "function"
    },
    {
      "inputs": [],
      "name": "owner",
      "outputs": [
        {
          "internalType": "address",
          "name": "",
          "type": "address"
        }
      ],
      "stateMutability": "view",
      "type": "function"
    },
    {
      "inputs": [
        {
          "internalType": "uint256",
          "name": "tokenId",
          "type": "uint256"
        }
      ],
      "name": "ownerOf",
      "outputs": [
        {
          "internalType": "address",
          "name": "",
          "type": "address"
        }
      ],
      "stateMutability": "view",
      "type": "function"
    },
    {
      "inputs": [],
      "name": "renounceOwnership",
      "outputs": [],
      "stateMutability": "nonpayable",
      "type": "function"
    },
    {
      "inputs": [
        {
          "internalType": "address",
          "name": "from",
          "type": "address"
        },
        {
          "internalType": "address",
          "name": "to",
          "type": "address"
        },
        {
          "internalType": "uint256",
          "name": "tokenId",
          "type": "uint256"
        }
      ],
      "name": "safeTransferFrom",
      "outputs": [],
      "stateMutability": "nonpayable",
      "type": "function"
    },
    {
      "inputs": [
        {
          "internalType": "address",
          "name": "from",
          "type": "address"
        },
        {
          "internalType": "address",
          "name": "to",
          "type": "address"
        },
        {
          "internalType": "uint256",
          "name": "tokenId",
          "type": "uint256"
        },
        {
          "internalType": "bytes",
          "name": "_data",
          "type": "bytes"
        }
      ],
      "name": "safeTransferFrom",
      "outputs": [],
      "stateMutability": "nonpayable",
      "type": "function"
    },
    {
      "inputs": [
        {
          "internalType": "address",
          "name": "operator",
          "type": "address"
        },
        {
          "internalType": "bool",
          "name": "approved",
          "type": "bool"
        }
      ],
      "name": "setApprovalForAll",
      "outputs": [],
      "stateMutability": "nonpayable",
      "type": "function"
    },
    {
      "inputs": [
        {
          "internalType": "bytes4",
          "name": "interfaceId",
          "type": "bytes4"
        }
      ],
      "name": "supportsInterface",
      "outputs": [
        {
          "internalType": "bool",
          "name": "",
          "type": "bool"
        }
      ],
      "stateMutability": "view",
      "type": "function"
    },
    {
      "inputs": [],
      "name": "symbol",
      "outputs": [
        {
          "internalType": "string",
          "name": "",
          "type": "string"
        }
      ],
      "stateMutability": "view",
      "type": "function"
    },
    {
      "inputs": [],
      "name": "tokenCounter",
      "outputs": [
        {
          "internalType": "uint256",
          "name": "",
          "type": "uint256"
        }
      ],
      "stateMutability": "view",
      "type": "function"
    },
    {
      "inputs": [
        {
          "internalType": "uint256",
          "name": "",
          "type": "uint256"
        }
      ],
      "name": "tokenIdToFighter",
      "outputs": [
        {
          "internalType": "uint256",
          "name": "tokenId",
          "type": "uint256"
        },
        {
          "internalType": "string",
          "name": "name",
          "type": "string"
        },
        {
          "internalType": "uint256",
          "name": "level",
          "type": "uint256"
        },
        {
          "internalType": "uint256",
          "name": "experience",
          "type": "uint256"
        },
        {
          "internalType": "uint256",
          "name": "wins",
          "type": "uint256"
        },
        {
          "internalType": "uint256",
          "name": "hp",
          "type": "uint256"
        },
        {
          "internalType": "uint256",
          "name": "strength",
          "type": "uint256"
        },
        {
          "internalType": "uint256",
          "name": "dexterity",
          "type": "uint256"
        },
        {
          "internalType": "uint256",
          "name": "agility",
          "type": "uint256"
        },
        {
          "internalType": "uint256",
          "name": "intelligence",
          "type": "uint256"
        }
      ],
      "stateMutability": "view",
      "type": "function"
    },
    {
      "inputs": [
        {
          "internalType": "uint256",
          "name": "tokenId",
          "type": "uint256"
        }
      ],
      "name": "tokenURI",
      "outputs": [
        {
          "internalType": "string",
          "name": "",
          "type": "string"
        }
      ],
      "stateMutability": "view",
      "type": "function"
    },
    {
      "inputs": [
        {
          "internalType": "address",
          "name": "from",
          "type": "address"
        },
        {
          "internalType": "address",
          "name": "to",
          "type": "address"
        },
        {
          "internalType": "uint256",
          "name": "tokenId",
          "type": "uint256"
        }
      ],
      "name": "transferFrom",
      "outputs": [],
      "stateMutability": "nonpayable",
      "type": "function"
    },
    {
      "inputs": [
        {
          "internalType": "address",
          "name": "newOwner",
          "type": "address"
        }
      ],
      "name": "transferOwnership",
      "outputs": [],
      "stateMutability": "nonpayable",
      "type": "function"
    }
  ],
  "transactionHash": "0xfd8ca8a1891910c2d27917d68e15a00bd4756e167b6ade78c28826b2fed535e4",
  "args": [],
  "solcInputHash": "6b98dc67b135de68cfe55342717060a4",
  "bytecode": "0x60806040523480156200001157600080fd5b506040518060400160405280600381526020017f4e465400000000000000000000000000000000000000000000000000000000008152506040518060400160405280600381526020017f4e46540000000000000000000000000000000000000000000000000000000000815250816000908051906020019062000096929190620001ae565b508060019080519060200190620000af929190620001ae565b505050620000d2620000c6620000e060201b60201c565b620000e860201b60201c565b6000600881905550620002c3565b600033905090565b6000600760009054906101000a900473ffffffffffffffffffffffffffffffffffffffff16905081600760006101000a81548173ffffffffffffffffffffffffffffffffffffffff021916908373ffffffffffffffffffffffffffffffffffffffff1602179055508173ffffffffffffffffffffffffffffffffffffffff168173ffffffffffffffffffffffffffffffffffffffff167f8be0079c531659141344cd1fd0a4f28419497f9722a3daafe3b4186f6b6457e060405160405180910390a35050565b828054620001bc906200025e565b90600052602060002090601f016020900481019282620001e057600085556200022c565b82601f10620001fb57805160ff19168380011785556200022c565b828001600101855582156200022c579182015b828111156200022b5782518255916020019190600101906200020e565b5b5090506200023b91906200023f565b5090565b5b808211156200025a57600081600090555060010162000240565b5090565b600060028204905060018216806200027757607f821691505b602082108114156200028e576200028d62000294565b5b50919050565b7f4e487b7100000000000000000000000000000000000000000000000000000000600052602260045260246000fd5b61415480620002d36000396000f3fe608060405234801561001057600080fd5b50600436106101215760003560e01c8063715018a6116100ad578063b88d4fde11610071578063b88d4fde1461030f578063c87b56dd1461032b578063d082e3811461035b578063e985e9c514610379578063f2fde38b146103a957610121565b8063715018a6146102915780638da5cb5b1461029b57806395d89b41146102b9578063a22cb465146102d7578063b6a46b3b146102f357610121565b806323b872dd116100f457806323b872dd146101c05780632bbce2d1146101dc57806342842e0e146102155780636352211e1461023157806370a082311461026157610121565b806301ffc9a71461012657806306fdde0314610156578063081812fc14610174578063095ea7b3146101a4575b600080fd5b610140600480360381019061013b91906125f6565b6103c5565b60405161014d9190612d1d565b60405180910390f35b61015e6104a7565b60405161016b9190612d38565b60405180910390f35b61018e60048036038101906101899190612689565b610539565b60405161019b9190612cb6565b60405180910390f35b6101be60048036038101906101b991906125ba565b6105be565b005b6101da60048036038101906101d591906124b4565b6106d6565b005b6101f660048036038101906101f19190612689565b610736565b60405161020c9a99989796959493929190612fb5565b60405180910390f35b61022f600480360381019061022a91906124b4565b610812565b005b61024b60048036038101906102469190612689565b610832565b6040516102589190612cb6565b60405180910390f35b61027b6004803603810190610276919061244f565b6108e4565b6040516102889190612f9a565b60405180910390f35b61029961099c565b005b6102a3610a24565b6040516102b09190612cb6565b60405180910390f35b6102c1610a4e565b6040516102ce9190612d38565b60405180910390f35b6102f160048036038101906102ec919061257e565b610ae0565b005b61030d60048036038101906103089190612648565b610c61565b005b61032960048036038101906103249190612503565b610e02565b005b61034560048036038101906103409190612689565b610e64565b6040516103529190612d38565b60405180910390f35b610363610fb6565b6040516103709190612f9a565b60405180910390f35b610393600480360381019061038e9190612478565b610fbc565b6040516103a09190612d1d565b60405180910390f35b6103c360048036038101906103be919061244f565b611050565b005b60007f80ac58cd000000000000000000000000000000000000000000000000000000007bffffffffffffffffffffffffffffffffffffffffffffffffffffffff1916827bffffffffffffffffffffffffffffffffffffffffffffffffffffffff1916148061049057507f5b5e139f000000000000000000000000000000000000000000000000000000007bffffffffffffffffffffffffffffffffffffffffffffffffffffffff1916827bffffffffffffffffffffffffffffffffffffffffffffffffffffffff1916145b806104a0575061049f82611148565b5b9050919050565b6060600080546104b6906132ed565b80601f01602080910402602001604051908101604052809291908181526020018280546104e2906132ed565b801561052f5780601f106105045761010080835404028352916020019161052f565b820191906000526020600020905b81548152906001019060200180831161051257829003601f168201915b5050505050905090565b6000610544826111b2565b610583576040517f08c379a000000000000000000000000000000000000000000000000000000000815260040161057a90612eda565b60405180910390fd5b6004600083815260200190815260200160002060009054906101000a900473ffffffffffffffffffffffffffffffffffffffff169050919050565b60006105c982610832565b90508073ffffffffffffffffffffffffffffffffffffffff168373ffffffffffffffffffffffffffffffffffffffff16141561063a576040517f08c379a000000000000000000000000000000000000000000000000000000000815260040161063190612f5a565b60405180910390fd5b8073ffffffffffffffffffffffffffffffffffffffff1661065961121e565b73ffffffffffffffffffffffffffffffffffffffff16148061068857506106878161068261121e565b610fbc565b5b6106c7576040517f08c379a00000000000000000000000000000000000000000000000000000000081526004016106be90612e1a565b60405180910390fd5b6106d18383611226565b505050565b6106e76106e161121e565b826112df565b610726576040517f08c379a000000000000000000000000000000000000000000000000000000000815260040161071d90612f7a565b60405180910390fd5b6107318383836113bd565b505050565b600960205280600052604060002060009150905080600001549080600101805461075f906132ed565b80601f016020809104026020016040519081016040528092919081815260200182805461078b906132ed565b80156107d85780601f106107ad576101008083540402835291602001916107d8565b820191906000526020600020905b8154815290600101906020018083116107bb57829003601f168201915b505050505090806002015490806003015490806004015490806005015490806006015490806007015490806008015490806009015490508a565b61082d83838360405180602001604052806000815250610e02565b505050565b6000806002600084815260200190815260200160002060009054906101000a900473ffffffffffffffffffffffffffffffffffffffff169050600073ffffffffffffffffffffffffffffffffffffffff168173ffffffffffffffffffffffffffffffffffffffff1614156108db576040517f08c379a00000000000000000000000000000000000000000000000000000000081526004016108d290612e5a565b60405180910390fd5b80915050919050565b60008073ffffffffffffffffffffffffffffffffffffffff168273ffffffffffffffffffffffffffffffffffffffff161415610955576040517f08c379a000000000000000000000000000000000000000000000000000000000815260040161094c90612e3a565b60405180910390fd5b600360008373ffffffffffffffffffffffffffffffffffffffff1673ffffffffffffffffffffffffffffffffffffffff168152602001908152602001600020549050919050565b6109a461121e565b73ffffffffffffffffffffffffffffffffffffffff166109c2610a24565b73ffffffffffffffffffffffffffffffffffffffff1614610a18576040517f08c379a0000000000000000000000000000000000000000000000000000000008152600401610a0f90612efa565b60405180910390fd5b610a226000611619565b565b6000600760009054906101000a900473ffffffffffffffffffffffffffffffffffffffff16905090565b606060018054610a5d906132ed565b80601f0160208091040260200160405190810160405280929190818152602001828054610a89906132ed565b8015610ad65780601f10610aab57610100808354040283529160200191610ad6565b820191906000526020600020905b815481529060010190602001808311610ab957829003601f168201915b5050505050905090565b610ae861121e565b73ffffffffffffffffffffffffffffffffffffffff168273ffffffffffffffffffffffffffffffffffffffff161415610b56576040517f08c379a0000000000000000000000000000000000000000000000000000000008152600401610b4d90612dda565b60405180910390fd5b8060056000610b6361121e565b73ffffffffffffffffffffffffffffffffffffffff1673ffffffffffffffffffffffffffffffffffffffff16815260200190815260200160002060008473ffffffffffffffffffffffffffffffffffffffff1673ffffffffffffffffffffffffffffffffffffffff16815260200190815260200160002060006101000a81548160ff0219169083151502179055508173ffffffffffffffffffffffffffffffffffffffff16610c1061121e565b73ffffffffffffffffffffffffffffffffffffffff167f17307eab39ab6107e8899845ad3d59bd9653f200f220920489ca2b5937696c3183604051610c559190612d1d565b60405180910390a35050565b610c6d336008546116df565b610c79600854826116fd565b6000610d906009600060085481526020019081526020016000206040518061014001604052908160008201548152602001600182018054610cb9906132ed565b80601f0160208091040260200160405190810160405280929190818152602001828054610ce5906132ed565b8015610d325780601f10610d0757610100808354040283529160200191610d32565b820191906000526020600020905b815481529060010190602001808311610d1557829003601f168201915b50505050508152602001600282015481526020016003820154815260200160048201548152602001600582015481526020016006820154815260200160078201548152602001600882015481526020016009820154815250506117de565b90506000610d9d82611885565b9050610dab6008548261191e565b6008547fb5a8d8cf5d01b5006e471421ba7da032446e2a82412342ed548b7aeed0ea9b6982604051610ddd9190612d38565b60405180910390a260086000815480929190610df890613350565b9190505550505050565b610e13610e0d61121e565b836112df565b610e52576040517f08c379a0000000000000000000000000000000000000000000000000000000008152600401610e4990612f7a565b60405180910390fd5b610e5e84848484611992565b50505050565b6060610e6f826111b2565b610eae576040517f08c379a0000000000000000000000000000000000000000000000000000000008152600401610ea590612eba565b60405180910390fd5b6000600660008481526020019081526020016000208054610ece906132ed565b80601f0160208091040260200160405190810160405280929190818152602001828054610efa906132ed565b8015610f475780601f10610f1c57610100808354040283529160200191610f47565b820191906000526020600020905b815481529060010190602001808311610f2a57829003601f168201915b505050505090506000610f586119ee565b9050600081511415610f6e578192505050610fb1565b600082511115610fa3578082604051602001610f8b929190612b90565b60405160208183030381529060405292505050610fb1565b610fac84611a05565b925050505b919050565b60085481565b6000600560008473ffffffffffffffffffffffffffffffffffffffff1673ffffffffffffffffffffffffffffffffffffffff16815260200190815260200160002060008373ffffffffffffffffffffffffffffffffffffffff1673ffffffffffffffffffffffffffffffffffffffff16815260200190815260200160002060009054906101000a900460ff16905092915050565b61105861121e565b73ffffffffffffffffffffffffffffffffffffffff16611076610a24565b73ffffffffffffffffffffffffffffffffffffffff16146110cc576040517f08c379a00000000000000000000000000000000000000000000000000000000081526004016110c390612efa565b60405180910390fd5b600073ffffffffffffffffffffffffffffffffffffffff168173ffffffffffffffffffffffffffffffffffffffff16141561113c576040517f08c379a000000000000000000000000000000000000000000000000000000000815260040161113390612d7a565b60405180910390fd5b61114581611619565b50565b60007f01ffc9a7000000000000000000000000000000000000000000000000000000007bffffffffffffffffffffffffffffffffffffffffffffffffffffffff1916827bffffffffffffffffffffffffffffffffffffffffffffffffffffffff1916149050919050565b60008073ffffffffffffffffffffffffffffffffffffffff166002600084815260200190815260200160002060009054906101000a900473ffffffffffffffffffffffffffffffffffffffff1673ffffffffffffffffffffffffffffffffffffffff1614159050919050565b600033905090565b816004600083815260200190815260200160002060006101000a81548173ffffffffffffffffffffffffffffffffffffffff021916908373ffffffffffffffffffffffffffffffffffffffff160217905550808273ffffffffffffffffffffffffffffffffffffffff1661129983610832565b73ffffffffffffffffffffffffffffffffffffffff167f8c5be1e5ebec7d5bd14f71427d1e84f3dd0314c0f7b2291e5b200ac8c7c3b92560405160405180910390a45050565b60006112ea826111b2565b611329576040517f08c379a000000000000000000000000000000000000000000000000000000000815260040161132090612dfa565b60405180910390fd5b600061133483610832565b90508073ffffffffffffffffffffffffffffffffffffffff168473ffffffffffffffffffffffffffffffffffffffff1614806113a357508373ffffffffffffffffffffffffffffffffffffffff1661138b84610539565b73ffffffffffffffffffffffffffffffffffffffff16145b806113b457506113b38185610fbc565b5b91505092915050565b8273ffffffffffffffffffffffffffffffffffffffff166113dd82610832565b73ffffffffffffffffffffffffffffffffffffffff1614611433576040517f08c379a000000000000000000000000000000000000000000000000000000000815260040161142a90612f1a565b60405180910390fd5b600073ffffffffffffffffffffffffffffffffffffffff168273ffffffffffffffffffffffffffffffffffffffff1614156114a3576040517f08c379a000000000000000000000000000000000000000000000000000000000815260040161149a90612dba565b60405180910390fd5b6114ae838383611aac565b6114b9600082611226565b6001600360008573ffffffffffffffffffffffffffffffffffffffff1673ffffffffffffffffffffffffffffffffffffffff16815260200190815260200160002060008282546115099190613203565b925050819055506001600360008473ffffffffffffffffffffffffffffffffffffffff1673ffffffffffffffffffffffffffffffffffffffff16815260200190815260200160002060008282546115609190613122565b92505081905550816002600083815260200190815260200160002060006101000a81548173ffffffffffffffffffffffffffffffffffffffff021916908373ffffffffffffffffffffffffffffffffffffffff160217905550808273ffffffffffffffffffffffffffffffffffffffff168473ffffffffffffffffffffffffffffffffffffffff167fddf252ad1be2c89b69c2b068fc378daa952ba7f163c4a11628f55a4df523b3ef60405160405180910390a4505050565b6000600760009054906101000a900473ffffffffffffffffffffffffffffffffffffffff16905081600760006101000a81548173ffffffffffffffffffffffffffffffffffffffff021916908373ffffffffffffffffffffffffffffffffffffffff1602179055508173ffffffffffffffffffffffffffffffffffffffff168173ffffffffffffffffffffffffffffffffffffffff167f8be0079c531659141344cd1fd0a4f28419497f9722a3daafe3b4186f6b6457e060405160405180910390a35050565b6116f9828260405180602001604052806000815250611ab1565b5050565b60405180610140016040528083815260200182815260200160018152602001600081526020016000815260200160648152602001600981526020016008815260200160078152602001600681525060096000848152602001908152602001600020600082015181600001556020820151816001019080519060200190611784929190612273565b5060408201518160020155606082015181600301556080820151816004015560a0820151816005015560c0820151816006015560e08201518160070155610100820151816008015561012082015181600901559050505050565b606060006117eb83611b0c565b905060006040518060400160405280601a81526020017f646174613a696d6167652f7376672b786d6c3b6261736536342c000000000000815250905060006118518360405160200161183d9190612b79565b604051602081830303815290604052611ba3565b905060008282604051602001611868929190612b90565b604051602081830303815290604052905080945050505050919050565b606060006040518060400160405280601d81526020017f646174613a6170706c69636174696f6e2f6a736f6e3b6261736536342c000000815250905060006118eb846040516020016118d79190612c89565b604051602081830303815290604052611ba3565b905060008282604051602001611902929190612b90565b6040516020818303038152906040529050809350505050919050565b611927826111b2565b611966576040517f08c379a000000000000000000000000000000000000000000000000000000000815260040161195d90612e7a565b60405180910390fd5b8060066000848152602001908152602001600020908051906020019061198d929190612273565b505050565b61199d8484846113bd565b6119a984848484611d4e565b6119e8576040517f08c379a00000000000000000000000000000000000000000000000000000000081526004016119df90612d5a565b60405180910390fd5b50505050565b606060405180602001604052806000815250905090565b6060611a10826111b2565b611a4f576040517f08c379a0000000000000000000000000000000000000000000000000000000008152600401611a4690612f3a565b60405180910390fd5b6000611a596119ee565b90506000815111611a795760405180602001604052806000815250611aa4565b80611a8384611ee5565b604051602001611a94929190612b90565b6040516020818303038152906040525b915050919050565b505050565b611abb8383612092565b611ac86000848484611d4e565b611b07576040517f08c379a0000000000000000000000000000000000000000000000000000000008152600401611afe90612d5a565b60405180910390fd5b505050565b606060008260200151611b228460400151611ee5565b611b2f8560800151611ee5565b611b3c8660a00151611ee5565b611b498760c00151611ee5565b611b568860e00151611ee5565b611b64896101000151611ee5565b611b728a6101200151611ee5565b604051602001611b89989796959493929190612bb4565b604051602081830303815290604052905080915050919050565b6060600082511415611bc657604051806020016040528060008152509050611d49565b60006040518060600160405280604081526020016140df6040913990506000600360028551611bf59190613122565b611bff9190613178565b6004611c0b91906131a9565b90506000602082611c1c9190613122565b67ffffffffffffffff811115611c5b577f4e487b7100000000000000000000000000000000000000000000000000000000600052604160045260246000fd5b6040519080825280601f01601f191660200182016040528015611c8d5781602001600182028036833780820191505090505b509050818152600183018586518101602084015b81831015611d08576003830192508251603f8160121c1685015160f81b8252600182019150603f81600c1c1685015160f81b8252600182019150603f8160061c1685015160f81b8252600182019150603f811685015160f81b825260018201915050611ca1565b600389510660018114611d225760028114611d3257611d3d565b613d3d60f01b6002830352611d3d565b603d60f81b60018303525b50505050508093505050505b919050565b6000611d6f8473ffffffffffffffffffffffffffffffffffffffff16612260565b15611ed8578373ffffffffffffffffffffffffffffffffffffffff1663150b7a02611d9861121e565b8786866040518563ffffffff1660e01b8152600401611dba9493929190612cd1565b602060405180830381600087803b158015611dd457600080fd5b505af1925050508015611e0557506040513d601f19601f82011682018060405250810190611e02919061261f565b60015b611e88573d8060008114611e35576040519150601f19603f3d011682016040523d82523d6000602084013e611e3a565b606091505b50600081511415611e80576040517f08c379a0000000000000000000000000000000000000000000000000000000008152600401611e7790612d5a565b60405180910390fd5b805181602001fd5b63150b7a0260e01b7bffffffffffffffffffffffffffffffffffffffffffffffffffffffff1916817bffffffffffffffffffffffffffffffffffffffffffffffffffffffff191614915050611edd565b600190505b949350505050565b60606000821415611f2d576040518060400160405280600181526020017f3000000000000000000000000000000000000000000000000000000000000000815250905061208d565b600082905060005b60008214611f5f578080611f4890613350565b915050600a82611f589190613178565b9150611f35565b60008167ffffffffffffffff811115611fa1577f4e487b7100000000000000000000000000000000000000000000000000000000600052604160045260246000fd5b6040519080825280601f01601f191660200182016040528015611fd35781602001600182028036833780820191505090505b5090505b6000851461208657600182611fec9190613203565b9150600a85611ffb9190613399565b60306120079190613122565b60f81b818381518110612043577f4e487b7100000000000000000000000000000000000000000000000000000000600052603260045260246000fd5b60200101907effffffffffffffffffffffffffffffffffffffffffffffffffffffffffffff1916908160001a905350600a8561207f9190613178565b9450611fd7565b8093505050505b919050565b600073ffffffffffffffffffffffffffffffffffffffff168273ffffffffffffffffffffffffffffffffffffffff161415612102576040517f08c379a00000000000000000000000000000000000000000000000000000000081526004016120f990612e9a565b60405180910390fd5b61210b816111b2565b1561214b576040517f08c379a000000000000000000000000000000000000000000000000000000000815260040161214290612d9a565b60405180910390fd5b61215760008383611aac565b6001600360008473ffffffffffffffffffffffffffffffffffffffff1673ffffffffffffffffffffffffffffffffffffffff16815260200190815260200160002060008282546121a79190613122565b92505081905550816002600083815260200190815260200160002060006101000a81548173ffffffffffffffffffffffffffffffffffffffff021916908373ffffffffffffffffffffffffffffffffffffffff160217905550808273ffffffffffffffffffffffffffffffffffffffff16600073ffffffffffffffffffffffffffffffffffffffff167fddf252ad1be2c89b69c2b068fc378daa952ba7f163c4a11628f55a4df523b3ef60405160405180910390a45050565b600080823b905060008111915050919050565b82805461227f906132ed565b90600052602060002090601f0160209004810192826122a157600085556122e8565b82601f106122ba57805160ff19168380011785556122e8565b828001600101855582156122e8579182015b828111156122e75782518255916020019190600101906122cc565b5b5090506122f591906122f9565b5090565b5b808211156123125760008160009055506001016122fa565b5090565b60006123296123248461307d565b613058565b90508281526020810184848401111561234157600080fd5b61234c8482856132ab565b509392505050565b6000612367612362846130ae565b613058565b90508281526020810184848401111561237f57600080fd5b61238a8482856132ab565b509392505050565b6000813590506123a181614082565b92915050565b6000813590506123b681614099565b92915050565b6000813590506123cb816140b0565b92915050565b6000815190506123e0816140b0565b92915050565b600082601f8301126123f757600080fd5b8135612407848260208601612316565b91505092915050565b600082601f83011261242157600080fd5b8135612431848260208601612354565b91505092915050565b600081359050612449816140c7565b92915050565b60006020828403121561246157600080fd5b600061246f84828501612392565b91505092915050565b6000806040838503121561248b57600080fd5b600061249985828601612392565b92505060206124aa85828601612392565b9150509250929050565b6000806000606084860312156124c957600080fd5b60006124d786828701612392565b93505060206124e886828701612392565b92505060406124f98682870161243a565b9150509250925092565b6000806000806080858703121561251957600080fd5b600061252787828801612392565b945050602061253887828801612392565b93505060406125498782880161243a565b925050606085013567ffffffffffffffff81111561256657600080fd5b612572878288016123e6565b91505092959194509250565b6000806040838503121561259157600080fd5b600061259f85828601612392565b92505060206125b0858286016123a7565b9150509250929050565b600080604083850312156125cd57600080fd5b60006125db85828601612392565b92505060206125ec8582860161243a565b9150509250929050565b60006020828403121561260857600080fd5b6000612616848285016123bc565b91505092915050565b60006020828403121561263157600080fd5b600061263f848285016123d1565b91505092915050565b60006020828403121561265a57600080fd5b600082013567ffffffffffffffff81111561267457600080fd5b61268084828501612410565b91505092915050565b60006020828403121561269b57600080fd5b60006126a98482850161243a565b91505092915050565b6126bb81613237565b82525050565b6126ca81613249565b82525050565b60006126db826130df565b6126e581856130f5565b93506126f58185602086016132ba565b6126fe81613486565b840191505092915050565b6000612714826130ea565b61271e8185613106565b935061272e8185602086016132ba565b61273781613486565b840191505092915050565b600061274d826130ea565b6127578185613117565b93506127678185602086016132ba565b80840191505092915050565b6000612780603283613106565b915061278b82613497565b604082019050919050565b60006127a3602683613106565b91506127ae826134e6565b604082019050919050565b60006127c6607083613117565b91506127d182613535565b607082019050919050565b60006127e9601c83613106565b91506127f4826135d0565b602082019050919050565b600061280c60cb83613117565b9150612817826135f9565b60cb82019050919050565b600061282f602483613106565b915061283a82613706565b604082019050919050565b6000612852601983613106565b915061285d82613755565b602082019050919050565b600061287560e083613117565b91506128808261377e565b60e082019050919050565b6000612898602c83613106565b91506128a38261388b565b604082019050919050565b60006128bb600d83613117565b91506128c6826138da565b600d82019050919050565b60006128de607683613117565b91506128e982613903565b607682019050919050565b6000612901603883613106565b915061290c8261399e565b604082019050919050565b6000612924602a83613106565b915061292f826139ed565b604082019050919050565b6000612947602983613106565b915061295282613a3c565b604082019050919050565b600061296a602e83613106565b915061297582613a8b565b604082019050919050565b600061298d600283613117565b915061299882613ada565b600282019050919050565b60006129b0602083613106565b91506129bb82613b03565b602082019050919050565b60006129d3603183613106565b91506129de82613b2c565b604082019050919050565b60006129f6602c83613106565b9150612a0182613b7b565b604082019050919050565b6000612a19602083613106565b9150612a2482613bca565b602082019050919050565b6000612a3c602983613106565b9150612a4782613bf3565b604082019050919050565b6000612a5f602f83613106565b9150612a6a82613c42565b604082019050919050565b6000612a82602183613106565b9150612a8d82613c91565b604082019050919050565b6000612aa560ca83613117565b9150612ab082613ce0565b60ca82019050919050565b6000612ac8603183613106565b9150612ad382613ded565b604082019050919050565b6000612aeb605883613117565b9150612af682613e3c565b605882019050919050565b6000612b0e607a83613117565b9150612b1982613eb1565b607a82019050919050565b6000612b31607783613117565b9150612b3c82613f4c565b607782019050919050565b6000612b54607583613117565b9150612b5f82613fe7565b607582019050919050565b612b73816132a1565b82525050565b6000612b858284612742565b915081905092915050565b6000612b9c8285612742565b9150612ba88284612742565b91508190509392505050565b6000612bbf82612868565b9150612bcb828b612742565b9150612bd6826127ff565b9150612be2828a612742565b9150612bed826127b9565b9150612bf98289612742565b9150612c0482612a98565b9150612c108288612742565b9150612c1b826128d1565b9150612c278287612742565b9150612c3282612b24565b9150612c3e8286612742565b9150612c4982612b47565b9150612c558285612742565b9150612c6082612b01565b9150612c6c8284612742565b9150612c77826128ae565b91508190509998505050505050505050565b6000612c9482612ade565b9150612ca08284612742565b9150612cab82612980565b915081905092915050565b6000602082019050612ccb60008301846126b2565b92915050565b6000608082019050612ce660008301876126b2565b612cf360208301866126b2565b612d006040830185612b6a565b8181036060830152612d1281846126d0565b905095945050505050565b6000602082019050612d3260008301846126c1565b92915050565b60006020820190508181036000830152612d528184612709565b905092915050565b60006020820190508181036000830152612d7381612773565b9050919050565b60006020820190508181036000830152612d9381612796565b9050919050565b60006020820190508181036000830152612db3816127dc565b9050919050565b60006020820190508181036000830152612dd381612822565b9050919050565b60006020820190508181036000830152612df381612845565b9050919050565b60006020820190508181036000830152612e138161288b565b9050919050565b60006020820190508181036000830152612e33816128f4565b9050919050565b60006020820190508181036000830152612e5381612917565b9050919050565b60006020820190508181036000830152612e738161293a565b9050919050565b60006020820190508181036000830152612e938161295d565b9050919050565b60006020820190508181036000830152612eb3816129a3565b9050919050565b60006020820190508181036000830152612ed3816129c6565b9050919050565b60006020820190508181036000830152612ef3816129e9565b9050919050565b60006020820190508181036000830152612f1381612a0c565b9050919050565b60006020820190508181036000830152612f3381612a2f565b9050919050565b60006020820190508181036000830152612f5381612a52565b9050919050565b60006020820190508181036000830152612f7381612a75565b9050919050565b60006020820190508181036000830152612f9381612abb565b9050919050565b6000602082019050612faf6000830184612b6a565b92915050565b600061014082019050612fcb600083018d612b6a565b8181036020830152612fdd818c612709565b9050612fec604083018b612b6a565b612ff9606083018a612b6a565b6130066080830189612b6a565b61301360a0830188612b6a565b61302060c0830187612b6a565b61302d60e0830186612b6a565b61303b610100830185612b6a565b613049610120830184612b6a565b9b9a5050505050505050505050565b6000613062613073565b905061306e828261331f565b919050565b6000604051905090565b600067ffffffffffffffff82111561309857613097613457565b5b6130a182613486565b9050602081019050919050565b600067ffffffffffffffff8211156130c9576130c8613457565b5b6130d282613486565b9050602081019050919050565b600081519050919050565b600081519050919050565b600082825260208201905092915050565b600082825260208201905092915050565b600081905092915050565b600061312d826132a1565b9150613138836132a1565b9250827fffffffffffffffffffffffffffffffffffffffffffffffffffffffffffffffff0382111561316d5761316c6133ca565b5b828201905092915050565b6000613183826132a1565b915061318e836132a1565b92508261319e5761319d6133f9565b5b828204905092915050565b60006131b4826132a1565b91506131bf836132a1565b9250817fffffffffffffffffffffffffffffffffffffffffffffffffffffffffffffffff04831182151516156131f8576131f76133ca565b5b828202905092915050565b600061320e826132a1565b9150613219836132a1565b92508282101561322c5761322b6133ca565b5b828203905092915050565b600061324282613281565b9050919050565b60008115159050919050565b60007fffffffff0000000000000000000000000000000000000000000000000000000082169050919050565b600073ffffffffffffffffffffffffffffffffffffffff82169050919050565b6000819050919050565b82818337600083830152505050565b60005b838110156132d85780820151818401526020810190506132bd565b838111156132e7576000848401525b50505050565b6000600282049050600182168061330557607f821691505b6020821081141561331957613318613428565b5b50919050565b61332882613486565b810181811067ffffffffffffffff8211171561334757613346613457565b5b80604052505050565b600061335b826132a1565b91507fffffffffffffffffffffffffffffffffffffffffffffffffffffffffffffffff82141561338e5761338d6133ca565b5b600182019050919050565b60006133a4826132a1565b91506133af836132a1565b9250826133bf576133be6133f9565b5b828206905092915050565b7f4e487b7100000000000000000000000000000000000000000000000000000000600052601160045260246000fd5b7f4e487b7100000000000000000000000000000000000000000000000000000000600052601260045260246000fd5b7f4e487b7100000000000000000000000000000000000000000000000000000000600052602260045260246000fd5b7f4e487b7100000000000000000000000000000000000000000000000000000000600052604160045260246000fd5b6000601f19601f8301169050919050565b7f4552433732313a207472616e7366657220746f206e6f6e20455243373231526560008201527f63656976657220696d706c656d656e7465720000000000000000000000000000602082015250565b7f4f776e61626c653a206e6577206f776e657220697320746865207a65726f206160008201527f6464726573730000000000000000000000000000000000000000000000000000602082015250565b7f3c2f746578743e3c7465787420783d273530252720793d273433252720666f6e60008201527f742d73697a653d2732656d2720646f6d696e616e742d626173656c696e653d2760208201527f6d6964646c652720746578742d616e63686f723d276d6964646c65272066696c60408201527f6c3d277768697465273e57696e733a2000000000000000000000000000000000606082015250565b7f4552433732313a20746f6b656e20616c7265616479206d696e74656400000000600082015250565b7f3c2f746578743e3c6c696e652078313d27323025272079313d2732372527207860008201527f323d27383025272079323d2732372527207374796c653d277374726f6b653a7260208201527f6762283235352c3235352c323535293b7374726f6b652d77696474683a34272f60408201527f3e3c7465787420783d273530252720793d273335252720666f6e742d73697a6560608201527f3d2732656d2720646f6d696e616e742d626173656c696e653d276d6964646c6560808201527f2720746578742d616e63686f723d276d6964646c65272066696c6c3d2777686960a08201527f7465273e4c6576656c3a2000000000000000000000000000000000000000000060c082015250565b7f4552433732313a207472616e7366657220746f20746865207a65726f2061646460008201527f7265737300000000000000000000000000000000000000000000000000000000602082015250565b7f4552433732313a20617070726f766520746f2063616c6c657200000000000000600082015250565b7f3c73766720786d6c6e733d27687474703a2f2f7777772e77332e6f72672f323060008201527f30302f73766727206865696768743d27353030272077696474683d273530302760208201527f3e3c726563742077696474683d2735303027206865696768743d27353030272060408201527f7374796c653d2766696c6c3a7267622832312c32312c3231293b272f3e3c746560608201527f787420783d273530252720793d273230252720666f6e742d73697a653d27336560808201527f6d2720646f6d696e616e742d626173656c696e653d276d6964646c652720746560a08201527f78742d616e63686f723d276d6964646c65272066696c6c3d277768697465273e60c082015250565b7f4552433732313a206f70657261746f7220717565727920666f72206e6f6e657860008201527f697374656e7420746f6b656e0000000000000000000000000000000000000000602082015250565b7f3c2f746578743e3c2f7376673e00000000000000000000000000000000000000600082015250565b7f3c2f746578743e3c7465787420783d273530252720793d273632252720666f6e60008201527f742d73697a653d27312e35656d2720646f6d696e616e742d626173656c696e6560208201527f3d276d6964646c652720746578742d616e63686f723d276d6964646c6527206660408201527f696c6c3d277768697465273e537472656e6774683a2000000000000000000000606082015250565b7f4552433732313a20617070726f76652063616c6c6572206973206e6f74206f7760008201527f6e6572206e6f7220617070726f76656420666f7220616c6c0000000000000000602082015250565b7f4552433732313a2062616c616e636520717565727920666f7220746865207a6560008201527f726f206164647265737300000000000000000000000000000000000000000000602082015250565b7f4552433732313a206f776e657220717565727920666f72206e6f6e657869737460008201527f656e7420746f6b656e0000000000000000000000000000000000000000000000602082015250565b7f45524337323155524953746f726167653a2055524920736574206f66206e6f6e60008201527f6578697374656e7420746f6b656e000000000000000000000000000000000000602082015250565b7f227d000000000000000000000000000000000000000000000000000000000000600082015250565b7f4552433732313a206d696e7420746f20746865207a65726f2061646472657373600082015250565b7f45524337323155524953746f726167653a2055524920717565727920666f722060008201527f6e6f6e6578697374656e7420746f6b656e000000000000000000000000000000602082015250565b7f4552433732313a20617070726f76656420717565727920666f72206e6f6e657860008201527f697374656e7420746f6b656e0000000000000000000000000000000000000000602082015250565b7f4f776e61626c653a2063616c6c6572206973206e6f7420746865206f776e6572600082015250565b7f4552433732313a207472616e73666572206f6620746f6b656e2074686174206960008201527f73206e6f74206f776e0000000000000000000000000000000000000000000000602082015250565b7f4552433732314d657461646174613a2055524920717565727920666f72206e6f60008201527f6e6578697374656e7420746f6b656e0000000000000000000000000000000000602082015250565b7f4552433732313a20617070726f76616c20746f2063757272656e74206f776e6560008201527f7200000000000000000000000000000000000000000000000000000000000000602082015250565b7f3c2f746578743e3c6c696e652078313d27323025272079313d2735302527207860008201527f323d27383025272079323d2735302527207374796c653d277374726f6b653a7260208201527f6762283235352c3235352c323535293b7374726f6b652d77696474683a34272f60408201527f3e3c7465787420783d273530252720793d273537252720666f6e742d73697a6560608201527f3d27312e35656d2720646f6d696e616e742d626173656c696e653d276d69646460808201527f6c652720746578742d616e63686f723d276d6964646c65272066696c6c3d277760a08201527f68697465273e48503a200000000000000000000000000000000000000000000060c082015250565b7f4552433732313a207472616e736665722063616c6c6572206973206e6f74206f60008201527f776e6572206e6f7220617070726f766564000000000000000000000000000000602082015250565b7f7b226e616d65223a20224e4654204e414d45222c20226465736372697074696f60008201527f6e223a2022416e204e4654206669676874696e672067616d65222c202261747460208201527f72696275746573223a2022222c2022696d616765223a20220000000000000000604082015250565b7f3c2f746578743e3c7465787420783d273530252720793d273737252720666f6e60008201527f742d73697a653d27312e35656d2720646f6d696e616e742d626173656c696e6560208201527f3d276d6964646c652720746578742d616e63686f723d276d6964646c6527206660408201527f696c6c3d277768697465273e496e74656c6c6967656e63653a20000000000000606082015250565b7f3c2f746578743e3c7465787420783d273530252720793d273637252720666f6e60008201527f742d73697a653d27312e35656d2720646f6d696e616e742d626173656c696e6560208201527f3d276d6964646c652720746578742d616e63686f723d276d6964646c6527206660408201527f696c6c3d277768697465273e4465787465726974793a20000000000000000000606082015250565b7f3c2f746578743e3c7465787420783d273530252720793d273732252720666f6e60008201527f742d73697a653d27312e35656d2720646f6d696e616e742d626173656c696e6560208201527f3d276d6964646c652720746578742d616e63686f723d276d6964646c6527206660408201527f696c6c3d277768697465273e4167696c6974793a200000000000000000000000606082015250565b61408b81613237565b811461409657600080fd5b50565b6140a281613249565b81146140ad57600080fd5b50565b6140b981613255565b81146140c457600080fd5b50565b6140d0816132a1565b81146140db57600080fd5b5056fe4142434445464748494a4b4c4d4e4f505152535455565758595a6162636465666768696a6b6c6d6e6f707172737475767778797a303132333435363738392b2fa2646970667358221220a8d4145bdccb17a33f4c68854ff7ef92afbe0eec94644be4f3c00cdd62957dfd64736f6c63430008040033",
  "devdoc": {
    "kind": "dev",
    "methods": {
      "approve(address,uint256)": {
        "details": "See {IERC721-approve}."
      },
      "balanceOf(address)": {
        "details": "See {IERC721-balanceOf}."
      },
      "getApproved(uint256)": {
        "details": "See {IERC721-getApproved}."
      },
      "isApprovedForAll(address,address)": {
        "details": "See {IERC721-isApprovedForAll}."
      },
      "name()": {
        "details": "See {IERC721Metadata-name}."
      },
      "owner()": {
        "details": "Returns the address of the current owner."
      },
      "ownerOf(uint256)": {
        "details": "See {IERC721-ownerOf}."
      },
      "renounceOwnership()": {
        "details": "Leaves the contract without owner. It will not be possible to call `onlyOwner` functions anymore. Can only be called by the current owner. NOTE: Renouncing ownership will leave the contract without an owner, thereby removing any functionality that is only available to the owner."
      },
      "safeTransferFrom(address,address,uint256)": {
        "details": "See {IERC721-safeTransferFrom}."
      },
      "safeTransferFrom(address,address,uint256,bytes)": {
        "details": "See {IERC721-safeTransferFrom}."
      },
      "setApprovalForAll(address,bool)": {
        "details": "See {IERC721-setApprovalForAll}."
      },
      "supportsInterface(bytes4)": {
        "details": "See {IERC165-supportsInterface}."
      },
      "symbol()": {
        "details": "See {IERC721Metadata-symbol}."
      },
      "tokenURI(uint256)": {
        "details": "See {IERC721Metadata-tokenURI}."
      },
      "transferFrom(address,address,uint256)": {
        "details": "See {IERC721-transferFrom}."
      },
      "transferOwnership(address)": {
        "details": "Transfers ownership of the contract to a new account (`newOwner`). Can only be called by the current owner."
      }
    },
    "version": 1
  },
  "userdoc": {
    "kind": "user",
    "methods": {},
    "version": 1
  },
  "storageLayout": {
    "storage": [
      {
        "astId": 129,
        "contract": "contracts/NFT.sol:NFT",
        "label": "_name",
        "offset": 0,
        "slot": "0",
        "type": "t_string_storage"
      },
      {
        "astId": 131,
        "contract": "contracts/NFT.sol:NFT",
        "label": "_symbol",
        "offset": 0,
        "slot": "1",
        "type": "t_string_storage"
      },
      {
        "astId": 135,
        "contract": "contracts/NFT.sol:NFT",
        "label": "_owners",
        "offset": 0,
        "slot": "2",
        "type": "t_mapping(t_uint256,t_address)"
      },
      {
        "astId": 139,
        "contract": "contracts/NFT.sol:NFT",
        "label": "_balances",
        "offset": 0,
        "slot": "3",
        "type": "t_mapping(t_address,t_uint256)"
      },
      {
        "astId": 143,
        "contract": "contracts/NFT.sol:NFT",
        "label": "_tokenApprovals",
        "offset": 0,
        "slot": "4",
        "type": "t_mapping(t_uint256,t_address)"
      },
      {
        "astId": 149,
        "contract": "contracts/NFT.sol:NFT",
        "label": "_operatorApprovals",
        "offset": 0,
        "slot": "5",
        "type": "t_mapping(t_address,t_mapping(t_address,t_bool))"
      },
      {
        "astId": 1066,
        "contract": "contracts/NFT.sol:NFT",
        "label": "_tokenURIs",
        "offset": 0,
        "slot": "6",
        "type": "t_mapping(t_uint256,t_string_storage)"
      },
      {
        "astId": 7,
        "contract": "contracts/NFT.sol:NFT",
        "label": "_owner",
        "offset": 0,
        "slot": "7",
        "type": "t_address"
      },
      {
        "astId": 1836,
        "contract": "contracts/NFT.sol:NFT",
        "label": "tokenCounter",
        "offset": 0,
        "slot": "8",
        "type": "t_uint256"
      },
      {
        "astId": 1841,
        "contract": "contracts/NFT.sol:NFT",
        "label": "tokenIdToFighter",
        "offset": 0,
        "slot": "9",
        "type": "t_mapping(t_uint256,t_struct(Fighter)1862_storage)"
      }
    ],
    "types": {
      "t_address": {
        "encoding": "inplace",
        "label": "address",
        "numberOfBytes": "20"
      },
      "t_bool": {
        "encoding": "inplace",
        "label": "bool",
        "numberOfBytes": "1"
      },
      "t_mapping(t_address,t_bool)": {
        "encoding": "mapping",
        "key": "t_address",
        "label": "mapping(address => bool)",
        "numberOfBytes": "32",
        "value": "t_bool"
      },
      "t_mapping(t_address,t_mapping(t_address,t_bool))": {
        "encoding": "mapping",
        "key": "t_address",
        "label": "mapping(address => mapping(address => bool))",
        "numberOfBytes": "32",
        "value": "t_mapping(t_address,t_bool)"
      },
      "t_mapping(t_address,t_uint256)": {
        "encoding": "mapping",
        "key": "t_address",
        "label": "mapping(address => uint256)",
        "numberOfBytes": "32",
        "value": "t_uint256"
      },
      "t_mapping(t_uint256,t_address)": {
        "encoding": "mapping",
        "key": "t_uint256",
        "label": "mapping(uint256 => address)",
        "numberOfBytes": "32",
        "value": "t_address"
      },
      "t_mapping(t_uint256,t_string_storage)": {
        "encoding": "mapping",
        "key": "t_uint256",
        "label": "mapping(uint256 => string)",
        "numberOfBytes": "32",
        "value": "t_string_storage"
      },
      "t_mapping(t_uint256,t_struct(Fighter)1862_storage)": {
        "encoding": "mapping",
        "key": "t_uint256",
        "label": "mapping(uint256 => struct NFT.Fighter)",
        "numberOfBytes": "32",
        "value": "t_struct(Fighter)1862_storage"
      },
      "t_string_storage": {
        "encoding": "bytes",
        "label": "string",
        "numberOfBytes": "32"
      },
      "t_struct(Fighter)1862_storage": {
        "encoding": "inplace",
        "label": "struct NFT.Fighter",
        "members": [
          {
            "astId": 1843,
            "contract": "contracts/NFT.sol:NFT",
            "label": "tokenId",
            "offset": 0,
            "slot": "0",
            "type": "t_uint256"
          },
          {
            "astId": 1845,
            "contract": "contracts/NFT.sol:NFT",
            "label": "name",
            "offset": 0,
            "slot": "1",
            "type": "t_string_storage"
          },
          {
            "astId": 1847,
            "contract": "contracts/NFT.sol:NFT",
            "label": "level",
            "offset": 0,
            "slot": "2",
            "type": "t_uint256"
          },
          {
            "astId": 1849,
            "contract": "contracts/NFT.sol:NFT",
            "label": "experience",
            "offset": 0,
            "slot": "3",
            "type": "t_uint256"
          },
          {
            "astId": 1851,
            "contract": "contracts/NFT.sol:NFT",
            "label": "wins",
            "offset": 0,
            "slot": "4",
            "type": "t_uint256"
          },
          {
            "astId": 1853,
            "contract": "contracts/NFT.sol:NFT",
            "label": "hp",
            "offset": 0,
            "slot": "5",
            "type": "t_uint256"
          },
          {
            "astId": 1855,
            "contract": "contracts/NFT.sol:NFT",
            "label": "strength",
            "offset": 0,
            "slot": "6",
            "type": "t_uint256"
          },
          {
            "astId": 1857,
            "contract": "contracts/NFT.sol:NFT",
            "label": "dexterity",
            "offset": 0,
            "slot": "7",
            "type": "t_uint256"
          },
          {
            "astId": 1859,
            "contract": "contracts/NFT.sol:NFT",
            "label": "agility",
            "offset": 0,
            "slot": "8",
            "type": "t_uint256"
          },
          {
            "astId": 1861,
            "contract": "contracts/NFT.sol:NFT",
            "label": "intelligence",
            "offset": 0,
            "slot": "9",
            "type": "t_uint256"
          }
        ],
        "numberOfBytes": "320"
      },
      "t_uint256": {
        "encoding": "inplace",
        "label": "uint256",
        "numberOfBytes": "32"
      }
    }
  }
}