{
  "address": "0xB079f377D973D1f0bC86ed229f82EDB7E52282f9",
  "abi": [
    {
      "inputs": [
        {
          "internalType": "address",
          "name": "_VRFCoordinator",
          "type": "address"
        },
        {
          "internalType": "address",
          "name": "_linkToken",
          "type": "address"
        },
        {
          "internalType": "bytes32",
          "name": "_keyHash",
          "type": "bytes32"
        },
        {
          "internalType": "uint256",
          "name": "_fee",
          "type": "uint256"
        }
      ],
      "stateMutability": "nonpayable",
      "type": "constructor"
    },
    {
      "anonymous": false,
      "inputs": [
        {
          "indexed": true,
          "internalType": "address",
          "name": "owner",
          "type": "address"
        },
        {
          "indexed": true,
          "internalType": "address",
          "name": "approved",
          "type": "address"
        },
        {
          "indexed": true,
          "internalType": "uint256",
          "name": "tokenId",
          "type": "uint256"
        }
      ],
      "name": "Approval",
      "type": "event"
    },
    {
      "anonymous": false,
      "inputs": [
        {
          "indexed": true,
          "internalType": "address",
          "name": "owner",
          "type": "address"
        },
        {
          "indexed": true,
          "internalType": "address",
          "name": "operator",
          "type": "address"
        },
        {
          "indexed": false,
          "internalType": "bool",
          "name": "approved",
          "type": "bool"
        }
      ],
      "name": "ApprovalForAll",
      "type": "event"
    },
    {
      "anonymous": false,
      "inputs": [
        {
          "indexed": true,
          "internalType": "uint256",
          "name": "tokenId",
          "type": "uint256"
        },
        {
          "indexed": false,
          "internalType": "string",
          "name": "tokenURL",
          "type": "string"
        }
      ],
      "name": "CreatedNFT",
      "type": "event"
    },
    {
      "anonymous": false,
      "inputs": [
        {
          "indexed": true,
          "internalType": "uint256",
          "name": "tokenId",
          "type": "uint256"
        },
        {
          "indexed": true,
          "internalType": "uint256",
          "name": "randomNumber",
          "type": "uint256"
        }
      ],
      "name": "CreatedUnfinishedRandomSVG",
      "type": "event"
    },
    {
      "anonymous": false,
      "inputs": [
        {
          "indexed": true,
          "internalType": "address",
          "name": "previousOwner",
          "type": "address"
        },
        {
          "indexed": true,
          "internalType": "address",
          "name": "newOwner",
          "type": "address"
        }
      ],
      "name": "OwnershipTransferred",
      "type": "event"
    },
    {
      "anonymous": false,
      "inputs": [
        {
          "indexed": true,
          "internalType": "bytes32",
          "name": "requestId",
          "type": "bytes32"
        },
        {
          "indexed": true,
          "internalType": "uint256",
          "name": "tokenId",
          "type": "uint256"
        }
      ],
      "name": "RequestedRandomSVG",
      "type": "event"
    },
    {
      "anonymous": false,
      "inputs": [
        {
          "indexed": true,
          "internalType": "address",
          "name": "from",
          "type": "address"
        },
        {
          "indexed": true,
          "internalType": "address",
          "name": "to",
          "type": "address"
        },
        {
          "indexed": true,
          "internalType": "uint256",
          "name": "tokenId",
          "type": "uint256"
        }
      ],
      "name": "Transfer",
      "type": "event"
    },
    {
      "anonymous": false,
      "inputs": [
        {
          "indexed": true,
          "internalType": "uint256",
          "name": "tokenId",
          "type": "uint256"
        },
        {
          "indexed": false,
          "internalType": "string",
          "name": "tokenURL",
          "type": "string"
        }
      ],
      "name": "UpdatedNFT",
      "type": "event"
    },
    {
      "inputs": [
        {
          "internalType": "address",
          "name": "to",
          "type": "address"
        },
        {
          "internalType": "uint256",
          "name": "tokenId",
          "type": "uint256"
        }
      ],
      "name": "approve",
      "outputs": [],
      "stateMutability": "nonpayable",
      "type": "function"
    },
    {
      "inputs": [
        {
          "internalType": "address",
          "name": "owner",
          "type": "address"
        }
      ],
      "name": "balanceOf",
      "outputs": [
        {
          "internalType": "uint256",
          "name": "",
          "type": "uint256"
        }
      ],
      "stateMutability": "view",
      "type": "function"
    },
    {
      "inputs": [],
      "name": "create",
      "outputs": [
        {
          "internalType": "bytes32",
          "name": "requestId",
          "type": "bytes32"
        }
      ],
      "stateMutability": "payable",
      "type": "function"
    },
    {
      "inputs": [],
      "name": "fee",
      "outputs": [
        {
          "internalType": "uint256",
          "name": "",
          "type": "uint256"
        }
      ],
      "stateMutability": "view",
      "type": "function"
    },
    {
      "inputs": [
        {
          "internalType": "uint256",
          "name": "_tokenId",
          "type": "uint256"
        }
      ],
      "name": "finishMint",
      "outputs": [],
      "stateMutability": "nonpayable",
      "type": "function"
    },
    {
      "inputs": [
        {
          "internalType": "uint256",
          "name": "tokenId",
          "type": "uint256"
        }
      ],
      "name": "getApproved",
      "outputs": [
        {
          "internalType": "address",
          "name": "",
          "type": "address"
        }
      ],
      "stateMutability": "view",
      "type": "function"
    },
    {
      "inputs": [
        {
          "internalType": "address",
          "name": "owner",
          "type": "address"
        },
        {
          "internalType": "address",
          "name": "operator",
          "type": "address"
        }
      ],
      "name": "isApprovedForAll",
      "outputs": [
        {
          "internalType": "bool",
          "name": "",
          "type": "bool"
        }
      ],
      "stateMutability": "view",
      "type": "function"
    },
    {
      "inputs": [],
      "name": "keyHash",
      "outputs": [
        {
          "internalType": "bytes32",
          "name": "",
          "type": "bytes32"
        }
      ],
      "stateMutability": "view",
      "type": "function"
    },
    {
      "inputs": [],
      "name": "name",
      "outputs": [
        {
          "internalType": "string",
          "name": "",
          "type": "string"
        }
      ],
      "stateMutability": "view",
      "type": "function"
    },
    {
      "inputs": [],
      "name": "owner",
      "outputs": [
        {
          "internalType": "address",
          "name": "",
          "type": "address"
        }
      ],
      "stateMutability": "view",
      "type": "function"
    },
    {
      "inputs": [
        {
          "internalType": "uint256",
          "name": "tokenId",
          "type": "uint256"
        }
      ],
      "name": "ownerOf",
      "outputs": [
        {
          "internalType": "address",
          "name": "",
          "type": "address"
        }
      ],
      "stateMutability": "view",
      "type": "function"
    },
    {
      "inputs": [
        {
          "internalType": "bool",
          "name": "_state",
          "type": "bool"
        }
      ],
      "name": "pause",
      "outputs": [],
      "stateMutability": "nonpayable",
      "type": "function"
    },
    {
      "inputs": [
        {
          "internalType": "bytes32",
          "name": "requestId",
          "type": "bytes32"
        },
        {
          "internalType": "uint256",
          "name": "randomness",
          "type": "uint256"
        }
      ],
      "name": "rawFulfillRandomness",
      "outputs": [],
      "stateMutability": "nonpayable",
      "type": "function"
    },
    {
      "inputs": [],
      "name": "renounceOwnership",
      "outputs": [],
      "stateMutability": "nonpayable",
      "type": "function"
    },
    {
      "inputs": [
        {
          "internalType": "address",
          "name": "from",
          "type": "address"
        },
        {
          "internalType": "address",
          "name": "to",
          "type": "address"
        },
        {
          "internalType": "uint256",
          "name": "tokenId",
          "type": "uint256"
        }
      ],
      "name": "safeTransferFrom",
      "outputs": [],
      "stateMutability": "nonpayable",
      "type": "function"
    },
    {
      "inputs": [
        {
          "internalType": "address",
          "name": "from",
          "type": "address"
        },
        {
          "internalType": "address",
          "name": "to",
          "type": "address"
        },
        {
          "internalType": "uint256",
          "name": "tokenId",
          "type": "uint256"
        },
        {
          "internalType": "bytes",
          "name": "_data",
          "type": "bytes"
        }
      ],
      "name": "safeTransferFrom",
      "outputs": [],
      "stateMutability": "nonpayable",
      "type": "function"
    },
    {
      "inputs": [
        {
          "internalType": "address",
          "name": "operator",
          "type": "address"
        },
        {
          "internalType": "bool",
          "name": "approved",
          "type": "bool"
        }
      ],
      "name": "setApprovalForAll",
      "outputs": [],
      "stateMutability": "nonpayable",
      "type": "function"
    },
    {
      "inputs": [
        {
          "internalType": "uint256",
          "name": "_newCost",
          "type": "uint256"
        }
      ],
      "name": "setCost",
      "outputs": [],
      "stateMutability": "nonpayable",
      "type": "function"
    },
    {
      "inputs": [
        {
          "internalType": "address",
          "name": "_newFightingContract",
          "type": "address"
        }
      ],
      "name": "setFightingContract",
      "outputs": [],
      "stateMutability": "nonpayable",
      "type": "function"
    },
    {
      "inputs": [
        {
          "internalType": "uint256",
          "name": "_newMaxSupply",
          "type": "uint256"
        }
      ],
      "name": "setMaxSupply",
      "outputs": [],
      "stateMutability": "nonpayable",
      "type": "function"
    },
    {
      "inputs": [
        {
          "internalType": "address",
          "name": "_newTrainingContract",
          "type": "address"
        }
      ],
      "name": "setTrainingContract",
      "outputs": [],
      "stateMutability": "nonpayable",
      "type": "function"
    },
    {
      "inputs": [
        {
          "internalType": "bytes4",
          "name": "interfaceId",
          "type": "bytes4"
        }
      ],
      "name": "supportsInterface",
      "outputs": [
        {
          "internalType": "bool",
          "name": "",
          "type": "bool"
        }
      ],
      "stateMutability": "view",
      "type": "function"
    },
    {
      "inputs": [],
      "name": "symbol",
      "outputs": [
        {
          "internalType": "string",
          "name": "",
          "type": "string"
        }
      ],
      "stateMutability": "view",
      "type": "function"
    },
    {
      "inputs": [],
      "name": "tokenCounter",
      "outputs": [
        {
          "internalType": "uint256",
          "name": "",
          "type": "uint256"
        }
      ],
      "stateMutability": "view",
      "type": "function"
    },
    {
      "inputs": [
        {
          "internalType": "uint256",
          "name": "",
          "type": "uint256"
        }
      ],
      "name": "tokenIdToFighter",
      "outputs": [
        {
          "internalType": "uint256",
          "name": "tokenId",
          "type": "uint256"
        },
        {
          "internalType": "string",
          "name": "name",
          "type": "string"
        },
        {
          "internalType": "uint256",
          "name": "level",
          "type": "uint256"
        },
        {
          "internalType": "uint256",
          "name": "wins",
          "type": "uint256"
        },
        {
          "internalType": "uint256",
          "name": "hp",
          "type": "uint256"
        },
        {
          "internalType": "uint256",
          "name": "strength",
          "type": "uint256"
        },
        {
          "internalType": "uint256",
          "name": "dexterity",
          "type": "uint256"
        },
        {
          "internalType": "uint256",
          "name": "agility",
          "type": "uint256"
        },
        {
          "internalType": "uint256",
          "name": "intelligence",
          "type": "uint256"
        },
        {
          "internalType": "uint256",
          "name": "durability",
          "type": "uint256"
        }
      ],
      "stateMutability": "view",
      "type": "function"
    },
    {
      "inputs": [
        {
          "internalType": "uint256",
          "name": "tokenId",
          "type": "uint256"
        }
      ],
      "name": "tokenURI",
      "outputs": [
        {
          "internalType": "string",
          "name": "",
          "type": "string"
        }
      ],
      "stateMutability": "view",
      "type": "function"
    },
    {
      "inputs": [],
      "name": "totalSupply",
      "outputs": [
        {
          "internalType": "uint256",
          "name": "",
          "type": "uint256"
        }
      ],
      "stateMutability": "view",
      "type": "function"
    },
    {
      "inputs": [
        {
          "internalType": "address",
          "name": "from",
          "type": "address"
        },
        {
          "internalType": "address",
          "name": "to",
          "type": "address"
        },
        {
          "internalType": "uint256",
          "name": "tokenId",
          "type": "uint256"
        }
      ],
      "name": "transferFrom",
      "outputs": [],
      "stateMutability": "nonpayable",
      "type": "function"
    },
    {
      "inputs": [
        {
          "internalType": "address",
          "name": "newOwner",
          "type": "address"
        }
      ],
      "name": "transferOwnership",
      "outputs": [],
      "stateMutability": "nonpayable",
      "type": "function"
    },
    {
      "inputs": [
        {
          "internalType": "uint256",
          "name": "_tokenId",
          "type": "uint256"
        },
        {
          "components": [
            {
              "internalType": "uint256",
              "name": "tokenId",
              "type": "uint256"
            },
            {
              "internalType": "string",
              "name": "name",
              "type": "string"
            },
            {
              "internalType": "uint256",
              "name": "level",
              "type": "uint256"
            },
            {
              "internalType": "uint256",
              "name": "wins",
              "type": "uint256"
            },
            {
              "internalType": "uint256",
              "name": "hp",
              "type": "uint256"
            },
            {
              "internalType": "uint256",
              "name": "strength",
              "type": "uint256"
            },
            {
              "internalType": "uint256",
              "name": "dexterity",
              "type": "uint256"
            },
            {
              "internalType": "uint256",
              "name": "agility",
              "type": "uint256"
            },
            {
              "internalType": "uint256",
              "name": "intelligence",
              "type": "uint256"
            },
            {
              "internalType": "uint256",
              "name": "durability",
              "type": "uint256"
            }
          ],
          "internalType": "struct NFT.Fighter",
          "name": "_fighter",
          "type": "tuple"
        }
      ],
      "name": "updateFighterData",
      "outputs": [],
      "stateMutability": "nonpayable",
      "type": "function"
    },
    {
      "inputs": [],
      "name": "withdraw",
      "outputs": [],
      "stateMutability": "payable",
      "type": "function"
    }
  ],
  "transactionHash": "0xdad21475cefc1d6244f86330998d1db9780c240257ee615f7652b99299dd2acb",
  "args": [
    "0xb3dCcb4Cf7a26f6cf6B120Cf5A73875B7BBc655B",
    "0x01be23585060835e02b77ef475b0cc51aa1e0709",
    "0x2ed0feb3e7fd2022120aa84fab1945545a9f2ffc9076fd6156fa96eaff4c1311",
    "100000000000000000"
  ],
  "solcInputHash": "2bc7f03aa799cb0c376cfc097be74696",
  "bytecode": "0x60c06040523480156200001157600080fd5b506040516200631b3803806200631b83398181016040528101906200003791906200037f565b83836040518060400160405280600a81526020017f426c6f6f6453706f7274000000000000000000000000000000000000000000008152506040518060400160405280600381526020017f424c4400000000000000000000000000000000000000000000000000000000008152508160009080519060200190620000bd9291906200028a565b508060019080519060200190620000d69291906200028a565b505050620000f9620000ed620001bc60201b60201c565b620001c460201b60201c565b8173ffffffffffffffffffffffffffffffffffffffff1660a08173ffffffffffffffffffffffffffffffffffffffff1660601b815250508073ffffffffffffffffffffffffffffffffffffffff1660808173ffffffffffffffffffffffffffffffffffffffff1660601b81525050505080600a8190555081600b819055506000600981905550670de0b6b3a7640000600e81905550612710600f819055506000601060006101000a81548160ff02191690831515021790555050505050620004e6565b600033905090565b6000600760009054906101000a900473ffffffffffffffffffffffffffffffffffffffff16905081600760006101000a81548173ffffffffffffffffffffffffffffffffffffffff021916908373ffffffffffffffffffffffffffffffffffffffff1602179055508173ffffffffffffffffffffffffffffffffffffffff168173ffffffffffffffffffffffffffffffffffffffff167f8be0079c531659141344cd1fd0a4f28419497f9722a3daafe3b4186f6b6457e060405160405180910390a35050565b828054620002989062000433565b90600052602060002090601f016020900481019282620002bc576000855562000308565b82601f10620002d757805160ff191683800117855562000308565b8280016001018555821562000308579182015b8281111562000307578251825591602001919060010190620002ea565b5b5090506200031791906200031b565b5090565b5b80821115620003365760008160009055506001016200031c565b5090565b6000815190506200034b8162000498565b92915050565b6000815190506200036281620004b2565b92915050565b6000815190506200037981620004cc565b92915050565b600080600080608085870312156200039657600080fd5b6000620003a6878288016200033a565b9450506020620003b9878288016200033a565b9350506040620003cc8782880162000351565b9250506060620003df8782880162000368565b91505092959194509250565b6000620003f88262000409565b9050919050565b6000819050919050565b600073ffffffffffffffffffffffffffffffffffffffff82169050919050565b6000819050919050565b600060028204905060018216806200044c57607f821691505b6020821081141562000463576200046262000469565b5b50919050565b7f4e487b7100000000000000000000000000000000000000000000000000000000600052602260045260246000fd5b620004a381620003eb565b8114620004af57600080fd5b50565b620004bd81620003ff565b8114620004c957600080fd5b50565b620004d78162000429565b8114620004e357600080fd5b50565b60805160601c60a05160601c615e0262000519600039600081816114770152612b4c01526000612b100152615e026000f3fe6080604052600436106101d85760003560e01c80636f8b44b011610102578063bb2ac40c11610095578063ddca3f4311610064578063ddca3f431461068c578063e985e9c5146106b7578063efc81a8c146106f4578063f2fde38b14610712576101d8565b8063bb2ac40c146105d2578063c0f0d45b146105fb578063c87b56dd14610624578063d082e38114610661576101d8565b806394985ddd116100d157806394985ddd1461052c57806395d89b4114610555578063a22cb46514610580578063b88d4fde146105a9576101d8565b80636f8b44b01461048457806370a08231146104ad578063715018a6146104ea5780638da5cb5b14610501576101d8565b80632bbce2d11161017a57806348cb16421161014957806348cb1642146103ca57806361728f39146103f3578063624194c71461041e5780636352211e14610447576101d8565b80632bbce2d1146103285780633ccfd60b1461036e57806342842e0e1461037857806344a0d68a146103a1576101d8565b8063081812fc116101b6578063081812fc1461026e578063095ea7b3146102ab57806318160ddd146102d457806323b872dd146102ff576101d8565b806301ffc9a7146101dd57806302329a291461021a57806306fdde0314610243575b600080fd5b3480156101e957600080fd5b5061020460048036038101906101ff9190613a15565b61073b565b60405161021191906145da565b60405180910390f35b34801561022657600080fd5b50610241600480360381019061023c9190613987565b61081d565b005b34801561024f57600080fd5b506102586108b6565b604051610265919061467e565b60405180910390f35b34801561027a57600080fd5b5061029560048036038101906102909190613a67565b610948565b6040516102a29190614535565b60405180910390f35b3480156102b757600080fd5b506102d260048036038101906102cd919061394b565b6109cd565b005b3480156102e057600080fd5b506102e9610ae5565b6040516102f691906149c0565b60405180910390f35b34801561030b57600080fd5b5061032660048036038101906103219190613845565b610aef565b005b34801561033457600080fd5b5061034f600480360381019061034a9190613a67565b610b4f565b6040516103659a999897969594939291906149db565b60405180910390f35b610376610c2b565b005b34801561038457600080fd5b5061039f600480360381019061039a9190613845565b610ce7565b005b3480156103ad57600080fd5b506103c860048036038101906103c39190613a67565b610d07565b005b3480156103d657600080fd5b506103f160048036038101906103ec91906137e0565b610d8d565b005b3480156103ff57600080fd5b50610408610e4d565b60405161041591906145f5565b60405180910390f35b34801561042a57600080fd5b5061044560048036038101906104409190613a67565b610e53565b005b34801561045357600080fd5b5061046e60048036038101906104699190613a67565b6111d3565b60405161047b9190614535565b60405180910390f35b34801561049057600080fd5b506104ab60048036038101906104a69190613a67565b611285565b005b3480156104b957600080fd5b506104d460048036038101906104cf91906137e0565b61130b565b6040516104e191906149c0565b60405180910390f35b3480156104f657600080fd5b506104ff6113c3565b005b34801561050d57600080fd5b5061051661144b565b6040516105239190614535565b60405180910390f35b34801561053857600080fd5b50610553600480360381019061054e91906139d9565b611475565b005b34801561056157600080fd5b5061056a611511565b604051610577919061467e565b60405180910390f35b34801561058c57600080fd5b506105a760048036038101906105a2919061390f565b6115a3565b005b3480156105b557600080fd5b506105d060048036038101906105cb9190613894565b611724565b005b3480156105de57600080fd5b506105f960048036038101906105f491906137e0565b611786565b005b34801561060757600080fd5b50610622600480360381019061061d9190613a90565b611846565b005b34801561063057600080fd5b5061064b60048036038101906106469190613a67565b6119c9565b604051610658919061467e565b60405180910390f35b34801561066d57600080fd5b50610676611b1b565b60405161068391906149c0565b60405180910390f35b34801561069857600080fd5b506106a1611b21565b6040516106ae91906149c0565b60405180910390f35b3480156106c357600080fd5b506106de60048036038101906106d99190613809565b611b27565b6040516106eb91906145da565b60405180910390f35b6106fc611bbb565b60405161070991906145f5565b60405180910390f35b34801561071e57600080fd5b50610739600480360381019061073491906137e0565b611d1e565b005b60007f80ac58cd000000000000000000000000000000000000000000000000000000007bffffffffffffffffffffffffffffffffffffffffffffffffffffffff1916827bffffffffffffffffffffffffffffffffffffffffffffffffffffffff1916148061080657507f5b5e139f000000000000000000000000000000000000000000000000000000007bffffffffffffffffffffffffffffffffffffffffffffffffffffffff1916827bffffffffffffffffffffffffffffffffffffffffffffffffffffffff1916145b80610816575061081582611e16565b5b9050919050565b610825611e80565b73ffffffffffffffffffffffffffffffffffffffff1661084361144b565b73ffffffffffffffffffffffffffffffffffffffff1614610899576040517f08c379a000000000000000000000000000000000000000000000000000000000815260040161089090614880565b60405180910390fd5b80601060006101000a81548160ff02191690831515021790555050565b6060600080546108c590614d46565b80601f01602080910402602001604051908101604052809291908181526020018280546108f190614d46565b801561093e5780601f106109135761010080835404028352916020019161093e565b820191906000526020600020905b81548152906001019060200180831161092157829003601f168201915b5050505050905090565b600061095382611e88565b610992576040517f08c379a000000000000000000000000000000000000000000000000000000000815260040161098990614860565b60405180910390fd5b6004600083815260200190815260200160002060009054906101000a900473ffffffffffffffffffffffffffffffffffffffff169050919050565b60006109d8826111d3565b90508073ffffffffffffffffffffffffffffffffffffffff168373ffffffffffffffffffffffffffffffffffffffff161415610a49576040517f08c379a0000000000000000000000000000000000000000000000000000000008152600401610a4090614920565b60405180910390fd5b8073ffffffffffffffffffffffffffffffffffffffff16610a68611e80565b73ffffffffffffffffffffffffffffffffffffffff161480610a975750610a9681610a91611e80565b611b27565b5b610ad6576040517f08c379a0000000000000000000000000000000000000000000000000000000008152600401610acd906147a0565b60405180910390fd5b610ae08383611ef4565b505050565b6000600954905090565b610b00610afa611e80565b82611fad565b610b3f576040517f08c379a0000000000000000000000000000000000000000000000000000000008152600401610b3690614980565b60405180910390fd5b610b4a83838361208b565b505050565b6011602052806000526040600020600091509050806000015490806001018054610b7890614d46565b80601f0160208091040260200160405190810160405280929190818152602001828054610ba490614d46565b8015610bf15780601f10610bc657610100808354040283529160200191610bf1565b820191906000526020600020905b815481529060010190602001808311610bd457829003601f168201915b505050505090806002015490806003015490806004015490806005015490806006015490806007015490806008015490806009015490508a565b610c33611e80565b73ffffffffffffffffffffffffffffffffffffffff16610c5161144b565b73ffffffffffffffffffffffffffffffffffffffff1614610ca7576040517f08c379a0000000000000000000000000000000000000000000000000000000008152600401610c9e90614880565b60405180910390fd5b3373ffffffffffffffffffffffffffffffffffffffff166108fc479081150290604051600060405180830381858888f19350505050610ce557600080fd5b565b610d0283838360405180602001604052806000815250611724565b505050565b610d0f611e80565b73ffffffffffffffffffffffffffffffffffffffff16610d2d61144b565b73ffffffffffffffffffffffffffffffffffffffff1614610d83576040517f08c379a0000000000000000000000000000000000000000000000000000000008152600401610d7a90614880565b60405180910390fd5b80600e8190555050565b610d95611e80565b73ffffffffffffffffffffffffffffffffffffffff16610db361144b565b73ffffffffffffffffffffffffffffffffffffffff1614610e09576040517f08c379a0000000000000000000000000000000000000000000000000000000008152600401610e0090614880565b60405180910390fd5b80600c60006101000a81548173ffffffffffffffffffffffffffffffffffffffff021916908373ffffffffffffffffffffffffffffffffffffffff16021790555050565b600b5481565b6000610e5e826119c9565b511115610ea0576040517f08c379a0000000000000000000000000000000000000000000000000000000008152600401610e9790614760565b60405180910390fd5b8060095411610ee4576040517f08c379a0000000000000000000000000000000000000000000000000000000008152600401610edb906146a0565b60405180910390fd5b6000601460008381526020019081526020016000205411610f3a576040517f08c379a0000000000000000000000000000000000000000000000000000000008152600401610f3190614940565b60405180910390fd5b600060146000838152602001908152602001600020549050610f5c82826122e7565b6000611071601160008581526020019081526020016000206040518061014001604052908160008201548152602001600182018054610f9a90614d46565b80601f0160208091040260200160405190810160405280929190818152602001828054610fc690614d46565b80156110135780601f10610fe857610100808354040283529160200191611013565b820191906000526020600020905b815481529060010190602001808311610ff657829003601f168201915b5050505050815260200160028201548152602001600382015481526020016004820154815260200160058201548152602001600682015481526020016007820154815260200160088201548152602001600982015481525050612659565b90506000611189826011600087815260200190815260200160002060405180610140016040529081600082015481526020016001820180546110b290614d46565b80601f01602080910402602001604051908101604052809291908181526020018280546110de90614d46565b801561112b5780601f106111005761010080835404028352916020019161112b565b820191906000526020600020905b81548152906001019060200180831161110e57829003601f168201915b5050505050815260200160028201548152602001600382015481526020016004820154815260200160058201548152602001600682015481526020016007820154815260200160088201548152602001600982015481525050612700565b90506111958482612812565b837fb5a8d8cf5d01b5006e471421ba7da032446e2a82412342ed548b7aeed0ea9b69826040516111c5919061467e565b60405180910390a250505050565b6000806002600084815260200190815260200160002060009054906101000a900473ffffffffffffffffffffffffffffffffffffffff169050600073ffffffffffffffffffffffffffffffffffffffff168173ffffffffffffffffffffffffffffffffffffffff16141561127c576040517f08c379a0000000000000000000000000000000000000000000000000000000008152600401611273906147e0565b60405180910390fd5b80915050919050565b61128d611e80565b73ffffffffffffffffffffffffffffffffffffffff166112ab61144b565b73ffffffffffffffffffffffffffffffffffffffff1614611301576040517f08c379a00000000000000000000000000000000000000000000000000000000081526004016112f890614880565b60405180910390fd5b80600f8190555050565b60008073ffffffffffffffffffffffffffffffffffffffff168273ffffffffffffffffffffffffffffffffffffffff16141561137c576040517f08c379a0000000000000000000000000000000000000000000000000000000008152600401611373906147c0565b60405180910390fd5b600360008373ffffffffffffffffffffffffffffffffffffffff1673ffffffffffffffffffffffffffffffffffffffff168152602001908152602001600020549050919050565b6113cb611e80565b73ffffffffffffffffffffffffffffffffffffffff166113e961144b565b73ffffffffffffffffffffffffffffffffffffffff161461143f576040517f08c379a000000000000000000000000000000000000000000000000000000000815260040161143690614880565b60405180910390fd5b6114496000612886565b565b6000600760009054906101000a900473ffffffffffffffffffffffffffffffffffffffff16905090565b7f000000000000000000000000000000000000000000000000000000000000000073ffffffffffffffffffffffffffffffffffffffff163373ffffffffffffffffffffffffffffffffffffffff1614611503576040517f08c379a00000000000000000000000000000000000000000000000000000000081526004016114fa90614900565b60405180910390fd5b61150d828261294c565b5050565b60606001805461152090614d46565b80601f016020809104026020016040519081016040528092919081815260200182805461154c90614d46565b80156115995780601f1061156e57610100808354040283529160200191611599565b820191906000526020600020905b81548152906001019060200180831161157c57829003601f168201915b5050505050905090565b6115ab611e80565b73ffffffffffffffffffffffffffffffffffffffff168273ffffffffffffffffffffffffffffffffffffffff161415611619576040517f08c379a000000000000000000000000000000000000000000000000000000000815260040161161090614740565b60405180910390fd5b8060056000611626611e80565b73ffffffffffffffffffffffffffffffffffffffff1673ffffffffffffffffffffffffffffffffffffffff16815260200190815260200160002060008473ffffffffffffffffffffffffffffffffffffffff1673ffffffffffffffffffffffffffffffffffffffff16815260200190815260200160002060006101000a81548160ff0219169083151502179055508173ffffffffffffffffffffffffffffffffffffffff166116d3611e80565b73ffffffffffffffffffffffffffffffffffffffff167f17307eab39ab6107e8899845ad3d59bd9653f200f220920489ca2b5937696c318360405161171891906145da565b60405180910390a35050565b61173561172f611e80565b83611fad565b611774576040517f08c379a000000000000000000000000000000000000000000000000000000000815260040161176b90614980565b60405180910390fd5b611780848484846129f2565b50505050565b61178e611e80565b73ffffffffffffffffffffffffffffffffffffffff166117ac61144b565b73ffffffffffffffffffffffffffffffffffffffff1614611802576040517f08c379a00000000000000000000000000000000000000000000000000000000081526004016117f990614880565b60405180910390fd5b80600d60006101000a81548173ffffffffffffffffffffffffffffffffffffffff021916908373ffffffffffffffffffffffffffffffffffffffff16021790555050565b600c60009054906101000a900473ffffffffffffffffffffffffffffffffffffffff1673ffffffffffffffffffffffffffffffffffffffff163373ffffffffffffffffffffffffffffffffffffffff16146118d6576040517f08c379a00000000000000000000000000000000000000000000000000000000081526004016118cd90614960565b60405180910390fd5b80601160008481526020019081526020016000206000820151816000015560208201518160010190805190602001906119109291906134d0565b5060408201518160020155606082015181600301556080820151816004015560a0820151816005015560c0820151816006015560e0820151816007015561010082015181600801556101208201518160090155905050600061197182612659565b9050600061197f8284612700565b905061198b8482612812565b837f8088b75520f63d2193a6f5015badbc4cc953e620977a8c91f11b4227043fcb38826040516119bb919061467e565b60405180910390a250505050565b60606119d482611e88565b611a13576040517f08c379a0000000000000000000000000000000000000000000000000000000008152600401611a0a90614840565b60405180910390fd5b6000600660008481526020019081526020016000208054611a3390614d46565b80601f0160208091040260200160405190810160405280929190818152602001828054611a5f90614d46565b8015611aac5780601f10611a8157610100808354040283529160200191611aac565b820191906000526020600020905b815481529060010190602001808311611a8f57829003601f168201915b505050505090506000611abd612a4e565b9050600081511415611ad3578192505050611b16565b600082511115611b08578082604051602001611af09291906142e7565b60405160208183030381529060405292505050611b16565b611b1184612a65565b925050505b919050565b60095481565b600a5481565b6000600560008473ffffffffffffffffffffffffffffffffffffffff1673ffffffffffffffffffffffffffffffffffffffff16815260200190815260200160002060008373ffffffffffffffffffffffffffffffffffffffff1673ffffffffffffffffffffffffffffffffffffffff16815260200190815260200160002060009054906101000a900460ff16905092915050565b6000601060009054906101000a900460ff1615611c0d576040517f08c379a0000000000000000000000000000000000000000000000000000000008152600401611c04906148a0565b60405180910390fd5b600f5460095410611c53576040517f08c379a0000000000000000000000000000000000000000000000000000000008152600401611c4a906149a0565b60405180910390fd5b611c61600b54600a54612b0c565b9050336012600083815260200190815260200160002060006101000a81548173ffffffffffffffffffffffffffffffffffffffff021916908373ffffffffffffffffffffffffffffffffffffffff1602179055506000600954905080601360008481526020019081526020016000208190555060096000815480929190611ce790614da9565b919050555080827fd18cd6f82baac9078af064ea020dd3dc7bff649bd8d50684f972d5995fec6e6960405160405180910390a35090565b611d26611e80565b73ffffffffffffffffffffffffffffffffffffffff16611d4461144b565b73ffffffffffffffffffffffffffffffffffffffff1614611d9a576040517f08c379a0000000000000000000000000000000000000000000000000000000008152600401611d9190614880565b60405180910390fd5b600073ffffffffffffffffffffffffffffffffffffffff168173ffffffffffffffffffffffffffffffffffffffff161415611e0a576040517f08c379a0000000000000000000000000000000000000000000000000000000008152600401611e01906146e0565b60405180910390fd5b611e1381612886565b50565b60007f01ffc9a7000000000000000000000000000000000000000000000000000000007bffffffffffffffffffffffffffffffffffffffffffffffffffffffff1916827bffffffffffffffffffffffffffffffffffffffffffffffffffffffff1916149050919050565b600033905090565b60008073ffffffffffffffffffffffffffffffffffffffff166002600084815260200190815260200160002060009054906101000a900473ffffffffffffffffffffffffffffffffffffffff1673ffffffffffffffffffffffffffffffffffffffff1614159050919050565b816004600083815260200190815260200160002060006101000a81548173ffffffffffffffffffffffffffffffffffffffff021916908373ffffffffffffffffffffffffffffffffffffffff160217905550808273ffffffffffffffffffffffffffffffffffffffff16611f67836111d3565b73ffffffffffffffffffffffffffffffffffffffff167f8c5be1e5ebec7d5bd14f71427d1e84f3dd0314c0f7b2291e5b200ac8c7c3b92560405160405180910390a45050565b6000611fb882611e88565b611ff7576040517f08c379a0000000000000000000000000000000000000000000000000000000008152600401611fee90614780565b60405180910390fd5b6000612002836111d3565b90508073ffffffffffffffffffffffffffffffffffffffff168473ffffffffffffffffffffffffffffffffffffffff16148061207157508373ffffffffffffffffffffffffffffffffffffffff1661205984610948565b73ffffffffffffffffffffffffffffffffffffffff16145b8061208257506120818185611b27565b5b91505092915050565b8273ffffffffffffffffffffffffffffffffffffffff166120ab826111d3565b73ffffffffffffffffffffffffffffffffffffffff1614612101576040517f08c379a00000000000000000000000000000000000000000000000000000000081526004016120f8906148c0565b60405180910390fd5b600073ffffffffffffffffffffffffffffffffffffffff168273ffffffffffffffffffffffffffffffffffffffff161415612171576040517f08c379a000000000000000000000000000000000000000000000000000000000815260040161216890614720565b60405180910390fd5b61217c838383612c6e565b612187600082611ef4565b6001600360008573ffffffffffffffffffffffffffffffffffffffff1673ffffffffffffffffffffffffffffffffffffffff16815260200190815260200160002060008282546121d79190614c52565b925050819055506001600360008473ffffffffffffffffffffffffffffffffffffffff1673ffffffffffffffffffffffffffffffffffffffff168152602001908152602001600020600082825461222e9190614b71565b92505081905550816002600083815260200190815260200160002060006101000a81548173ffffffffffffffffffffffffffffffffffffffff021916908373ffffffffffffffffffffffffffffffffffffffff160217905550808273ffffffffffffffffffffffffffffffffffffffff168473ffffffffffffffffffffffffffffffffffffffff167fddf252ad1be2c89b69c2b068fc378daa952ba7f163c4a11628f55a4df523b3ef60405160405180910390a4505050565b6000600567ffffffffffffffff81111561232a577f4e487b7100000000000000000000000000000000000000000000000000000000600052604160045260246000fd5b6040519080825280602002602001820160405280156123585781602001602082028036833780820191505090505b50905060005b6005811015612409576000838260405160200161237c929190614a7e565b6040516020818303038152906040528051906020012060001c90506001600a826123a69190614e06565b6123b09190614b71565b8383815181106123e9577f4e487b7100000000000000000000000000000000000000000000000000000000600052603260045260246000fd5b60200260200101818152505050808061240190614da9565b91505061235e565b50600061241584612c73565b604051602001612425919061430b565b60405160208183030381529060405290506040518061014001604052808581526020018281526020016001815260200160008152602001601481526020018360008151811061249d577f4e487b7100000000000000000000000000000000000000000000000000000000600052603260045260246000fd5b60200260200101518152602001836001815181106124e4577f4e487b7100000000000000000000000000000000000000000000000000000000600052603260045260246000fd5b602002602001015181526020018360028151811061252b577f4e487b7100000000000000000000000000000000000000000000000000000000600052603260045260246000fd5b6020026020010151815260200183600381518110612572577f4e487b7100000000000000000000000000000000000000000000000000000000600052603260045260246000fd5b60200260200101518152602001836004815181106125b9577f4e487b7100000000000000000000000000000000000000000000000000000000600052603260045260246000fd5b6020026020010151815250601160008681526020019081526020016000206000820151816000015560208201518160010190805190602001906125fd9291906134d0565b5060408201518160020155606082015181600301556080820151816004015560a0820151816005015560c0820151816006015560e082015181600701556101008201518160080155610120820151816009015590505050505050565b6060600061266683612e20565b905060006040518060400160405280601a81526020017f646174613a696d6167652f7376672b786d6c3b6261736536342c000000000000815250905060006126cc836040516020016126b891906142d0565b604051602081830303815290604052612ec5565b9050600082826040516020016126e39291906142e7565b604051602081830303815290604052905080945050505050919050565b606060006040518060400160405280601d81526020017f646174613a6170706c69636174696f6e2f6a736f6e3b6261736536342c000000815250905060006127de84602001516127538660400151612c73565b6127608760600151612c73565b61276d8860800151612c73565b61277a8960a00151612c73565b6127878a60c00151612c73565b6127948b60e00151612c73565b6127a28c6101000151612c73565b6127b08d6101200151612c73565b8e6040516020016127ca9a9998979695949392919061441a565b604051602081830303815290604052612ec5565b9050600082826040516020016127f59291906142e7565b604051602081830303815290604052905080935050505092915050565b61281b82611e88565b61285a576040517f08c379a000000000000000000000000000000000000000000000000000000000815260040161285190614800565b60405180910390fd5b806006600084815260200190815260200160002090805190602001906128819291906134d0565b505050565b6000600760009054906101000a900473ffffffffffffffffffffffffffffffffffffffff16905081600760006101000a81548173ffffffffffffffffffffffffffffffffffffffff021916908373ffffffffffffffffffffffffffffffffffffffff1602179055508173ffffffffffffffffffffffffffffffffffffffff168173ffffffffffffffffffffffffffffffffffffffff167f8be0079c531659141344cd1fd0a4f28419497f9722a3daafe3b4186f6b6457e060405160405180910390a35050565b60006012600084815260200190815260200160002060009054906101000a900473ffffffffffffffffffffffffffffffffffffffff1690506000601360008581526020019081526020016000205490506129a68282613070565b82601460008381526020019081526020016000208190555082817faad5362ce528ed941024b95d4c18dfd49b8503e1f586a5c353631d98c2af41b760405160405180910390a350505050565b6129fd84848461208b565b612a098484848461308e565b612a48576040517f08c379a0000000000000000000000000000000000000000000000000000000008152600401612a3f906146c0565b60405180910390fd5b50505050565b606060405180602001604052806000815250905090565b6060612a7082611e88565b612aaf576040517f08c379a0000000000000000000000000000000000000000000000000000000008152600401612aa6906148e0565b60405180910390fd5b6000612ab9612a4e565b90506000815111612ad95760405180602001604052806000815250612b04565b80612ae384612c73565b604051602001612af49291906142e7565b6040516020818303038152906040525b915050919050565b60007f000000000000000000000000000000000000000000000000000000000000000073ffffffffffffffffffffffffffffffffffffffff16634000aea07f000000000000000000000000000000000000000000000000000000000000000084866000604051602001612b80929190614610565b6040516020818303038152906040526040518463ffffffff1660e01b8152600401612bad9392919061459c565b602060405180830381600087803b158015612bc757600080fd5b505af1158015612bdb573d6000803e3d6000fd5b505050506040513d601f19601f82011682018060405250810190612bff91906139b0565b506000612c22846000306008600089815260200190815260200160002054613225565b905060016008600086815260200190815260200160002054612c449190614b71565b6008600086815260200190815260200160002081905550612c658482613261565b91505092915050565b505050565b60606000821415612cbb576040518060400160405280600181526020017f30000000000000000000000000000000000000000000000000000000000000008152509050612e1b565b600082905060005b60008214612ced578080612cd690614da9565b915050600a82612ce69190614bc7565b9150612cc3565b60008167ffffffffffffffff811115612d2f577f4e487b7100000000000000000000000000000000000000000000000000000000600052604160045260246000fd5b6040519080825280601f01601f191660200182016040528015612d615781602001600182028036833780820191505090505b5090505b60008514612e1457600182612d7a9190614c52565b9150600a85612d899190614e06565b6030612d959190614b71565b60f81b818381518110612dd1577f4e487b7100000000000000000000000000000000000000000000000000000000600052603260045260246000fd5b60200101907effffffffffffffffffffffffffffffffffffffffffffffffffffffffffffff1916908160001a905350600a85612e0d9190614bc7565b9450612d65565b8093505050505b919050565b606060008260200151612e368460400151612c73565b612e438560600151612c73565b612e508660800151612c73565b612e5d8760a00151612c73565b612e6a8860c00151612c73565b612e778960e00151612c73565b612e858a6101000151612c73565b612e938b6101200151612c73565b604051602001612eab9998979695949392919061432d565b604051602081830303815290604052905080915050919050565b6060600082511415612ee85760405180602001604052806000815250905061306b565b6000604051806060016040528060408152602001615d8d6040913990506000600360028551612f179190614b71565b612f219190614bc7565b6004612f2d9190614bf8565b90506000602082612f3e9190614b71565b67ffffffffffffffff811115612f7d577f4e487b7100000000000000000000000000000000000000000000000000000000600052604160045260246000fd5b6040519080825280601f01601f191660200182016040528015612faf5781602001600182028036833780820191505090505b509050818152600183018586518101602084015b8183101561302a576003830192508251603f8160121c1685015160f81b8252600182019150603f81600c1c1685015160f81b8252600182019150603f8160061c1685015160f81b8252600182019150603f811685015160f81b825260018201915050612fc3565b60038951066001811461304457600281146130545761305f565b613d3d60f01b600283035261305f565b603d60f81b60018303525b50505050508093505050505b919050565b61308a828260405180602001604052806000815250613294565b5050565b60006130af8473ffffffffffffffffffffffffffffffffffffffff166132ef565b15613218578373ffffffffffffffffffffffffffffffffffffffff1663150b7a026130d8611e80565b8786866040518563ffffffff1660e01b81526004016130fa9493929190614550565b602060405180830381600087803b15801561311457600080fd5b505af192505050801561314557506040513d601f19601f820116820180604052508101906131429190613a3e565b60015b6131c8573d8060008114613175576040519150601f19603f3d011682016040523d82523d6000602084013e61317a565b606091505b506000815114156131c0576040517f08c379a00000000000000000000000000000000000000000000000000000000081526004016131b7906146c0565b60405180910390fd5b805181602001fd5b63150b7a0260e01b7bffffffffffffffffffffffffffffffffffffffffffffffffffffffff1916817bffffffffffffffffffffffffffffffffffffffffffffffffffffffff19161491505061321d565b600190505b949350505050565b60008484848460405160200161323e9493929190614639565b6040516020818303038152906040528051906020012060001c9050949350505050565b600082826040516020016132769291906142a4565b60405160208183030381529060405280519060200120905092915050565b61329e8383613302565b6132ab600084848461308e565b6132ea576040517f08c379a00000000000000000000000000000000000000000000000000000000081526004016132e1906146c0565b60405180910390fd5b505050565b600080823b905060008111915050919050565b600073ffffffffffffffffffffffffffffffffffffffff168273ffffffffffffffffffffffffffffffffffffffff161415613372576040517f08c379a000000000000000000000000000000000000000000000000000000000815260040161336990614820565b60405180910390fd5b61337b81611e88565b156133bb576040517f08c379a00000000000000000000000000000000000000000000000000000000081526004016133b290614700565b60405180910390fd5b6133c760008383612c6e565b6001600360008473ffffffffffffffffffffffffffffffffffffffff1673ffffffffffffffffffffffffffffffffffffffff16815260200190815260200160002060008282546134179190614b71565b92505081905550816002600083815260200190815260200160002060006101000a81548173ffffffffffffffffffffffffffffffffffffffff021916908373ffffffffffffffffffffffffffffffffffffffff160217905550808273ffffffffffffffffffffffffffffffffffffffff16600073ffffffffffffffffffffffffffffffffffffffff167fddf252ad1be2c89b69c2b068fc378daa952ba7f163c4a11628f55a4df523b3ef60405160405180910390a45050565b8280546134dc90614d46565b90600052602060002090601f0160209004810192826134fe5760008555613545565b82601f1061351757805160ff1916838001178555613545565b82800160010185558215613545579182015b82811115613544578251825591602001919060010190613529565b5b5090506135529190613556565b5090565b5b8082111561356f576000816000905550600101613557565b5090565b600061358661358184614acc565b614aa7565b90508281526020810184848401111561359e57600080fd5b6135a9848285614d04565b509392505050565b60006135c46135bf84614afd565b614aa7565b9050828152602081018484840111156135dc57600080fd5b6135e7848285614d04565b509392505050565b6000813590506135fe81615d19565b92915050565b60008135905061361381615d30565b92915050565b60008151905061362881615d30565b92915050565b60008135905061363d81615d47565b92915050565b60008135905061365281615d5e565b92915050565b60008151905061366781615d5e565b92915050565b600082601f83011261367e57600080fd5b813561368e848260208601613573565b91505092915050565b600082601f8301126136a857600080fd5b81356136b88482602086016135b1565b91505092915050565b600061014082840312156136d457600080fd5b6136df610140614aa7565b905060006136ef848285016137cb565b600083015250602082013567ffffffffffffffff81111561370f57600080fd5b61371b84828501613697565b602083015250604061372f848285016137cb565b6040830152506060613743848285016137cb565b6060830152506080613757848285016137cb565b60808301525060a061376b848285016137cb565b60a08301525060c061377f848285016137cb565b60c08301525060e0613793848285016137cb565b60e0830152506101006137a8848285016137cb565b610100830152506101206137be848285016137cb565b6101208301525092915050565b6000813590506137da81615d75565b92915050565b6000602082840312156137f257600080fd5b6000613800848285016135ef565b91505092915050565b6000806040838503121561381c57600080fd5b600061382a858286016135ef565b925050602061383b858286016135ef565b9150509250929050565b60008060006060848603121561385a57600080fd5b6000613868868287016135ef565b9350506020613879868287016135ef565b925050604061388a868287016137cb565b9150509250925092565b600080600080608085870312156138aa57600080fd5b60006138b8878288016135ef565b94505060206138c9878288016135ef565b93505060406138da878288016137cb565b925050606085013567ffffffffffffffff8111156138f757600080fd5b6139038782880161366d565b91505092959194509250565b6000806040838503121561392257600080fd5b6000613930858286016135ef565b925050602061394185828601613604565b9150509250929050565b6000806040838503121561395e57600080fd5b600061396c858286016135ef565b925050602061397d858286016137cb565b9150509250929050565b60006020828403121561399957600080fd5b60006139a784828501613604565b91505092915050565b6000602082840312156139c257600080fd5b60006139d084828501613619565b91505092915050565b600080604083850312156139ec57600080fd5b60006139fa8582860161362e565b9250506020613a0b858286016137cb565b9150509250929050565b600060208284031215613a2757600080fd5b6000613a3584828501613643565b91505092915050565b600060208284031215613a5057600080fd5b6000613a5e84828501613658565b91505092915050565b600060208284031215613a7957600080fd5b6000613a87848285016137cb565b91505092915050565b60008060408385031215613aa357600080fd5b6000613ab1858286016137cb565b925050602083013567ffffffffffffffff811115613ace57600080fd5b613ada858286016136c1565b9150509250929050565b613aed81614c86565b82525050565b613afc81614c98565b82525050565b613b0b81614ca4565b82525050565b613b22613b1d82614ca4565b614df2565b82525050565b6000613b3382614b2e565b613b3d8185614b44565b9350613b4d818560208601614d13565b613b5681614ef3565b840191505092915050565b6000613b6c82614b39565b613b768185614b55565b9350613b86818560208601614d13565b613b8f81614ef3565b840191505092915050565b6000613ba582614b39565b613baf8185614b66565b9350613bbf818560208601614d13565b80840191505092915050565b6000613bd8603d83614b66565b9150613be382614f04565b603d82019050919050565b6000613bfb601d83614b55565b9150613c0682614f53565b602082019050919050565b6000613c1e603283614b55565b9150613c2982614f7c565b604082019050919050565b6000613c41603a83614b66565b9150613c4c82614fcb565b603a82019050919050565b6000613c64602683614b55565b9150613c6f8261501a565b604082019050919050565b6000613c87600c83614b66565b9150613c9282615069565b600c82019050919050565b6000613caa601c83614b55565b9150613cb582615092565b602082019050919050565b6000613ccd602783614b66565b9150613cd8826150bb565b602782019050919050565b6000613cf060cf83614b66565b9150613cfb8261510a565b60cf82019050919050565b6000613d13602983614b66565b9150613d1e82615217565b602982019050919050565b6000613d36603383614b66565b9150613d4182615266565b603382019050919050565b6000613d59602483614b55565b9150613d64826152b5565b604082019050919050565b6000613d7c601983614b55565b9150613d8782615304565b602082019050919050565b6000613d9f601783614b55565b9150613daa8261532d565b602082019050919050565b6000613dc2603583614b66565b9150613dcd82615356565b603582019050919050565b6000613de5602c83614b55565b9150613df0826153a5565b604082019050919050565b6000613e08600d83614b66565b9150613e13826153f4565b600d82019050919050565b6000613e2b602883614b66565b9150613e368261541d565b602882019050919050565b6000613e4e603883614b55565b9150613e598261546c565b604082019050919050565b6000613e71602a83614b55565b9150613e7c826154bb565b604082019050919050565b6000613e94602983614b55565b9150613e9f8261550a565b604082019050919050565b6000613eb7602e83614b55565b9150613ec282615559565b604082019050919050565b6000613eda600e83614b66565b9150613ee5826155a8565b600e82019050919050565b6000613efd602683614b66565b9150613f08826155d1565b602682019050919050565b6000613f20600283614b66565b9150613f2b82615620565b600282019050919050565b6000613f43603b83614b66565b9150613f4e82615649565b603b82019050919050565b6000613f66602083614b55565b9150613f7182615698565b602082019050919050565b6000613f89603183614b55565b9150613f94826156c1565b604082019050919050565b6000613fac603383614b66565b9150613fb782615710565b603382019050919050565b6000613fcf602c83614b55565b9150613fda8261575f565b604082019050919050565b6000613ff2602083614b55565b9150613ffd826157ae565b602082019050919050565b6000614015601583614b55565b9150614020826157d7565b602082019050919050565b6000614038603983614b66565b915061404382615800565b603982019050919050565b600061405b602983614b55565b91506140668261584f565b604082019050919050565b600061407e602b83614b66565b91506140898261589e565b602b82019050919050565b60006140a1602f83614b55565b91506140ac826158ed565b604082019050919050565b60006140c4600a83614b66565b91506140cf8261593c565b600a82019050919050565b60006140e7601f83614b55565b91506140f282615965565b602082019050919050565b600061410a602883614b66565b91506141158261598e565b602882019050919050565b600061412d602183614b55565b9150614138826159dd565b604082019050919050565b6000614150601a83614b55565b915061415b82615a2c565b602082019050919050565b6000614173602983614b55565b915061417e82615a55565b604082019050919050565b6000614196603183614b55565b91506141a182615aa4565b604082019050919050565b60006141b9602283614b66565b91506141c482615af3565b602282019050919050565b60006141dc607683614b66565b91506141e782615b42565b607682019050919050565b60006141ff600f83614b55565b915061420a82615bdd565b602082019050919050565b6000614222606183614b66565b915061422d82615c06565b606182019050919050565b6000614245600e83614b66565b915061425082615ca1565b600e82019050919050565b6000614268603883614b66565b915061427382615cca565b603882019050919050565b61428781614cfa565b82525050565b61429e61429982614cfa565b614dfc565b82525050565b60006142b08285613b11565b6020820191506142c0828461428d565b6020820191508190509392505050565b60006142dc8284613b9a565b915081905092915050565b60006142f38285613b9a565b91506142ff8284613b9a565b91508190509392505050565b600061431682613c7a565b91506143228284613b9a565b915081905092915050565b600061433882613ce3565b9150614344828c613b9a565b915061434f826141cf565b915061435b828b613b9a565b915061436682613db5565b9150614372828a613b9a565b915061437d82614215565b91506143898289613b9a565b915061439482613cc0565b91506143a08288613b9a565b91506143ab826140fd565b91506143b78287613b9a565b91506143c282613ef0565b91506143ce8286613b9a565b91506143d982614071565b91506143e58285613b9a565b91506143f082613d06565b91506143fc8284613b9a565b915061440782613dfb565b91508190509a9950505050505050505050565b6000614425826140b7565b9150614431828d613b9a565b915061443c82613e1e565b915061444782614238565b915061445282613f9f565b915061445e828c613b9a565b9150614469826141ac565b9150614475828b613b9a565b915061448082613d29565b915061448c828a613b9a565b91506144978261402b565b91506144a38289613b9a565b91506144ae82613c34565b91506144ba8288613b9a565b91506144c58261425b565b91506144d18287613b9a565b91506144dc82613bcb565b91506144e88286613b9a565b91506144f382613f36565b91506144ff8285613b9a565b915061450a82613ecd565b91506145168284613b9a565b915061452182613f13565b91508190509b9a5050505050505050505050565b600060208201905061454a6000830184613ae4565b92915050565b60006080820190506145656000830187613ae4565b6145726020830186613ae4565b61457f604083018561427e565b81810360608301526145918184613b28565b905095945050505050565b60006060820190506145b16000830186613ae4565b6145be602083018561427e565b81810360408301526145d08184613b28565b9050949350505050565b60006020820190506145ef6000830184613af3565b92915050565b600060208201905061460a6000830184613b02565b92915050565b60006040820190506146256000830185613b02565b614632602083018461427e565b9392505050565b600060808201905061464e6000830187613b02565b61465b602083018661427e565b6146686040830185613ae4565b614675606083018461427e565b95945050505050565b600060208201905081810360008301526146988184613b61565b905092915050565b600060208201905081810360008301526146b981613bee565b9050919050565b600060208201905081810360008301526146d981613c11565b9050919050565b600060208201905081810360008301526146f981613c57565b9050919050565b6000602082019050818103600083015261471981613c9d565b9050919050565b6000602082019050818103600083015261473981613d4c565b9050919050565b6000602082019050818103600083015261475981613d6f565b9050919050565b6000602082019050818103600083015261477981613d92565b9050919050565b6000602082019050818103600083015261479981613dd8565b9050919050565b600060208201905081810360008301526147b981613e41565b9050919050565b600060208201905081810360008301526147d981613e64565b9050919050565b600060208201905081810360008301526147f981613e87565b9050919050565b6000602082019050818103600083015261481981613eaa565b9050919050565b6000602082019050818103600083015261483981613f59565b9050919050565b6000602082019050818103600083015261485981613f7c565b9050919050565b6000602082019050818103600083015261487981613fc2565b9050919050565b6000602082019050818103600083015261489981613fe5565b9050919050565b600060208201905081810360008301526148b981614008565b9050919050565b600060208201905081810360008301526148d98161404e565b9050919050565b600060208201905081810360008301526148f981614094565b9050919050565b60006020820190508181036000830152614919816140da565b9050919050565b6000602082019050818103600083015261493981614120565b9050919050565b6000602082019050818103600083015261495981614143565b9050919050565b6000602082019050818103600083015261497981614166565b9050919050565b6000602082019050818103600083015261499981614189565b9050919050565b600060208201905081810360008301526149b9816141f2565b9050919050565b60006020820190506149d5600083018461427e565b92915050565b6000610140820190506149f1600083018d61427e565b8181036020830152614a03818c613b61565b9050614a12604083018b61427e565b614a1f606083018a61427e565b614a2c608083018961427e565b614a3960a083018861427e565b614a4660c083018761427e565b614a5360e083018661427e565b614a6161010083018561427e565b614a6f61012083018461427e565b9b9a5050505050505050505050565b6000604082019050614a93600083018561427e565b614aa0602083018461427e565b9392505050565b6000614ab1614ac2565b9050614abd8282614d78565b919050565b6000604051905090565b600067ffffffffffffffff821115614ae757614ae6614ec4565b5b614af082614ef3565b9050602081019050919050565b600067ffffffffffffffff821115614b1857614b17614ec4565b5b614b2182614ef3565b9050602081019050919050565b600081519050919050565b600081519050919050565b600082825260208201905092915050565b600082825260208201905092915050565b600081905092915050565b6000614b7c82614cfa565b9150614b8783614cfa565b9250827fffffffffffffffffffffffffffffffffffffffffffffffffffffffffffffffff03821115614bbc57614bbb614e37565b5b828201905092915050565b6000614bd282614cfa565b9150614bdd83614cfa565b925082614bed57614bec614e66565b5b828204905092915050565b6000614c0382614cfa565b9150614c0e83614cfa565b9250817fffffffffffffffffffffffffffffffffffffffffffffffffffffffffffffffff0483118215151615614c4757614c46614e37565b5b828202905092915050565b6000614c5d82614cfa565b9150614c6883614cfa565b925082821015614c7b57614c7a614e37565b5b828203905092915050565b6000614c9182614cda565b9050919050565b60008115159050919050565b6000819050919050565b60007fffffffff0000000000000000000000000000000000000000000000000000000082169050919050565b600073ffffffffffffffffffffffffffffffffffffffff82169050919050565b6000819050919050565b82818337600083830152505050565b60005b83811015614d31578082015181840152602081019050614d16565b83811115614d40576000848401525b50505050565b60006002820490506001821680614d5e57607f821691505b60208210811415614d7257614d71614e95565b5b50919050565b614d8182614ef3565b810181811067ffffffffffffffff82111715614da057614d9f614ec4565b5b80604052505050565b6000614db482614cfa565b91507fffffffffffffffffffffffffffffffffffffffffffffffffffffffffffffffff821415614de757614de6614e37565b5b600182019050919050565b6000819050919050565b6000819050919050565b6000614e1182614cfa565b9150614e1c83614cfa565b925082614e2c57614e2b614e66565b5b828206905092915050565b7f4e487b7100000000000000000000000000000000000000000000000000000000600052601160045260246000fd5b7f4e487b7100000000000000000000000000000000000000000000000000000000600052601260045260246000fd5b7f4e487b7100000000000000000000000000000000000000000000000000000000600052602260045260246000fd5b7f4e487b7100000000000000000000000000000000000000000000000000000000600052604160045260246000fd5b6000601f19601f8301169050919050565b7f7d2c7b2274726169745f74797065223a2022496e74656c6c6967656e6365222c60008201527f20226d61785f76616c7565223a20313030302c202276616c7565223a20000000602082015250565b7f746f6b656e20686173206e6f74206265656e206d696e74656420796574000000600082015250565b7f4552433732313a207472616e7366657220746f206e6f6e20455243373231526560008201527f63656976657220696d706c656d656e7465720000000000000000000000000000602082015250565b7f7d2c7b2274726169745f74797065223a2022446578746572697479222c20226d60008201527f61785f76616c7565223a20313030302c202276616c7565223a20000000000000602082015250565b7f4f776e61626c653a206e6577206f776e657220697320746865207a65726f206160008201527f6464726573730000000000000000000000000000000000000000000000000000602082015250565b7f426c6f6f6453706f727420230000000000000000000000000000000000000000600082015250565b7f4552433732313a20746f6b656e20616c7265616479206d696e74656400000000600082015250565b7f3c2f746578743e3c7465787420783d273530252720793d27363225273e53747260008201527f656e6774683a2000000000000000000000000000000000000000000000000000602082015250565b7f3c73766720786d6c6e733d27687474703a2f2f7777772e77332e6f72672f323060008201527f30302f73766727206865696768743d27353030272077696474683d273530302760208201527f20746578742d616e63686f723d276d6964646c65272066696c6c3d277768697460408201527f652720666f6e742d73697a653d27312e35656d273e3c7265637420776964746860608201527f3d2735303027206865696768743d2735303027207374796c653d2766696c6c3a60808201527f626c61636b3b272f3e3c7465787420783d273530252720793d2732302527206660a08201527f6f6e742d73697a653d2732656d273e000000000000000000000000000000000060c082015250565b7f3c2f746578743e3c7465787420783d273530252720793d27383225273e44757260008201527f6162696c6974793a200000000000000000000000000000000000000000000000602082015250565b7f7d2c7b2274726169745f74797065223a20224850222c20226d61785f76616c7560008201527f65223a20323030302c202276616c7565223a2000000000000000000000000000602082015250565b7f4552433732313a207472616e7366657220746f20746865207a65726f2061646460008201527f7265737300000000000000000000000000000000000000000000000000000000602082015250565b7f4552433732313a20617070726f766520746f2063616c6c657200000000000000600082015250565b7f746f6b656e55524920697320616c726561647920736574000000000000000000600082015250565b7f3c2f746578743e3c7465787420783d273530252720793d273435252720666f6e60008201527f742d73697a653d27312e35656d273e57696e733a200000000000000000000000602082015250565b7f4552433732313a206f70657261746f7220717565727920666f72206e6f6e657860008201527f697374656e7420746f6b656e0000000000000000000000000000000000000000602082015250565b7f3c2f746578743e3c2f7376673e00000000000000000000000000000000000000600082015250565b7f222c226465736372697074696f6e223a2022416e204e4654206669676874696e60008201527f672067616d65222c000000000000000000000000000000000000000000000000602082015250565b7f4552433732313a20617070726f76652063616c6c6572206973206e6f74206f7760008201527f6e6572206e6f7220617070726f76656420666f7220616c6c0000000000000000602082015250565b7f4552433732313a2062616c616e636520717565727920666f7220746865207a6560008201527f726f206164647265737300000000000000000000000000000000000000000000602082015250565b7f4552433732313a206f776e657220717565727920666f72206e6f6e657869737460008201527f656e7420746f6b656e0000000000000000000000000000000000000000000000602082015250565b7f45524337323155524953746f726167653a2055524920736574206f66206e6f6e60008201527f6578697374656e7420746f6b656e000000000000000000000000000000000000602082015250565b7f7d5d2c2022696d616765223a2022000000000000000000000000000000000000600082015250565b7f3c2f746578743e3c7465787420783d273530252720793d27373225273e41676960008201527f6c6974793a200000000000000000000000000000000000000000000000000000602082015250565b7f227d000000000000000000000000000000000000000000000000000000000000600082015250565b7f7d2c7b2274726169745f74797065223a20224475726162696c697479222c202260008201527f6d61785f76616c7565223a20313030302c202276616c7565223a200000000000602082015250565b7f4552433732313a206d696e7420746f20746865207a65726f2061646472657373600082015250565b7f45524337323155524953746f726167653a2055524920717565727920666f722060008201527f6e6f6e6578697374656e7420746f6b656e000000000000000000000000000000602082015250565b7f7b2274726169745f74797065223a20224c6576656c222c20226d61785f76616c60008201527f7565223a203130302c202276616c7565223a2000000000000000000000000000602082015250565b7f4552433732313a20617070726f76656420717565727920666f72206e6f6e657860008201527f697374656e7420746f6b656e0000000000000000000000000000000000000000602082015250565b7f4f776e61626c653a2063616c6c6572206973206e6f7420746865206f776e6572600082015250565b7f4d696e74696e67206973206e6f74206163746976650000000000000000000000600082015250565b7f7d2c7b2274726169745f74797065223a2022537472656e677468222c20226d6160008201527f785f76616c7565223a20313030302c202276616c7565223a2000000000000000602082015250565b7f4552433732313a207472616e73666572206f6620746f6b656e2074686174206960008201527f73206e6f74206f776e0000000000000000000000000000000000000000000000602082015250565b7f3c2f746578743e3c7465787420783d273530252720793d27373725273e496e7460008201527f656c6c6967656e63653a20000000000000000000000000000000000000000000602082015250565b7f4552433732314d657461646174613a2055524920717565727920666f72206e6f60008201527f6e6578697374656e7420746f6b656e0000000000000000000000000000000000602082015250565b7f7b226e616d65223a202200000000000000000000000000000000000000000000600082015250565b7f4f6e6c7920565246436f6f7264696e61746f722063616e2066756c66696c6c00600082015250565b7f3c2f746578743e3c7465787420783d273530252720793d27363725273e44657860008201527f7465726974793a20000000000000000000000000000000000000000000000000602082015250565b7f4552433732313a20617070726f76616c20746f2063757272656e74206f776e6560008201527f7200000000000000000000000000000000000000000000000000000000000000602082015250565b7f436861696e4c696e6b20565246206973206e6f74207265616479000000000000600082015250565b7f4f6e6c7920547261696e696e6720436f6e74726163742063616e20757064617460008201527f6520466967687465720000000000000000000000000000000000000000000000602082015250565b7f4552433732313a207472616e736665722063616c6c6572206973206e6f74206f60008201527f776e6572206e6f7220617070726f766564000000000000000000000000000000602082015250565b7f7d2c7b2274726169745f74797065223a202257696e73222c202276616c75652260008201527f3a20000000000000000000000000000000000000000000000000000000000000602082015250565b7f3c2f746578743e3c6c696e652078313d27323025272079313d2732372527207860008201527f323d27383025272079323d2732372527207374796c653d277374726f6b653a7760208201527f68697465272f3e3c7465787420783d273530252720793d273337252720666f6e60408201527f742d73697a653d27312e35656d273e4c6576656c3a2000000000000000000000606082015250565b7f4d696e74696e67206973206f7665720000000000000000000000000000000000600082015250565b7f3c2f746578743e3c6c696e652078313d27323025272079313d2735302527207860008201527f323d27383025272079323d2735302527207374796c653d277374726f6b653a7760208201527f68697465272f3e3c7465787420783d273530252720793d27353725273e48503a60408201527f2000000000000000000000000000000000000000000000000000000000000000606082015250565b7f2261747472696275746573223a5b000000000000000000000000000000000000600082015250565b7f7d2c7b2274726169745f74797065223a20224167696c697479222c20226d617860008201527f5f76616c7565223a20313030302c202276616c7565223a200000000000000000602082015250565b615d2281614c86565b8114615d2d57600080fd5b50565b615d3981614c98565b8114615d4457600080fd5b50565b615d5081614ca4565b8114615d5b57600080fd5b50565b615d6781614cae565b8114615d7257600080fd5b50565b615d7e81614cfa565b8114615d8957600080fd5b5056fe4142434445464748494a4b4c4d4e4f505152535455565758595a6162636465666768696a6b6c6d6e6f707172737475767778797a303132333435363738392b2fa2646970667358221220cbbf68c62c3ffc5c63fad740436850cc52248f1c2f662dcdfd0a0d7f5194fe8264736f6c63430008040033",
  "devdoc": {
    "kind": "dev",
    "methods": {
      "approve(address,uint256)": {
        "details": "See {IERC721-approve}."
      },
      "balanceOf(address)": {
        "details": "See {IERC721-balanceOf}."
      },
      "getApproved(uint256)": {
        "details": "See {IERC721-getApproved}."
      },
      "isApprovedForAll(address,address)": {
        "details": "See {IERC721-isApprovedForAll}."
      },
      "name()": {
        "details": "See {IERC721Metadata-name}."
      },
      "owner()": {
        "details": "Returns the address of the current owner."
      },
      "ownerOf(uint256)": {
        "details": "See {IERC721-ownerOf}."
      },
      "renounceOwnership()": {
        "details": "Leaves the contract without owner. It will not be possible to call `onlyOwner` functions anymore. Can only be called by the current owner. NOTE: Renouncing ownership will leave the contract without an owner, thereby removing any functionality that is only available to the owner."
      },
      "safeTransferFrom(address,address,uint256)": {
        "details": "See {IERC721-safeTransferFrom}."
      },
      "safeTransferFrom(address,address,uint256,bytes)": {
        "details": "See {IERC721-safeTransferFrom}."
      },
      "setApprovalForAll(address,bool)": {
        "details": "See {IERC721-setApprovalForAll}."
      },
      "supportsInterface(bytes4)": {
        "details": "See {IERC165-supportsInterface}."
      },
      "symbol()": {
        "details": "See {IERC721Metadata-symbol}."
      },
      "tokenURI(uint256)": {
        "details": "See {IERC721Metadata-tokenURI}."
      },
      "transferFrom(address,address,uint256)": {
        "details": "See {IERC721-transferFrom}."
      },
      "transferOwnership(address)": {
        "details": "Transfers ownership of the contract to a new account (`newOwner`). Can only be called by the current owner."
      }
    },
    "version": 1
  },
  "userdoc": {
    "kind": "user",
    "methods": {},
    "version": 1
  },
  "storageLayout": {
    "storage": [
      {
        "astId": 395,
        "contract": "contracts/NFT.sol:NFT",
        "label": "_name",
        "offset": 0,
        "slot": "0",
        "type": "t_string_storage"
      },
      {
        "astId": 397,
        "contract": "contracts/NFT.sol:NFT",
        "label": "_symbol",
        "offset": 0,
        "slot": "1",
        "type": "t_string_storage"
      },
      {
        "astId": 401,
        "contract": "contracts/NFT.sol:NFT",
        "label": "_owners",
        "offset": 0,
        "slot": "2",
        "type": "t_mapping(t_uint256,t_address)"
      },
      {
        "astId": 405,
        "contract": "contracts/NFT.sol:NFT",
        "label": "_balances",
        "offset": 0,
        "slot": "3",
        "type": "t_mapping(t_address,t_uint256)"
      },
      {
        "astId": 409,
        "contract": "contracts/NFT.sol:NFT",
        "label": "_tokenApprovals",
        "offset": 0,
        "slot": "4",
        "type": "t_mapping(t_uint256,t_address)"
      },
      {
        "astId": 415,
        "contract": "contracts/NFT.sol:NFT",
        "label": "_operatorApprovals",
        "offset": 0,
        "slot": "5",
        "type": "t_mapping(t_address,t_mapping(t_address,t_bool))"
      },
      {
        "astId": 1332,
        "contract": "contracts/NFT.sol:NFT",
        "label": "_tokenURIs",
        "offset": 0,
        "slot": "6",
        "type": "t_mapping(t_uint256,t_string_storage)"
      },
      {
        "astId": 273,
        "contract": "contracts/NFT.sol:NFT",
        "label": "_owner",
        "offset": 0,
        "slot": "7",
        "type": "t_address"
      },
      {
        "astId": 79,
        "contract": "contracts/NFT.sol:NFT",
        "label": "nonces",
        "offset": 0,
        "slot": "8",
        "type": "t_mapping(t_bytes32,t_uint256)"
      },
      {
        "astId": 2123,
        "contract": "contracts/NFT.sol:NFT",
        "label": "tokenCounter",
        "offset": 0,
        "slot": "9",
        "type": "t_uint256"
      },
      {
        "astId": 2125,
        "contract": "contracts/NFT.sol:NFT",
        "label": "fee",
        "offset": 0,
        "slot": "10",
        "type": "t_uint256"
      },
      {
        "astId": 2127,
        "contract": "contracts/NFT.sol:NFT",
        "label": "keyHash",
        "offset": 0,
        "slot": "11",
        "type": "t_bytes32"
      },
      {
        "astId": 2129,
        "contract": "contracts/NFT.sol:NFT",
        "label": "trainingContract",
        "offset": 0,
        "slot": "12",
        "type": "t_address"
      },
      {
        "astId": 2131,
        "contract": "contracts/NFT.sol:NFT",
        "label": "fightingContract",
        "offset": 0,
        "slot": "13",
        "type": "t_address"
      },
      {
        "astId": 2133,
        "contract": "contracts/NFT.sol:NFT",
        "label": "cost",
        "offset": 0,
        "slot": "14",
        "type": "t_uint256"
      },
      {
        "astId": 2135,
        "contract": "contracts/NFT.sol:NFT",
        "label": "maxSupply",
        "offset": 0,
        "slot": "15",
        "type": "t_uint256"
      },
      {
        "astId": 2137,
        "contract": "contracts/NFT.sol:NFT",
        "label": "paused",
        "offset": 0,
        "slot": "16",
        "type": "t_bool"
      },
      {
        "astId": 2142,
        "contract": "contracts/NFT.sol:NFT",
        "label": "tokenIdToFighter",
        "offset": 0,
        "slot": "17",
        "type": "t_mapping(t_uint256,t_struct(Fighter)2175_storage)"
      },
      {
        "astId": 2146,
        "contract": "contracts/NFT.sol:NFT",
        "label": "requestIdToSender",
        "offset": 0,
        "slot": "18",
        "type": "t_mapping(t_bytes32,t_address)"
      },
      {
        "astId": 2150,
        "contract": "contracts/NFT.sol:NFT",
        "label": "requestIdToTokenId",
        "offset": 0,
        "slot": "19",
        "type": "t_mapping(t_bytes32,t_uint256)"
      },
      {
        "astId": 2154,
        "contract": "contracts/NFT.sol:NFT",
        "label": "tokenIdToRandomNumber",
        "offset": 0,
        "slot": "20",
        "type": "t_mapping(t_uint256,t_uint256)"
      }
    ],
    "types": {
      "t_address": {
        "encoding": "inplace",
        "label": "address",
        "numberOfBytes": "20"
      },
      "t_bool": {
        "encoding": "inplace",
        "label": "bool",
        "numberOfBytes": "1"
      },
      "t_bytes32": {
        "encoding": "inplace",
        "label": "bytes32",
        "numberOfBytes": "32"
      },
      "t_mapping(t_address,t_bool)": {
        "encoding": "mapping",
        "key": "t_address",
        "label": "mapping(address => bool)",
        "numberOfBytes": "32",
        "value": "t_bool"
      },
      "t_mapping(t_address,t_mapping(t_address,t_bool))": {
        "encoding": "mapping",
        "key": "t_address",
        "label": "mapping(address => mapping(address => bool))",
        "numberOfBytes": "32",
        "value": "t_mapping(t_address,t_bool)"
      },
      "t_mapping(t_address,t_uint256)": {
        "encoding": "mapping",
        "key": "t_address",
        "label": "mapping(address => uint256)",
        "numberOfBytes": "32",
        "value": "t_uint256"
      },
      "t_mapping(t_bytes32,t_address)": {
        "encoding": "mapping",
        "key": "t_bytes32",
        "label": "mapping(bytes32 => address)",
        "numberOfBytes": "32",
        "value": "t_address"
      },
      "t_mapping(t_bytes32,t_uint256)": {
        "encoding": "mapping",
        "key": "t_bytes32",
        "label": "mapping(bytes32 => uint256)",
        "numberOfBytes": "32",
        "value": "t_uint256"
      },
      "t_mapping(t_uint256,t_address)": {
        "encoding": "mapping",
        "key": "t_uint256",
        "label": "mapping(uint256 => address)",
        "numberOfBytes": "32",
        "value": "t_address"
      },
      "t_mapping(t_uint256,t_string_storage)": {
        "encoding": "mapping",
        "key": "t_uint256",
        "label": "mapping(uint256 => string)",
        "numberOfBytes": "32",
        "value": "t_string_storage"
      },
      "t_mapping(t_uint256,t_struct(Fighter)2175_storage)": {
        "encoding": "mapping",
        "key": "t_uint256",
        "label": "mapping(uint256 => struct NFT.Fighter)",
        "numberOfBytes": "32",
        "value": "t_struct(Fighter)2175_storage"
      },
      "t_mapping(t_uint256,t_uint256)": {
        "encoding": "mapping",
        "key": "t_uint256",
        "label": "mapping(uint256 => uint256)",
        "numberOfBytes": "32",
        "value": "t_uint256"
      },
      "t_string_storage": {
        "encoding": "bytes",
        "label": "string",
        "numberOfBytes": "32"
      },
      "t_struct(Fighter)2175_storage": {
        "encoding": "inplace",
        "label": "struct NFT.Fighter",
        "members": [
          {
            "astId": 2156,
            "contract": "contracts/NFT.sol:NFT",
            "label": "tokenId",
            "offset": 0,
            "slot": "0",
            "type": "t_uint256"
          },
          {
            "astId": 2158,
            "contract": "contracts/NFT.sol:NFT",
            "label": "name",
            "offset": 0,
            "slot": "1",
            "type": "t_string_storage"
          },
          {
            "astId": 2160,
            "contract": "contracts/NFT.sol:NFT",
            "label": "level",
            "offset": 0,
            "slot": "2",
            "type": "t_uint256"
          },
          {
            "astId": 2162,
            "contract": "contracts/NFT.sol:NFT",
            "label": "wins",
            "offset": 0,
            "slot": "3",
            "type": "t_uint256"
          },
          {
            "astId": 2164,
            "contract": "contracts/NFT.sol:NFT",
            "label": "hp",
            "offset": 0,
            "slot": "4",
            "type": "t_uint256"
          },
          {
            "astId": 2166,
            "contract": "contracts/NFT.sol:NFT",
            "label": "strength",
            "offset": 0,
            "slot": "5",
            "type": "t_uint256"
          },
          {
            "astId": 2168,
            "contract": "contracts/NFT.sol:NFT",
            "label": "dexterity",
            "offset": 0,
            "slot": "6",
            "type": "t_uint256"
          },
          {
            "astId": 2170,
            "contract": "contracts/NFT.sol:NFT",
            "label": "agility",
            "offset": 0,
            "slot": "7",
            "type": "t_uint256"
          },
          {
            "astId": 2172,
            "contract": "contracts/NFT.sol:NFT",
            "label": "intelligence",
            "offset": 0,
            "slot": "8",
            "type": "t_uint256"
          },
          {
            "astId": 2174,
            "contract": "contracts/NFT.sol:NFT",
            "label": "durability",
            "offset": 0,
            "slot": "9",
            "type": "t_uint256"
          }
        ],
        "numberOfBytes": "320"
      },
      "t_uint256": {
        "encoding": "inplace",
        "label": "uint256",
        "numberOfBytes": "32"
      }
    }
  }
}