{
  "address": "0x3FfF0ECd1F28715d74353C899E6fa2cc193141cc",
  "abi": [
    {
      "inputs": [
        {
          "internalType": "address",
          "name": "_VRFCoordinator",
          "type": "address"
        },
        {
          "internalType": "address",
          "name": "_linkToken",
          "type": "address"
        },
        {
          "internalType": "bytes32",
          "name": "_keyHash",
          "type": "bytes32"
        },
        {
          "internalType": "uint256",
          "name": "_fee",
          "type": "uint256"
        }
      ],
      "stateMutability": "nonpayable",
      "type": "constructor"
    },
    {
      "anonymous": false,
      "inputs": [
        {
          "indexed": true,
          "internalType": "address",
          "name": "owner",
          "type": "address"
        },
        {
          "indexed": true,
          "internalType": "address",
          "name": "approved",
          "type": "address"
        },
        {
          "indexed": true,
          "internalType": "uint256",
          "name": "tokenId",
          "type": "uint256"
        }
      ],
      "name": "Approval",
      "type": "event"
    },
    {
      "anonymous": false,
      "inputs": [
        {
          "indexed": true,
          "internalType": "address",
          "name": "owner",
          "type": "address"
        },
        {
          "indexed": true,
          "internalType": "address",
          "name": "operator",
          "type": "address"
        },
        {
          "indexed": false,
          "internalType": "bool",
          "name": "approved",
          "type": "bool"
        }
      ],
      "name": "ApprovalForAll",
      "type": "event"
    },
    {
      "anonymous": false,
      "inputs": [
        {
          "indexed": true,
          "internalType": "uint256",
          "name": "tokenId",
          "type": "uint256"
        },
        {
          "indexed": false,
          "internalType": "string",
          "name": "tokenURL",
          "type": "string"
        }
      ],
      "name": "CreatedNFT",
      "type": "event"
    },
    {
      "anonymous": false,
      "inputs": [
        {
          "indexed": true,
          "internalType": "uint256",
          "name": "tokenId",
          "type": "uint256"
        },
        {
          "indexed": true,
          "internalType": "uint256",
          "name": "randomNumber",
          "type": "uint256"
        }
      ],
      "name": "CreatedUnfinishedRandomSVG",
      "type": "event"
    },
    {
      "anonymous": false,
      "inputs": [
        {
          "indexed": true,
          "internalType": "address",
          "name": "previousOwner",
          "type": "address"
        },
        {
          "indexed": true,
          "internalType": "address",
          "name": "newOwner",
          "type": "address"
        }
      ],
      "name": "OwnershipTransferred",
      "type": "event"
    },
    {
      "anonymous": false,
      "inputs": [
        {
          "indexed": true,
          "internalType": "bytes32",
          "name": "requestId",
          "type": "bytes32"
        },
        {
          "indexed": true,
          "internalType": "uint256",
          "name": "tokenId",
          "type": "uint256"
        }
      ],
      "name": "RequestedRandomSVG",
      "type": "event"
    },
    {
      "anonymous": false,
      "inputs": [
        {
          "indexed": true,
          "internalType": "address",
          "name": "from",
          "type": "address"
        },
        {
          "indexed": true,
          "internalType": "address",
          "name": "to",
          "type": "address"
        },
        {
          "indexed": true,
          "internalType": "uint256",
          "name": "tokenId",
          "type": "uint256"
        }
      ],
      "name": "Transfer",
      "type": "event"
    },
    {
      "anonymous": false,
      "inputs": [
        {
          "indexed": true,
          "internalType": "uint256",
          "name": "tokenId",
          "type": "uint256"
        },
        {
          "indexed": false,
          "internalType": "string",
          "name": "tokenURL",
          "type": "string"
        }
      ],
      "name": "UpdatedNFT",
      "type": "event"
    },
    {
      "inputs": [
        {
          "internalType": "address",
          "name": "to",
          "type": "address"
        },
        {
          "internalType": "uint256",
          "name": "tokenId",
          "type": "uint256"
        }
      ],
      "name": "approve",
      "outputs": [],
      "stateMutability": "nonpayable",
      "type": "function"
    },
    {
      "inputs": [
        {
          "internalType": "address",
          "name": "owner",
          "type": "address"
        }
      ],
      "name": "balanceOf",
      "outputs": [
        {
          "internalType": "uint256",
          "name": "",
          "type": "uint256"
        }
      ],
      "stateMutability": "view",
      "type": "function"
    },
    {
      "inputs": [],
      "name": "create",
      "outputs": [
        {
          "internalType": "bytes32",
          "name": "requestId",
          "type": "bytes32"
        }
      ],
      "stateMutability": "payable",
      "type": "function"
    },
    {
      "inputs": [],
      "name": "fee",
      "outputs": [
        {
          "internalType": "uint256",
          "name": "",
          "type": "uint256"
        }
      ],
      "stateMutability": "view",
      "type": "function"
    },
    {
      "inputs": [
        {
          "internalType": "uint256",
          "name": "_tokenId",
          "type": "uint256"
        }
      ],
      "name": "finishMint",
      "outputs": [],
      "stateMutability": "nonpayable",
      "type": "function"
    },
    {
      "inputs": [
        {
          "internalType": "uint256",
          "name": "tokenId",
          "type": "uint256"
        }
      ],
      "name": "getApproved",
      "outputs": [
        {
          "internalType": "address",
          "name": "",
          "type": "address"
        }
      ],
      "stateMutability": "view",
      "type": "function"
    },
    {
      "inputs": [
        {
          "internalType": "uint256",
          "name": "_tokenId",
          "type": "uint256"
        }
      ],
      "name": "getFighterById",
      "outputs": [
        {
          "components": [
            {
              "internalType": "uint256",
              "name": "tokenId",
              "type": "uint256"
            },
            {
              "internalType": "string",
              "name": "name",
              "type": "string"
            },
            {
              "internalType": "uint256",
              "name": "level",
              "type": "uint256"
            },
            {
              "internalType": "uint256",
              "name": "wins",
              "type": "uint256"
            },
            {
              "internalType": "uint256",
              "name": "hp",
              "type": "uint256"
            },
            {
              "internalType": "uint256",
              "name": "strength",
              "type": "uint256"
            },
            {
              "internalType": "uint256",
              "name": "dexterity",
              "type": "uint256"
            },
            {
              "internalType": "uint256",
              "name": "agility",
              "type": "uint256"
            },
            {
              "internalType": "uint256",
              "name": "intelligence",
              "type": "uint256"
            },
            {
              "internalType": "uint256",
              "name": "durability",
              "type": "uint256"
            }
          ],
          "internalType": "struct lib.Fighter",
          "name": "_fighter",
          "type": "tuple"
        }
      ],
      "stateMutability": "view",
      "type": "function"
    },
    {
      "inputs": [
        {
          "internalType": "address",
          "name": "owner",
          "type": "address"
        },
        {
          "internalType": "address",
          "name": "operator",
          "type": "address"
        }
      ],
      "name": "isApprovedForAll",
      "outputs": [
        {
          "internalType": "bool",
          "name": "",
          "type": "bool"
        }
      ],
      "stateMutability": "view",
      "type": "function"
    },
    {
      "inputs": [],
      "name": "keyHash",
      "outputs": [
        {
          "internalType": "bytes32",
          "name": "",
          "type": "bytes32"
        }
      ],
      "stateMutability": "view",
      "type": "function"
    },
    {
      "inputs": [],
      "name": "name",
      "outputs": [
        {
          "internalType": "string",
          "name": "",
          "type": "string"
        }
      ],
      "stateMutability": "view",
      "type": "function"
    },
    {
      "inputs": [],
      "name": "owner",
      "outputs": [
        {
          "internalType": "address",
          "name": "",
          "type": "address"
        }
      ],
      "stateMutability": "view",
      "type": "function"
    },
    {
      "inputs": [
        {
          "internalType": "uint256",
          "name": "tokenId",
          "type": "uint256"
        }
      ],
      "name": "ownerOf",
      "outputs": [
        {
          "internalType": "address",
          "name": "",
          "type": "address"
        }
      ],
      "stateMutability": "view",
      "type": "function"
    },
    {
      "inputs": [
        {
          "internalType": "bytes32",
          "name": "requestId",
          "type": "bytes32"
        },
        {
          "internalType": "uint256",
          "name": "randomness",
          "type": "uint256"
        }
      ],
      "name": "rawFulfillRandomness",
      "outputs": [],
      "stateMutability": "nonpayable",
      "type": "function"
    },
    {
      "inputs": [],
      "name": "renounceOwnership",
      "outputs": [],
      "stateMutability": "nonpayable",
      "type": "function"
    },
    {
      "inputs": [
        {
          "internalType": "address",
          "name": "from",
          "type": "address"
        },
        {
          "internalType": "address",
          "name": "to",
          "type": "address"
        },
        {
          "internalType": "uint256",
          "name": "tokenId",
          "type": "uint256"
        }
      ],
      "name": "safeTransferFrom",
      "outputs": [],
      "stateMutability": "nonpayable",
      "type": "function"
    },
    {
      "inputs": [
        {
          "internalType": "address",
          "name": "from",
          "type": "address"
        },
        {
          "internalType": "address",
          "name": "to",
          "type": "address"
        },
        {
          "internalType": "uint256",
          "name": "tokenId",
          "type": "uint256"
        },
        {
          "internalType": "bytes",
          "name": "_data",
          "type": "bytes"
        }
      ],
      "name": "safeTransferFrom",
      "outputs": [],
      "stateMutability": "nonpayable",
      "type": "function"
    },
    {
      "inputs": [
        {
          "internalType": "address",
          "name": "operator",
          "type": "address"
        },
        {
          "internalType": "bool",
          "name": "approved",
          "type": "bool"
        }
      ],
      "name": "setApprovalForAll",
      "outputs": [],
      "stateMutability": "nonpayable",
      "type": "function"
    },
    {
      "inputs": [
        {
          "internalType": "bytes4",
          "name": "interfaceId",
          "type": "bytes4"
        }
      ],
      "name": "supportsInterface",
      "outputs": [
        {
          "internalType": "bool",
          "name": "",
          "type": "bool"
        }
      ],
      "stateMutability": "view",
      "type": "function"
    },
    {
      "inputs": [],
      "name": "symbol",
      "outputs": [
        {
          "internalType": "string",
          "name": "",
          "type": "string"
        }
      ],
      "stateMutability": "view",
      "type": "function"
    },
    {
      "inputs": [],
      "name": "tokenCounter",
      "outputs": [
        {
          "internalType": "uint256",
          "name": "",
          "type": "uint256"
        }
      ],
      "stateMutability": "view",
      "type": "function"
    },
    {
      "inputs": [
        {
          "internalType": "uint256",
          "name": "",
          "type": "uint256"
        }
      ],
      "name": "tokenIdToFighter",
      "outputs": [
        {
          "internalType": "uint256",
          "name": "tokenId",
          "type": "uint256"
        },
        {
          "internalType": "string",
          "name": "name",
          "type": "string"
        },
        {
          "internalType": "uint256",
          "name": "level",
          "type": "uint256"
        },
        {
          "internalType": "uint256",
          "name": "wins",
          "type": "uint256"
        },
        {
          "internalType": "uint256",
          "name": "hp",
          "type": "uint256"
        },
        {
          "internalType": "uint256",
          "name": "strength",
          "type": "uint256"
        },
        {
          "internalType": "uint256",
          "name": "dexterity",
          "type": "uint256"
        },
        {
          "internalType": "uint256",
          "name": "agility",
          "type": "uint256"
        },
        {
          "internalType": "uint256",
          "name": "intelligence",
          "type": "uint256"
        },
        {
          "internalType": "uint256",
          "name": "durability",
          "type": "uint256"
        }
      ],
      "stateMutability": "view",
      "type": "function"
    },
    {
      "inputs": [
        {
          "internalType": "uint256",
          "name": "tokenId",
          "type": "uint256"
        }
      ],
      "name": "tokenURI",
      "outputs": [
        {
          "internalType": "string",
          "name": "",
          "type": "string"
        }
      ],
      "stateMutability": "view",
      "type": "function"
    },
    {
      "inputs": [],
      "name": "totalSupply",
      "outputs": [
        {
          "internalType": "uint256",
          "name": "",
          "type": "uint256"
        }
      ],
      "stateMutability": "view",
      "type": "function"
    },
    {
      "inputs": [
        {
          "internalType": "address",
          "name": "from",
          "type": "address"
        },
        {
          "internalType": "address",
          "name": "to",
          "type": "address"
        },
        {
          "internalType": "uint256",
          "name": "tokenId",
          "type": "uint256"
        }
      ],
      "name": "transferFrom",
      "outputs": [],
      "stateMutability": "nonpayable",
      "type": "function"
    },
    {
      "inputs": [
        {
          "internalType": "address",
          "name": "newOwner",
          "type": "address"
        }
      ],
      "name": "transferOwnership",
      "outputs": [],
      "stateMutability": "nonpayable",
      "type": "function"
    },
    {
      "inputs": [
        {
          "internalType": "uint256",
          "name": "_tokenId",
          "type": "uint256"
        },
        {
          "components": [
            {
              "internalType": "uint256",
              "name": "tokenId",
              "type": "uint256"
            },
            {
              "internalType": "string",
              "name": "name",
              "type": "string"
            },
            {
              "internalType": "uint256",
              "name": "level",
              "type": "uint256"
            },
            {
              "internalType": "uint256",
              "name": "wins",
              "type": "uint256"
            },
            {
              "internalType": "uint256",
              "name": "hp",
              "type": "uint256"
            },
            {
              "internalType": "uint256",
              "name": "strength",
              "type": "uint256"
            },
            {
              "internalType": "uint256",
              "name": "dexterity",
              "type": "uint256"
            },
            {
              "internalType": "uint256",
              "name": "agility",
              "type": "uint256"
            },
            {
              "internalType": "uint256",
              "name": "intelligence",
              "type": "uint256"
            },
            {
              "internalType": "uint256",
              "name": "durability",
              "type": "uint256"
            }
          ],
          "internalType": "struct lib.Fighter",
          "name": "_fighter",
          "type": "tuple"
        }
      ],
      "name": "updateFighter",
      "outputs": [],
      "stateMutability": "nonpayable",
      "type": "function"
    }
  ],
  "transactionHash": "0xf51847179f5f648f3e4e4a511807a870ad790c579f6aee467b2952dbc04f1d1b",
  "args": [
    "0xb3dCcb4Cf7a26f6cf6B120Cf5A73875B7BBc655B",
    "0x01be23585060835e02b77ef475b0cc51aa1e0709",
    "0x2ed0feb3e7fd2022120aa84fab1945545a9f2ffc9076fd6156fa96eaff4c1311",
    "100000000000000000"
  ],
  "solcInputHash": "1b31cf6af7bf3aee4d94f65432f4520e",
  "bytecode": "0x60c06040523480156200001157600080fd5b50604051620063c2380380620063c283398181016040528101906200003791906200037e565b83836040518060400160405280600a81526020017f426c6f6f6453706f7274000000000000000000000000000000000000000000008152506040518060400160405280600381526020017f424c4400000000000000000000000000000000000000000000000000000000008152508160009080519060200190620000bd92919062000289565b508060019080519060200190620000d692919062000289565b505050620000f9620000ed620001bb60201b60201c565b620001c360201b60201c565b8173ffffffffffffffffffffffffffffffffffffffff1660a08173ffffffffffffffffffffffffffffffffffffffff1660601b815250508073ffffffffffffffffffffffffffffffffffffffff1660808173ffffffffffffffffffffffffffffffffffffffff1660601b81525050505080600a8190555081600b819055506001600981905550662386f26fc10000600e81905550612710600f819055506000601060006101000a81548160ff02191690831515021790555050505050620004e5565b600033905090565b6000600760009054906101000a900473ffffffffffffffffffffffffffffffffffffffff16905081600760006101000a81548173ffffffffffffffffffffffffffffffffffffffff021916908373ffffffffffffffffffffffffffffffffffffffff1602179055508173ffffffffffffffffffffffffffffffffffffffff168173ffffffffffffffffffffffffffffffffffffffff167f8be0079c531659141344cd1fd0a4f28419497f9722a3daafe3b4186f6b6457e060405160405180910390a35050565b828054620002979062000432565b90600052602060002090601f016020900481019282620002bb576000855562000307565b82601f10620002d657805160ff191683800117855562000307565b8280016001018555821562000307579182015b8281111562000306578251825591602001919060010190620002e9565b5b5090506200031691906200031a565b5090565b5b80821115620003355760008160009055506001016200031b565b5090565b6000815190506200034a8162000497565b92915050565b6000815190506200036181620004b1565b92915050565b6000815190506200037881620004cb565b92915050565b600080600080608085870312156200039557600080fd5b6000620003a58782880162000339565b9450506020620003b88782880162000339565b9350506040620003cb8782880162000350565b9250506060620003de8782880162000367565b91505092959194509250565b6000620003f78262000408565b9050919050565b6000819050919050565b600073ffffffffffffffffffffffffffffffffffffffff82169050919050565b6000819050919050565b600060028204905060018216806200044b57607f821691505b6020821081141562000462576200046162000468565b5b50919050565b7f4e487b7100000000000000000000000000000000000000000000000000000000600052602260045260246000fd5b620004a281620003ea565b8114620004ae57600080fd5b50565b620004bc81620003fe565b8114620004c857600080fd5b50565b620004d68162000428565b8114620004e257600080fd5b50565b60805160601c60a05160601c615eaa6200051860003960008181611272015261288e015260006128520152615eaa6000f3fe6080604052600436106101815760003560e01c806370a08231116100d1578063b88d4fde1161008a578063ddca3f4311610064578063ddca3f431461059b578063e985e9c5146105c6578063efc81a8c14610603578063f2fde38b1461062157610181565b8063b88d4fde1461050a578063c87b56dd14610533578063d082e3811461057057610181565b806370a082311461040e578063715018a61461044b5780638da5cb5b1461046257806394985ddd1461048d57806395d89b41146104b6578063a22cb465146104e157610181565b80632bbce2d11161013e57806344d510701161011857806344d510701461035457806361728f391461037d578063624194c7146103a85780636352211e146103d157610181565b80632bbce2d1146102a8578063368dc9f2146102ee57806342842e0e1461032b57610181565b806301ffc9a71461018657806306fdde03146101c3578063081812fc146101ee578063095ea7b31461022b57806318160ddd1461025457806323b872dd1461027f575b600080fd5b34801561019257600080fd5b506101ad60048036038101906101a8919061394a565b61064a565b6040516101ba9190614631565b60405180910390f35b3480156101cf57600080fd5b506101d861072c565b6040516101e591906146d5565b60405180910390f35b3480156101fa57600080fd5b506102156004803603810190610210919061399c565b6107be565b604051610222919061458c565b60405180910390f35b34801561023757600080fd5b50610252600480360381019061024d91906138a9565b610843565b005b34801561026057600080fd5b5061026961095b565b6040516102769190614a39565b60405180910390f35b34801561028b57600080fd5b506102a660048036038101906102a191906137a3565b610965565b005b3480156102b457600080fd5b506102cf60048036038101906102ca919061399c565b6109c5565b6040516102e59a99989796959493929190614a54565b60405180910390f35b3480156102fa57600080fd5b506103156004803603810190610310919061399c565b610aa1565b6040516103229190614a17565b60405180910390f35b34801561033757600080fd5b50610352600480360381019061034d91906137a3565b610bbb565b005b34801561036057600080fd5b5061037b600480360381019061037691906139c5565b610bdb565b005b34801561038957600080fd5b50610392610cce565b60405161039f919061464c565b60405180910390f35b3480156103b457600080fd5b506103cf60048036038101906103ca919061399c565b610cd4565b005b3480156103dd57600080fd5b506103f860048036038101906103f3919061399c565b611054565b604051610405919061458c565b60405180910390f35b34801561041a57600080fd5b506104356004803603810190610430919061373e565b611106565b6040516104429190614a39565b60405180910390f35b34801561045757600080fd5b506104606111be565b005b34801561046e57600080fd5b50610477611246565b604051610484919061458c565b60405180910390f35b34801561049957600080fd5b506104b460048036038101906104af919061390e565b611270565b005b3480156104c257600080fd5b506104cb61130c565b6040516104d891906146d5565b60405180910390f35b3480156104ed57600080fd5b506105086004803603810190610503919061386d565b61139e565b005b34801561051657600080fd5b50610531600480360381019061052c91906137f2565b61151f565b005b34801561053f57600080fd5b5061055a6004803603810190610555919061399c565b611581565b60405161056791906146d5565b60405180910390f35b34801561057c57600080fd5b506105856116d3565b6040516105929190614a39565b60405180910390f35b3480156105a757600080fd5b506105b06116d9565b6040516105bd9190614a39565b60405180910390f35b3480156105d257600080fd5b506105ed60048036038101906105e89190613767565b6116df565b6040516105fa9190614631565b60405180910390f35b61060b611773565b604051610618919061464c565b60405180910390f35b34801561062d57600080fd5b506106486004803603810190610643919061373e565b61191b565b005b60007f80ac58cd000000000000000000000000000000000000000000000000000000007bffffffffffffffffffffffffffffffffffffffffffffffffffffffff1916827bffffffffffffffffffffffffffffffffffffffffffffffffffffffff1916148061071557507f5b5e139f000000000000000000000000000000000000000000000000000000007bffffffffffffffffffffffffffffffffffffffffffffffffffffffff1916827bffffffffffffffffffffffffffffffffffffffffffffffffffffffff1916145b80610725575061072482611a13565b5b9050919050565b60606000805461073b90614e14565b80601f016020809104026020016040519081016040528092919081815260200182805461076790614e14565b80156107b45780601f10610789576101008083540402835291602001916107b4565b820191906000526020600020905b81548152906001019060200180831161079757829003601f168201915b5050505050905090565b60006107c982611a7d565b610808576040517f08c379a00000000000000000000000000000000000000000000000000000000081526004016107ff906148b7565b60405180910390fd5b6004600083815260200190815260200160002060009054906101000a900473ffffffffffffffffffffffffffffffffffffffff169050919050565b600061084e82611054565b90508073ffffffffffffffffffffffffffffffffffffffff168373ffffffffffffffffffffffffffffffffffffffff1614156108bf576040517f08c379a00000000000000000000000000000000000000000000000000000000081526004016108b690614977565b60405180910390fd5b8073ffffffffffffffffffffffffffffffffffffffff166108de611ae9565b73ffffffffffffffffffffffffffffffffffffffff16148061090d575061090c81610907611ae9565b6116df565b5b61094c576040517f08c379a0000000000000000000000000000000000000000000000000000000008152600401610943906147f7565b60405180910390fd5b6109568383611af1565b505050565b6000600954905090565b610976610970611ae9565b82611baa565b6109b5576040517f08c379a00000000000000000000000000000000000000000000000000000000081526004016109ac906149b7565b60405180910390fd5b6109c0838383611c88565b505050565b60116020528060005260406000206000915090508060000154908060010180546109ee90614e14565b80601f0160208091040260200160405190810160405280929190818152602001828054610a1a90614e14565b8015610a675780601f10610a3c57610100808354040283529160200191610a67565b820191906000526020600020905b815481529060010190602001808311610a4a57829003601f168201915b505050505090806002015490806003015490806004015490806005015490806006015490806007015490806008015490806009015490508a565b610aa96133db565b601160008381526020019081526020016000206040518061014001604052908160008201548152602001600182018054610ae290614e14565b80601f0160208091040260200160405190810160405280929190818152602001828054610b0e90614e14565b8015610b5b5780601f10610b3057610100808354040283529160200191610b5b565b820191906000526020600020905b815481529060010190602001808311610b3e57829003601f168201915b50505050508152602001600282015481526020016003820154815260200160048201548152602001600582015481526020016006820154815260200160078201548152602001600882015481526020016009820154815250509050919050565b610bd68383836040518060200160405280600081525061151f565b505050565b8060116000848152602001908152602001600020600082015181600001556020820151816001019080519060200190610c1592919061342e565b5060408201518160020155606082015181600301556080820151816004015560a0820151816005015560c0820151816006015560e08201518160070155610100820151816008015561012082015181600901559050506000610c7682611ee4565b90506000610c848284611f8b565b9050610c90848261209d565b837f8088b75520f63d2193a6f5015badbc4cc953e620977a8c91f11b4227043fcb3882604051610cc091906146d5565b60405180910390a250505050565b600b5481565b6000610cdf82611581565b511115610d21576040517f08c379a0000000000000000000000000000000000000000000000000000000008152600401610d18906147b7565b60405180910390fd5b8060095411610d65576040517f08c379a0000000000000000000000000000000000000000000000000000000008152600401610d5c906146f7565b60405180910390fd5b6000601460008381526020019081526020016000205411610dbb576040517f08c379a0000000000000000000000000000000000000000000000000000000008152600401610db290614997565b60405180910390fd5b600060146000838152602001908152602001600020549050610ddd8282612111565b6000610ef2601160008581526020019081526020016000206040518061014001604052908160008201548152602001600182018054610e1b90614e14565b80601f0160208091040260200160405190810160405280929190818152602001828054610e4790614e14565b8015610e945780601f10610e6957610100808354040283529160200191610e94565b820191906000526020600020905b815481529060010190602001808311610e7757829003601f168201915b5050505050815260200160028201548152602001600382015481526020016004820154815260200160058201548152602001600682015481526020016007820154815260200160088201548152602001600982015481525050611ee4565b9050600061100a82601160008781526020019081526020016000206040518061014001604052908160008201548152602001600182018054610f3390614e14565b80601f0160208091040260200160405190810160405280929190818152602001828054610f5f90614e14565b8015610fac5780601f10610f8157610100808354040283529160200191610fac565b820191906000526020600020905b815481529060010190602001808311610f8f57829003601f168201915b5050505050815260200160028201548152602001600382015481526020016004820154815260200160058201548152602001600682015481526020016007820154815260200160088201548152602001600982015481525050611f8b565b9050611016848261209d565b837fb5a8d8cf5d01b5006e471421ba7da032446e2a82412342ed548b7aeed0ea9b698260405161104691906146d5565b60405180910390a250505050565b6000806002600084815260200190815260200160002060009054906101000a900473ffffffffffffffffffffffffffffffffffffffff169050600073ffffffffffffffffffffffffffffffffffffffff168173ffffffffffffffffffffffffffffffffffffffff1614156110fd576040517f08c379a00000000000000000000000000000000000000000000000000000000081526004016110f490614837565b60405180910390fd5b80915050919050565b60008073ffffffffffffffffffffffffffffffffffffffff168273ffffffffffffffffffffffffffffffffffffffff161415611177576040517f08c379a000000000000000000000000000000000000000000000000000000000815260040161116e90614817565b60405180910390fd5b600360008373ffffffffffffffffffffffffffffffffffffffff1673ffffffffffffffffffffffffffffffffffffffff168152602001908152602001600020549050919050565b6111c6611ae9565b73ffffffffffffffffffffffffffffffffffffffff166111e4611246565b73ffffffffffffffffffffffffffffffffffffffff161461123a576040517f08c379a0000000000000000000000000000000000000000000000000000000008152600401611231906148d7565b60405180910390fd5b61124460006125c8565b565b6000600760009054906101000a900473ffffffffffffffffffffffffffffffffffffffff16905090565b7f000000000000000000000000000000000000000000000000000000000000000073ffffffffffffffffffffffffffffffffffffffff163373ffffffffffffffffffffffffffffffffffffffff16146112fe576040517f08c379a00000000000000000000000000000000000000000000000000000000081526004016112f590614957565b60405180910390fd5b611308828261268e565b5050565b60606001805461131b90614e14565b80601f016020809104026020016040519081016040528092919081815260200182805461134790614e14565b80156113945780601f1061136957610100808354040283529160200191611394565b820191906000526020600020905b81548152906001019060200180831161137757829003601f168201915b5050505050905090565b6113a6611ae9565b73ffffffffffffffffffffffffffffffffffffffff168273ffffffffffffffffffffffffffffffffffffffff161415611414576040517f08c379a000000000000000000000000000000000000000000000000000000000815260040161140b90614797565b60405180910390fd5b8060056000611421611ae9565b73ffffffffffffffffffffffffffffffffffffffff1673ffffffffffffffffffffffffffffffffffffffff16815260200190815260200160002060008473ffffffffffffffffffffffffffffffffffffffff1673ffffffffffffffffffffffffffffffffffffffff16815260200190815260200160002060006101000a81548160ff0219169083151502179055508173ffffffffffffffffffffffffffffffffffffffff166114ce611ae9565b73ffffffffffffffffffffffffffffffffffffffff167f17307eab39ab6107e8899845ad3d59bd9653f200f220920489ca2b5937696c31836040516115139190614631565b60405180910390a35050565b61153061152a611ae9565b83611baa565b61156f576040517f08c379a0000000000000000000000000000000000000000000000000000000008152600401611566906149b7565b60405180910390fd5b61157b84848484612734565b50505050565b606061158c82611a7d565b6115cb576040517f08c379a00000000000000000000000000000000000000000000000000000000081526004016115c290614897565b60405180910390fd5b60006006600084815260200190815260200160002080546115eb90614e14565b80601f016020809104026020016040519081016040528092919081815260200182805461161790614e14565b80156116645780601f1061163957610100808354040283529160200191611664565b820191906000526020600020905b81548152906001019060200180831161164757829003601f168201915b505050505090506000611675612790565b905060008151141561168b5781925050506116ce565b6000825111156116c05780826040516020016116a892919061433e565b604051602081830303815290604052925050506116ce565b6116c9846127a7565b925050505b919050565b60095481565b600a5481565b6000600560008473ffffffffffffffffffffffffffffffffffffffff1673ffffffffffffffffffffffffffffffffffffffff16815260200190815260200160002060008373ffffffffffffffffffffffffffffffffffffffff1673ffffffffffffffffffffffffffffffffffffffff16815260200190815260200160002060009054906101000a900460ff16905092915050565b6000601060009054906101000a900460ff16156117c5576040517f08c379a00000000000000000000000000000000000000000000000000000000081526004016117bc906148f7565b60405180910390fd5b600f546009541061180b576040517f08c379a0000000000000000000000000000000000000000000000000000000008152600401611802906149d7565b60405180910390fd5b600e54341015611850576040517f08c379a0000000000000000000000000000000000000000000000000000000008152600401611847906149f7565b60405180910390fd5b61185e600b54600a5461284e565b9050336012600083815260200190815260200160002060006101000a81548173ffffffffffffffffffffffffffffffffffffffff021916908373ffffffffffffffffffffffffffffffffffffffff16021790555060006009549050806013600084815260200190815260200160002081905550600960008154809291906118e490614e77565b919050555080827fd18cd6f82baac9078af064ea020dd3dc7bff649bd8d50684f972d5995fec6e6960405160405180910390a35090565b611923611ae9565b73ffffffffffffffffffffffffffffffffffffffff16611941611246565b73ffffffffffffffffffffffffffffffffffffffff1614611997576040517f08c379a000000000000000000000000000000000000000000000000000000000815260040161198e906148d7565b60405180910390fd5b600073ffffffffffffffffffffffffffffffffffffffff168173ffffffffffffffffffffffffffffffffffffffff161415611a07576040517f08c379a00000000000000000000000000000000000000000000000000000000081526004016119fe90614737565b60405180910390fd5b611a10816125c8565b50565b60007f01ffc9a7000000000000000000000000000000000000000000000000000000007bffffffffffffffffffffffffffffffffffffffffffffffffffffffff1916827bffffffffffffffffffffffffffffffffffffffffffffffffffffffff1916149050919050565b60008073ffffffffffffffffffffffffffffffffffffffff166002600084815260200190815260200160002060009054906101000a900473ffffffffffffffffffffffffffffffffffffffff1673ffffffffffffffffffffffffffffffffffffffff1614159050919050565b600033905090565b816004600083815260200190815260200160002060006101000a81548173ffffffffffffffffffffffffffffffffffffffff021916908373ffffffffffffffffffffffffffffffffffffffff160217905550808273ffffffffffffffffffffffffffffffffffffffff16611b6483611054565b73ffffffffffffffffffffffffffffffffffffffff167f8c5be1e5ebec7d5bd14f71427d1e84f3dd0314c0f7b2291e5b200ac8c7c3b92560405160405180910390a45050565b6000611bb582611a7d565b611bf4576040517f08c379a0000000000000000000000000000000000000000000000000000000008152600401611beb906147d7565b60405180910390fd5b6000611bff83611054565b90508073ffffffffffffffffffffffffffffffffffffffff168473ffffffffffffffffffffffffffffffffffffffff161480611c6e57508373ffffffffffffffffffffffffffffffffffffffff16611c56846107be565b73ffffffffffffffffffffffffffffffffffffffff16145b80611c7f5750611c7e81856116df565b5b91505092915050565b8273ffffffffffffffffffffffffffffffffffffffff16611ca882611054565b73ffffffffffffffffffffffffffffffffffffffff1614611cfe576040517f08c379a0000000000000000000000000000000000000000000000000000000008152600401611cf590614917565b60405180910390fd5b600073ffffffffffffffffffffffffffffffffffffffff168273ffffffffffffffffffffffffffffffffffffffff161415611d6e576040517f08c379a0000000000000000000000000000000000000000000000000000000008152600401611d6590614777565b60405180910390fd5b611d798383836129b0565b611d84600082611af1565b6001600360008573ffffffffffffffffffffffffffffffffffffffff1673ffffffffffffffffffffffffffffffffffffffff1681526020019081526020016000206000828254611dd49190614d13565b925050819055506001600360008473ffffffffffffffffffffffffffffffffffffffff1673ffffffffffffffffffffffffffffffffffffffff1681526020019081526020016000206000828254611e2b9190614bfb565b92505081905550816002600083815260200190815260200160002060006101000a81548173ffffffffffffffffffffffffffffffffffffffff021916908373ffffffffffffffffffffffffffffffffffffffff160217905550808273ffffffffffffffffffffffffffffffffffffffff168473ffffffffffffffffffffffffffffffffffffffff167fddf252ad1be2c89b69c2b068fc378daa952ba7f163c4a11628f55a4df523b3ef60405160405180910390a4505050565b60606000611ef1836129b5565b905060006040518060400160405280601a81526020017f646174613a696d6167652f7376672b786d6c3b6261736536342c00000000000081525090506000611f5783604051602001611f439190614327565b604051602081830303815290604052612a5a565b905060008282604051602001611f6e92919061433e565b604051602081830303815290604052905080945050505050919050565b606060006040518060400160405280601d81526020017f646174613a6170706c69636174696f6e2f6a736f6e3b6261736536342c000000815250905060006120698460200151611fde8660400151612bf9565b611feb8760600151612bf9565b611ff88860800151612bf9565b6120058960a00151612bf9565b6120128a60c00151612bf9565b61201f8b60e00151612bf9565b61202d8c6101000151612bf9565b61203b8d6101200151612bf9565b8e6040516020016120559a99989796959493929190614471565b604051602081830303815290604052612a5a565b90506000828260405160200161208092919061433e565b604051602081830303815290604052905080935050505092915050565b6120a682611a7d565b6120e5576040517f08c379a00000000000000000000000000000000000000000000000000000000081526004016120dc90614857565b60405180910390fd5b8060066000848152602001908152602001600020908051906020019061210c92919061342e565b505050565b6000600667ffffffffffffffff811115612154577f4e487b7100000000000000000000000000000000000000000000000000000000600052604160045260246000fd5b6040519080825280602002602001820160405280156121825781602001602082028036833780820191505090505b50905060005b60068110156122ec57600083826040516020016121a6929190614af7565b6040516020818303038152906040528051906020012060001c9050600082141561222d576001600a826121d99190614ed4565b6121e39190614bfb565b83838151811061221c577f4e487b7100000000000000000000000000000000000000000000000000000000600052603260045260246000fd5b6020026020010181815250506122d8565b600183600081518110612269577f4e487b7100000000000000000000000000000000000000000000000000000000600052603260045260246000fd5b6020026020010151600a61227d9190614cb9565b826122889190614ed4565b6122929190614bfb565b8383815181106122cb577f4e487b7100000000000000000000000000000000000000000000000000000000600052603260045260246000fd5b6020026020010181815250505b5080806122e490614e77565b915050612188565b5060006122f884612bf9565b6040516020016123089190614362565b60405160208183030381529060405290506040518061014001604052808581526020018281526020018360008151811061236b577f4e487b7100000000000000000000000000000000000000000000000000000000600052603260045260246000fd5b60200260200101518152602001600081526020016014846000815181106123bb577f4e487b7100000000000000000000000000000000000000000000000000000000600052603260045260246000fd5b60200260200101516123cd9190614cb9565b81526020018360018151811061240c577f4e487b7100000000000000000000000000000000000000000000000000000000600052603260045260246000fd5b6020026020010151815260200183600281518110612453577f4e487b7100000000000000000000000000000000000000000000000000000000600052603260045260246000fd5b602002602001015181526020018360038151811061249a577f4e487b7100000000000000000000000000000000000000000000000000000000600052603260045260246000fd5b60200260200101518152602001836004815181106124e1577f4e487b7100000000000000000000000000000000000000000000000000000000600052603260045260246000fd5b6020026020010151815260200183600581518110612528577f4e487b7100000000000000000000000000000000000000000000000000000000600052603260045260246000fd5b60200260200101518152506011600086815260200190815260200160002060008201518160000155602082015181600101908051906020019061256c92919061342e565b5060408201518160020155606082015181600301556080820151816004015560a0820151816005015560c0820151816006015560e082015181600701556101008201518160080155610120820151816009015590505050505050565b6000600760009054906101000a900473ffffffffffffffffffffffffffffffffffffffff16905081600760006101000a81548173ffffffffffffffffffffffffffffffffffffffff021916908373ffffffffffffffffffffffffffffffffffffffff1602179055508173ffffffffffffffffffffffffffffffffffffffff168173ffffffffffffffffffffffffffffffffffffffff167f8be0079c531659141344cd1fd0a4f28419497f9722a3daafe3b4186f6b6457e060405160405180910390a35050565b60006012600084815260200190815260200160002060009054906101000a900473ffffffffffffffffffffffffffffffffffffffff1690506000601360008581526020019081526020016000205490506126e88282612dce565b82601460008381526020019081526020016000208190555082817faad5362ce528ed941024b95d4c18dfd49b8503e1f586a5c353631d98c2af41b760405160405180910390a350505050565b61273f848484611c88565b61274b84848484612dec565b61278a576040517f08c379a000000000000000000000000000000000000000000000000000000000815260040161278190614717565b60405180910390fd5b50505050565b606060405180602001604052806000815250905090565b60606127b282611a7d565b6127f1576040517f08c379a00000000000000000000000000000000000000000000000000000000081526004016127e890614937565b60405180910390fd5b60006127fb612790565b9050600081511161281b5760405180602001604052806000815250612846565b8061282584612f83565b60405160200161283692919061433e565b6040516020818303038152906040525b915050919050565b60007f000000000000000000000000000000000000000000000000000000000000000073ffffffffffffffffffffffffffffffffffffffff16634000aea07f0000000000000000000000000000000000000000000000000000000000000000848660006040516020016128c2929190614667565b6040516020818303038152906040526040518463ffffffff1660e01b81526004016128ef939291906145f3565b602060405180830381600087803b15801561290957600080fd5b505af115801561291d573d6000803e3d6000fd5b505050506040513d601f19601f8201168201806040525081019061294191906138e5565b506000612964846000306008600089815260200190815260200160002054613130565b9050600160086000868152602001908152602001600020546129869190614bfb565b60086000868152602001908152602001600020819055506129a7848261316c565b91505092915050565b505050565b6060600082602001516129cb8460400151612bf9565b6129d88560600151612bf9565b6129e58660800151612bf9565b6129f28760a00151612bf9565b6129ff8860c00151612bf9565b612a0c8960e00151612bf9565b612a1a8a6101000151612bf9565b612a288b6101200151612bf9565b604051602001612a4099989796959493929190614384565b604051602081830303815290604052905080915050919050565b6060600082511415612a7d57604051806020016040528060008152509050612bf4565b6000604051806060016040528060408152602001615e356040913990506000600360028551612aac9190614bfb565b612ab69190614c88565b6004612ac29190614cb9565b90506000602082612ad39190614bfb565b67ffffffffffffffff811115612b12577f4e487b7100000000000000000000000000000000000000000000000000000000600052604160045260246000fd5b6040519080825280601f01601f191660200182016040528015612b445781602001600182028036833780820191505090505b509050818152600183018586518101602084015b81831015612bb3576003830192508251603f8160121c168501518253600182019150603f81600c1c168501518253600182019150603f8160061c168501518253600182019150603f8116850151825360018201915050612b58565b600389510660018114612bcd5760028114612bdd57612be8565b613d3d60f01b6002830352612be8565b603d60f81b60018303525b50505050508093505050505b919050565b60606000821415612c41576040518060400160405280600181526020017f30000000000000000000000000000000000000000000000000000000000000008152509050612dc9565b600082905060005b60008214612c73578080612c5c90614e77565b915050600a82612c6c9190614c88565b9150612c49565b60008167ffffffffffffffff811115612cb5577f4e487b7100000000000000000000000000000000000000000000000000000000600052604160045260246000fd5b6040519080825280601f01601f191660200182016040528015612ce75781602001600182028036833780820191505090505b50905060008290505b60008614612dc157600181612d059190614d13565b90506000600a8088612d179190614c88565b612d219190614cb9565b87612d2c9190614d13565b6030612d389190614c51565b905060008160f81b905080848481518110612d7c577f4e487b7100000000000000000000000000000000000000000000000000000000600052603260045260246000fd5b60200101907effffffffffffffffffffffffffffffffffffffffffffffffffffffffffffff1916908160001a905350600a88612db89190614c88565b97505050612cf0565b819450505050505b919050565b612de882826040518060200160405280600081525061319f565b5050565b6000612e0d8473ffffffffffffffffffffffffffffffffffffffff166131fa565b15612f76578373ffffffffffffffffffffffffffffffffffffffff1663150b7a02612e36611ae9565b8786866040518563ffffffff1660e01b8152600401612e5894939291906145a7565b602060405180830381600087803b158015612e7257600080fd5b505af1925050508015612ea357506040513d601f19601f82011682018060405250810190612ea09190613973565b60015b612f26573d8060008114612ed3576040519150601f19603f3d011682016040523d82523d6000602084013e612ed8565b606091505b50600081511415612f1e576040517f08c379a0000000000000000000000000000000000000000000000000000000008152600401612f1590614717565b60405180910390fd5b805181602001fd5b63150b7a0260e01b7bffffffffffffffffffffffffffffffffffffffffffffffffffffffff1916817bffffffffffffffffffffffffffffffffffffffffffffffffffffffff191614915050612f7b565b600190505b949350505050565b60606000821415612fcb576040518060400160405280600181526020017f3000000000000000000000000000000000000000000000000000000000000000815250905061312b565b600082905060005b60008214612ffd578080612fe690614e77565b915050600a82612ff69190614c88565b9150612fd3565b60008167ffffffffffffffff81111561303f577f4e487b7100000000000000000000000000000000000000000000000000000000600052604160045260246000fd5b6040519080825280601f01601f1916602001820160405280156130715781602001600182028036833780820191505090505b5090505b600085146131245760018261308a9190614d13565b9150600a856130999190614ed4565b60306130a59190614bfb565b60f81b8183815181106130e1577f4e487b7100000000000000000000000000000000000000000000000000000000600052603260045260246000fd5b60200101907effffffffffffffffffffffffffffffffffffffffffffffffffffffffffffff1916908160001a905350600a8561311d9190614c88565b9450613075565b8093505050505b919050565b6000848484846040516020016131499493929190614690565b6040516020818303038152906040528051906020012060001c9050949350505050565b600082826040516020016131819291906142fb565b60405160208183030381529060405280519060200120905092915050565b6131a9838361320d565b6131b66000848484612dec565b6131f5576040517f08c379a00000000000000000000000000000000000000000000000000000000081526004016131ec90614717565b60405180910390fd5b505050565b600080823b905060008111915050919050565b600073ffffffffffffffffffffffffffffffffffffffff168273ffffffffffffffffffffffffffffffffffffffff16141561327d576040517f08c379a000000000000000000000000000000000000000000000000000000000815260040161327490614877565b60405180910390fd5b61328681611a7d565b156132c6576040517f08c379a00000000000000000000000000000000000000000000000000000000081526004016132bd90614757565b60405180910390fd5b6132d2600083836129b0565b6001600360008473ffffffffffffffffffffffffffffffffffffffff1673ffffffffffffffffffffffffffffffffffffffff16815260200190815260200160002060008282546133229190614bfb565b92505081905550816002600083815260200190815260200160002060006101000a81548173ffffffffffffffffffffffffffffffffffffffff021916908373ffffffffffffffffffffffffffffffffffffffff160217905550808273ffffffffffffffffffffffffffffffffffffffff16600073ffffffffffffffffffffffffffffffffffffffff167fddf252ad1be2c89b69c2b068fc378daa952ba7f163c4a11628f55a4df523b3ef60405160405180910390a45050565b604051806101400160405280600081526020016060815260200160008152602001600081526020016000815260200160008152602001600081526020016000815260200160008152602001600081525090565b82805461343a90614e14565b90600052602060002090601f01602090048101928261345c57600085556134a3565b82601f1061347557805160ff19168380011785556134a3565b828001600101855582156134a3579182015b828111156134a2578251825591602001919060010190613487565b5b5090506134b091906134b4565b5090565b5b808211156134cd5760008160009055506001016134b5565b5090565b60006134e46134df84614b45565b614b20565b9050828152602081018484840111156134fc57600080fd5b613507848285614dd2565b509392505050565b600061352261351d84614b76565b614b20565b90508281526020810184848401111561353a57600080fd5b613545848285614dd2565b509392505050565b60008135905061355c81615dc1565b92915050565b60008135905061357181615dd8565b92915050565b60008151905061358681615dd8565b92915050565b60008135905061359b81615def565b92915050565b6000813590506135b081615e06565b92915050565b6000815190506135c581615e06565b92915050565b600082601f8301126135dc57600080fd5b81356135ec8482602086016134d1565b91505092915050565b600082601f83011261360657600080fd5b813561361684826020860161350f565b91505092915050565b6000610140828403121561363257600080fd5b61363d610140614b20565b9050600061364d84828501613729565b600083015250602082013567ffffffffffffffff81111561366d57600080fd5b613679848285016135f5565b602083015250604061368d84828501613729565b60408301525060606136a184828501613729565b60608301525060806136b584828501613729565b60808301525060a06136c984828501613729565b60a08301525060c06136dd84828501613729565b60c08301525060e06136f184828501613729565b60e08301525061010061370684828501613729565b6101008301525061012061371c84828501613729565b6101208301525092915050565b60008135905061373881615e1d565b92915050565b60006020828403121561375057600080fd5b600061375e8482850161354d565b91505092915050565b6000806040838503121561377a57600080fd5b60006137888582860161354d565b92505060206137998582860161354d565b9150509250929050565b6000806000606084860312156137b857600080fd5b60006137c68682870161354d565b93505060206137d78682870161354d565b92505060406137e886828701613729565b9150509250925092565b6000806000806080858703121561380857600080fd5b60006138168782880161354d565b94505060206138278782880161354d565b935050604061383887828801613729565b925050606085013567ffffffffffffffff81111561385557600080fd5b613861878288016135cb565b91505092959194509250565b6000806040838503121561388057600080fd5b600061388e8582860161354d565b925050602061389f85828601613562565b9150509250929050565b600080604083850312156138bc57600080fd5b60006138ca8582860161354d565b92505060206138db85828601613729565b9150509250929050565b6000602082840312156138f757600080fd5b600061390584828501613577565b91505092915050565b6000806040838503121561392157600080fd5b600061392f8582860161358c565b925050602061394085828601613729565b9150509250929050565b60006020828403121561395c57600080fd5b600061396a848285016135a1565b91505092915050565b60006020828403121561398557600080fd5b6000613993848285016135b6565b91505092915050565b6000602082840312156139ae57600080fd5b60006139bc84828501613729565b91505092915050565b600080604083850312156139d857600080fd5b60006139e685828601613729565b925050602083013567ffffffffffffffff811115613a0357600080fd5b613a0f8582860161361f565b9150509250929050565b613a2281614d47565b82525050565b613a3181614d59565b82525050565b613a4081614d65565b82525050565b613a57613a5282614d65565b614ec0565b82525050565b6000613a6882614ba7565b613a728185614bbd565b9350613a82818560208601614de1565b613a8b81614fc1565b840191505092915050565b6000613aa182614bb2565b613aab8185614bce565b9350613abb818560208601614de1565b613ac481614fc1565b840191505092915050565b6000613ada82614bb2565b613ae48185614bdf565b9350613af4818560208601614de1565b613afd81614fc1565b840191505092915050565b6000613b1382614bb2565b613b1d8185614bf0565b9350613b2d818560208601614de1565b80840191505092915050565b6000613b46603d83614bf0565b9150613b5182614fd2565b603d82019050919050565b6000613b69601d83614bdf565b9150613b7482615021565b602082019050919050565b6000613b8c603283614bdf565b9150613b978261504a565b604082019050919050565b6000613baf603a83614bf0565b9150613bba82615099565b603a82019050919050565b6000613bd2602683614bdf565b9150613bdd826150e8565b604082019050919050565b6000613bf5600c83614bf0565b9150613c0082615137565b600c82019050919050565b6000613c18601c83614bdf565b9150613c2382615160565b602082019050919050565b6000613c3b602783614bf0565b9150613c4682615189565b602782019050919050565b6000613c5e60cf83614bf0565b9150613c69826151d8565b60cf82019050919050565b6000613c81602983614bf0565b9150613c8c826152e5565b602982019050919050565b6000613ca4603383614bf0565b9150613caf82615334565b603382019050919050565b6000613cc7602483614bdf565b9150613cd282615383565b604082019050919050565b6000613cea601983614bdf565b9150613cf5826153d2565b602082019050919050565b6000613d0d601783614bdf565b9150613d18826153fb565b602082019050919050565b6000613d30603583614bf0565b9150613d3b82615424565b603582019050919050565b6000613d53602c83614bdf565b9150613d5e82615473565b604082019050919050565b6000613d76600d83614bf0565b9150613d81826154c2565b600d82019050919050565b6000613d99602883614bf0565b9150613da4826154eb565b602882019050919050565b6000613dbc603883614bdf565b9150613dc78261553a565b604082019050919050565b6000613ddf602a83614bdf565b9150613dea82615589565b604082019050919050565b6000613e02602983614bdf565b9150613e0d826155d8565b604082019050919050565b6000613e25602e83614bdf565b9150613e3082615627565b604082019050919050565b6000613e48600e83614bf0565b9150613e5382615676565b600e82019050919050565b6000613e6b602683614bf0565b9150613e768261569f565b602682019050919050565b6000613e8e600283614bf0565b9150613e99826156ee565b600282019050919050565b6000613eb1603b83614bf0565b9150613ebc82615717565b603b82019050919050565b6000613ed4602083614bdf565b9150613edf82615766565b602082019050919050565b6000613ef7603183614bdf565b9150613f028261578f565b604082019050919050565b6000613f1a603383614bf0565b9150613f25826157de565b603382019050919050565b6000613f3d602c83614bdf565b9150613f488261582d565b604082019050919050565b6000613f60602083614bdf565b9150613f6b8261587c565b602082019050919050565b6000613f83601583614bdf565b9150613f8e826158a5565b602082019050919050565b6000613fa6603983614bf0565b9150613fb1826158ce565b603982019050919050565b6000613fc9602983614bdf565b9150613fd48261591d565b604082019050919050565b6000613fec602b83614bf0565b9150613ff78261596c565b602b82019050919050565b600061400f602f83614bdf565b915061401a826159bb565b604082019050919050565b6000614032600a83614bf0565b915061403d82615a0a565b600a82019050919050565b6000614055601f83614bdf565b915061406082615a33565b602082019050919050565b6000614078602883614bf0565b915061408382615a5c565b602882019050919050565b600061409b602183614bdf565b91506140a682615aab565b604082019050919050565b60006140be601a83614bdf565b91506140c982615afa565b602082019050919050565b60006140e1603183614bdf565b91506140ec82615b23565b604082019050919050565b6000614104602283614bf0565b915061410f82615b72565b602282019050919050565b6000614127607683614bf0565b915061413282615bc1565b607682019050919050565b600061414a600f83614bdf565b915061415582615c5c565b602082019050919050565b600061416d606183614bf0565b915061417882615c85565b606182019050919050565b6000614190600d83614bdf565b915061419b82615d20565b602082019050919050565b60006141b3600e83614bf0565b91506141be82615d49565b600e82019050919050565b60006141d6603883614bf0565b91506141e182615d72565b603882019050919050565b60006101408301600083015161420560008601826142c6565b506020830151848203602086015261421d8282613a96565b915050604083015161423260408601826142c6565b50606083015161424560608601826142c6565b50608083015161425860808601826142c6565b5060a083015161426b60a08601826142c6565b5060c083015161427e60c08601826142c6565b5060e083015161429160e08601826142c6565b506101008301516142a66101008601826142c6565b506101208301516142bb6101208601826142c6565b508091505092915050565b6142cf81614dbb565b82525050565b6142de81614dbb565b82525050565b6142f56142f082614dbb565b614eca565b82525050565b60006143078285613a46565b60208201915061431782846142e4565b6020820191508190509392505050565b60006143338284613b08565b915081905092915050565b600061434a8285613b08565b91506143568284613b08565b91508190509392505050565b600061436d82613be8565b91506143798284613b08565b915081905092915050565b600061438f82613c51565b915061439b828c613b08565b91506143a68261411a565b91506143b2828b613b08565b91506143bd82613d23565b91506143c9828a613b08565b91506143d482614160565b91506143e08289613b08565b91506143eb82613c2e565b91506143f78288613b08565b91506144028261406b565b915061440e8287613b08565b915061441982613e5e565b91506144258286613b08565b915061443082613fdf565b915061443c8285613b08565b915061444782613c74565b91506144538284613b08565b915061445e82613d69565b91508190509a9950505050505050505050565b600061447c82614025565b9150614488828d613b08565b915061449382613d8c565b915061449e826141a6565b91506144a982613f0d565b91506144b5828c613b08565b91506144c0826140f7565b91506144cc828b613b08565b91506144d782613c97565b91506144e3828a613b08565b91506144ee82613f99565b91506144fa8289613b08565b915061450582613ba2565b91506145118288613b08565b915061451c826141c9565b91506145288287613b08565b915061453382613b39565b915061453f8286613b08565b915061454a82613ea4565b91506145568285613b08565b915061456182613e3b565b915061456d8284613b08565b915061457882613e81565b91508190509b9a5050505050505050505050565b60006020820190506145a16000830184613a19565b92915050565b60006080820190506145bc6000830187613a19565b6145c96020830186613a19565b6145d660408301856142d5565b81810360608301526145e88184613a5d565b905095945050505050565b60006060820190506146086000830186613a19565b61461560208301856142d5565b81810360408301526146278184613a5d565b9050949350505050565b60006020820190506146466000830184613a28565b92915050565b60006020820190506146616000830184613a37565b92915050565b600060408201905061467c6000830185613a37565b61468960208301846142d5565b9392505050565b60006080820190506146a56000830187613a37565b6146b260208301866142d5565b6146bf6040830185613a19565b6146cc60608301846142d5565b95945050505050565b600060208201905081810360008301526146ef8184613acf565b905092915050565b6000602082019050818103600083015261471081613b5c565b9050919050565b6000602082019050818103600083015261473081613b7f565b9050919050565b6000602082019050818103600083015261475081613bc5565b9050919050565b6000602082019050818103600083015261477081613c0b565b9050919050565b6000602082019050818103600083015261479081613cba565b9050919050565b600060208201905081810360008301526147b081613cdd565b9050919050565b600060208201905081810360008301526147d081613d00565b9050919050565b600060208201905081810360008301526147f081613d46565b9050919050565b6000602082019050818103600083015261481081613daf565b9050919050565b6000602082019050818103600083015261483081613dd2565b9050919050565b6000602082019050818103600083015261485081613df5565b9050919050565b6000602082019050818103600083015261487081613e18565b9050919050565b6000602082019050818103600083015261489081613ec7565b9050919050565b600060208201905081810360008301526148b081613eea565b9050919050565b600060208201905081810360008301526148d081613f30565b9050919050565b600060208201905081810360008301526148f081613f53565b9050919050565b6000602082019050818103600083015261491081613f76565b9050919050565b6000602082019050818103600083015261493081613fbc565b9050919050565b6000602082019050818103600083015261495081614002565b9050919050565b6000602082019050818103600083015261497081614048565b9050919050565b600060208201905081810360008301526149908161408e565b9050919050565b600060208201905081810360008301526149b0816140b1565b9050919050565b600060208201905081810360008301526149d0816140d4565b9050919050565b600060208201905081810360008301526149f08161413d565b9050919050565b60006020820190508181036000830152614a1081614183565b9050919050565b60006020820190508181036000830152614a3181846141ec565b905092915050565b6000602082019050614a4e60008301846142d5565b92915050565b600061014082019050614a6a600083018d6142d5565b8181036020830152614a7c818c613acf565b9050614a8b604083018b6142d5565b614a98606083018a6142d5565b614aa560808301896142d5565b614ab260a08301886142d5565b614abf60c08301876142d5565b614acc60e08301866142d5565b614ada6101008301856142d5565b614ae86101208301846142d5565b9b9a5050505050505050505050565b6000604082019050614b0c60008301856142d5565b614b1960208301846142d5565b9392505050565b6000614b2a614b3b565b9050614b368282614e46565b919050565b6000604051905090565b600067ffffffffffffffff821115614b6057614b5f614f92565b5b614b6982614fc1565b9050602081019050919050565b600067ffffffffffffffff821115614b9157614b90614f92565b5b614b9a82614fc1565b9050602081019050919050565b600081519050919050565b600081519050919050565b600082825260208201905092915050565b600082825260208201905092915050565b600082825260208201905092915050565b600081905092915050565b6000614c0682614dbb565b9150614c1183614dbb565b9250827fffffffffffffffffffffffffffffffffffffffffffffffffffffffffffffffff03821115614c4657614c45614f05565b5b828201905092915050565b6000614c5c82614dc5565b9150614c6783614dc5565b92508260ff03821115614c7d57614c7c614f05565b5b828201905092915050565b6000614c9382614dbb565b9150614c9e83614dbb565b925082614cae57614cad614f34565b5b828204905092915050565b6000614cc482614dbb565b9150614ccf83614dbb565b9250817fffffffffffffffffffffffffffffffffffffffffffffffffffffffffffffffff0483118215151615614d0857614d07614f05565b5b828202905092915050565b6000614d1e82614dbb565b9150614d2983614dbb565b925082821015614d3c57614d3b614f05565b5b828203905092915050565b6000614d5282614d9b565b9050919050565b60008115159050919050565b6000819050919050565b60007fffffffff0000000000000000000000000000000000000000000000000000000082169050919050565b600073ffffffffffffffffffffffffffffffffffffffff82169050919050565b6000819050919050565b600060ff82169050919050565b82818337600083830152505050565b60005b83811015614dff578082015181840152602081019050614de4565b83811115614e0e576000848401525b50505050565b60006002820490506001821680614e2c57607f821691505b60208210811415614e4057614e3f614f63565b5b50919050565b614e4f82614fc1565b810181811067ffffffffffffffff82111715614e6e57614e6d614f92565b5b80604052505050565b6000614e8282614dbb565b91507fffffffffffffffffffffffffffffffffffffffffffffffffffffffffffffffff821415614eb557614eb4614f05565b5b600182019050919050565b6000819050919050565b6000819050919050565b6000614edf82614dbb565b9150614eea83614dbb565b925082614efa57614ef9614f34565b5b828206905092915050565b7f4e487b7100000000000000000000000000000000000000000000000000000000600052601160045260246000fd5b7f4e487b7100000000000000000000000000000000000000000000000000000000600052601260045260246000fd5b7f4e487b7100000000000000000000000000000000000000000000000000000000600052602260045260246000fd5b7f4e487b7100000000000000000000000000000000000000000000000000000000600052604160045260246000fd5b6000601f19601f8301169050919050565b7f7d2c7b2274726169745f74797065223a2022496e74656c6c6967656e6365222c60008201527f20226d61785f76616c7565223a20313030302c202276616c7565223a20000000602082015250565b7f746f6b656e20686173206e6f74206265656e206d696e74656420796574000000600082015250565b7f4552433732313a207472616e7366657220746f206e6f6e20455243373231526560008201527f63656976657220696d706c656d656e7465720000000000000000000000000000602082015250565b7f7d2c7b2274726169745f74797065223a2022446578746572697479222c20226d60008201527f61785f76616c7565223a20313030302c202276616c7565223a20000000000000602082015250565b7f4f776e61626c653a206e6577206f776e657220697320746865207a65726f206160008201527f6464726573730000000000000000000000000000000000000000000000000000602082015250565b7f426c6f6f6453706f727420230000000000000000000000000000000000000000600082015250565b7f4552433732313a20746f6b656e20616c7265616479206d696e74656400000000600082015250565b7f3c2f746578743e3c7465787420783d273530252720793d27363225273e53747260008201527f656e6774683a2000000000000000000000000000000000000000000000000000602082015250565b7f3c73766720786d6c6e733d27687474703a2f2f7777772e77332e6f72672f323060008201527f30302f73766727206865696768743d27353030272077696474683d273530302760208201527f20746578742d616e63686f723d276d6964646c65272066696c6c3d277768697460408201527f652720666f6e742d73697a653d27312e35656d273e3c7265637420776964746860608201527f3d2735303027206865696768743d2735303027207374796c653d2766696c6c3a60808201527f626c61636b3b272f3e3c7465787420783d273530252720793d2732302527206660a08201527f6f6e742d73697a653d2732656d273e000000000000000000000000000000000060c082015250565b7f3c2f746578743e3c7465787420783d273530252720793d27383225273e44757260008201527f6162696c6974793a200000000000000000000000000000000000000000000000602082015250565b7f7d2c7b2274726169745f74797065223a20224850222c20226d61785f76616c7560008201527f65223a20323030302c202276616c7565223a2000000000000000000000000000602082015250565b7f4552433732313a207472616e7366657220746f20746865207a65726f2061646460008201527f7265737300000000000000000000000000000000000000000000000000000000602082015250565b7f4552433732313a20617070726f766520746f2063616c6c657200000000000000600082015250565b7f746f6b656e55524920697320616c726561647920736574000000000000000000600082015250565b7f3c2f746578743e3c7465787420783d273530252720793d273435252720666f6e60008201527f742d73697a653d27312e35656d273e57696e733a200000000000000000000000602082015250565b7f4552433732313a206f70657261746f7220717565727920666f72206e6f6e657860008201527f697374656e7420746f6b656e0000000000000000000000000000000000000000602082015250565b7f3c2f746578743e3c2f7376673e00000000000000000000000000000000000000600082015250565b7f222c226465736372697074696f6e223a2022416e204e4654206669676874696e60008201527f672067616d65222c000000000000000000000000000000000000000000000000602082015250565b7f4552433732313a20617070726f76652063616c6c6572206973206e6f74206f7760008201527f6e6572206e6f7220617070726f76656420666f7220616c6c0000000000000000602082015250565b7f4552433732313a2062616c616e636520717565727920666f7220746865207a6560008201527f726f206164647265737300000000000000000000000000000000000000000000602082015250565b7f4552433732313a206f776e657220717565727920666f72206e6f6e657869737460008201527f656e7420746f6b656e0000000000000000000000000000000000000000000000602082015250565b7f45524337323155524953746f726167653a2055524920736574206f66206e6f6e60008201527f6578697374656e7420746f6b656e000000000000000000000000000000000000602082015250565b7f7d5d2c2022696d616765223a2022000000000000000000000000000000000000600082015250565b7f3c2f746578743e3c7465787420783d273530252720793d27373225273e41676960008201527f6c6974793a200000000000000000000000000000000000000000000000000000602082015250565b7f227d000000000000000000000000000000000000000000000000000000000000600082015250565b7f7d2c7b2274726169745f74797065223a20224475726162696c697479222c202260008201527f6d61785f76616c7565223a20313030302c202276616c7565223a200000000000602082015250565b7f4552433732313a206d696e7420746f20746865207a65726f2061646472657373600082015250565b7f45524337323155524953746f726167653a2055524920717565727920666f722060008201527f6e6f6e6578697374656e7420746f6b656e000000000000000000000000000000602082015250565b7f7b2274726169745f74797065223a20224c6576656c222c20226d61785f76616c60008201527f7565223a203130302c202276616c7565223a2000000000000000000000000000602082015250565b7f4552433732313a20617070726f76656420717565727920666f72206e6f6e657860008201527f697374656e7420746f6b656e0000000000000000000000000000000000000000602082015250565b7f4f776e61626c653a2063616c6c6572206973206e6f7420746865206f776e6572600082015250565b7f4d696e74696e67206973206e6f74206163746976650000000000000000000000600082015250565b7f7d2c7b2274726169745f74797065223a2022537472656e677468222c20226d6160008201527f785f76616c7565223a20313030302c202276616c7565223a2000000000000000602082015250565b7f4552433732313a207472616e73666572206f6620746f6b656e2074686174206960008201527f73206e6f74206f776e0000000000000000000000000000000000000000000000602082015250565b7f3c2f746578743e3c7465787420783d273530252720793d27373725273e496e7460008201527f656c6c6967656e63653a20000000000000000000000000000000000000000000602082015250565b7f4552433732314d657461646174613a2055524920717565727920666f72206e6f60008201527f6e6578697374656e7420746f6b656e0000000000000000000000000000000000602082015250565b7f7b226e616d65223a202200000000000000000000000000000000000000000000600082015250565b7f4f6e6c7920565246436f6f7264696e61746f722063616e2066756c66696c6c00600082015250565b7f3c2f746578743e3c7465787420783d273530252720793d27363725273e44657860008201527f7465726974793a20000000000000000000000000000000000000000000000000602082015250565b7f4552433732313a20617070726f76616c20746f2063757272656e74206f776e6560008201527f7200000000000000000000000000000000000000000000000000000000000000602082015250565b7f436861696e4c696e6b20565246206973206e6f74207265616479000000000000600082015250565b7f4552433732313a207472616e736665722063616c6c6572206973206e6f74206f60008201527f776e6572206e6f7220617070726f766564000000000000000000000000000000602082015250565b7f7d2c7b2274726169745f74797065223a202257696e73222c202276616c75652260008201527f3a20000000000000000000000000000000000000000000000000000000000000602082015250565b7f3c2f746578743e3c6c696e652078313d27323025272079313d2732372527207860008201527f323d27383025272079323d2732372527207374796c653d277374726f6b653a7760208201527f68697465272f3e3c7465787420783d273530252720793d273337252720666f6e60408201527f742d73697a653d27312e35656d273e4c6576656c3a2000000000000000000000606082015250565b7f4d696e74696e67206973206f7665720000000000000000000000000000000000600082015250565b7f3c2f746578743e3c6c696e652078313d27323025272079313d2735302527207860008201527f323d27383025272079323d2735302527207374796c653d277374726f6b653a7760208201527f68697465272f3e3c7465787420783d273530252720793d27353725273e48503a60408201527f2000000000000000000000000000000000000000000000000000000000000000606082015250565b7f57726f6e67207061796d656e7400000000000000000000000000000000000000600082015250565b7f2261747472696275746573223a5b000000000000000000000000000000000000600082015250565b7f7d2c7b2274726169745f74797065223a20224167696c697479222c20226d617860008201527f5f76616c7565223a20313030302c202276616c7565223a200000000000000000602082015250565b615dca81614d47565b8114615dd557600080fd5b50565b615de181614d59565b8114615dec57600080fd5b50565b615df881614d65565b8114615e0357600080fd5b50565b615e0f81614d6f565b8114615e1a57600080fd5b50565b615e2681614dbb565b8114615e3157600080fd5b5056fe4142434445464748494a4b4c4d4e4f505152535455565758595a6162636465666768696a6b6c6d6e6f707172737475767778797a303132333435363738392b2fa264697066735822122050b6c38356a34775ef0972e97b49fc8db67db64f197ace267970f952649648dd64736f6c63430008040033",
  "devdoc": {
    "kind": "dev",
    "methods": {
      "approve(address,uint256)": {
        "details": "See {IERC721-approve}."
      },
      "balanceOf(address)": {
        "details": "See {IERC721-balanceOf}."
      },
      "getApproved(uint256)": {
        "details": "See {IERC721-getApproved}."
      },
      "isApprovedForAll(address,address)": {
        "details": "See {IERC721-isApprovedForAll}."
      },
      "name()": {
        "details": "See {IERC721Metadata-name}."
      },
      "owner()": {
        "details": "Returns the address of the current owner."
      },
      "ownerOf(uint256)": {
        "details": "See {IERC721-ownerOf}."
      },
      "renounceOwnership()": {
        "details": "Leaves the contract without owner. It will not be possible to call `onlyOwner` functions anymore. Can only be called by the current owner. NOTE: Renouncing ownership will leave the contract without an owner, thereby removing any functionality that is only available to the owner."
      },
      "safeTransferFrom(address,address,uint256)": {
        "details": "See {IERC721-safeTransferFrom}."
      },
      "safeTransferFrom(address,address,uint256,bytes)": {
        "details": "See {IERC721-safeTransferFrom}."
      },
      "setApprovalForAll(address,bool)": {
        "details": "See {IERC721-setApprovalForAll}."
      },
      "supportsInterface(bytes4)": {
        "details": "See {IERC165-supportsInterface}."
      },
      "symbol()": {
        "details": "See {IERC721Metadata-symbol}."
      },
      "tokenURI(uint256)": {
        "details": "See {IERC721Metadata-tokenURI}."
      },
      "transferFrom(address,address,uint256)": {
        "details": "See {IERC721-transferFrom}."
      },
      "transferOwnership(address)": {
        "details": "Transfers ownership of the contract to a new account (`newOwner`). Can only be called by the current owner."
      }
    },
    "version": 1
  },
  "userdoc": {
    "kind": "user",
    "methods": {},
    "version": 1
  },
  "storageLayout": {
    "storage": [
      {
        "astId": 435,
        "contract": "contracts/NFT.sol:NFT",
        "label": "_name",
        "offset": 0,
        "slot": "0",
        "type": "t_string_storage"
      },
      {
        "astId": 437,
        "contract": "contracts/NFT.sol:NFT",
        "label": "_symbol",
        "offset": 0,
        "slot": "1",
        "type": "t_string_storage"
      },
      {
        "astId": 441,
        "contract": "contracts/NFT.sol:NFT",
        "label": "_owners",
        "offset": 0,
        "slot": "2",
        "type": "t_mapping(t_uint256,t_address)"
      },
      {
        "astId": 445,
        "contract": "contracts/NFT.sol:NFT",
        "label": "_balances",
        "offset": 0,
        "slot": "3",
        "type": "t_mapping(t_address,t_uint256)"
      },
      {
        "astId": 449,
        "contract": "contracts/NFT.sol:NFT",
        "label": "_tokenApprovals",
        "offset": 0,
        "slot": "4",
        "type": "t_mapping(t_uint256,t_address)"
      },
      {
        "astId": 455,
        "contract": "contracts/NFT.sol:NFT",
        "label": "_operatorApprovals",
        "offset": 0,
        "slot": "5",
        "type": "t_mapping(t_address,t_mapping(t_address,t_bool))"
      },
      {
        "astId": 1372,
        "contract": "contracts/NFT.sol:NFT",
        "label": "_tokenURIs",
        "offset": 0,
        "slot": "6",
        "type": "t_mapping(t_uint256,t_string_storage)"
      },
      {
        "astId": 273,
        "contract": "contracts/NFT.sol:NFT",
        "label": "_owner",
        "offset": 0,
        "slot": "7",
        "type": "t_address"
      },
      {
        "astId": 79,
        "contract": "contracts/NFT.sol:NFT",
        "label": "nonces",
        "offset": 0,
        "slot": "8",
        "type": "t_mapping(t_bytes32,t_uint256)"
      },
      {
        "astId": 3343,
        "contract": "contracts/NFT.sol:NFT",
        "label": "tokenCounter",
        "offset": 0,
        "slot": "9",
        "type": "t_uint256"
      },
      {
        "astId": 3345,
        "contract": "contracts/NFT.sol:NFT",
        "label": "fee",
        "offset": 0,
        "slot": "10",
        "type": "t_uint256"
      },
      {
        "astId": 3347,
        "contract": "contracts/NFT.sol:NFT",
        "label": "keyHash",
        "offset": 0,
        "slot": "11",
        "type": "t_bytes32"
      },
      {
        "astId": 3349,
        "contract": "contracts/NFT.sol:NFT",
        "label": "trainingContract",
        "offset": 0,
        "slot": "12",
        "type": "t_address"
      },
      {
        "astId": 3351,
        "contract": "contracts/NFT.sol:NFT",
        "label": "fightingContract",
        "offset": 0,
        "slot": "13",
        "type": "t_address"
      },
      {
        "astId": 3353,
        "contract": "contracts/NFT.sol:NFT",
        "label": "cost",
        "offset": 0,
        "slot": "14",
        "type": "t_uint256"
      },
      {
        "astId": 3355,
        "contract": "contracts/NFT.sol:NFT",
        "label": "maxSupply",
        "offset": 0,
        "slot": "15",
        "type": "t_uint256"
      },
      {
        "astId": 3357,
        "contract": "contracts/NFT.sol:NFT",
        "label": "paused",
        "offset": 0,
        "slot": "16",
        "type": "t_bool"
      },
      {
        "astId": 3362,
        "contract": "contracts/NFT.sol:NFT",
        "label": "tokenIdToFighter",
        "offset": 0,
        "slot": "17",
        "type": "t_mapping(t_uint256,t_struct(Fighter)3207_storage)"
      },
      {
        "astId": 3366,
        "contract": "contracts/NFT.sol:NFT",
        "label": "requestIdToSender",
        "offset": 0,
        "slot": "18",
        "type": "t_mapping(t_bytes32,t_address)"
      },
      {
        "astId": 3370,
        "contract": "contracts/NFT.sol:NFT",
        "label": "requestIdToTokenId",
        "offset": 0,
        "slot": "19",
        "type": "t_mapping(t_bytes32,t_uint256)"
      },
      {
        "astId": 3374,
        "contract": "contracts/NFT.sol:NFT",
        "label": "tokenIdToRandomNumber",
        "offset": 0,
        "slot": "20",
        "type": "t_mapping(t_uint256,t_uint256)"
      }
    ],
    "types": {
      "t_address": {
        "encoding": "inplace",
        "label": "address",
        "numberOfBytes": "20"
      },
      "t_bool": {
        "encoding": "inplace",
        "label": "bool",
        "numberOfBytes": "1"
      },
      "t_bytes32": {
        "encoding": "inplace",
        "label": "bytes32",
        "numberOfBytes": "32"
      },
      "t_mapping(t_address,t_bool)": {
        "encoding": "mapping",
        "key": "t_address",
        "label": "mapping(address => bool)",
        "numberOfBytes": "32",
        "value": "t_bool"
      },
      "t_mapping(t_address,t_mapping(t_address,t_bool))": {
        "encoding": "mapping",
        "key": "t_address",
        "label": "mapping(address => mapping(address => bool))",
        "numberOfBytes": "32",
        "value": "t_mapping(t_address,t_bool)"
      },
      "t_mapping(t_address,t_uint256)": {
        "encoding": "mapping",
        "key": "t_address",
        "label": "mapping(address => uint256)",
        "numberOfBytes": "32",
        "value": "t_uint256"
      },
      "t_mapping(t_bytes32,t_address)": {
        "encoding": "mapping",
        "key": "t_bytes32",
        "label": "mapping(bytes32 => address)",
        "numberOfBytes": "32",
        "value": "t_address"
      },
      "t_mapping(t_bytes32,t_uint256)": {
        "encoding": "mapping",
        "key": "t_bytes32",
        "label": "mapping(bytes32 => uint256)",
        "numberOfBytes": "32",
        "value": "t_uint256"
      },
      "t_mapping(t_uint256,t_address)": {
        "encoding": "mapping",
        "key": "t_uint256",
        "label": "mapping(uint256 => address)",
        "numberOfBytes": "32",
        "value": "t_address"
      },
      "t_mapping(t_uint256,t_string_storage)": {
        "encoding": "mapping",
        "key": "t_uint256",
        "label": "mapping(uint256 => string)",
        "numberOfBytes": "32",
        "value": "t_string_storage"
      },
      "t_mapping(t_uint256,t_struct(Fighter)3207_storage)": {
        "encoding": "mapping",
        "key": "t_uint256",
        "label": "mapping(uint256 => struct lib.Fighter)",
        "numberOfBytes": "32",
        "value": "t_struct(Fighter)3207_storage"
      },
      "t_mapping(t_uint256,t_uint256)": {
        "encoding": "mapping",
        "key": "t_uint256",
        "label": "mapping(uint256 => uint256)",
        "numberOfBytes": "32",
        "value": "t_uint256"
      },
      "t_string_storage": {
        "encoding": "bytes",
        "label": "string",
        "numberOfBytes": "32"
      },
      "t_struct(Fighter)3207_storage": {
        "encoding": "inplace",
        "label": "struct lib.Fighter",
        "members": [
          {
            "astId": 3188,
            "contract": "contracts/NFT.sol:NFT",
            "label": "tokenId",
            "offset": 0,
            "slot": "0",
            "type": "t_uint256"
          },
          {
            "astId": 3190,
            "contract": "contracts/NFT.sol:NFT",
            "label": "name",
            "offset": 0,
            "slot": "1",
            "type": "t_string_storage"
          },
          {
            "astId": 3192,
            "contract": "contracts/NFT.sol:NFT",
            "label": "level",
            "offset": 0,
            "slot": "2",
            "type": "t_uint256"
          },
          {
            "astId": 3194,
            "contract": "contracts/NFT.sol:NFT",
            "label": "wins",
            "offset": 0,
            "slot": "3",
            "type": "t_uint256"
          },
          {
            "astId": 3196,
            "contract": "contracts/NFT.sol:NFT",
            "label": "hp",
            "offset": 0,
            "slot": "4",
            "type": "t_uint256"
          },
          {
            "astId": 3198,
            "contract": "contracts/NFT.sol:NFT",
            "label": "strength",
            "offset": 0,
            "slot": "5",
            "type": "t_uint256"
          },
          {
            "astId": 3200,
            "contract": "contracts/NFT.sol:NFT",
            "label": "dexterity",
            "offset": 0,
            "slot": "6",
            "type": "t_uint256"
          },
          {
            "astId": 3202,
            "contract": "contracts/NFT.sol:NFT",
            "label": "agility",
            "offset": 0,
            "slot": "7",
            "type": "t_uint256"
          },
          {
            "astId": 3204,
            "contract": "contracts/NFT.sol:NFT",
            "label": "intelligence",
            "offset": 0,
            "slot": "8",
            "type": "t_uint256"
          },
          {
            "astId": 3206,
            "contract": "contracts/NFT.sol:NFT",
            "label": "durability",
            "offset": 0,
            "slot": "9",
            "type": "t_uint256"
          }
        ],
        "numberOfBytes": "320"
      },
      "t_uint256": {
        "encoding": "inplace",
        "label": "uint256",
        "numberOfBytes": "32"
      }
    }
  }
}