{
  "address": "0xb8509Ae5278BdB53349eBDb9f14BB449e91C5129",
  "abi": [
    {
      "inputs": [
        {
          "internalType": "address",
          "name": "_VRFCoordinator",
          "type": "address"
        },
        {
          "internalType": "address",
          "name": "_linkToken",
          "type": "address"
        },
        {
          "internalType": "bytes32",
          "name": "_keyHash",
          "type": "bytes32"
        },
        {
          "internalType": "uint256",
          "name": "_fee",
          "type": "uint256"
        }
      ],
      "stateMutability": "nonpayable",
      "type": "constructor"
    },
    {
      "anonymous": false,
      "inputs": [
        {
          "indexed": true,
          "internalType": "address",
          "name": "owner",
          "type": "address"
        },
        {
          "indexed": true,
          "internalType": "address",
          "name": "approved",
          "type": "address"
        },
        {
          "indexed": true,
          "internalType": "uint256",
          "name": "tokenId",
          "type": "uint256"
        }
      ],
      "name": "Approval",
      "type": "event"
    },
    {
      "anonymous": false,
      "inputs": [
        {
          "indexed": true,
          "internalType": "address",
          "name": "owner",
          "type": "address"
        },
        {
          "indexed": true,
          "internalType": "address",
          "name": "operator",
          "type": "address"
        },
        {
          "indexed": false,
          "internalType": "bool",
          "name": "approved",
          "type": "bool"
        }
      ],
      "name": "ApprovalForAll",
      "type": "event"
    },
    {
      "anonymous": false,
      "inputs": [
        {
          "indexed": true,
          "internalType": "uint256",
          "name": "tokenId",
          "type": "uint256"
        },
        {
          "indexed": false,
          "internalType": "string",
          "name": "tokenURL",
          "type": "string"
        }
      ],
      "name": "CreatedNFT",
      "type": "event"
    },
    {
      "anonymous": false,
      "inputs": [
        {
          "indexed": true,
          "internalType": "uint256",
          "name": "tokenId",
          "type": "uint256"
        },
        {
          "indexed": true,
          "internalType": "uint256",
          "name": "randomNumber",
          "type": "uint256"
        }
      ],
      "name": "CreatedUnfinishedRandomSVG",
      "type": "event"
    },
    {
      "anonymous": false,
      "inputs": [
        {
          "indexed": true,
          "internalType": "address",
          "name": "previousOwner",
          "type": "address"
        },
        {
          "indexed": true,
          "internalType": "address",
          "name": "newOwner",
          "type": "address"
        }
      ],
      "name": "OwnershipTransferred",
      "type": "event"
    },
    {
      "anonymous": false,
      "inputs": [
        {
          "indexed": true,
          "internalType": "bytes32",
          "name": "requestId",
          "type": "bytes32"
        },
        {
          "indexed": true,
          "internalType": "uint256",
          "name": "tokenId",
          "type": "uint256"
        }
      ],
      "name": "RequestedRandomSVG",
      "type": "event"
    },
    {
      "anonymous": false,
      "inputs": [
        {
          "indexed": true,
          "internalType": "address",
          "name": "from",
          "type": "address"
        },
        {
          "indexed": true,
          "internalType": "address",
          "name": "to",
          "type": "address"
        },
        {
          "indexed": true,
          "internalType": "uint256",
          "name": "tokenId",
          "type": "uint256"
        }
      ],
      "name": "Transfer",
      "type": "event"
    },
    {
      "anonymous": false,
      "inputs": [
        {
          "indexed": true,
          "internalType": "uint256",
          "name": "tokenId",
          "type": "uint256"
        },
        {
          "indexed": false,
          "internalType": "string",
          "name": "tokenURL",
          "type": "string"
        }
      ],
      "name": "UpdatedNFT",
      "type": "event"
    },
    {
      "inputs": [
        {
          "internalType": "address",
          "name": "to",
          "type": "address"
        },
        {
          "internalType": "uint256",
          "name": "tokenId",
          "type": "uint256"
        }
      ],
      "name": "approve",
      "outputs": [],
      "stateMutability": "nonpayable",
      "type": "function"
    },
    {
      "inputs": [
        {
          "internalType": "address",
          "name": "owner",
          "type": "address"
        }
      ],
      "name": "balanceOf",
      "outputs": [
        {
          "internalType": "uint256",
          "name": "",
          "type": "uint256"
        }
      ],
      "stateMutability": "view",
      "type": "function"
    },
    {
      "inputs": [],
      "name": "create",
      "outputs": [
        {
          "internalType": "bytes32",
          "name": "requestId",
          "type": "bytes32"
        }
      ],
      "stateMutability": "payable",
      "type": "function"
    },
    {
      "inputs": [],
      "name": "fee",
      "outputs": [
        {
          "internalType": "uint256",
          "name": "",
          "type": "uint256"
        }
      ],
      "stateMutability": "view",
      "type": "function"
    },
    {
      "inputs": [
        {
          "internalType": "uint256",
          "name": "_tokenId",
          "type": "uint256"
        }
      ],
      "name": "finishMint",
      "outputs": [],
      "stateMutability": "nonpayable",
      "type": "function"
    },
    {
      "inputs": [
        {
          "internalType": "uint256",
          "name": "tokenId",
          "type": "uint256"
        }
      ],
      "name": "getApproved",
      "outputs": [
        {
          "internalType": "address",
          "name": "",
          "type": "address"
        }
      ],
      "stateMutability": "view",
      "type": "function"
    },
    {
      "inputs": [
        {
          "internalType": "uint256",
          "name": "_tokenId",
          "type": "uint256"
        }
      ],
      "name": "getFighterById",
      "outputs": [
        {
          "components": [
            {
              "internalType": "uint256",
              "name": "tokenId",
              "type": "uint256"
            },
            {
              "internalType": "string",
              "name": "name",
              "type": "string"
            },
            {
              "internalType": "uint256",
              "name": "level",
              "type": "uint256"
            },
            {
              "internalType": "uint256",
              "name": "wins",
              "type": "uint256"
            },
            {
              "internalType": "uint256",
              "name": "hp",
              "type": "uint256"
            },
            {
              "internalType": "uint256",
              "name": "strength",
              "type": "uint256"
            },
            {
              "internalType": "uint256",
              "name": "dexterity",
              "type": "uint256"
            },
            {
              "internalType": "uint256",
              "name": "agility",
              "type": "uint256"
            },
            {
              "internalType": "uint256",
              "name": "intelligence",
              "type": "uint256"
            },
            {
              "internalType": "uint256",
              "name": "durability",
              "type": "uint256"
            }
          ],
          "internalType": "struct lib.Fighter",
          "name": "_fighter",
          "type": "tuple"
        }
      ],
      "stateMutability": "view",
      "type": "function"
    },
    {
      "inputs": [
        {
          "internalType": "address",
          "name": "owner",
          "type": "address"
        },
        {
          "internalType": "address",
          "name": "operator",
          "type": "address"
        }
      ],
      "name": "isApprovedForAll",
      "outputs": [
        {
          "internalType": "bool",
          "name": "",
          "type": "bool"
        }
      ],
      "stateMutability": "view",
      "type": "function"
    },
    {
      "inputs": [],
      "name": "keyHash",
      "outputs": [
        {
          "internalType": "bytes32",
          "name": "",
          "type": "bytes32"
        }
      ],
      "stateMutability": "view",
      "type": "function"
    },
    {
      "inputs": [],
      "name": "name",
      "outputs": [
        {
          "internalType": "string",
          "name": "",
          "type": "string"
        }
      ],
      "stateMutability": "view",
      "type": "function"
    },
    {
      "inputs": [],
      "name": "owner",
      "outputs": [
        {
          "internalType": "address",
          "name": "",
          "type": "address"
        }
      ],
      "stateMutability": "view",
      "type": "function"
    },
    {
      "inputs": [
        {
          "internalType": "uint256",
          "name": "tokenId",
          "type": "uint256"
        }
      ],
      "name": "ownerOf",
      "outputs": [
        {
          "internalType": "address",
          "name": "",
          "type": "address"
        }
      ],
      "stateMutability": "view",
      "type": "function"
    },
    {
      "inputs": [
        {
          "internalType": "bytes32",
          "name": "requestId",
          "type": "bytes32"
        },
        {
          "internalType": "uint256",
          "name": "randomness",
          "type": "uint256"
        }
      ],
      "name": "rawFulfillRandomness",
      "outputs": [],
      "stateMutability": "nonpayable",
      "type": "function"
    },
    {
      "inputs": [],
      "name": "renounceOwnership",
      "outputs": [],
      "stateMutability": "nonpayable",
      "type": "function"
    },
    {
      "inputs": [
        {
          "internalType": "address",
          "name": "from",
          "type": "address"
        },
        {
          "internalType": "address",
          "name": "to",
          "type": "address"
        },
        {
          "internalType": "uint256",
          "name": "tokenId",
          "type": "uint256"
        }
      ],
      "name": "safeTransferFrom",
      "outputs": [],
      "stateMutability": "nonpayable",
      "type": "function"
    },
    {
      "inputs": [
        {
          "internalType": "address",
          "name": "from",
          "type": "address"
        },
        {
          "internalType": "address",
          "name": "to",
          "type": "address"
        },
        {
          "internalType": "uint256",
          "name": "tokenId",
          "type": "uint256"
        },
        {
          "internalType": "bytes",
          "name": "_data",
          "type": "bytes"
        }
      ],
      "name": "safeTransferFrom",
      "outputs": [],
      "stateMutability": "nonpayable",
      "type": "function"
    },
    {
      "inputs": [
        {
          "internalType": "address",
          "name": "operator",
          "type": "address"
        },
        {
          "internalType": "bool",
          "name": "approved",
          "type": "bool"
        }
      ],
      "name": "setApprovalForAll",
      "outputs": [],
      "stateMutability": "nonpayable",
      "type": "function"
    },
    {
      "inputs": [
        {
          "internalType": "address",
          "name": "_newTrainingContract",
          "type": "address"
        }
      ],
      "name": "setTrainingContract",
      "outputs": [],
      "stateMutability": "nonpayable",
      "type": "function"
    },
    {
      "inputs": [
        {
          "internalType": "bytes4",
          "name": "interfaceId",
          "type": "bytes4"
        }
      ],
      "name": "supportsInterface",
      "outputs": [
        {
          "internalType": "bool",
          "name": "",
          "type": "bool"
        }
      ],
      "stateMutability": "view",
      "type": "function"
    },
    {
      "inputs": [],
      "name": "symbol",
      "outputs": [
        {
          "internalType": "string",
          "name": "",
          "type": "string"
        }
      ],
      "stateMutability": "view",
      "type": "function"
    },
    {
      "inputs": [],
      "name": "tokenCounter",
      "outputs": [
        {
          "internalType": "uint256",
          "name": "",
          "type": "uint256"
        }
      ],
      "stateMutability": "view",
      "type": "function"
    },
    {
      "inputs": [
        {
          "internalType": "uint256",
          "name": "",
          "type": "uint256"
        }
      ],
      "name": "tokenIdToFighter",
      "outputs": [
        {
          "internalType": "uint256",
          "name": "tokenId",
          "type": "uint256"
        },
        {
          "internalType": "string",
          "name": "name",
          "type": "string"
        },
        {
          "internalType": "uint256",
          "name": "level",
          "type": "uint256"
        },
        {
          "internalType": "uint256",
          "name": "wins",
          "type": "uint256"
        },
        {
          "internalType": "uint256",
          "name": "hp",
          "type": "uint256"
        },
        {
          "internalType": "uint256",
          "name": "strength",
          "type": "uint256"
        },
        {
          "internalType": "uint256",
          "name": "dexterity",
          "type": "uint256"
        },
        {
          "internalType": "uint256",
          "name": "agility",
          "type": "uint256"
        },
        {
          "internalType": "uint256",
          "name": "intelligence",
          "type": "uint256"
        },
        {
          "internalType": "uint256",
          "name": "durability",
          "type": "uint256"
        }
      ],
      "stateMutability": "view",
      "type": "function"
    },
    {
      "inputs": [
        {
          "internalType": "uint256",
          "name": "tokenId",
          "type": "uint256"
        }
      ],
      "name": "tokenURI",
      "outputs": [
        {
          "internalType": "string",
          "name": "",
          "type": "string"
        }
      ],
      "stateMutability": "view",
      "type": "function"
    },
    {
      "inputs": [],
      "name": "totalSupply",
      "outputs": [
        {
          "internalType": "uint256",
          "name": "",
          "type": "uint256"
        }
      ],
      "stateMutability": "view",
      "type": "function"
    },
    {
      "inputs": [
        {
          "internalType": "address",
          "name": "from",
          "type": "address"
        },
        {
          "internalType": "address",
          "name": "to",
          "type": "address"
        },
        {
          "internalType": "uint256",
          "name": "tokenId",
          "type": "uint256"
        }
      ],
      "name": "transferFrom",
      "outputs": [],
      "stateMutability": "nonpayable",
      "type": "function"
    },
    {
      "inputs": [
        {
          "internalType": "address",
          "name": "newOwner",
          "type": "address"
        }
      ],
      "name": "transferOwnership",
      "outputs": [],
      "stateMutability": "nonpayable",
      "type": "function"
    },
    {
      "inputs": [
        {
          "internalType": "uint256",
          "name": "_tokenId",
          "type": "uint256"
        },
        {
          "components": [
            {
              "internalType": "uint256",
              "name": "tokenId",
              "type": "uint256"
            },
            {
              "internalType": "string",
              "name": "name",
              "type": "string"
            },
            {
              "internalType": "uint256",
              "name": "level",
              "type": "uint256"
            },
            {
              "internalType": "uint256",
              "name": "wins",
              "type": "uint256"
            },
            {
              "internalType": "uint256",
              "name": "hp",
              "type": "uint256"
            },
            {
              "internalType": "uint256",
              "name": "strength",
              "type": "uint256"
            },
            {
              "internalType": "uint256",
              "name": "dexterity",
              "type": "uint256"
            },
            {
              "internalType": "uint256",
              "name": "agility",
              "type": "uint256"
            },
            {
              "internalType": "uint256",
              "name": "intelligence",
              "type": "uint256"
            },
            {
              "internalType": "uint256",
              "name": "durability",
              "type": "uint256"
            }
          ],
          "internalType": "struct lib.Fighter",
          "name": "_fighter",
          "type": "tuple"
        }
      ],
      "name": "updateFighter",
      "outputs": [],
      "stateMutability": "nonpayable",
      "type": "function"
    }
  ],
  "transactionHash": "0x7b337e3484448d60c7b7a0469c57fc167a68808713ad50649b63773e1ada3125",
  "args": [
    "0xb3dCcb4Cf7a26f6cf6B120Cf5A73875B7BBc655B",
    "0x01be23585060835e02b77ef475b0cc51aa1e0709",
    "0x2ed0feb3e7fd2022120aa84fab1945545a9f2ffc9076fd6156fa96eaff4c1311",
    "100000000000000000"
  ],
  "solcInputHash": "6d71798ad4706cbfce0b509da5eedd60",
  "bytecode": "0x60c06040523480156200001157600080fd5b50604051620064223803806200642283398181016040528101906200003791906200037f565b83836040518060400160405280600a81526020017f426c6f6f6453706f7274000000000000000000000000000000000000000000008152506040518060400160405280600381526020017f424c4400000000000000000000000000000000000000000000000000000000008152508160009080519060200190620000bd9291906200028a565b508060019080519060200190620000d69291906200028a565b505050620000f9620000ed620001bc60201b60201c565b620001c460201b60201c565b8173ffffffffffffffffffffffffffffffffffffffff1660a08173ffffffffffffffffffffffffffffffffffffffff1660601b815250508073ffffffffffffffffffffffffffffffffffffffff1660808173ffffffffffffffffffffffffffffffffffffffff1660601b81525050505080600a8190555081600b819055506000600981905550670de0b6b3a7640000600e81905550612710600f819055506000601060006101000a81548160ff02191690831515021790555050505050620004e6565b600033905090565b6000600760009054906101000a900473ffffffffffffffffffffffffffffffffffffffff16905081600760006101000a81548173ffffffffffffffffffffffffffffffffffffffff021916908373ffffffffffffffffffffffffffffffffffffffff1602179055508173ffffffffffffffffffffffffffffffffffffffff168173ffffffffffffffffffffffffffffffffffffffff167f8be0079c531659141344cd1fd0a4f28419497f9722a3daafe3b4186f6b6457e060405160405180910390a35050565b828054620002989062000433565b90600052602060002090601f016020900481019282620002bc576000855562000308565b82601f10620002d757805160ff191683800117855562000308565b8280016001018555821562000308579182015b8281111562000307578251825591602001919060010190620002ea565b5b5090506200031791906200031b565b5090565b5b80821115620003365760008160009055506001016200031c565b5090565b6000815190506200034b8162000498565b92915050565b6000815190506200036281620004b2565b92915050565b6000815190506200037981620004cc565b92915050565b600080600080608085870312156200039657600080fd5b6000620003a6878288016200033a565b9450506020620003b9878288016200033a565b9350506040620003cc8782880162000351565b9250506060620003df8782880162000368565b91505092959194509250565b6000620003f88262000409565b9050919050565b6000819050919050565b600073ffffffffffffffffffffffffffffffffffffffff82169050919050565b6000819050919050565b600060028204905060018216806200044c57607f821691505b6020821081141562000463576200046262000469565b5b50919050565b7f4e487b7100000000000000000000000000000000000000000000000000000000600052602260045260246000fd5b620004a381620003eb565b8114620004af57600080fd5b50565b620004bd81620003ff565b8114620004c957600080fd5b50565b620004d78162000429565b8114620004e357600080fd5b50565b60805160601c60a05160601c615f096200051960003960008181611376015261294d015260006129110152615f096000f3fe60806040526004361061019c5760003560e01c80636352211e116100ec578063b88d4fde1161008a578063ddca3f4311610064578063ddca3f43146105df578063e985e9c51461060a578063efc81a8c14610647578063f2fde38b146106655761019c565b8063b88d4fde1461054e578063c87b56dd14610577578063d082e381146105b45761019c565b80638da5cb5b116100c65780638da5cb5b146104a657806394985ddd146104d157806395d89b41146104fa578063a22cb465146105255761019c565b80636352211e1461041557806370a0823114610452578063715018a61461048f5761019c565b80632bbce2d11161015957806344d510701161013357806344d510701461036f57806348cb16421461039857806361728f39146103c1578063624194c7146103ec5761019c565b80632bbce2d1146102c3578063368dc9f21461030957806342842e0e146103465761019c565b806301ffc9a7146101a157806306fdde03146101de578063081812fc14610209578063095ea7b31461024657806318160ddd1461026f57806323b872dd1461029a575b600080fd5b3480156101ad57600080fd5b506101c860048036038101906101c39190613a15565b61068e565b6040516101d591906146d9565b60405180910390f35b3480156101ea57600080fd5b506101f3610770565b604051610200919061477d565b60405180910390f35b34801561021557600080fd5b50610230600480360381019061022b9190613a67565b610802565b60405161023d9190614634565b60405180910390f35b34801561025257600080fd5b5061026d60048036038101906102689190613974565b610887565b005b34801561027b57600080fd5b5061028461099f565b6040516102919190614ac1565b60405180910390f35b3480156102a657600080fd5b506102c160048036038101906102bc919061386e565b6109a9565b005b3480156102cf57600080fd5b506102ea60048036038101906102e59190613a67565b610a09565b6040516103009a99989796959493929190614adc565b60405180910390f35b34801561031557600080fd5b50610330600480360381019061032b9190613a67565b610ae5565b60405161033d9190614a9f565b60405180910390f35b34801561035257600080fd5b5061036d6004803603810190610368919061386e565b610bff565b005b34801561037b57600080fd5b5061039660048036038101906103919190613a90565b610c1f565b005b3480156103a457600080fd5b506103bf60048036038101906103ba9190613809565b610d12565b005b3480156103cd57600080fd5b506103d6610dd2565b6040516103e391906146f4565b60405180910390f35b3480156103f857600080fd5b50610413600480360381019061040e9190613a67565b610dd8565b005b34801561042157600080fd5b5061043c60048036038101906104379190613a67565b611158565b6040516104499190614634565b60405180910390f35b34801561045e57600080fd5b5061047960048036038101906104749190613809565b61120a565b6040516104869190614ac1565b60405180910390f35b34801561049b57600080fd5b506104a46112c2565b005b3480156104b257600080fd5b506104bb61134a565b6040516104c89190614634565b60405180910390f35b3480156104dd57600080fd5b506104f860048036038101906104f391906139d9565b611374565b005b34801561050657600080fd5b5061050f611410565b60405161051c919061477d565b60405180910390f35b34801561053157600080fd5b5061054c60048036038101906105479190613938565b6114a2565b005b34801561055a57600080fd5b50610575600480360381019061057091906138bd565b611623565b005b34801561058357600080fd5b5061059e60048036038101906105999190613a67565b611685565b6040516105ab919061477d565b60405180910390f35b3480156105c057600080fd5b506105c96117d7565b6040516105d69190614ac1565b60405180910390f35b3480156105eb57600080fd5b506105f46117dd565b6040516106019190614ac1565b60405180910390f35b34801561061657600080fd5b50610631600480360381019061062c9190613832565b6117e3565b60405161063e91906146d9565b60405180910390f35b61064f611877565b60405161065c91906146f4565b60405180910390f35b34801561067157600080fd5b5061068c60048036038101906106879190613809565b6119da565b005b60007f80ac58cd000000000000000000000000000000000000000000000000000000007bffffffffffffffffffffffffffffffffffffffffffffffffffffffff1916827bffffffffffffffffffffffffffffffffffffffffffffffffffffffff1916148061075957507f5b5e139f000000000000000000000000000000000000000000000000000000007bffffffffffffffffffffffffffffffffffffffffffffffffffffffff1916827bffffffffffffffffffffffffffffffffffffffffffffffffffffffff1916145b80610769575061076882611ad2565b5b9050919050565b60606000805461077f90614e9c565b80601f01602080910402602001604051908101604052809291908181526020018280546107ab90614e9c565b80156107f85780601f106107cd576101008083540402835291602001916107f8565b820191906000526020600020905b8154815290600101906020018083116107db57829003601f168201915b5050505050905090565b600061080d82611b3c565b61084c576040517f08c379a00000000000000000000000000000000000000000000000000000000081526004016108439061495f565b60405180910390fd5b6004600083815260200190815260200160002060009054906101000a900473ffffffffffffffffffffffffffffffffffffffff169050919050565b600061089282611158565b90508073ffffffffffffffffffffffffffffffffffffffff168373ffffffffffffffffffffffffffffffffffffffff161415610903576040517f08c379a00000000000000000000000000000000000000000000000000000000081526004016108fa90614a1f565b60405180910390fd5b8073ffffffffffffffffffffffffffffffffffffffff16610922611ba8565b73ffffffffffffffffffffffffffffffffffffffff16148061095157506109508161094b611ba8565b6117e3565b5b610990576040517f08c379a00000000000000000000000000000000000000000000000000000000081526004016109879061489f565b60405180910390fd5b61099a8383611bb0565b505050565b6000600954905090565b6109ba6109b4611ba8565b82611c69565b6109f9576040517f08c379a00000000000000000000000000000000000000000000000000000000081526004016109f090614a5f565b60405180910390fd5b610a04838383611d47565b505050565b6011602052806000526040600020600091509050806000015490806001018054610a3290614e9c565b80601f0160208091040260200160405190810160405280929190818152602001828054610a5e90614e9c565b8015610aab5780601f10610a8057610100808354040283529160200191610aab565b820191906000526020600020905b815481529060010190602001808311610a8e57829003601f168201915b505050505090806002015490806003015490806004015490806005015490806006015490806007015490806008015490806009015490508a565b610aed6134a6565b601160008381526020019081526020016000206040518061014001604052908160008201548152602001600182018054610b2690614e9c565b80601f0160208091040260200160405190810160405280929190818152602001828054610b5290614e9c565b8015610b9f5780601f10610b7457610100808354040283529160200191610b9f565b820191906000526020600020905b815481529060010190602001808311610b8257829003601f168201915b50505050508152602001600282015481526020016003820154815260200160048201548152602001600582015481526020016006820154815260200160078201548152602001600882015481526020016009820154815250509050919050565b610c1a83838360405180602001604052806000815250611623565b505050565b8060116000848152602001908152602001600020600082015181600001556020820151816001019080519060200190610c599291906134f9565b5060408201518160020155606082015181600301556080820151816004015560a0820151816005015560c0820151816006015560e08201518160070155610100820151816008015561012082015181600901559050506000610cba82611fa3565b90506000610cc8828461204a565b9050610cd4848261215c565b837f8088b75520f63d2193a6f5015badbc4cc953e620977a8c91f11b4227043fcb3882604051610d04919061477d565b60405180910390a250505050565b610d1a611ba8565b73ffffffffffffffffffffffffffffffffffffffff16610d3861134a565b73ffffffffffffffffffffffffffffffffffffffff1614610d8e576040517f08c379a0000000000000000000000000000000000000000000000000000000008152600401610d859061497f565b60405180910390fd5b80600c60006101000a81548173ffffffffffffffffffffffffffffffffffffffff021916908373ffffffffffffffffffffffffffffffffffffffff16021790555050565b600b5481565b6000610de382611685565b511115610e25576040517f08c379a0000000000000000000000000000000000000000000000000000000008152600401610e1c9061485f565b60405180910390fd5b8060095411610e69576040517f08c379a0000000000000000000000000000000000000000000000000000000008152600401610e609061479f565b60405180910390fd5b6000601460008381526020019081526020016000205411610ebf576040517f08c379a0000000000000000000000000000000000000000000000000000000008152600401610eb690614a3f565b60405180910390fd5b600060146000838152602001908152602001600020549050610ee182826121d0565b6000610ff6601160008581526020019081526020016000206040518061014001604052908160008201548152602001600182018054610f1f90614e9c565b80601f0160208091040260200160405190810160405280929190818152602001828054610f4b90614e9c565b8015610f985780601f10610f6d57610100808354040283529160200191610f98565b820191906000526020600020905b815481529060010190602001808311610f7b57829003601f168201915b5050505050815260200160028201548152602001600382015481526020016004820154815260200160058201548152602001600682015481526020016007820154815260200160088201548152602001600982015481525050611fa3565b9050600061110e8260116000878152602001908152602001600020604051806101400160405290816000820154815260200160018201805461103790614e9c565b80601f016020809104026020016040519081016040528092919081815260200182805461106390614e9c565b80156110b05780601f10611085576101008083540402835291602001916110b0565b820191906000526020600020905b81548152906001019060200180831161109357829003601f168201915b505050505081526020016002820154815260200160038201548152602001600482015481526020016005820154815260200160068201548152602001600782015481526020016008820154815260200160098201548152505061204a565b905061111a848261215c565b837fb5a8d8cf5d01b5006e471421ba7da032446e2a82412342ed548b7aeed0ea9b698260405161114a919061477d565b60405180910390a250505050565b6000806002600084815260200190815260200160002060009054906101000a900473ffffffffffffffffffffffffffffffffffffffff169050600073ffffffffffffffffffffffffffffffffffffffff168173ffffffffffffffffffffffffffffffffffffffff161415611201576040517f08c379a00000000000000000000000000000000000000000000000000000000081526004016111f8906148df565b60405180910390fd5b80915050919050565b60008073ffffffffffffffffffffffffffffffffffffffff168273ffffffffffffffffffffffffffffffffffffffff16141561127b576040517f08c379a0000000000000000000000000000000000000000000000000000000008152600401611272906148bf565b60405180910390fd5b600360008373ffffffffffffffffffffffffffffffffffffffff1673ffffffffffffffffffffffffffffffffffffffff168152602001908152602001600020549050919050565b6112ca611ba8565b73ffffffffffffffffffffffffffffffffffffffff166112e861134a565b73ffffffffffffffffffffffffffffffffffffffff161461133e576040517f08c379a00000000000000000000000000000000000000000000000000000000081526004016113359061497f565b60405180910390fd5b6113486000612687565b565b6000600760009054906101000a900473ffffffffffffffffffffffffffffffffffffffff16905090565b7f000000000000000000000000000000000000000000000000000000000000000073ffffffffffffffffffffffffffffffffffffffff163373ffffffffffffffffffffffffffffffffffffffff1614611402576040517f08c379a00000000000000000000000000000000000000000000000000000000081526004016113f9906149ff565b60405180910390fd5b61140c828261274d565b5050565b60606001805461141f90614e9c565b80601f016020809104026020016040519081016040528092919081815260200182805461144b90614e9c565b80156114985780601f1061146d57610100808354040283529160200191611498565b820191906000526020600020905b81548152906001019060200180831161147b57829003601f168201915b5050505050905090565b6114aa611ba8565b73ffffffffffffffffffffffffffffffffffffffff168273ffffffffffffffffffffffffffffffffffffffff161415611518576040517f08c379a000000000000000000000000000000000000000000000000000000000815260040161150f9061483f565b60405180910390fd5b8060056000611525611ba8565b73ffffffffffffffffffffffffffffffffffffffff1673ffffffffffffffffffffffffffffffffffffffff16815260200190815260200160002060008473ffffffffffffffffffffffffffffffffffffffff1673ffffffffffffffffffffffffffffffffffffffff16815260200190815260200160002060006101000a81548160ff0219169083151502179055508173ffffffffffffffffffffffffffffffffffffffff166115d2611ba8565b73ffffffffffffffffffffffffffffffffffffffff167f17307eab39ab6107e8899845ad3d59bd9653f200f220920489ca2b5937696c318360405161161791906146d9565b60405180910390a35050565b61163461162e611ba8565b83611c69565b611673576040517f08c379a000000000000000000000000000000000000000000000000000000000815260040161166a90614a5f565b60405180910390fd5b61167f848484846127f3565b50505050565b606061169082611b3c565b6116cf576040517f08c379a00000000000000000000000000000000000000000000000000000000081526004016116c69061493f565b60405180910390fd5b60006006600084815260200190815260200160002080546116ef90614e9c565b80601f016020809104026020016040519081016040528092919081815260200182805461171b90614e9c565b80156117685780601f1061173d57610100808354040283529160200191611768565b820191906000526020600020905b81548152906001019060200180831161174b57829003601f168201915b50505050509050600061177961284f565b905060008151141561178f5781925050506117d2565b6000825111156117c45780826040516020016117ac9291906143e6565b604051602081830303815290604052925050506117d2565b6117cd84612866565b925050505b919050565b60095481565b600a5481565b6000600560008473ffffffffffffffffffffffffffffffffffffffff1673ffffffffffffffffffffffffffffffffffffffff16815260200190815260200160002060008373ffffffffffffffffffffffffffffffffffffffff1673ffffffffffffffffffffffffffffffffffffffff16815260200190815260200160002060009054906101000a900460ff16905092915050565b6000601060009054906101000a900460ff16156118c9576040517f08c379a00000000000000000000000000000000000000000000000000000000081526004016118c09061499f565b60405180910390fd5b600f546009541061190f576040517f08c379a000000000000000000000000000000000000000000000000000000000815260040161190690614a7f565b60405180910390fd5b61191d600b54600a5461290d565b9050336012600083815260200190815260200160002060006101000a81548173ffffffffffffffffffffffffffffffffffffffff021916908373ffffffffffffffffffffffffffffffffffffffff16021790555060006009549050806013600084815260200190815260200160002081905550600960008154809291906119a390614eff565b919050555080827fd18cd6f82baac9078af064ea020dd3dc7bff649bd8d50684f972d5995fec6e6960405160405180910390a35090565b6119e2611ba8565b73ffffffffffffffffffffffffffffffffffffffff16611a0061134a565b73ffffffffffffffffffffffffffffffffffffffff1614611a56576040517f08c379a0000000000000000000000000000000000000000000000000000000008152600401611a4d9061497f565b60405180910390fd5b600073ffffffffffffffffffffffffffffffffffffffff168173ffffffffffffffffffffffffffffffffffffffff161415611ac6576040517f08c379a0000000000000000000000000000000000000000000000000000000008152600401611abd906147df565b60405180910390fd5b611acf81612687565b50565b60007f01ffc9a7000000000000000000000000000000000000000000000000000000007bffffffffffffffffffffffffffffffffffffffffffffffffffffffff1916827bffffffffffffffffffffffffffffffffffffffffffffffffffffffff1916149050919050565b60008073ffffffffffffffffffffffffffffffffffffffff166002600084815260200190815260200160002060009054906101000a900473ffffffffffffffffffffffffffffffffffffffff1673ffffffffffffffffffffffffffffffffffffffff1614159050919050565b600033905090565b816004600083815260200190815260200160002060006101000a81548173ffffffffffffffffffffffffffffffffffffffff021916908373ffffffffffffffffffffffffffffffffffffffff160217905550808273ffffffffffffffffffffffffffffffffffffffff16611c2383611158565b73ffffffffffffffffffffffffffffffffffffffff167f8c5be1e5ebec7d5bd14f71427d1e84f3dd0314c0f7b2291e5b200ac8c7c3b92560405160405180910390a45050565b6000611c7482611b3c565b611cb3576040517f08c379a0000000000000000000000000000000000000000000000000000000008152600401611caa9061487f565b60405180910390fd5b6000611cbe83611158565b90508073ffffffffffffffffffffffffffffffffffffffff168473ffffffffffffffffffffffffffffffffffffffff161480611d2d57508373ffffffffffffffffffffffffffffffffffffffff16611d1584610802565b73ffffffffffffffffffffffffffffffffffffffff16145b80611d3e5750611d3d81856117e3565b5b91505092915050565b8273ffffffffffffffffffffffffffffffffffffffff16611d6782611158565b73ffffffffffffffffffffffffffffffffffffffff1614611dbd576040517f08c379a0000000000000000000000000000000000000000000000000000000008152600401611db4906149bf565b60405180910390fd5b600073ffffffffffffffffffffffffffffffffffffffff168273ffffffffffffffffffffffffffffffffffffffff161415611e2d576040517f08c379a0000000000000000000000000000000000000000000000000000000008152600401611e249061481f565b60405180910390fd5b611e38838383612a6f565b611e43600082611bb0565b6001600360008573ffffffffffffffffffffffffffffffffffffffff1673ffffffffffffffffffffffffffffffffffffffff1681526020019081526020016000206000828254611e939190614d9b565b925050819055506001600360008473ffffffffffffffffffffffffffffffffffffffff1673ffffffffffffffffffffffffffffffffffffffff1681526020019081526020016000206000828254611eea9190614c83565b92505081905550816002600083815260200190815260200160002060006101000a81548173ffffffffffffffffffffffffffffffffffffffff021916908373ffffffffffffffffffffffffffffffffffffffff160217905550808273ffffffffffffffffffffffffffffffffffffffff168473ffffffffffffffffffffffffffffffffffffffff167fddf252ad1be2c89b69c2b068fc378daa952ba7f163c4a11628f55a4df523b3ef60405160405180910390a4505050565b60606000611fb083612a74565b905060006040518060400160405280601a81526020017f646174613a696d6167652f7376672b786d6c3b6261736536342c000000000000815250905060006120168360405160200161200291906143cf565b604051602081830303815290604052612b19565b90506000828260405160200161202d9291906143e6565b604051602081830303815290604052905080945050505050919050565b606060006040518060400160405280601d81526020017f646174613a6170706c69636174696f6e2f6a736f6e3b6261736536342c00000081525090506000612128846020015161209d8660400151612cc4565b6120aa8760600151612cc4565b6120b78860800151612cc4565b6120c48960a00151612cc4565b6120d18a60c00151612cc4565b6120de8b60e00151612cc4565b6120ec8c6101000151612cc4565b6120fa8d6101200151612cc4565b8e6040516020016121149a99989796959493929190614519565b604051602081830303815290604052612b19565b90506000828260405160200161213f9291906143e6565b604051602081830303815290604052905080935050505092915050565b61216582611b3c565b6121a4576040517f08c379a000000000000000000000000000000000000000000000000000000000815260040161219b906148ff565b60405180910390fd5b806006600084815260200190815260200160002090805190602001906121cb9291906134f9565b505050565b6000600667ffffffffffffffff811115612213577f4e487b7100000000000000000000000000000000000000000000000000000000600052604160045260246000fd5b6040519080825280602002602001820160405280156122415781602001602082028036833780820191505090505b50905060005b60068110156123ab5760008382604051602001612265929190614b7f565b6040516020818303038152906040528051906020012060001c905060008214156122ec576001600a826122989190614f5c565b6122a29190614c83565b8383815181106122db577f4e487b7100000000000000000000000000000000000000000000000000000000600052603260045260246000fd5b602002602001018181525050612397565b600183600081518110612328577f4e487b7100000000000000000000000000000000000000000000000000000000600052603260045260246000fd5b6020026020010151600a61233c9190614d41565b826123479190614f5c565b6123519190614c83565b83838151811061238a577f4e487b7100000000000000000000000000000000000000000000000000000000600052603260045260246000fd5b6020026020010181815250505b5080806123a390614eff565b915050612247565b5060006123b784612cc4565b6040516020016123c7919061440a565b60405160208183030381529060405290506040518061014001604052808581526020018281526020018360008151811061242a577f4e487b7100000000000000000000000000000000000000000000000000000000600052603260045260246000fd5b602002602001015181526020016000815260200160148460008151811061247a577f4e487b7100000000000000000000000000000000000000000000000000000000600052603260045260246000fd5b602002602001015161248c9190614d41565b8152602001836001815181106124cb577f4e487b7100000000000000000000000000000000000000000000000000000000600052603260045260246000fd5b6020026020010151815260200183600281518110612512577f4e487b7100000000000000000000000000000000000000000000000000000000600052603260045260246000fd5b6020026020010151815260200183600381518110612559577f4e487b7100000000000000000000000000000000000000000000000000000000600052603260045260246000fd5b60200260200101518152602001836004815181106125a0577f4e487b7100000000000000000000000000000000000000000000000000000000600052603260045260246000fd5b60200260200101518152602001836005815181106125e7577f4e487b7100000000000000000000000000000000000000000000000000000000600052603260045260246000fd5b60200260200101518152506011600086815260200190815260200160002060008201518160000155602082015181600101908051906020019061262b9291906134f9565b5060408201518160020155606082015181600301556080820151816004015560a0820151816005015560c0820151816006015560e082015181600701556101008201518160080155610120820151816009015590505050505050565b6000600760009054906101000a900473ffffffffffffffffffffffffffffffffffffffff16905081600760006101000a81548173ffffffffffffffffffffffffffffffffffffffff021916908373ffffffffffffffffffffffffffffffffffffffff1602179055508173ffffffffffffffffffffffffffffffffffffffff168173ffffffffffffffffffffffffffffffffffffffff167f8be0079c531659141344cd1fd0a4f28419497f9722a3daafe3b4186f6b6457e060405160405180910390a35050565b60006012600084815260200190815260200160002060009054906101000a900473ffffffffffffffffffffffffffffffffffffffff1690506000601360008581526020019081526020016000205490506127a78282612e99565b82601460008381526020019081526020016000208190555082817faad5362ce528ed941024b95d4c18dfd49b8503e1f586a5c353631d98c2af41b760405160405180910390a350505050565b6127fe848484611d47565b61280a84848484612eb7565b612849576040517f08c379a0000000000000000000000000000000000000000000000000000000008152600401612840906147bf565b60405180910390fd5b50505050565b606060405180602001604052806000815250905090565b606061287182611b3c565b6128b0576040517f08c379a00000000000000000000000000000000000000000000000000000000081526004016128a7906149df565b60405180910390fd5b60006128ba61284f565b905060008151116128da5760405180602001604052806000815250612905565b806128e48461304e565b6040516020016128f59291906143e6565b6040516020818303038152906040525b915050919050565b60007f000000000000000000000000000000000000000000000000000000000000000073ffffffffffffffffffffffffffffffffffffffff16634000aea07f00000000000000000000000000000000000000000000000000000000000000008486600060405160200161298192919061470f565b6040516020818303038152906040526040518463ffffffff1660e01b81526004016129ae9392919061469b565b602060405180830381600087803b1580156129c857600080fd5b505af11580156129dc573d6000803e3d6000fd5b505050506040513d601f19601f82011682018060405250810190612a0091906139b0565b506000612a238460003060086000898152602001908152602001600020546131fb565b905060016008600086815260200190815260200160002054612a459190614c83565b6008600086815260200190815260200160002081905550612a668482613237565b91505092915050565b505050565b606060008260200151612a8a8460400151612cc4565b612a978560600151612cc4565b612aa48660800151612cc4565b612ab18760a00151612cc4565b612abe8860c00151612cc4565b612acb8960e00151612cc4565b612ad98a6101000151612cc4565b612ae78b6101200151612cc4565b604051602001612aff9998979695949392919061442c565b604051602081830303815290604052905080915050919050565b6060600082511415612b3c57604051806020016040528060008152509050612cbf565b6000604051806060016040528060408152602001615e946040913990506000600360028551612b6b9190614c83565b612b759190614d10565b6004612b819190614d41565b90506000602082612b929190614c83565b67ffffffffffffffff811115612bd1577f4e487b7100000000000000000000000000000000000000000000000000000000600052604160045260246000fd5b6040519080825280601f01601f191660200182016040528015612c035781602001600182028036833780820191505090505b509050818152600183018586518101602084015b81831015612c7e576003830192508251603f8160121c1685015160f81b8252600182019150603f81600c1c1685015160f81b8252600182019150603f8160061c1685015160f81b8252600182019150603f811685015160f81b825260018201915050612c17565b600389510660018114612c985760028114612ca857612cb3565b613d3d60f01b6002830352612cb3565b603d60f81b60018303525b50505050508093505050505b919050565b60606000821415612d0c576040518060400160405280600181526020017f30000000000000000000000000000000000000000000000000000000000000008152509050612e94565b600082905060005b60008214612d3e578080612d2790614eff565b915050600a82612d379190614d10565b9150612d14565b60008167ffffffffffffffff811115612d80577f4e487b7100000000000000000000000000000000000000000000000000000000600052604160045260246000fd5b6040519080825280601f01601f191660200182016040528015612db25781602001600182028036833780820191505090505b50905060008290505b60008614612e8c57600181612dd09190614d9b565b90506000600a8088612de29190614d10565b612dec9190614d41565b87612df79190614d9b565b6030612e039190614cd9565b905060008160f81b905080848481518110612e47577f4e487b7100000000000000000000000000000000000000000000000000000000600052603260045260246000fd5b60200101907effffffffffffffffffffffffffffffffffffffffffffffffffffffffffffff1916908160001a905350600a88612e839190614d10565b97505050612dbb565b819450505050505b919050565b612eb382826040518060200160405280600081525061326a565b5050565b6000612ed88473ffffffffffffffffffffffffffffffffffffffff166132c5565b15613041578373ffffffffffffffffffffffffffffffffffffffff1663150b7a02612f01611ba8565b8786866040518563ffffffff1660e01b8152600401612f23949392919061464f565b602060405180830381600087803b158015612f3d57600080fd5b505af1925050508015612f6e57506040513d601f19601f82011682018060405250810190612f6b9190613a3e565b60015b612ff1573d8060008114612f9e576040519150601f19603f3d011682016040523d82523d6000602084013e612fa3565b606091505b50600081511415612fe9576040517f08c379a0000000000000000000000000000000000000000000000000000000008152600401612fe0906147bf565b60405180910390fd5b805181602001fd5b63150b7a0260e01b7bffffffffffffffffffffffffffffffffffffffffffffffffffffffff1916817bffffffffffffffffffffffffffffffffffffffffffffffffffffffff191614915050613046565b600190505b949350505050565b60606000821415613096576040518060400160405280600181526020017f300000000000000000000000000000000000000000000000000000000000000081525090506131f6565b600082905060005b600082146130c85780806130b190614eff565b915050600a826130c19190614d10565b915061309e565b60008167ffffffffffffffff81111561310a577f4e487b7100000000000000000000000000000000000000000000000000000000600052604160045260246000fd5b6040519080825280601f01601f19166020018201604052801561313c5781602001600182028036833780820191505090505b5090505b600085146131ef576001826131559190614d9b565b9150600a856131649190614f5c565b60306131709190614c83565b60f81b8183815181106131ac577f4e487b7100000000000000000000000000000000000000000000000000000000600052603260045260246000fd5b60200101907effffffffffffffffffffffffffffffffffffffffffffffffffffffffffffff1916908160001a905350600a856131e89190614d10565b9450613140565b8093505050505b919050565b6000848484846040516020016132149493929190614738565b6040516020818303038152906040528051906020012060001c9050949350505050565b6000828260405160200161324c9291906143a3565b60405160208183030381529060405280519060200120905092915050565b61327483836132d8565b6132816000848484612eb7565b6132c0576040517f08c379a00000000000000000000000000000000000000000000000000000000081526004016132b7906147bf565b60405180910390fd5b505050565b600080823b905060008111915050919050565b600073ffffffffffffffffffffffffffffffffffffffff168273ffffffffffffffffffffffffffffffffffffffff161415613348576040517f08c379a000000000000000000000000000000000000000000000000000000000815260040161333f9061491f565b60405180910390fd5b61335181611b3c565b15613391576040517f08c379a0000000000000000000000000000000000000000000000000000000008152600401613388906147ff565b60405180910390fd5b61339d60008383612a6f565b6001600360008473ffffffffffffffffffffffffffffffffffffffff1673ffffffffffffffffffffffffffffffffffffffff16815260200190815260200160002060008282546133ed9190614c83565b92505081905550816002600083815260200190815260200160002060006101000a81548173ffffffffffffffffffffffffffffffffffffffff021916908373ffffffffffffffffffffffffffffffffffffffff160217905550808273ffffffffffffffffffffffffffffffffffffffff16600073ffffffffffffffffffffffffffffffffffffffff167fddf252ad1be2c89b69c2b068fc378daa952ba7f163c4a11628f55a4df523b3ef60405160405180910390a45050565b604051806101400160405280600081526020016060815260200160008152602001600081526020016000815260200160008152602001600081526020016000815260200160008152602001600081525090565b82805461350590614e9c565b90600052602060002090601f016020900481019282613527576000855561356e565b82601f1061354057805160ff191683800117855561356e565b8280016001018555821561356e579182015b8281111561356d578251825591602001919060010190613552565b5b50905061357b919061357f565b5090565b5b80821115613598576000816000905550600101613580565b5090565b60006135af6135aa84614bcd565b614ba8565b9050828152602081018484840111156135c757600080fd5b6135d2848285614e5a565b509392505050565b60006135ed6135e884614bfe565b614ba8565b90508281526020810184848401111561360557600080fd5b613610848285614e5a565b509392505050565b60008135905061362781615e20565b92915050565b60008135905061363c81615e37565b92915050565b60008151905061365181615e37565b92915050565b60008135905061366681615e4e565b92915050565b60008135905061367b81615e65565b92915050565b60008151905061369081615e65565b92915050565b600082601f8301126136a757600080fd5b81356136b784826020860161359c565b91505092915050565b600082601f8301126136d157600080fd5b81356136e18482602086016135da565b91505092915050565b600061014082840312156136fd57600080fd5b613708610140614ba8565b90506000613718848285016137f4565b600083015250602082013567ffffffffffffffff81111561373857600080fd5b613744848285016136c0565b6020830152506040613758848285016137f4565b604083015250606061376c848285016137f4565b6060830152506080613780848285016137f4565b60808301525060a0613794848285016137f4565b60a08301525060c06137a8848285016137f4565b60c08301525060e06137bc848285016137f4565b60e0830152506101006137d1848285016137f4565b610100830152506101206137e7848285016137f4565b6101208301525092915050565b60008135905061380381615e7c565b92915050565b60006020828403121561381b57600080fd5b600061382984828501613618565b91505092915050565b6000806040838503121561384557600080fd5b600061385385828601613618565b925050602061386485828601613618565b9150509250929050565b60008060006060848603121561388357600080fd5b600061389186828701613618565b93505060206138a286828701613618565b92505060406138b3868287016137f4565b9150509250925092565b600080600080608085870312156138d357600080fd5b60006138e187828801613618565b94505060206138f287828801613618565b9350506040613903878288016137f4565b925050606085013567ffffffffffffffff81111561392057600080fd5b61392c87828801613696565b91505092959194509250565b6000806040838503121561394b57600080fd5b600061395985828601613618565b925050602061396a8582860161362d565b9150509250929050565b6000806040838503121561398757600080fd5b600061399585828601613618565b92505060206139a6858286016137f4565b9150509250929050565b6000602082840312156139c257600080fd5b60006139d084828501613642565b91505092915050565b600080604083850312156139ec57600080fd5b60006139fa85828601613657565b9250506020613a0b858286016137f4565b9150509250929050565b600060208284031215613a2757600080fd5b6000613a358482850161366c565b91505092915050565b600060208284031215613a5057600080fd5b6000613a5e84828501613681565b91505092915050565b600060208284031215613a7957600080fd5b6000613a87848285016137f4565b91505092915050565b60008060408385031215613aa357600080fd5b6000613ab1858286016137f4565b925050602083013567ffffffffffffffff811115613ace57600080fd5b613ada858286016136ea565b9150509250929050565b613aed81614dcf565b82525050565b613afc81614de1565b82525050565b613b0b81614ded565b82525050565b613b22613b1d82614ded565b614f48565b82525050565b6000613b3382614c2f565b613b3d8185614c45565b9350613b4d818560208601614e69565b613b5681615049565b840191505092915050565b6000613b6c82614c3a565b613b768185614c56565b9350613b86818560208601614e69565b613b8f81615049565b840191505092915050565b6000613ba582614c3a565b613baf8185614c67565b9350613bbf818560208601614e69565b613bc881615049565b840191505092915050565b6000613bde82614c3a565b613be88185614c78565b9350613bf8818560208601614e69565b80840191505092915050565b6000613c11603d83614c78565b9150613c1c8261505a565b603d82019050919050565b6000613c34601d83614c67565b9150613c3f826150a9565b602082019050919050565b6000613c57603283614c67565b9150613c62826150d2565b604082019050919050565b6000613c7a603a83614c78565b9150613c8582615121565b603a82019050919050565b6000613c9d602683614c67565b9150613ca882615170565b604082019050919050565b6000613cc0600c83614c78565b9150613ccb826151bf565b600c82019050919050565b6000613ce3601c83614c67565b9150613cee826151e8565b602082019050919050565b6000613d06602783614c78565b9150613d1182615211565b602782019050919050565b6000613d2960cf83614c78565b9150613d3482615260565b60cf82019050919050565b6000613d4c602983614c78565b9150613d578261536d565b602982019050919050565b6000613d6f603383614c78565b9150613d7a826153bc565b603382019050919050565b6000613d92602483614c67565b9150613d9d8261540b565b604082019050919050565b6000613db5601983614c67565b9150613dc08261545a565b602082019050919050565b6000613dd8601783614c67565b9150613de382615483565b602082019050919050565b6000613dfb603583614c78565b9150613e06826154ac565b603582019050919050565b6000613e1e602c83614c67565b9150613e29826154fb565b604082019050919050565b6000613e41600d83614c78565b9150613e4c8261554a565b600d82019050919050565b6000613e64602883614c78565b9150613e6f82615573565b602882019050919050565b6000613e87603883614c67565b9150613e92826155c2565b604082019050919050565b6000613eaa602a83614c67565b9150613eb582615611565b604082019050919050565b6000613ecd602983614c67565b9150613ed882615660565b604082019050919050565b6000613ef0602e83614c67565b9150613efb826156af565b604082019050919050565b6000613f13600e83614c78565b9150613f1e826156fe565b600e82019050919050565b6000613f36602683614c78565b9150613f4182615727565b602682019050919050565b6000613f59600283614c78565b9150613f6482615776565b600282019050919050565b6000613f7c603b83614c78565b9150613f878261579f565b603b82019050919050565b6000613f9f602083614c67565b9150613faa826157ee565b602082019050919050565b6000613fc2603183614c67565b9150613fcd82615817565b604082019050919050565b6000613fe5603383614c78565b9150613ff082615866565b603382019050919050565b6000614008602c83614c67565b9150614013826158b5565b604082019050919050565b600061402b602083614c67565b915061403682615904565b602082019050919050565b600061404e601583614c67565b91506140598261592d565b602082019050919050565b6000614071603983614c78565b915061407c82615956565b603982019050919050565b6000614094602983614c67565b915061409f826159a5565b604082019050919050565b60006140b7602b83614c78565b91506140c2826159f4565b602b82019050919050565b60006140da602f83614c67565b91506140e582615a43565b604082019050919050565b60006140fd600a83614c78565b915061410882615a92565b600a82019050919050565b6000614120601f83614c67565b915061412b82615abb565b602082019050919050565b6000614143602883614c78565b915061414e82615ae4565b602882019050919050565b6000614166602183614c67565b915061417182615b33565b604082019050919050565b6000614189601a83614c67565b915061419482615b82565b602082019050919050565b60006141ac603183614c67565b91506141b782615bab565b604082019050919050565b60006141cf602283614c78565b91506141da82615bfa565b602282019050919050565b60006141f2607683614c78565b91506141fd82615c49565b607682019050919050565b6000614215600f83614c67565b915061422082615ce4565b602082019050919050565b6000614238606183614c78565b915061424382615d0d565b606182019050919050565b600061425b600e83614c78565b915061426682615da8565b600e82019050919050565b600061427e603883614c78565b915061428982615dd1565b603882019050919050565b6000610140830160008301516142ad600086018261436e565b50602083015184820360208601526142c58282613b61565b91505060408301516142da604086018261436e565b5060608301516142ed606086018261436e565b506080830151614300608086018261436e565b5060a083015161431360a086018261436e565b5060c083015161432660c086018261436e565b5060e083015161433960e086018261436e565b5061010083015161434e61010086018261436e565b5061012083015161436361012086018261436e565b508091505092915050565b61437781614e43565b82525050565b61438681614e43565b82525050565b61439d61439882614e43565b614f52565b82525050565b60006143af8285613b11565b6020820191506143bf828461438c565b6020820191508190509392505050565b60006143db8284613bd3565b915081905092915050565b60006143f28285613bd3565b91506143fe8284613bd3565b91508190509392505050565b600061441582613cb3565b91506144218284613bd3565b915081905092915050565b600061443782613d1c565b9150614443828c613bd3565b915061444e826141e5565b915061445a828b613bd3565b915061446582613dee565b9150614471828a613bd3565b915061447c8261422b565b91506144888289613bd3565b915061449382613cf9565b915061449f8288613bd3565b91506144aa82614136565b91506144b68287613bd3565b91506144c182613f29565b91506144cd8286613bd3565b91506144d8826140aa565b91506144e48285613bd3565b91506144ef82613d3f565b91506144fb8284613bd3565b915061450682613e34565b91508190509a9950505050505050505050565b6000614524826140f0565b9150614530828d613bd3565b915061453b82613e57565b91506145468261424e565b915061455182613fd8565b915061455d828c613bd3565b9150614568826141c2565b9150614574828b613bd3565b915061457f82613d62565b915061458b828a613bd3565b915061459682614064565b91506145a28289613bd3565b91506145ad82613c6d565b91506145b98288613bd3565b91506145c482614271565b91506145d08287613bd3565b91506145db82613c04565b91506145e78286613bd3565b91506145f282613f6f565b91506145fe8285613bd3565b915061460982613f06565b91506146158284613bd3565b915061462082613f4c565b91508190509b9a5050505050505050505050565b60006020820190506146496000830184613ae4565b92915050565b60006080820190506146646000830187613ae4565b6146716020830186613ae4565b61467e604083018561437d565b81810360608301526146908184613b28565b905095945050505050565b60006060820190506146b06000830186613ae4565b6146bd602083018561437d565b81810360408301526146cf8184613b28565b9050949350505050565b60006020820190506146ee6000830184613af3565b92915050565b60006020820190506147096000830184613b02565b92915050565b60006040820190506147246000830185613b02565b614731602083018461437d565b9392505050565b600060808201905061474d6000830187613b02565b61475a602083018661437d565b6147676040830185613ae4565b614774606083018461437d565b95945050505050565b600060208201905081810360008301526147978184613b9a565b905092915050565b600060208201905081810360008301526147b881613c27565b9050919050565b600060208201905081810360008301526147d881613c4a565b9050919050565b600060208201905081810360008301526147f881613c90565b9050919050565b6000602082019050818103600083015261481881613cd6565b9050919050565b6000602082019050818103600083015261483881613d85565b9050919050565b6000602082019050818103600083015261485881613da8565b9050919050565b6000602082019050818103600083015261487881613dcb565b9050919050565b6000602082019050818103600083015261489881613e11565b9050919050565b600060208201905081810360008301526148b881613e7a565b9050919050565b600060208201905081810360008301526148d881613e9d565b9050919050565b600060208201905081810360008301526148f881613ec0565b9050919050565b6000602082019050818103600083015261491881613ee3565b9050919050565b6000602082019050818103600083015261493881613f92565b9050919050565b6000602082019050818103600083015261495881613fb5565b9050919050565b6000602082019050818103600083015261497881613ffb565b9050919050565b600060208201905081810360008301526149988161401e565b9050919050565b600060208201905081810360008301526149b881614041565b9050919050565b600060208201905081810360008301526149d881614087565b9050919050565b600060208201905081810360008301526149f8816140cd565b9050919050565b60006020820190508181036000830152614a1881614113565b9050919050565b60006020820190508181036000830152614a3881614159565b9050919050565b60006020820190508181036000830152614a588161417c565b9050919050565b60006020820190508181036000830152614a788161419f565b9050919050565b60006020820190508181036000830152614a9881614208565b9050919050565b60006020820190508181036000830152614ab98184614294565b905092915050565b6000602082019050614ad6600083018461437d565b92915050565b600061014082019050614af2600083018d61437d565b8181036020830152614b04818c613b9a565b9050614b13604083018b61437d565b614b20606083018a61437d565b614b2d608083018961437d565b614b3a60a083018861437d565b614b4760c083018761437d565b614b5460e083018661437d565b614b6261010083018561437d565b614b7061012083018461437d565b9b9a5050505050505050505050565b6000604082019050614b94600083018561437d565b614ba1602083018461437d565b9392505050565b6000614bb2614bc3565b9050614bbe8282614ece565b919050565b6000604051905090565b600067ffffffffffffffff821115614be857614be761501a565b5b614bf182615049565b9050602081019050919050565b600067ffffffffffffffff821115614c1957614c1861501a565b5b614c2282615049565b9050602081019050919050565b600081519050919050565b600081519050919050565b600082825260208201905092915050565b600082825260208201905092915050565b600082825260208201905092915050565b600081905092915050565b6000614c8e82614e43565b9150614c9983614e43565b9250827fffffffffffffffffffffffffffffffffffffffffffffffffffffffffffffffff03821115614cce57614ccd614f8d565b5b828201905092915050565b6000614ce482614e4d565b9150614cef83614e4d565b92508260ff03821115614d0557614d04614f8d565b5b828201905092915050565b6000614d1b82614e43565b9150614d2683614e43565b925082614d3657614d35614fbc565b5b828204905092915050565b6000614d4c82614e43565b9150614d5783614e43565b9250817fffffffffffffffffffffffffffffffffffffffffffffffffffffffffffffffff0483118215151615614d9057614d8f614f8d565b5b828202905092915050565b6000614da682614e43565b9150614db183614e43565b925082821015614dc457614dc3614f8d565b5b828203905092915050565b6000614dda82614e23565b9050919050565b60008115159050919050565b6000819050919050565b60007fffffffff0000000000000000000000000000000000000000000000000000000082169050919050565b600073ffffffffffffffffffffffffffffffffffffffff82169050919050565b6000819050919050565b600060ff82169050919050565b82818337600083830152505050565b60005b83811015614e87578082015181840152602081019050614e6c565b83811115614e96576000848401525b50505050565b60006002820490506001821680614eb457607f821691505b60208210811415614ec857614ec7614feb565b5b50919050565b614ed782615049565b810181811067ffffffffffffffff82111715614ef657614ef561501a565b5b80604052505050565b6000614f0a82614e43565b91507fffffffffffffffffffffffffffffffffffffffffffffffffffffffffffffffff821415614f3d57614f3c614f8d565b5b600182019050919050565b6000819050919050565b6000819050919050565b6000614f6782614e43565b9150614f7283614e43565b925082614f8257614f81614fbc565b5b828206905092915050565b7f4e487b7100000000000000000000000000000000000000000000000000000000600052601160045260246000fd5b7f4e487b7100000000000000000000000000000000000000000000000000000000600052601260045260246000fd5b7f4e487b7100000000000000000000000000000000000000000000000000000000600052602260045260246000fd5b7f4e487b7100000000000000000000000000000000000000000000000000000000600052604160045260246000fd5b6000601f19601f8301169050919050565b7f7d2c7b2274726169745f74797065223a2022496e74656c6c6967656e6365222c60008201527f20226d61785f76616c7565223a20313030302c202276616c7565223a20000000602082015250565b7f746f6b656e20686173206e6f74206265656e206d696e74656420796574000000600082015250565b7f4552433732313a207472616e7366657220746f206e6f6e20455243373231526560008201527f63656976657220696d706c656d656e7465720000000000000000000000000000602082015250565b7f7d2c7b2274726169745f74797065223a2022446578746572697479222c20226d60008201527f61785f76616c7565223a20313030302c202276616c7565223a20000000000000602082015250565b7f4f776e61626c653a206e6577206f776e657220697320746865207a65726f206160008201527f6464726573730000000000000000000000000000000000000000000000000000602082015250565b7f426c6f6f6453706f727420230000000000000000000000000000000000000000600082015250565b7f4552433732313a20746f6b656e20616c7265616479206d696e74656400000000600082015250565b7f3c2f746578743e3c7465787420783d273530252720793d27363225273e53747260008201527f656e6774683a2000000000000000000000000000000000000000000000000000602082015250565b7f3c73766720786d6c6e733d27687474703a2f2f7777772e77332e6f72672f323060008201527f30302f73766727206865696768743d27353030272077696474683d273530302760208201527f20746578742d616e63686f723d276d6964646c65272066696c6c3d277768697460408201527f652720666f6e742d73697a653d27312e35656d273e3c7265637420776964746860608201527f3d2735303027206865696768743d2735303027207374796c653d2766696c6c3a60808201527f626c61636b3b272f3e3c7465787420783d273530252720793d2732302527206660a08201527f6f6e742d73697a653d2732656d273e000000000000000000000000000000000060c082015250565b7f3c2f746578743e3c7465787420783d273530252720793d27383225273e44757260008201527f6162696c6974793a200000000000000000000000000000000000000000000000602082015250565b7f7d2c7b2274726169745f74797065223a20224850222c20226d61785f76616c7560008201527f65223a20323030302c202276616c7565223a2000000000000000000000000000602082015250565b7f4552433732313a207472616e7366657220746f20746865207a65726f2061646460008201527f7265737300000000000000000000000000000000000000000000000000000000602082015250565b7f4552433732313a20617070726f766520746f2063616c6c657200000000000000600082015250565b7f746f6b656e55524920697320616c726561647920736574000000000000000000600082015250565b7f3c2f746578743e3c7465787420783d273530252720793d273435252720666f6e60008201527f742d73697a653d27312e35656d273e57696e733a200000000000000000000000602082015250565b7f4552433732313a206f70657261746f7220717565727920666f72206e6f6e657860008201527f697374656e7420746f6b656e0000000000000000000000000000000000000000602082015250565b7f3c2f746578743e3c2f7376673e00000000000000000000000000000000000000600082015250565b7f222c226465736372697074696f6e223a2022416e204e4654206669676874696e60008201527f672067616d65222c000000000000000000000000000000000000000000000000602082015250565b7f4552433732313a20617070726f76652063616c6c6572206973206e6f74206f7760008201527f6e6572206e6f7220617070726f76656420666f7220616c6c0000000000000000602082015250565b7f4552433732313a2062616c616e636520717565727920666f7220746865207a6560008201527f726f206164647265737300000000000000000000000000000000000000000000602082015250565b7f4552433732313a206f776e657220717565727920666f72206e6f6e657869737460008201527f656e7420746f6b656e0000000000000000000000000000000000000000000000602082015250565b7f45524337323155524953746f726167653a2055524920736574206f66206e6f6e60008201527f6578697374656e7420746f6b656e000000000000000000000000000000000000602082015250565b7f7d5d2c2022696d616765223a2022000000000000000000000000000000000000600082015250565b7f3c2f746578743e3c7465787420783d273530252720793d27373225273e41676960008201527f6c6974793a200000000000000000000000000000000000000000000000000000602082015250565b7f227d000000000000000000000000000000000000000000000000000000000000600082015250565b7f7d2c7b2274726169745f74797065223a20224475726162696c697479222c202260008201527f6d61785f76616c7565223a20313030302c202276616c7565223a200000000000602082015250565b7f4552433732313a206d696e7420746f20746865207a65726f2061646472657373600082015250565b7f45524337323155524953746f726167653a2055524920717565727920666f722060008201527f6e6f6e6578697374656e7420746f6b656e000000000000000000000000000000602082015250565b7f7b2274726169745f74797065223a20224c6576656c222c20226d61785f76616c60008201527f7565223a203130302c202276616c7565223a2000000000000000000000000000602082015250565b7f4552433732313a20617070726f76656420717565727920666f72206e6f6e657860008201527f697374656e7420746f6b656e0000000000000000000000000000000000000000602082015250565b7f4f776e61626c653a2063616c6c6572206973206e6f7420746865206f776e6572600082015250565b7f4d696e74696e67206973206e6f74206163746976650000000000000000000000600082015250565b7f7d2c7b2274726169745f74797065223a2022537472656e677468222c20226d6160008201527f785f76616c7565223a20313030302c202276616c7565223a2000000000000000602082015250565b7f4552433732313a207472616e73666572206f6620746f6b656e2074686174206960008201527f73206e6f74206f776e0000000000000000000000000000000000000000000000602082015250565b7f3c2f746578743e3c7465787420783d273530252720793d27373725273e496e7460008201527f656c6c6967656e63653a20000000000000000000000000000000000000000000602082015250565b7f4552433732314d657461646174613a2055524920717565727920666f72206e6f60008201527f6e6578697374656e7420746f6b656e0000000000000000000000000000000000602082015250565b7f7b226e616d65223a202200000000000000000000000000000000000000000000600082015250565b7f4f6e6c7920565246436f6f7264696e61746f722063616e2066756c66696c6c00600082015250565b7f3c2f746578743e3c7465787420783d273530252720793d27363725273e44657860008201527f7465726974793a20000000000000000000000000000000000000000000000000602082015250565b7f4552433732313a20617070726f76616c20746f2063757272656e74206f776e6560008201527f7200000000000000000000000000000000000000000000000000000000000000602082015250565b7f436861696e4c696e6b20565246206973206e6f74207265616479000000000000600082015250565b7f4552433732313a207472616e736665722063616c6c6572206973206e6f74206f60008201527f776e6572206e6f7220617070726f766564000000000000000000000000000000602082015250565b7f7d2c7b2274726169745f74797065223a202257696e73222c202276616c75652260008201527f3a20000000000000000000000000000000000000000000000000000000000000602082015250565b7f3c2f746578743e3c6c696e652078313d27323025272079313d2732372527207860008201527f323d27383025272079323d2732372527207374796c653d277374726f6b653a7760208201527f68697465272f3e3c7465787420783d273530252720793d273337252720666f6e60408201527f742d73697a653d27312e35656d273e4c6576656c3a2000000000000000000000606082015250565b7f4d696e74696e67206973206f7665720000000000000000000000000000000000600082015250565b7f3c2f746578743e3c6c696e652078313d27323025272079313d2735302527207860008201527f323d27383025272079323d2735302527207374796c653d277374726f6b653a7760208201527f68697465272f3e3c7465787420783d273530252720793d27353725273e48503a60408201527f2000000000000000000000000000000000000000000000000000000000000000606082015250565b7f2261747472696275746573223a5b000000000000000000000000000000000000600082015250565b7f7d2c7b2274726169745f74797065223a20224167696c697479222c20226d617860008201527f5f76616c7565223a20313030302c202276616c7565223a200000000000000000602082015250565b615e2981614dcf565b8114615e3457600080fd5b50565b615e4081614de1565b8114615e4b57600080fd5b50565b615e5781614ded565b8114615e6257600080fd5b50565b615e6e81614df7565b8114615e7957600080fd5b50565b615e8581614e43565b8114615e9057600080fd5b5056fe4142434445464748494a4b4c4d4e4f505152535455565758595a6162636465666768696a6b6c6d6e6f707172737475767778797a303132333435363738392b2fa26469706673582212204ce2a64f19d71dd6fc7b3a009f279935d631c764a36d1457aa33057ddc5462a564736f6c63430008040033",
  "devdoc": {
    "kind": "dev",
    "methods": {
      "approve(address,uint256)": {
        "details": "See {IERC721-approve}."
      },
      "balanceOf(address)": {
        "details": "See {IERC721-balanceOf}."
      },
      "getApproved(uint256)": {
        "details": "See {IERC721-getApproved}."
      },
      "isApprovedForAll(address,address)": {
        "details": "See {IERC721-isApprovedForAll}."
      },
      "name()": {
        "details": "See {IERC721Metadata-name}."
      },
      "owner()": {
        "details": "Returns the address of the current owner."
      },
      "ownerOf(uint256)": {
        "details": "See {IERC721-ownerOf}."
      },
      "renounceOwnership()": {
        "details": "Leaves the contract without owner. It will not be possible to call `onlyOwner` functions anymore. Can only be called by the current owner. NOTE: Renouncing ownership will leave the contract without an owner, thereby removing any functionality that is only available to the owner."
      },
      "safeTransferFrom(address,address,uint256)": {
        "details": "See {IERC721-safeTransferFrom}."
      },
      "safeTransferFrom(address,address,uint256,bytes)": {
        "details": "See {IERC721-safeTransferFrom}."
      },
      "setApprovalForAll(address,bool)": {
        "details": "See {IERC721-setApprovalForAll}."
      },
      "supportsInterface(bytes4)": {
        "details": "See {IERC165-supportsInterface}."
      },
      "symbol()": {
        "details": "See {IERC721Metadata-symbol}."
      },
      "tokenURI(uint256)": {
        "details": "See {IERC721Metadata-tokenURI}."
      },
      "transferFrom(address,address,uint256)": {
        "details": "See {IERC721-transferFrom}."
      },
      "transferOwnership(address)": {
        "details": "Transfers ownership of the contract to a new account (`newOwner`). Can only be called by the current owner."
      }
    },
    "version": 1
  },
  "userdoc": {
    "kind": "user",
    "methods": {},
    "version": 1
  },
  "storageLayout": {
    "storage": [
      {
        "astId": 435,
        "contract": "contracts/NFT.sol:NFT",
        "label": "_name",
        "offset": 0,
        "slot": "0",
        "type": "t_string_storage"
      },
      {
        "astId": 437,
        "contract": "contracts/NFT.sol:NFT",
        "label": "_symbol",
        "offset": 0,
        "slot": "1",
        "type": "t_string_storage"
      },
      {
        "astId": 441,
        "contract": "contracts/NFT.sol:NFT",
        "label": "_owners",
        "offset": 0,
        "slot": "2",
        "type": "t_mapping(t_uint256,t_address)"
      },
      {
        "astId": 445,
        "contract": "contracts/NFT.sol:NFT",
        "label": "_balances",
        "offset": 0,
        "slot": "3",
        "type": "t_mapping(t_address,t_uint256)"
      },
      {
        "astId": 449,
        "contract": "contracts/NFT.sol:NFT",
        "label": "_tokenApprovals",
        "offset": 0,
        "slot": "4",
        "type": "t_mapping(t_uint256,t_address)"
      },
      {
        "astId": 455,
        "contract": "contracts/NFT.sol:NFT",
        "label": "_operatorApprovals",
        "offset": 0,
        "slot": "5",
        "type": "t_mapping(t_address,t_mapping(t_address,t_bool))"
      },
      {
        "astId": 1372,
        "contract": "contracts/NFT.sol:NFT",
        "label": "_tokenURIs",
        "offset": 0,
        "slot": "6",
        "type": "t_mapping(t_uint256,t_string_storage)"
      },
      {
        "astId": 273,
        "contract": "contracts/NFT.sol:NFT",
        "label": "_owner",
        "offset": 0,
        "slot": "7",
        "type": "t_address"
      },
      {
        "astId": 79,
        "contract": "contracts/NFT.sol:NFT",
        "label": "nonces",
        "offset": 0,
        "slot": "8",
        "type": "t_mapping(t_bytes32,t_uint256)"
      },
      {
        "astId": 2479,
        "contract": "contracts/NFT.sol:NFT",
        "label": "tokenCounter",
        "offset": 0,
        "slot": "9",
        "type": "t_uint256"
      },
      {
        "astId": 2481,
        "contract": "contracts/NFT.sol:NFT",
        "label": "fee",
        "offset": 0,
        "slot": "10",
        "type": "t_uint256"
      },
      {
        "astId": 2483,
        "contract": "contracts/NFT.sol:NFT",
        "label": "keyHash",
        "offset": 0,
        "slot": "11",
        "type": "t_bytes32"
      },
      {
        "astId": 2485,
        "contract": "contracts/NFT.sol:NFT",
        "label": "trainingContract",
        "offset": 0,
        "slot": "12",
        "type": "t_address"
      },
      {
        "astId": 2487,
        "contract": "contracts/NFT.sol:NFT",
        "label": "fightingContract",
        "offset": 0,
        "slot": "13",
        "type": "t_address"
      },
      {
        "astId": 2489,
        "contract": "contracts/NFT.sol:NFT",
        "label": "cost",
        "offset": 0,
        "slot": "14",
        "type": "t_uint256"
      },
      {
        "astId": 2491,
        "contract": "contracts/NFT.sol:NFT",
        "label": "maxSupply",
        "offset": 0,
        "slot": "15",
        "type": "t_uint256"
      },
      {
        "astId": 2493,
        "contract": "contracts/NFT.sol:NFT",
        "label": "paused",
        "offset": 0,
        "slot": "16",
        "type": "t_bool"
      },
      {
        "astId": 2498,
        "contract": "contracts/NFT.sol:NFT",
        "label": "tokenIdToFighter",
        "offset": 0,
        "slot": "17",
        "type": "t_mapping(t_uint256,t_struct(Fighter)2146_storage)"
      },
      {
        "astId": 2502,
        "contract": "contracts/NFT.sol:NFT",
        "label": "requestIdToSender",
        "offset": 0,
        "slot": "18",
        "type": "t_mapping(t_bytes32,t_address)"
      },
      {
        "astId": 2506,
        "contract": "contracts/NFT.sol:NFT",
        "label": "requestIdToTokenId",
        "offset": 0,
        "slot": "19",
        "type": "t_mapping(t_bytes32,t_uint256)"
      },
      {
        "astId": 2510,
        "contract": "contracts/NFT.sol:NFT",
        "label": "tokenIdToRandomNumber",
        "offset": 0,
        "slot": "20",
        "type": "t_mapping(t_uint256,t_uint256)"
      }
    ],
    "types": {
      "t_address": {
        "encoding": "inplace",
        "label": "address",
        "numberOfBytes": "20"
      },
      "t_bool": {
        "encoding": "inplace",
        "label": "bool",
        "numberOfBytes": "1"
      },
      "t_bytes32": {
        "encoding": "inplace",
        "label": "bytes32",
        "numberOfBytes": "32"
      },
      "t_mapping(t_address,t_bool)": {
        "encoding": "mapping",
        "key": "t_address",
        "label": "mapping(address => bool)",
        "numberOfBytes": "32",
        "value": "t_bool"
      },
      "t_mapping(t_address,t_mapping(t_address,t_bool))": {
        "encoding": "mapping",
        "key": "t_address",
        "label": "mapping(address => mapping(address => bool))",
        "numberOfBytes": "32",
        "value": "t_mapping(t_address,t_bool)"
      },
      "t_mapping(t_address,t_uint256)": {
        "encoding": "mapping",
        "key": "t_address",
        "label": "mapping(address => uint256)",
        "numberOfBytes": "32",
        "value": "t_uint256"
      },
      "t_mapping(t_bytes32,t_address)": {
        "encoding": "mapping",
        "key": "t_bytes32",
        "label": "mapping(bytes32 => address)",
        "numberOfBytes": "32",
        "value": "t_address"
      },
      "t_mapping(t_bytes32,t_uint256)": {
        "encoding": "mapping",
        "key": "t_bytes32",
        "label": "mapping(bytes32 => uint256)",
        "numberOfBytes": "32",
        "value": "t_uint256"
      },
      "t_mapping(t_uint256,t_address)": {
        "encoding": "mapping",
        "key": "t_uint256",
        "label": "mapping(uint256 => address)",
        "numberOfBytes": "32",
        "value": "t_address"
      },
      "t_mapping(t_uint256,t_string_storage)": {
        "encoding": "mapping",
        "key": "t_uint256",
        "label": "mapping(uint256 => string)",
        "numberOfBytes": "32",
        "value": "t_string_storage"
      },
      "t_mapping(t_uint256,t_struct(Fighter)2146_storage)": {
        "encoding": "mapping",
        "key": "t_uint256",
        "label": "mapping(uint256 => struct lib.Fighter)",
        "numberOfBytes": "32",
        "value": "t_struct(Fighter)2146_storage"
      },
      "t_mapping(t_uint256,t_uint256)": {
        "encoding": "mapping",
        "key": "t_uint256",
        "label": "mapping(uint256 => uint256)",
        "numberOfBytes": "32",
        "value": "t_uint256"
      },
      "t_string_storage": {
        "encoding": "bytes",
        "label": "string",
        "numberOfBytes": "32"
      },
      "t_struct(Fighter)2146_storage": {
        "encoding": "inplace",
        "label": "struct lib.Fighter",
        "members": [
          {
            "astId": 2127,
            "contract": "contracts/NFT.sol:NFT",
            "label": "tokenId",
            "offset": 0,
            "slot": "0",
            "type": "t_uint256"
          },
          {
            "astId": 2129,
            "contract": "contracts/NFT.sol:NFT",
            "label": "name",
            "offset": 0,
            "slot": "1",
            "type": "t_string_storage"
          },
          {
            "astId": 2131,
            "contract": "contracts/NFT.sol:NFT",
            "label": "level",
            "offset": 0,
            "slot": "2",
            "type": "t_uint256"
          },
          {
            "astId": 2133,
            "contract": "contracts/NFT.sol:NFT",
            "label": "wins",
            "offset": 0,
            "slot": "3",
            "type": "t_uint256"
          },
          {
            "astId": 2135,
            "contract": "contracts/NFT.sol:NFT",
            "label": "hp",
            "offset": 0,
            "slot": "4",
            "type": "t_uint256"
          },
          {
            "astId": 2137,
            "contract": "contracts/NFT.sol:NFT",
            "label": "strength",
            "offset": 0,
            "slot": "5",
            "type": "t_uint256"
          },
          {
            "astId": 2139,
            "contract": "contracts/NFT.sol:NFT",
            "label": "dexterity",
            "offset": 0,
            "slot": "6",
            "type": "t_uint256"
          },
          {
            "astId": 2141,
            "contract": "contracts/NFT.sol:NFT",
            "label": "agility",
            "offset": 0,
            "slot": "7",
            "type": "t_uint256"
          },
          {
            "astId": 2143,
            "contract": "contracts/NFT.sol:NFT",
            "label": "intelligence",
            "offset": 0,
            "slot": "8",
            "type": "t_uint256"
          },
          {
            "astId": 2145,
            "contract": "contracts/NFT.sol:NFT",
            "label": "durability",
            "offset": 0,
            "slot": "9",
            "type": "t_uint256"
          }
        ],
        "numberOfBytes": "320"
      },
      "t_uint256": {
        "encoding": "inplace",
        "label": "uint256",
        "numberOfBytes": "32"
      }
    }
  }
}