{
  "address": "0xC8526228a9bCEed128548335A68A87Df589855e2",
  "abi": [
    {
      "inputs": [
        {
          "internalType": "address",
          "name": "_VRFCoordinator",
          "type": "address"
        },
        {
          "internalType": "address",
          "name": "_linkToken",
          "type": "address"
        },
        {
          "internalType": "bytes32",
          "name": "_keyHash",
          "type": "bytes32"
        },
        {
          "internalType": "uint256",
          "name": "_fee",
          "type": "uint256"
        }
      ],
      "stateMutability": "nonpayable",
      "type": "constructor"
    },
    {
      "anonymous": false,
      "inputs": [
        {
          "indexed": true,
          "internalType": "address",
          "name": "owner",
          "type": "address"
        },
        {
          "indexed": true,
          "internalType": "address",
          "name": "approved",
          "type": "address"
        },
        {
          "indexed": true,
          "internalType": "uint256",
          "name": "tokenId",
          "type": "uint256"
        }
      ],
      "name": "Approval",
      "type": "event"
    },
    {
      "anonymous": false,
      "inputs": [
        {
          "indexed": true,
          "internalType": "address",
          "name": "owner",
          "type": "address"
        },
        {
          "indexed": true,
          "internalType": "address",
          "name": "operator",
          "type": "address"
        },
        {
          "indexed": false,
          "internalType": "bool",
          "name": "approved",
          "type": "bool"
        }
      ],
      "name": "ApprovalForAll",
      "type": "event"
    },
    {
      "anonymous": false,
      "inputs": [
        {
          "indexed": true,
          "internalType": "uint256",
          "name": "tokenId",
          "type": "uint256"
        },
        {
          "indexed": false,
          "internalType": "string",
          "name": "tokenURL",
          "type": "string"
        }
      ],
      "name": "CreatedNFT",
      "type": "event"
    },
    {
      "anonymous": false,
      "inputs": [
        {
          "indexed": true,
          "internalType": "uint256",
          "name": "tokenId",
          "type": "uint256"
        },
        {
          "indexed": true,
          "internalType": "uint256",
          "name": "randomNumber",
          "type": "uint256"
        }
      ],
      "name": "CreatedUnfinishedRandomSVG",
      "type": "event"
    },
    {
      "anonymous": false,
      "inputs": [
        {
          "indexed": true,
          "internalType": "address",
          "name": "previousOwner",
          "type": "address"
        },
        {
          "indexed": true,
          "internalType": "address",
          "name": "newOwner",
          "type": "address"
        }
      ],
      "name": "OwnershipTransferred",
      "type": "event"
    },
    {
      "anonymous": false,
      "inputs": [
        {
          "indexed": true,
          "internalType": "bytes32",
          "name": "requestId",
          "type": "bytes32"
        },
        {
          "indexed": true,
          "internalType": "uint256",
          "name": "tokenId",
          "type": "uint256"
        }
      ],
      "name": "RequestedRandomSVG",
      "type": "event"
    },
    {
      "anonymous": false,
      "inputs": [
        {
          "indexed": true,
          "internalType": "address",
          "name": "from",
          "type": "address"
        },
        {
          "indexed": true,
          "internalType": "address",
          "name": "to",
          "type": "address"
        },
        {
          "indexed": true,
          "internalType": "uint256",
          "name": "tokenId",
          "type": "uint256"
        }
      ],
      "name": "Transfer",
      "type": "event"
    },
    {
      "inputs": [
        {
          "internalType": "address",
          "name": "to",
          "type": "address"
        },
        {
          "internalType": "uint256",
          "name": "tokenId",
          "type": "uint256"
        }
      ],
      "name": "approve",
      "outputs": [],
      "stateMutability": "nonpayable",
      "type": "function"
    },
    {
      "inputs": [
        {
          "internalType": "address",
          "name": "owner",
          "type": "address"
        }
      ],
      "name": "balanceOf",
      "outputs": [
        {
          "internalType": "uint256",
          "name": "",
          "type": "uint256"
        }
      ],
      "stateMutability": "view",
      "type": "function"
    },
    {
      "inputs": [],
      "name": "create",
      "outputs": [
        {
          "internalType": "bytes32",
          "name": "requestId",
          "type": "bytes32"
        }
      ],
      "stateMutability": "nonpayable",
      "type": "function"
    },
    {
      "inputs": [],
      "name": "fee",
      "outputs": [
        {
          "internalType": "uint256",
          "name": "",
          "type": "uint256"
        }
      ],
      "stateMutability": "view",
      "type": "function"
    },
    {
      "inputs": [
        {
          "internalType": "uint256",
          "name": "_tokenId",
          "type": "uint256"
        }
      ],
      "name": "finishMint",
      "outputs": [],
      "stateMutability": "nonpayable",
      "type": "function"
    },
    {
      "inputs": [
        {
          "internalType": "uint256",
          "name": "tokenId",
          "type": "uint256"
        }
      ],
      "name": "getApproved",
      "outputs": [
        {
          "internalType": "address",
          "name": "",
          "type": "address"
        }
      ],
      "stateMutability": "view",
      "type": "function"
    },
    {
      "inputs": [
        {
          "internalType": "address",
          "name": "owner",
          "type": "address"
        },
        {
          "internalType": "address",
          "name": "operator",
          "type": "address"
        }
      ],
      "name": "isApprovedForAll",
      "outputs": [
        {
          "internalType": "bool",
          "name": "",
          "type": "bool"
        }
      ],
      "stateMutability": "view",
      "type": "function"
    },
    {
      "inputs": [],
      "name": "keyHash",
      "outputs": [
        {
          "internalType": "bytes32",
          "name": "",
          "type": "bytes32"
        }
      ],
      "stateMutability": "view",
      "type": "function"
    },
    {
      "inputs": [],
      "name": "name",
      "outputs": [
        {
          "internalType": "string",
          "name": "",
          "type": "string"
        }
      ],
      "stateMutability": "view",
      "type": "function"
    },
    {
      "inputs": [],
      "name": "owner",
      "outputs": [
        {
          "internalType": "address",
          "name": "",
          "type": "address"
        }
      ],
      "stateMutability": "view",
      "type": "function"
    },
    {
      "inputs": [
        {
          "internalType": "uint256",
          "name": "tokenId",
          "type": "uint256"
        }
      ],
      "name": "ownerOf",
      "outputs": [
        {
          "internalType": "address",
          "name": "",
          "type": "address"
        }
      ],
      "stateMutability": "view",
      "type": "function"
    },
    {
      "inputs": [
        {
          "internalType": "bytes32",
          "name": "requestId",
          "type": "bytes32"
        },
        {
          "internalType": "uint256",
          "name": "randomness",
          "type": "uint256"
        }
      ],
      "name": "rawFulfillRandomness",
      "outputs": [],
      "stateMutability": "nonpayable",
      "type": "function"
    },
    {
      "inputs": [],
      "name": "renounceOwnership",
      "outputs": [],
      "stateMutability": "nonpayable",
      "type": "function"
    },
    {
      "inputs": [
        {
          "internalType": "address",
          "name": "from",
          "type": "address"
        },
        {
          "internalType": "address",
          "name": "to",
          "type": "address"
        },
        {
          "internalType": "uint256",
          "name": "tokenId",
          "type": "uint256"
        }
      ],
      "name": "safeTransferFrom",
      "outputs": [],
      "stateMutability": "nonpayable",
      "type": "function"
    },
    {
      "inputs": [
        {
          "internalType": "address",
          "name": "from",
          "type": "address"
        },
        {
          "internalType": "address",
          "name": "to",
          "type": "address"
        },
        {
          "internalType": "uint256",
          "name": "tokenId",
          "type": "uint256"
        },
        {
          "internalType": "bytes",
          "name": "_data",
          "type": "bytes"
        }
      ],
      "name": "safeTransferFrom",
      "outputs": [],
      "stateMutability": "nonpayable",
      "type": "function"
    },
    {
      "inputs": [
        {
          "internalType": "address",
          "name": "operator",
          "type": "address"
        },
        {
          "internalType": "bool",
          "name": "approved",
          "type": "bool"
        }
      ],
      "name": "setApprovalForAll",
      "outputs": [],
      "stateMutability": "nonpayable",
      "type": "function"
    },
    {
      "inputs": [
        {
          "internalType": "bytes4",
          "name": "interfaceId",
          "type": "bytes4"
        }
      ],
      "name": "supportsInterface",
      "outputs": [
        {
          "internalType": "bool",
          "name": "",
          "type": "bool"
        }
      ],
      "stateMutability": "view",
      "type": "function"
    },
    {
      "inputs": [],
      "name": "symbol",
      "outputs": [
        {
          "internalType": "string",
          "name": "",
          "type": "string"
        }
      ],
      "stateMutability": "view",
      "type": "function"
    },
    {
      "inputs": [],
      "name": "tokenCounter",
      "outputs": [
        {
          "internalType": "uint256",
          "name": "",
          "type": "uint256"
        }
      ],
      "stateMutability": "view",
      "type": "function"
    },
    {
      "inputs": [
        {
          "internalType": "uint256",
          "name": "",
          "type": "uint256"
        }
      ],
      "name": "tokenIdToFighter",
      "outputs": [
        {
          "internalType": "uint256",
          "name": "tokenId",
          "type": "uint256"
        },
        {
          "internalType": "string",
          "name": "name",
          "type": "string"
        },
        {
          "internalType": "uint256",
          "name": "level",
          "type": "uint256"
        },
        {
          "internalType": "uint256",
          "name": "wins",
          "type": "uint256"
        },
        {
          "internalType": "uint256",
          "name": "hp",
          "type": "uint256"
        },
        {
          "internalType": "uint256",
          "name": "strength",
          "type": "uint256"
        },
        {
          "internalType": "uint256",
          "name": "dexterity",
          "type": "uint256"
        },
        {
          "internalType": "uint256",
          "name": "agility",
          "type": "uint256"
        },
        {
          "internalType": "uint256",
          "name": "intelligence",
          "type": "uint256"
        },
        {
          "internalType": "uint256",
          "name": "durability",
          "type": "uint256"
        }
      ],
      "stateMutability": "view",
      "type": "function"
    },
    {
      "inputs": [
        {
          "internalType": "uint256",
          "name": "tokenId",
          "type": "uint256"
        }
      ],
      "name": "tokenURI",
      "outputs": [
        {
          "internalType": "string",
          "name": "",
          "type": "string"
        }
      ],
      "stateMutability": "view",
      "type": "function"
    },
    {
      "inputs": [
        {
          "internalType": "address",
          "name": "from",
          "type": "address"
        },
        {
          "internalType": "address",
          "name": "to",
          "type": "address"
        },
        {
          "internalType": "uint256",
          "name": "tokenId",
          "type": "uint256"
        }
      ],
      "name": "transferFrom",
      "outputs": [],
      "stateMutability": "nonpayable",
      "type": "function"
    },
    {
      "inputs": [
        {
          "internalType": "address",
          "name": "newOwner",
          "type": "address"
        }
      ],
      "name": "transferOwnership",
      "outputs": [],
      "stateMutability": "nonpayable",
      "type": "function"
    }
  ],
  "transactionHash": "0xee6d9780d45fe3ce8dd370edf6e7710eeb0953872718f54af5ba4ef15dd2aa63",
  "args": [
    "0xb3dCcb4Cf7a26f6cf6B120Cf5A73875B7BBc655B",
    "0x01be23585060835e02b77ef475b0cc51aa1e0709",
    "0x2ed0feb3e7fd2022120aa84fab1945545a9f2ffc9076fd6156fa96eaff4c1311",
    "100000000000000000"
  ],
  "solcInputHash": "bd77523a608c6cc35fe1d3fc4ae9bbc1",
  "bytecode": "0x60c06040523480156200001157600080fd5b50604051620059323803806200593283398181016040528101906200003791906200034c565b83836040518060400160405280600381526020017f4e465400000000000000000000000000000000000000000000000000000000008152506040518060400160405280600381526020017f4e465400000000000000000000000000000000000000000000000000000000008152508160009080519060200190620000bd92919062000257565b508060019080519060200190620000d692919062000257565b505050620000f9620000ed6200018960201b60201c565b6200019160201b60201c565b8173ffffffffffffffffffffffffffffffffffffffff1660a08173ffffffffffffffffffffffffffffffffffffffff1660601b815250508073ffffffffffffffffffffffffffffffffffffffff1660808173ffffffffffffffffffffffffffffffffffffffff1660601b81525050505080600a8190555081600b81905550600060098190555050505050620004b3565b600033905090565b6000600760009054906101000a900473ffffffffffffffffffffffffffffffffffffffff16905081600760006101000a81548173ffffffffffffffffffffffffffffffffffffffff021916908373ffffffffffffffffffffffffffffffffffffffff1602179055508173ffffffffffffffffffffffffffffffffffffffff168173ffffffffffffffffffffffffffffffffffffffff167f8be0079c531659141344cd1fd0a4f28419497f9722a3daafe3b4186f6b6457e060405160405180910390a35050565b828054620002659062000400565b90600052602060002090601f016020900481019282620002895760008555620002d5565b82601f10620002a457805160ff1916838001178555620002d5565b82800160010185558215620002d5579182015b82811115620002d4578251825591602001919060010190620002b7565b5b509050620002e49190620002e8565b5090565b5b8082111562000303576000816000905550600101620002e9565b5090565b600081519050620003188162000465565b92915050565b6000815190506200032f816200047f565b92915050565b600081519050620003468162000499565b92915050565b600080600080608085870312156200036357600080fd5b6000620003738782880162000307565b9450506020620003868782880162000307565b935050604062000399878288016200031e565b9250506060620003ac8782880162000335565b91505092959194509250565b6000620003c582620003d6565b9050919050565b6000819050919050565b600073ffffffffffffffffffffffffffffffffffffffff82169050919050565b6000819050919050565b600060028204905060018216806200041957607f821691505b6020821081141562000430576200042f62000436565b5b50919050565b7f4e487b7100000000000000000000000000000000000000000000000000000000600052602260045260246000fd5b6200047081620003b8565b81146200047c57600080fd5b50565b6200048a81620003cc565b81146200049657600080fd5b50565b620004a481620003f6565b8114620004b057600080fd5b50565b60805160601c60a05160601c61544c620004e660003960008181610e78015261227401526000612238015261544c6000f3fe608060405234801561001057600080fd5b506004361061014d5760003560e01c8063715018a6116100c3578063c87b56dd1161007c578063c87b56dd14610391578063d082e381146103c1578063ddca3f43146103df578063e985e9c5146103fd578063efc81a8c1461042d578063f2fde38b1461044b5761014d565b8063715018a6146102f75780638da5cb5b1461030157806394985ddd1461031f57806395d89b411461033b578063a22cb46514610359578063b88d4fde146103755761014d565b80632bbce2d1116101155780632bbce2d11461020857806342842e0e1461024157806361728f391461025d578063624194c71461027b5780636352211e1461029757806370a08231146102c75761014d565b806301ffc9a71461015257806306fdde0314610182578063081812fc146101a0578063095ea7b3146101d057806323b872dd146101ec575b600080fd5b61016c60048036038101906101679190612fa2565b610467565b6040516101799190613aaa565b60405180910390f35b61018a610549565b6040516101979190613b4e565b60405180910390f35b6101ba60048036038101906101b59190612ff4565b6105db565b6040516101c79190613a05565b60405180910390f35b6101ea60048036038101906101e59190612f01565b610660565b005b61020660048036038101906102019190612dfb565b610778565b005b610222600480360381019061021d9190612ff4565b6107d8565b6040516102389a99989796959493929190613e4b565b60405180910390f35b61025b60048036038101906102569190612dfb565b6108b4565b005b6102656108d4565b6040516102729190613ac5565b60405180910390f35b61029560048036038101906102909190612ff4565b6108da565b005b6102b160048036038101906102ac9190612ff4565b610c5a565b6040516102be9190613a05565b60405180910390f35b6102e160048036038101906102dc9190612d96565b610d0c565b6040516102ee9190613e30565b60405180910390f35b6102ff610dc4565b005b610309610e4c565b6040516103169190613a05565b60405180910390f35b61033960048036038101906103349190612f66565b610e76565b005b610343610f12565b6040516103509190613b4e565b60405180910390f35b610373600480360381019061036e9190612ec5565b610fa4565b005b61038f600480360381019061038a9190612e4a565b611125565b005b6103ab60048036038101906103a69190612ff4565b611187565b6040516103b89190613b4e565b60405180910390f35b6103c96112d9565b6040516103d69190613e30565b60405180910390f35b6103e76112df565b6040516103f49190613e30565b60405180910390f35b61041760048036038101906104129190612dbf565b6112e5565b6040516104249190613aaa565b60405180910390f35b610435611379565b6040516104429190613ac5565b60405180910390f35b61046560048036038101906104609190612d96565b611446565b005b60007f80ac58cd000000000000000000000000000000000000000000000000000000007bffffffffffffffffffffffffffffffffffffffffffffffffffffffff1916827bffffffffffffffffffffffffffffffffffffffffffffffffffffffff1916148061053257507f5b5e139f000000000000000000000000000000000000000000000000000000007bffffffffffffffffffffffffffffffffffffffffffffffffffffffff1916827bffffffffffffffffffffffffffffffffffffffffffffffffffffffff1916145b8061054257506105418261153e565b5b9050919050565b60606000805461055890614185565b80601f016020809104026020016040519081016040528092919081815260200182805461058490614185565b80156105d15780601f106105a6576101008083540402835291602001916105d1565b820191906000526020600020905b8154815290600101906020018083116105b457829003601f168201915b5050505050905090565b60006105e6826115a8565b610625576040517f08c379a000000000000000000000000000000000000000000000000000000000815260040161061c90613d30565b60405180910390fd5b6004600083815260200190815260200160002060009054906101000a900473ffffffffffffffffffffffffffffffffffffffff169050919050565b600061066b82610c5a565b90508073ffffffffffffffffffffffffffffffffffffffff168373ffffffffffffffffffffffffffffffffffffffff1614156106dc576040517f08c379a00000000000000000000000000000000000000000000000000000000081526004016106d390613dd0565b60405180910390fd5b8073ffffffffffffffffffffffffffffffffffffffff166106fb611614565b73ffffffffffffffffffffffffffffffffffffffff16148061072a575061072981610724611614565b6112e5565b5b610769576040517f08c379a000000000000000000000000000000000000000000000000000000000815260040161076090613c70565b60405180910390fd5b610773838361161c565b505050565b610789610783611614565b826116d5565b6107c8576040517f08c379a00000000000000000000000000000000000000000000000000000000081526004016107bf90613e10565b60405180910390fd5b6107d38383836117b3565b505050565b600c60205280600052604060002060009150905080600001549080600101805461080190614185565b80601f016020809104026020016040519081016040528092919081815260200182805461082d90614185565b801561087a5780601f1061084f5761010080835404028352916020019161087a565b820191906000526020600020905b81548152906001019060200180831161085d57829003601f168201915b505050505090806002015490806003015490806004015490806005015490806006015490806007015490806008015490806009015490508a565b6108cf83838360405180602001604052806000815250611125565b505050565b600b5481565b60006108e582611187565b511115610927576040517f08c379a000000000000000000000000000000000000000000000000000000000815260040161091e90613c30565b60405180910390fd5b806009541161096b576040517f08c379a000000000000000000000000000000000000000000000000000000000815260040161096290613b70565b60405180910390fd5b6000600f600083815260200190815260200160002054116109c1576040517f08c379a00000000000000000000000000000000000000000000000000000000081526004016109b890613df0565b60405180910390fd5b6000600f60008381526020019081526020016000205490506109e38282611a0f565b6000610af8600c60008581526020019081526020016000206040518061014001604052908160008201548152602001600182018054610a2190614185565b80601f0160208091040260200160405190810160405280929190818152602001828054610a4d90614185565b8015610a9a5780601f10610a6f57610100808354040283529160200191610a9a565b820191906000526020600020905b815481529060010190602001808311610a7d57829003601f168201915b5050505050815260200160028201548152602001600382015481526020016004820154815260200160058201548152602001600682015481526020016007820154815260200160088201548152602001600982015481525050611d81565b90506000610c1082600c60008781526020019081526020016000206040518061014001604052908160008201548152602001600182018054610b3990614185565b80601f0160208091040260200160405190810160405280929190818152602001828054610b6590614185565b8015610bb25780601f10610b8757610100808354040283529160200191610bb2565b820191906000526020600020905b815481529060010190602001808311610b9557829003601f168201915b5050505050815260200160028201548152602001600382015481526020016004820154815260200160058201548152602001600682015481526020016007820154815260200160088201548152602001600982015481525050611e28565b9050610c1c8482611f3a565b837fb5a8d8cf5d01b5006e471421ba7da032446e2a82412342ed548b7aeed0ea9b6982604051610c4c9190613b4e565b60405180910390a250505050565b6000806002600084815260200190815260200160002060009054906101000a900473ffffffffffffffffffffffffffffffffffffffff169050600073ffffffffffffffffffffffffffffffffffffffff168173ffffffffffffffffffffffffffffffffffffffff161415610d03576040517f08c379a0000000000000000000000000000000000000000000000000000000008152600401610cfa90613cb0565b60405180910390fd5b80915050919050565b60008073ffffffffffffffffffffffffffffffffffffffff168273ffffffffffffffffffffffffffffffffffffffff161415610d7d576040517f08c379a0000000000000000000000000000000000000000000000000000000008152600401610d7490613c90565b60405180910390fd5b600360008373ffffffffffffffffffffffffffffffffffffffff1673ffffffffffffffffffffffffffffffffffffffff168152602001908152602001600020549050919050565b610dcc611614565b73ffffffffffffffffffffffffffffffffffffffff16610dea610e4c565b73ffffffffffffffffffffffffffffffffffffffff1614610e40576040517f08c379a0000000000000000000000000000000000000000000000000000000008152600401610e3790613d50565b60405180910390fd5b610e4a6000611fae565b565b6000600760009054906101000a900473ffffffffffffffffffffffffffffffffffffffff16905090565b7f000000000000000000000000000000000000000000000000000000000000000073ffffffffffffffffffffffffffffffffffffffff163373ffffffffffffffffffffffffffffffffffffffff1614610f04576040517f08c379a0000000000000000000000000000000000000000000000000000000008152600401610efb90613db0565b60405180910390fd5b610f0e8282612074565b5050565b606060018054610f2190614185565b80601f0160208091040260200160405190810160405280929190818152602001828054610f4d90614185565b8015610f9a5780601f10610f6f57610100808354040283529160200191610f9a565b820191906000526020600020905b815481529060010190602001808311610f7d57829003601f168201915b5050505050905090565b610fac611614565b73ffffffffffffffffffffffffffffffffffffffff168273ffffffffffffffffffffffffffffffffffffffff16141561101a576040517f08c379a000000000000000000000000000000000000000000000000000000000815260040161101190613c10565b60405180910390fd5b8060056000611027611614565b73ffffffffffffffffffffffffffffffffffffffff1673ffffffffffffffffffffffffffffffffffffffff16815260200190815260200160002060008473ffffffffffffffffffffffffffffffffffffffff1673ffffffffffffffffffffffffffffffffffffffff16815260200190815260200160002060006101000a81548160ff0219169083151502179055508173ffffffffffffffffffffffffffffffffffffffff166110d4611614565b73ffffffffffffffffffffffffffffffffffffffff167f17307eab39ab6107e8899845ad3d59bd9653f200f220920489ca2b5937696c31836040516111199190613aaa565b60405180910390a35050565b611136611130611614565b836116d5565b611175576040517f08c379a000000000000000000000000000000000000000000000000000000000815260040161116c90613e10565b60405180910390fd5b6111818484848461211a565b50505050565b6060611192826115a8565b6111d1576040517f08c379a00000000000000000000000000000000000000000000000000000000081526004016111c890613d10565b60405180910390fd5b60006006600084815260200190815260200160002080546111f190614185565b80601f016020809104026020016040519081016040528092919081815260200182805461121d90614185565b801561126a5780601f1061123f5761010080835404028352916020019161126a565b820191906000526020600020905b81548152906001019060200180831161124d57829003601f168201915b50505050509050600061127b612176565b90506000815114156112915781925050506112d4565b6000825111156112c65780826040516020016112ae9291906137b7565b604051602081830303815290604052925050506112d4565b6112cf8461218d565b925050505b919050565b60095481565b600a5481565b6000600560008473ffffffffffffffffffffffffffffffffffffffff1673ffffffffffffffffffffffffffffffffffffffff16815260200190815260200160002060008373ffffffffffffffffffffffffffffffffffffffff1673ffffffffffffffffffffffffffffffffffffffff16815260200190815260200160002060009054906101000a900460ff16905092915050565b6000611389600b54600a54612234565b905033600d600083815260200190815260200160002060006101000a81548173ffffffffffffffffffffffffffffffffffffffff021916908373ffffffffffffffffffffffffffffffffffffffff1602179055506000600954905080600e6000848152602001908152602001600020819055506009600081548092919061140f906141e8565b919050555080827fd18cd6f82baac9078af064ea020dd3dc7bff649bd8d50684f972d5995fec6e6960405160405180910390a35090565b61144e611614565b73ffffffffffffffffffffffffffffffffffffffff1661146c610e4c565b73ffffffffffffffffffffffffffffffffffffffff16146114c2576040517f08c379a00000000000000000000000000000000000000000000000000000000081526004016114b990613d50565b60405180910390fd5b600073ffffffffffffffffffffffffffffffffffffffff168173ffffffffffffffffffffffffffffffffffffffff161415611532576040517f08c379a000000000000000000000000000000000000000000000000000000000815260040161152990613bb0565b60405180910390fd5b61153b81611fae565b50565b60007f01ffc9a7000000000000000000000000000000000000000000000000000000007bffffffffffffffffffffffffffffffffffffffffffffffffffffffff1916827bffffffffffffffffffffffffffffffffffffffffffffffffffffffff1916149050919050565b60008073ffffffffffffffffffffffffffffffffffffffff166002600084815260200190815260200160002060009054906101000a900473ffffffffffffffffffffffffffffffffffffffff1673ffffffffffffffffffffffffffffffffffffffff1614159050919050565b600033905090565b816004600083815260200190815260200160002060006101000a81548173ffffffffffffffffffffffffffffffffffffffff021916908373ffffffffffffffffffffffffffffffffffffffff160217905550808273ffffffffffffffffffffffffffffffffffffffff1661168f83610c5a565b73ffffffffffffffffffffffffffffffffffffffff167f8c5be1e5ebec7d5bd14f71427d1e84f3dd0314c0f7b2291e5b200ac8c7c3b92560405160405180910390a45050565b60006116e0826115a8565b61171f576040517f08c379a000000000000000000000000000000000000000000000000000000000815260040161171690613c50565b60405180910390fd5b600061172a83610c5a565b90508073ffffffffffffffffffffffffffffffffffffffff168473ffffffffffffffffffffffffffffffffffffffff16148061179957508373ffffffffffffffffffffffffffffffffffffffff16611781846105db565b73ffffffffffffffffffffffffffffffffffffffff16145b806117aa57506117a981856112e5565b5b91505092915050565b8273ffffffffffffffffffffffffffffffffffffffff166117d382610c5a565b73ffffffffffffffffffffffffffffffffffffffff1614611829576040517f08c379a000000000000000000000000000000000000000000000000000000000815260040161182090613d70565b60405180910390fd5b600073ffffffffffffffffffffffffffffffffffffffff168273ffffffffffffffffffffffffffffffffffffffff161415611899576040517f08c379a000000000000000000000000000000000000000000000000000000000815260040161189090613bf0565b60405180910390fd5b6118a4838383612396565b6118af60008261161c565b6001600360008573ffffffffffffffffffffffffffffffffffffffff1673ffffffffffffffffffffffffffffffffffffffff16815260200190815260200160002060008282546118ff9190614091565b925050819055506001600360008473ffffffffffffffffffffffffffffffffffffffff1673ffffffffffffffffffffffffffffffffffffffff16815260200190815260200160002060008282546119569190613fb0565b92505081905550816002600083815260200190815260200160002060006101000a81548173ffffffffffffffffffffffffffffffffffffffff021916908373ffffffffffffffffffffffffffffffffffffffff160217905550808273ffffffffffffffffffffffffffffffffffffffff168473ffffffffffffffffffffffffffffffffffffffff167fddf252ad1be2c89b69c2b068fc378daa952ba7f163c4a11628f55a4df523b3ef60405160405180910390a4505050565b6000600567ffffffffffffffff811115611a52577f4e487b7100000000000000000000000000000000000000000000000000000000600052604160045260246000fd5b604051908082528060200260200182016040528015611a805781602001602082028036833780820191505090505b50905060005b6005811015611b315760008382604051602001611aa4929190613eee565b6040516020818303038152906040528051906020012060001c90506001600a82611ace9190614245565b611ad89190613fb0565b838381518110611b11577f4e487b7100000000000000000000000000000000000000000000000000000000600052603260045260246000fd5b602002602001018181525050508080611b29906141e8565b915050611a86565b506000611b3d8461239b565b604051602001611b4d91906137db565b604051602081830303815290604052905060405180610140016040528085815260200182815260200160018152602001600081526020016014815260200183600081518110611bc5577f4e487b7100000000000000000000000000000000000000000000000000000000600052603260045260246000fd5b6020026020010151815260200183600181518110611c0c577f4e487b7100000000000000000000000000000000000000000000000000000000600052603260045260246000fd5b6020026020010151815260200183600281518110611c53577f4e487b7100000000000000000000000000000000000000000000000000000000600052603260045260246000fd5b6020026020010151815260200183600381518110611c9a577f4e487b7100000000000000000000000000000000000000000000000000000000600052603260045260246000fd5b6020026020010151815260200183600481518110611ce1577f4e487b7100000000000000000000000000000000000000000000000000000000600052603260045260246000fd5b6020026020010151815250600c6000868152602001908152602001600020600082015181600001556020820151816001019080519060200190611d25929190612bf8565b5060408201518160020155606082015181600301556080820151816004015560a0820151816005015560c0820151816006015560e082015181600701556101008201518160080155610120820151816009015590505050505050565b60606000611d8e83612548565b905060006040518060400160405280601a81526020017f646174613a696d6167652f7376672b786d6c3b6261736536342c00000000000081525090506000611df483604051602001611de091906137a0565b6040516020818303038152906040526125ed565b905060008282604051602001611e0b9291906137b7565b604051602081830303815290604052905080945050505050919050565b606060006040518060400160405280601d81526020017f646174613a6170706c69636174696f6e2f6a736f6e3b6261736536342c00000081525090506000611f068460200151611e7b866040015161239b565b611e88876060015161239b565b611e95886080015161239b565b611ea28960a0015161239b565b611eaf8a60c0015161239b565b611ebc8b60e0015161239b565b611eca8c610100015161239b565b611ed88d610120015161239b565b8e604051602001611ef29a999897969594939291906138ea565b6040516020818303038152906040526125ed565b905060008282604051602001611f1d9291906137b7565b604051602081830303815290604052905080935050505092915050565b611f43826115a8565b611f82576040517f08c379a0000000000000000000000000000000000000000000000000000000008152600401611f7990613cd0565b60405180910390fd5b80600660008481526020019081526020016000209080519060200190611fa9929190612bf8565b505050565b6000600760009054906101000a900473ffffffffffffffffffffffffffffffffffffffff16905081600760006101000a81548173ffffffffffffffffffffffffffffffffffffffff021916908373ffffffffffffffffffffffffffffffffffffffff1602179055508173ffffffffffffffffffffffffffffffffffffffff168173ffffffffffffffffffffffffffffffffffffffff167f8be0079c531659141344cd1fd0a4f28419497f9722a3daafe3b4186f6b6457e060405160405180910390a35050565b6000600d600084815260200190815260200160002060009054906101000a900473ffffffffffffffffffffffffffffffffffffffff1690506000600e60008581526020019081526020016000205490506120ce8282612798565b82600f60008381526020019081526020016000208190555082817faad5362ce528ed941024b95d4c18dfd49b8503e1f586a5c353631d98c2af41b760405160405180910390a350505050565b6121258484846117b3565b612131848484846127b6565b612170576040517f08c379a000000000000000000000000000000000000000000000000000000000815260040161216790613b90565b60405180910390fd5b50505050565b606060405180602001604052806000815250905090565b6060612198826115a8565b6121d7576040517f08c379a00000000000000000000000000000000000000000000000000000000081526004016121ce90613d90565b60405180910390fd5b60006121e1612176565b90506000815111612201576040518060200160405280600081525061222c565b8061220b8461239b565b60405160200161221c9291906137b7565b6040516020818303038152906040525b915050919050565b60007f000000000000000000000000000000000000000000000000000000000000000073ffffffffffffffffffffffffffffffffffffffff16634000aea07f0000000000000000000000000000000000000000000000000000000000000000848660006040516020016122a8929190613ae0565b6040516020818303038152906040526040518463ffffffff1660e01b81526004016122d593929190613a6c565b602060405180830381600087803b1580156122ef57600080fd5b505af1158015612303573d6000803e3d6000fd5b505050506040513d601f19601f820116820180604052508101906123279190612f3d565b50600061234a84600030600860008981526020019081526020016000205461294d565b90506001600860008681526020019081526020016000205461236c9190613fb0565b600860008681526020019081526020016000208190555061238d8482612989565b91505092915050565b505050565b606060008214156123e3576040518060400160405280600181526020017f30000000000000000000000000000000000000000000000000000000000000008152509050612543565b600082905060005b600082146124155780806123fe906141e8565b915050600a8261240e9190614006565b91506123eb565b60008167ffffffffffffffff811115612457577f4e487b7100000000000000000000000000000000000000000000000000000000600052604160045260246000fd5b6040519080825280601f01601f1916602001820160405280156124895781602001600182028036833780820191505090505b5090505b6000851461253c576001826124a29190614091565b9150600a856124b19190614245565b60306124bd9190613fb0565b60f81b8183815181106124f9577f4e487b7100000000000000000000000000000000000000000000000000000000600052603260045260246000fd5b60200101907effffffffffffffffffffffffffffffffffffffffffffffffffffffffffffff1916908160001a905350600a856125359190614006565b945061248d565b8093505050505b919050565b60606000826020015161255e846040015161239b565b61256b856060015161239b565b612578866080015161239b565b6125858760a0015161239b565b6125928860c0015161239b565b61259f8960e0015161239b565b6125ad8a610100015161239b565b6125bb8b610120015161239b565b6040516020016125d3999897969594939291906137fd565b604051602081830303815290604052905080915050919050565b606060008251141561261057604051806020016040528060008152509050612793565b60006040518060600160405280604081526020016153d7604091399050600060036002855161263f9190613fb0565b6126499190614006565b60046126559190614037565b905060006020826126669190613fb0565b67ffffffffffffffff8111156126a5577f4e487b7100000000000000000000000000000000000000000000000000000000600052604160045260246000fd5b6040519080825280601f01601f1916602001820160405280156126d75781602001600182028036833780820191505090505b509050818152600183018586518101602084015b81831015612752576003830192508251603f8160121c1685015160f81b8252600182019150603f81600c1c1685015160f81b8252600182019150603f8160061c1685015160f81b8252600182019150603f811685015160f81b8252600182019150506126eb565b60038951066001811461276c576002811461277c57612787565b613d3d60f01b6002830352612787565b603d60f81b60018303525b50505050508093505050505b919050565b6127b28282604051806020016040528060008152506129bc565b5050565b60006127d78473ffffffffffffffffffffffffffffffffffffffff16612a17565b15612940578373ffffffffffffffffffffffffffffffffffffffff1663150b7a02612800611614565b8786866040518563ffffffff1660e01b81526004016128229493929190613a20565b602060405180830381600087803b15801561283c57600080fd5b505af192505050801561286d57506040513d601f19601f8201168201806040525081019061286a9190612fcb565b60015b6128f0573d806000811461289d576040519150601f19603f3d011682016040523d82523d6000602084013e6128a2565b606091505b506000815114156128e8576040517f08c379a00000000000000000000000000000000000000000000000000000000081526004016128df90613b90565b60405180910390fd5b805181602001fd5b63150b7a0260e01b7bffffffffffffffffffffffffffffffffffffffffffffffffffffffff1916817bffffffffffffffffffffffffffffffffffffffffffffffffffffffff191614915050612945565b600190505b949350505050565b6000848484846040516020016129669493929190613b09565b6040516020818303038152906040528051906020012060001c9050949350505050565b6000828260405160200161299e929190613774565b60405160208183030381529060405280519060200120905092915050565b6129c68383612a2a565b6129d360008484846127b6565b612a12576040517f08c379a0000000000000000000000000000000000000000000000000000000008152600401612a0990613b90565b60405180910390fd5b505050565b600080823b905060008111915050919050565b600073ffffffffffffffffffffffffffffffffffffffff168273ffffffffffffffffffffffffffffffffffffffff161415612a9a576040517f08c379a0000000000000000000000000000000000000000000000000000000008152600401612a9190613cf0565b60405180910390fd5b612aa3816115a8565b15612ae3576040517f08c379a0000000000000000000000000000000000000000000000000000000008152600401612ada90613bd0565b60405180910390fd5b612aef60008383612396565b6001600360008473ffffffffffffffffffffffffffffffffffffffff1673ffffffffffffffffffffffffffffffffffffffff1681526020019081526020016000206000828254612b3f9190613fb0565b92505081905550816002600083815260200190815260200160002060006101000a81548173ffffffffffffffffffffffffffffffffffffffff021916908373ffffffffffffffffffffffffffffffffffffffff160217905550808273ffffffffffffffffffffffffffffffffffffffff16600073ffffffffffffffffffffffffffffffffffffffff167fddf252ad1be2c89b69c2b068fc378daa952ba7f163c4a11628f55a4df523b3ef60405160405180910390a45050565b828054612c0490614185565b90600052602060002090601f016020900481019282612c265760008555612c6d565b82601f10612c3f57805160ff1916838001178555612c6d565b82800160010185558215612c6d579182015b82811115612c6c578251825591602001919060010190612c51565b5b509050612c7a9190612c7e565b5090565b5b80821115612c97576000816000905550600101612c7f565b5090565b6000612cae612ca984613f3c565b613f17565b905082815260208101848484011115612cc657600080fd5b612cd1848285614143565b509392505050565b600081359050612ce881615363565b92915050565b600081359050612cfd8161537a565b92915050565b600081519050612d128161537a565b92915050565b600081359050612d2781615391565b92915050565b600081359050612d3c816153a8565b92915050565b600081519050612d51816153a8565b92915050565b600082601f830112612d6857600080fd5b8135612d78848260208601612c9b565b91505092915050565b600081359050612d90816153bf565b92915050565b600060208284031215612da857600080fd5b6000612db684828501612cd9565b91505092915050565b60008060408385031215612dd257600080fd5b6000612de085828601612cd9565b9250506020612df185828601612cd9565b9150509250929050565b600080600060608486031215612e1057600080fd5b6000612e1e86828701612cd9565b9350506020612e2f86828701612cd9565b9250506040612e4086828701612d81565b9150509250925092565b60008060008060808587031215612e6057600080fd5b6000612e6e87828801612cd9565b9450506020612e7f87828801612cd9565b9350506040612e9087828801612d81565b925050606085013567ffffffffffffffff811115612ead57600080fd5b612eb987828801612d57565b91505092959194509250565b60008060408385031215612ed857600080fd5b6000612ee685828601612cd9565b9250506020612ef785828601612cee565b9150509250929050565b60008060408385031215612f1457600080fd5b6000612f2285828601612cd9565b9250506020612f3385828601612d81565b9150509250929050565b600060208284031215612f4f57600080fd5b6000612f5d84828501612d03565b91505092915050565b60008060408385031215612f7957600080fd5b6000612f8785828601612d18565b9250506020612f9885828601612d81565b9150509250929050565b600060208284031215612fb457600080fd5b6000612fc284828501612d2d565b91505092915050565b600060208284031215612fdd57600080fd5b6000612feb84828501612d42565b91505092915050565b60006020828403121561300657600080fd5b600061301484828501612d81565b91505092915050565b613026816140c5565b82525050565b613035816140d7565b82525050565b613044816140e3565b82525050565b61305b613056826140e3565b614231565b82525050565b600061306c82613f6d565b6130768185613f83565b9350613086818560208601614152565b61308f81614332565b840191505092915050565b60006130a582613f78565b6130af8185613f94565b93506130bf818560208601614152565b6130c881614332565b840191505092915050565b60006130de82613f78565b6130e88185613fa5565b93506130f8818560208601614152565b80840191505092915050565b6000613111601d83613f94565b915061311c82614343565b602082019050919050565b6000613134603283613f94565b915061313f8261436c565b604082019050919050565b6000613157602783613fa5565b9150613162826143bb565b602782019050919050565b600061317a602683613f94565b91506131858261440a565b604082019050919050565b600061319d600c83613fa5565b91506131a882614459565b600c82019050919050565b60006131c0607083613fa5565b91506131cb82614482565b607082019050919050565b60006131e3601c83613f94565b91506131ee8261451d565b602082019050919050565b600061320660cb83613fa5565b915061321182614546565b60cb82019050919050565b6000613229602483613f94565b915061323482614653565b604082019050919050565b600061324c602c83613fa5565b9150613257826146a2565b602c82019050919050565b600061326f601983613f94565b915061327a826146f1565b602082019050919050565b6000613292601783613f94565b915061329d8261471a565b602082019050919050565b60006132b560e083613fa5565b91506132c082614743565b60e082019050919050565b60006132d8602c83613f94565b91506132e382614850565b604082019050919050565b60006132fb600d83613fa5565b91506133068261489f565b600d82019050919050565b600061331e602183613fa5565b9150613329826148c8565b602182019050919050565b6000613341602883613fa5565b915061334c82614917565b602882019050919050565b6000613364607683613fa5565b915061336f82614966565b607682019050919050565b6000613387602883613fa5565b915061339282614a01565b602882019050919050565b60006133aa603883613f94565b91506133b582614a50565b604082019050919050565b60006133cd602a83613f94565b91506133d882614a9f565b604082019050919050565b60006133f0602983613f94565b91506133fb82614aee565b604082019050919050565b6000613413602e83613f94565b915061341e82614b3d565b604082019050919050565b6000613436600283613fa5565b915061344182614b8c565b600282019050919050565b6000613459602083613f94565b915061346482614bb5565b602082019050919050565b600061347c603183613f94565b915061348782614bde565b604082019050919050565b600061349f602c83613f94565b91506134aa82614c2d565b604082019050919050565b60006134c2602383613fa5565b91506134cd82614c7c565b602382019050919050565b60006134e5602083613f94565b91506134f082614ccb565b602082019050919050565b6000613508602983613f94565b915061351382614cf4565b604082019050919050565b600061352b602f83613f94565b915061353682614d43565b604082019050919050565b600061354e600a83613fa5565b915061355982614d92565b600a82019050919050565b6000613571601f83613f94565b915061357c82614dbb565b602082019050919050565b6000613594602183613f94565b915061359f82614de4565b604082019050919050565b60006135b7602a83613fa5565b91506135c282614e33565b602a82019050919050565b60006135da601a83613f94565b91506135e582614e82565b602082019050919050565b60006135fd60ca83613fa5565b915061360882614eab565b60ca82019050919050565b6000613620607883613fa5565b915061362b82614fb8565b607882019050919050565b6000613643603183613f94565b915061364e82615053565b604082019050919050565b6000613666602983613fa5565b9150613671826150a2565b602982019050919050565b6000613689600f83613fa5565b9150613694826150f1565b600f82019050919050565b60006136ac607a83613fa5565b91506136b78261511a565b607a82019050919050565b60006136cf602183613fa5565b91506136da826151b5565b602182019050919050565b60006136f2607783613fa5565b91506136fd82615204565b607782019050919050565b6000613715600e83613fa5565b91506137208261529f565b600e82019050919050565b6000613738607583613fa5565b9150613743826152c8565b607582019050919050565b61375781614139565b82525050565b61376e61376982614139565b61423b565b82525050565b6000613780828561304a565b602082019150613790828461375d565b6020820191508190509392505050565b60006137ac82846130d3565b915081905092915050565b60006137c382856130d3565b91506137cf82846130d3565b91508190509392505050565b60006137e682613190565b91506137f282846130d3565b915081905092915050565b6000613808826132a8565b9150613814828c6130d3565b915061381f826131f9565b915061382b828b6130d3565b9150613836826131b3565b9150613842828a6130d3565b915061384d826135f0565b915061385982896130d3565b915061386482613357565b915061387082886130d3565b915061387b826136e5565b915061388782876130d3565b91506138928261372b565b915061389e82866130d3565b91506138a98261369f565b91506138b582856130d3565b91506138c082613613565b91506138cc82846130d3565b91506138d7826132ee565b91508190509a9950505050505050505050565b60006138f582613541565b9150613901828d6130d3565b915061390c82613334565b915061391782613708565b915061392282613311565b915061392e828c6130d3565b9150613939826134b5565b9150613945828b6130d3565b9150613950826136c2565b915061395c828a6130d3565b91506139678261337a565b915061397382896130d3565b915061397e82613659565b915061398a82886130d3565b91506139958261314a565b91506139a182876130d3565b91506139ac8261323f565b91506139b882866130d3565b91506139c3826135aa565b91506139cf82856130d3565b91506139da8261367c565b91506139e682846130d3565b91506139f182613429565b91508190509b9a5050505050505050505050565b6000602082019050613a1a600083018461301d565b92915050565b6000608082019050613a35600083018761301d565b613a42602083018661301d565b613a4f604083018561374e565b8181036060830152613a618184613061565b905095945050505050565b6000606082019050613a81600083018661301d565b613a8e602083018561374e565b8181036040830152613aa08184613061565b9050949350505050565b6000602082019050613abf600083018461302c565b92915050565b6000602082019050613ada600083018461303b565b92915050565b6000604082019050613af5600083018561303b565b613b02602083018461374e565b9392505050565b6000608082019050613b1e600083018761303b565b613b2b602083018661374e565b613b38604083018561301d565b613b45606083018461374e565b95945050505050565b60006020820190508181036000830152613b68818461309a565b905092915050565b60006020820190508181036000830152613b8981613104565b9050919050565b60006020820190508181036000830152613ba981613127565b9050919050565b60006020820190508181036000830152613bc98161316d565b9050919050565b60006020820190508181036000830152613be9816131d6565b9050919050565b60006020820190508181036000830152613c098161321c565b9050919050565b60006020820190508181036000830152613c2981613262565b9050919050565b60006020820190508181036000830152613c4981613285565b9050919050565b60006020820190508181036000830152613c69816132cb565b9050919050565b60006020820190508181036000830152613c898161339d565b9050919050565b60006020820190508181036000830152613ca9816133c0565b9050919050565b60006020820190508181036000830152613cc9816133e3565b9050919050565b60006020820190508181036000830152613ce981613406565b9050919050565b60006020820190508181036000830152613d098161344c565b9050919050565b60006020820190508181036000830152613d298161346f565b9050919050565b60006020820190508181036000830152613d4981613492565b9050919050565b60006020820190508181036000830152613d69816134d8565b9050919050565b60006020820190508181036000830152613d89816134fb565b9050919050565b60006020820190508181036000830152613da98161351e565b9050919050565b60006020820190508181036000830152613dc981613564565b9050919050565b60006020820190508181036000830152613de981613587565b9050919050565b60006020820190508181036000830152613e09816135cd565b9050919050565b60006020820190508181036000830152613e2981613636565b9050919050565b6000602082019050613e45600083018461374e565b92915050565b600061014082019050613e61600083018d61374e565b8181036020830152613e73818c61309a565b9050613e82604083018b61374e565b613e8f606083018a61374e565b613e9c608083018961374e565b613ea960a083018861374e565b613eb660c083018761374e565b613ec360e083018661374e565b613ed161010083018561374e565b613edf61012083018461374e565b9b9a5050505050505050505050565b6000604082019050613f03600083018561374e565b613f10602083018461374e565b9392505050565b6000613f21613f32565b9050613f2d82826141b7565b919050565b6000604051905090565b600067ffffffffffffffff821115613f5757613f56614303565b5b613f6082614332565b9050602081019050919050565b600081519050919050565b600081519050919050565b600082825260208201905092915050565b600082825260208201905092915050565b600081905092915050565b6000613fbb82614139565b9150613fc683614139565b9250827fffffffffffffffffffffffffffffffffffffffffffffffffffffffffffffffff03821115613ffb57613ffa614276565b5b828201905092915050565b600061401182614139565b915061401c83614139565b92508261402c5761402b6142a5565b5b828204905092915050565b600061404282614139565b915061404d83614139565b9250817fffffffffffffffffffffffffffffffffffffffffffffffffffffffffffffffff048311821515161561408657614085614276565b5b828202905092915050565b600061409c82614139565b91506140a783614139565b9250828210156140ba576140b9614276565b5b828203905092915050565b60006140d082614119565b9050919050565b60008115159050919050565b6000819050919050565b60007fffffffff0000000000000000000000000000000000000000000000000000000082169050919050565b600073ffffffffffffffffffffffffffffffffffffffff82169050919050565b6000819050919050565b82818337600083830152505050565b60005b83811015614170578082015181840152602081019050614155565b8381111561417f576000848401525b50505050565b6000600282049050600182168061419d57607f821691505b602082108114156141b1576141b06142d4565b5b50919050565b6141c082614332565b810181811067ffffffffffffffff821117156141df576141de614303565b5b80604052505050565b60006141f382614139565b91507fffffffffffffffffffffffffffffffffffffffffffffffffffffffffffffffff82141561422657614225614276565b5b600182019050919050565b6000819050919050565b6000819050919050565b600061425082614139565b915061425b83614139565b92508261426b5761426a6142a5565b5b828206905092915050565b7f4e487b7100000000000000000000000000000000000000000000000000000000600052601160045260246000fd5b7f4e487b7100000000000000000000000000000000000000000000000000000000600052601260045260246000fd5b7f4e487b7100000000000000000000000000000000000000000000000000000000600052602260045260246000fd5b7f4e487b7100000000000000000000000000000000000000000000000000000000600052604160045260246000fd5b6000601f19601f8301169050919050565b7f746f6b656e20686173206e6f74206265656e206d696e74656420796574000000600082015250565b7f4552433732313a207472616e7366657220746f206e6f6e20455243373231526560008201527f63656976657220696d706c656d656e7465720000000000000000000000000000602082015250565b7f227d2c7b2274726169745f74797065223a20224167696c697479222c2022766160008201527f6c7565223a202200000000000000000000000000000000000000000000000000602082015250565b7f4f776e61626c653a206e6577206f776e657220697320746865207a65726f206160008201527f6464726573730000000000000000000000000000000000000000000000000000602082015250565b7f426c6f6f6453706f727420230000000000000000000000000000000000000000600082015250565b7f3c2f746578743e3c7465787420783d273530252720793d273433252720666f6e60008201527f742d73697a653d2732656d2720646f6d696e616e742d626173656c696e653d2760208201527f6d6964646c652720746578742d616e63686f723d276d6964646c65272066696c60408201527f6c3d277768697465273e57696e733a2000000000000000000000000000000000606082015250565b7f4552433732313a20746f6b656e20616c7265616479206d696e74656400000000600082015250565b7f3c2f746578743e3c6c696e652078313d27323025272079313d2732372527207860008201527f323d27383025272079323d2732372527207374796c653d277374726f6b653a7260208201527f6762283235352c3235352c323535293b7374726f6b652d77696474683a34272f60408201527f3e3c7465787420783d273530252720793d273335252720666f6e742d73697a6560608201527f3d2732656d2720646f6d696e616e742d626173656c696e653d276d6964646c6560808201527f2720746578742d616e63686f723d276d6964646c65272066696c6c3d2777686960a08201527f7465273e4c6576656c3a2000000000000000000000000000000000000000000060c082015250565b7f4552433732313a207472616e7366657220746f20746865207a65726f2061646460008201527f7265737300000000000000000000000000000000000000000000000000000000602082015250565b7f227d2c7b2274726169745f74797065223a2022496e74656c6c6967656e63652260008201527f2c202276616c7565223a20220000000000000000000000000000000000000000602082015250565b7f4552433732313a20617070726f766520746f2063616c6c657200000000000000600082015250565b7f746f6b656e55524920697320616c726561647920736574000000000000000000600082015250565b7f3c73766720786d6c6e733d27687474703a2f2f7777772e77332e6f72672f323060008201527f30302f73766727206865696768743d27353030272077696474683d273530302760208201527f3e3c726563742077696474683d2735303027206865696768743d27353030272060408201527f7374796c653d2766696c6c3a7267622832312c32312c3231293b272f3e3c746560608201527f787420783d273530252720793d273230252720666f6e742d73697a653d27336560808201527f6d2720646f6d696e616e742d626173656c696e653d276d6964646c652720746560a08201527f78742d616e63686f723d276d6964646c65272066696c6c3d277768697465273e60c082015250565b7f4552433732313a206f70657261746f7220717565727920666f72206e6f6e657860008201527f697374656e7420746f6b656e0000000000000000000000000000000000000000602082015250565b7f3c2f746578743e3c2f7376673e00000000000000000000000000000000000000600082015250565b7f7b2274726169745f74797065223a20224c6576656c222c2276616c7565223a2060008201527f2200000000000000000000000000000000000000000000000000000000000000602082015250565b7f222c226465736372697074696f6e223a2022416e204e4654206669676874696e60008201527f672067616d65222c000000000000000000000000000000000000000000000000602082015250565b7f3c2f746578743e3c7465787420783d273530252720793d273632252720666f6e60008201527f742d73697a653d27312e35656d2720646f6d696e616e742d626173656c696e6560208201527f3d276d6964646c652720746578742d616e63686f723d276d6964646c6527206660408201527f696c6c3d277768697465273e537472656e6774683a2000000000000000000000606082015250565b7f227d2c7b2274726169745f74797065223a2022537472656e677468222c20227660008201527f616c7565223a2022000000000000000000000000000000000000000000000000602082015250565b7f4552433732313a20617070726f76652063616c6c6572206973206e6f74206f7760008201527f6e6572206e6f7220617070726f76656420666f7220616c6c0000000000000000602082015250565b7f4552433732313a2062616c616e636520717565727920666f7220746865207a6560008201527f726f206164647265737300000000000000000000000000000000000000000000602082015250565b7f4552433732313a206f776e657220717565727920666f72206e6f6e657869737460008201527f656e7420746f6b656e0000000000000000000000000000000000000000000000602082015250565b7f45524337323155524953746f726167653a2055524920736574206f66206e6f6e60008201527f6578697374656e7420746f6b656e000000000000000000000000000000000000602082015250565b7f227d000000000000000000000000000000000000000000000000000000000000600082015250565b7f4552433732313a206d696e7420746f20746865207a65726f2061646472657373600082015250565b7f45524337323155524953746f726167653a2055524920717565727920666f722060008201527f6e6f6e6578697374656e7420746f6b656e000000000000000000000000000000602082015250565b7f4552433732313a20617070726f76656420717565727920666f72206e6f6e657860008201527f697374656e7420746f6b656e0000000000000000000000000000000000000000602082015250565b7f227d2c7b2274726169745f74797065223a202257696e73222c2276616c75652260008201527f3a20220000000000000000000000000000000000000000000000000000000000602082015250565b7f4f776e61626c653a2063616c6c6572206973206e6f7420746865206f776e6572600082015250565b7f4552433732313a207472616e73666572206f6620746f6b656e2074686174206960008201527f73206e6f74206f776e0000000000000000000000000000000000000000000000602082015250565b7f4552433732314d657461646174613a2055524920717565727920666f72206e6f60008201527f6e6578697374656e7420746f6b656e0000000000000000000000000000000000602082015250565b7f7b226e616d65223a202200000000000000000000000000000000000000000000600082015250565b7f4f6e6c7920565246436f6f7264696e61746f722063616e2066756c66696c6c00600082015250565b7f4552433732313a20617070726f76616c20746f2063757272656e74206f776e6560008201527f7200000000000000000000000000000000000000000000000000000000000000602082015250565b7f227d2c7b2274726169745f74797065223a20224475726162696c69747922202c60008201527f2276616c7565223a202200000000000000000000000000000000000000000000602082015250565b7f436861696e4c696e6b20565246206973206e6f74207265616479000000000000600082015250565b7f3c2f746578743e3c6c696e652078313d27323025272079313d2735302527207860008201527f323d27383025272079323d2735302527207374796c653d277374726f6b653a7260208201527f6762283235352c3235352c323535293b7374726f6b652d77696474683a34272f60408201527f3e3c7465787420783d273530252720793d273537252720666f6e742d73697a6560608201527f3d27312e35656d2720646f6d696e616e742d626173656c696e653d276d69646460808201527f6c652720746578742d616e63686f723d276d6964646c65272066696c6c3d277760a08201527f68697465273e48503a200000000000000000000000000000000000000000000060c082015250565b7f3c2f746578743e3c7465787420783d273530252720793d273832252720666f6e60008201527f742d73697a653d27312e35656d2720646f6d696e616e742d626173656c696e6560208201527f3d276d6964646c652720746578742d616e63686f723d276d6964646c6527206660408201527f696c6c3d277768697465273e4475726162696c6974793a200000000000000000606082015250565b7f4552433732313a207472616e736665722063616c6c6572206973206e6f74206f60008201527f776e6572206e6f7220617070726f766564000000000000000000000000000000602082015250565b7f227d2c7b2274726169745f74797065223a2022446578746572697479222c202260008201527f76616c7565223a20220000000000000000000000000000000000000000000000602082015250565b7f227d5d2c2022696d616765223a20220000000000000000000000000000000000600082015250565b7f3c2f746578743e3c7465787420783d273530252720793d273737252720666f6e60008201527f742d73697a653d27312e35656d2720646f6d696e616e742d626173656c696e6560208201527f3d276d6964646c652720746578742d616e63686f723d276d6964646c6527206660408201527f696c6c3d277768697465273e496e74656c6c6967656e63653a20000000000000606082015250565b7f227d2c7b2274726169745f74797065223a20224850222c2276616c7565223a2060008201527f2200000000000000000000000000000000000000000000000000000000000000602082015250565b7f3c2f746578743e3c7465787420783d273530252720793d273637252720666f6e60008201527f742d73697a653d27312e35656d2720646f6d696e616e742d626173656c696e6560208201527f3d276d6964646c652720746578742d616e63686f723d276d6964646c6527206660408201527f696c6c3d277768697465273e4465787465726974793a20000000000000000000606082015250565b7f2261747472696275746573223a5b000000000000000000000000000000000000600082015250565b7f3c2f746578743e3c7465787420783d273530252720793d273732252720666f6e60008201527f742d73697a653d27312e35656d2720646f6d696e616e742d626173656c696e6560208201527f3d276d6964646c652720746578742d616e63686f723d276d6964646c6527206660408201527f696c6c3d277768697465273e4167696c6974793a200000000000000000000000606082015250565b61536c816140c5565b811461537757600080fd5b50565b615383816140d7565b811461538e57600080fd5b50565b61539a816140e3565b81146153a557600080fd5b50565b6153b1816140ed565b81146153bc57600080fd5b50565b6153c881614139565b81146153d357600080fd5b5056fe4142434445464748494a4b4c4d4e4f505152535455565758595a6162636465666768696a6b6c6d6e6f707172737475767778797a303132333435363738392b2fa26469706673582212200a59dd7909342ae9a5853c8d7d04b03e1f1be973927089b31251ac8e56a4284564736f6c63430008040033",
  "devdoc": {
    "kind": "dev",
    "methods": {
      "approve(address,uint256)": {
        "details": "See {IERC721-approve}."
      },
      "balanceOf(address)": {
        "details": "See {IERC721-balanceOf}."
      },
      "getApproved(uint256)": {
        "details": "See {IERC721-getApproved}."
      },
      "isApprovedForAll(address,address)": {
        "details": "See {IERC721-isApprovedForAll}."
      },
      "name()": {
        "details": "See {IERC721Metadata-name}."
      },
      "owner()": {
        "details": "Returns the address of the current owner."
      },
      "ownerOf(uint256)": {
        "details": "See {IERC721-ownerOf}."
      },
      "renounceOwnership()": {
        "details": "Leaves the contract without owner. It will not be possible to call `onlyOwner` functions anymore. Can only be called by the current owner. NOTE: Renouncing ownership will leave the contract without an owner, thereby removing any functionality that is only available to the owner."
      },
      "safeTransferFrom(address,address,uint256)": {
        "details": "See {IERC721-safeTransferFrom}."
      },
      "safeTransferFrom(address,address,uint256,bytes)": {
        "details": "See {IERC721-safeTransferFrom}."
      },
      "setApprovalForAll(address,bool)": {
        "details": "See {IERC721-setApprovalForAll}."
      },
      "supportsInterface(bytes4)": {
        "details": "See {IERC165-supportsInterface}."
      },
      "symbol()": {
        "details": "See {IERC721Metadata-symbol}."
      },
      "tokenURI(uint256)": {
        "details": "See {IERC721Metadata-tokenURI}."
      },
      "transferFrom(address,address,uint256)": {
        "details": "See {IERC721-transferFrom}."
      },
      "transferOwnership(address)": {
        "details": "Transfers ownership of the contract to a new account (`newOwner`). Can only be called by the current owner."
      }
    },
    "version": 1
  },
  "userdoc": {
    "kind": "user",
    "methods": {},
    "version": 1
  },
  "storageLayout": {
    "storage": [
      {
        "astId": 395,
        "contract": "contracts/NFT.sol:NFT",
        "label": "_name",
        "offset": 0,
        "slot": "0",
        "type": "t_string_storage"
      },
      {
        "astId": 397,
        "contract": "contracts/NFT.sol:NFT",
        "label": "_symbol",
        "offset": 0,
        "slot": "1",
        "type": "t_string_storage"
      },
      {
        "astId": 401,
        "contract": "contracts/NFT.sol:NFT",
        "label": "_owners",
        "offset": 0,
        "slot": "2",
        "type": "t_mapping(t_uint256,t_address)"
      },
      {
        "astId": 405,
        "contract": "contracts/NFT.sol:NFT",
        "label": "_balances",
        "offset": 0,
        "slot": "3",
        "type": "t_mapping(t_address,t_uint256)"
      },
      {
        "astId": 409,
        "contract": "contracts/NFT.sol:NFT",
        "label": "_tokenApprovals",
        "offset": 0,
        "slot": "4",
        "type": "t_mapping(t_uint256,t_address)"
      },
      {
        "astId": 415,
        "contract": "contracts/NFT.sol:NFT",
        "label": "_operatorApprovals",
        "offset": 0,
        "slot": "5",
        "type": "t_mapping(t_address,t_mapping(t_address,t_bool))"
      },
      {
        "astId": 1332,
        "contract": "contracts/NFT.sol:NFT",
        "label": "_tokenURIs",
        "offset": 0,
        "slot": "6",
        "type": "t_mapping(t_uint256,t_string_storage)"
      },
      {
        "astId": 273,
        "contract": "contracts/NFT.sol:NFT",
        "label": "_owner",
        "offset": 0,
        "slot": "7",
        "type": "t_address"
      },
      {
        "astId": 79,
        "contract": "contracts/NFT.sol:NFT",
        "label": "nonces",
        "offset": 0,
        "slot": "8",
        "type": "t_mapping(t_bytes32,t_uint256)"
      },
      {
        "astId": 2117,
        "contract": "contracts/NFT.sol:NFT",
        "label": "tokenCounter",
        "offset": 0,
        "slot": "9",
        "type": "t_uint256"
      },
      {
        "astId": 2119,
        "contract": "contracts/NFT.sol:NFT",
        "label": "fee",
        "offset": 0,
        "slot": "10",
        "type": "t_uint256"
      },
      {
        "astId": 2121,
        "contract": "contracts/NFT.sol:NFT",
        "label": "keyHash",
        "offset": 0,
        "slot": "11",
        "type": "t_bytes32"
      },
      {
        "astId": 2126,
        "contract": "contracts/NFT.sol:NFT",
        "label": "tokenIdToFighter",
        "offset": 0,
        "slot": "12",
        "type": "t_mapping(t_uint256,t_struct(Fighter)2159_storage)"
      },
      {
        "astId": 2130,
        "contract": "contracts/NFT.sol:NFT",
        "label": "requestIdToSender",
        "offset": 0,
        "slot": "13",
        "type": "t_mapping(t_bytes32,t_address)"
      },
      {
        "astId": 2134,
        "contract": "contracts/NFT.sol:NFT",
        "label": "requestIdToTokenId",
        "offset": 0,
        "slot": "14",
        "type": "t_mapping(t_bytes32,t_uint256)"
      },
      {
        "astId": 2138,
        "contract": "contracts/NFT.sol:NFT",
        "label": "tokenIdToRandomNumber",
        "offset": 0,
        "slot": "15",
        "type": "t_mapping(t_uint256,t_uint256)"
      }
    ],
    "types": {
      "t_address": {
        "encoding": "inplace",
        "label": "address",
        "numberOfBytes": "20"
      },
      "t_bool": {
        "encoding": "inplace",
        "label": "bool",
        "numberOfBytes": "1"
      },
      "t_bytes32": {
        "encoding": "inplace",
        "label": "bytes32",
        "numberOfBytes": "32"
      },
      "t_mapping(t_address,t_bool)": {
        "encoding": "mapping",
        "key": "t_address",
        "label": "mapping(address => bool)",
        "numberOfBytes": "32",
        "value": "t_bool"
      },
      "t_mapping(t_address,t_mapping(t_address,t_bool))": {
        "encoding": "mapping",
        "key": "t_address",
        "label": "mapping(address => mapping(address => bool))",
        "numberOfBytes": "32",
        "value": "t_mapping(t_address,t_bool)"
      },
      "t_mapping(t_address,t_uint256)": {
        "encoding": "mapping",
        "key": "t_address",
        "label": "mapping(address => uint256)",
        "numberOfBytes": "32",
        "value": "t_uint256"
      },
      "t_mapping(t_bytes32,t_address)": {
        "encoding": "mapping",
        "key": "t_bytes32",
        "label": "mapping(bytes32 => address)",
        "numberOfBytes": "32",
        "value": "t_address"
      },
      "t_mapping(t_bytes32,t_uint256)": {
        "encoding": "mapping",
        "key": "t_bytes32",
        "label": "mapping(bytes32 => uint256)",
        "numberOfBytes": "32",
        "value": "t_uint256"
      },
      "t_mapping(t_uint256,t_address)": {
        "encoding": "mapping",
        "key": "t_uint256",
        "label": "mapping(uint256 => address)",
        "numberOfBytes": "32",
        "value": "t_address"
      },
      "t_mapping(t_uint256,t_string_storage)": {
        "encoding": "mapping",
        "key": "t_uint256",
        "label": "mapping(uint256 => string)",
        "numberOfBytes": "32",
        "value": "t_string_storage"
      },
      "t_mapping(t_uint256,t_struct(Fighter)2159_storage)": {
        "encoding": "mapping",
        "key": "t_uint256",
        "label": "mapping(uint256 => struct NFT.Fighter)",
        "numberOfBytes": "32",
        "value": "t_struct(Fighter)2159_storage"
      },
      "t_mapping(t_uint256,t_uint256)": {
        "encoding": "mapping",
        "key": "t_uint256",
        "label": "mapping(uint256 => uint256)",
        "numberOfBytes": "32",
        "value": "t_uint256"
      },
      "t_string_storage": {
        "encoding": "bytes",
        "label": "string",
        "numberOfBytes": "32"
      },
      "t_struct(Fighter)2159_storage": {
        "encoding": "inplace",
        "label": "struct NFT.Fighter",
        "members": [
          {
            "astId": 2140,
            "contract": "contracts/NFT.sol:NFT",
            "label": "tokenId",
            "offset": 0,
            "slot": "0",
            "type": "t_uint256"
          },
          {
            "astId": 2142,
            "contract": "contracts/NFT.sol:NFT",
            "label": "name",
            "offset": 0,
            "slot": "1",
            "type": "t_string_storage"
          },
          {
            "astId": 2144,
            "contract": "contracts/NFT.sol:NFT",
            "label": "level",
            "offset": 0,
            "slot": "2",
            "type": "t_uint256"
          },
          {
            "astId": 2146,
            "contract": "contracts/NFT.sol:NFT",
            "label": "wins",
            "offset": 0,
            "slot": "3",
            "type": "t_uint256"
          },
          {
            "astId": 2148,
            "contract": "contracts/NFT.sol:NFT",
            "label": "hp",
            "offset": 0,
            "slot": "4",
            "type": "t_uint256"
          },
          {
            "astId": 2150,
            "contract": "contracts/NFT.sol:NFT",
            "label": "strength",
            "offset": 0,
            "slot": "5",
            "type": "t_uint256"
          },
          {
            "astId": 2152,
            "contract": "contracts/NFT.sol:NFT",
            "label": "dexterity",
            "offset": 0,
            "slot": "6",
            "type": "t_uint256"
          },
          {
            "astId": 2154,
            "contract": "contracts/NFT.sol:NFT",
            "label": "agility",
            "offset": 0,
            "slot": "7",
            "type": "t_uint256"
          },
          {
            "astId": 2156,
            "contract": "contracts/NFT.sol:NFT",
            "label": "intelligence",
            "offset": 0,
            "slot": "8",
            "type": "t_uint256"
          },
          {
            "astId": 2158,
            "contract": "contracts/NFT.sol:NFT",
            "label": "durability",
            "offset": 0,
            "slot": "9",
            "type": "t_uint256"
          }
        ],
        "numberOfBytes": "320"
      },
      "t_uint256": {
        "encoding": "inplace",
        "label": "uint256",
        "numberOfBytes": "32"
      }
    }
  }
}