{
  "_format": "hh-sol-artifact-1",
  "contractName": "Training",
  "sourceName": "contracts/Training.sol",
  "abi": [
    {
      "inputs": [
        {
          "internalType": "address",
          "name": "_nftContract",
          "type": "address"
        },
        {
          "internalType": "address",
          "name": "_VRFCoordinator",
          "type": "address"
        },
        {
          "internalType": "address",
          "name": "_linkToken",
          "type": "address"
        },
        {
          "internalType": "bytes32",
          "name": "_keyHash",
          "type": "bytes32"
        },
        {
          "internalType": "uint256",
          "name": "_fee",
          "type": "uint256"
        }
      ],
      "stateMutability": "nonpayable",
      "type": "constructor"
    },
    {
      "anonymous": false,
      "inputs": [
        {
          "indexed": true,
          "internalType": "address",
          "name": "previousOwner",
          "type": "address"
        },
        {
          "indexed": true,
          "internalType": "address",
          "name": "newOwner",
          "type": "address"
        }
      ],
      "name": "OwnershipTransferred",
      "type": "event"
    },
    {
      "anonymous": false,
      "inputs": [
        {
          "indexed": true,
          "internalType": "uint256",
          "name": "tokenId",
          "type": "uint256"
        },
        {
          "indexed": true,
          "internalType": "uint256",
          "name": "randomNumber",
          "type": "uint256"
        }
      ],
      "name": "ReadyForTraining",
      "type": "event"
    },
    {
      "anonymous": false,
      "inputs": [
        {
          "indexed": true,
          "internalType": "bytes32",
          "name": "requestId",
          "type": "bytes32"
        },
        {
          "indexed": true,
          "internalType": "uint256",
          "name": "tokenId",
          "type": "uint256"
        }
      ],
      "name": "RequestedTraining",
      "type": "event"
    },
    {
      "anonymous": false,
      "inputs": [
        {
          "indexed": true,
          "internalType": "uint256",
          "name": "tokenId",
          "type": "uint256"
        },
        {
          "indexed": true,
          "internalType": "bool",
          "name": "isSuccessfull",
          "type": "bool"
        }
      ],
      "name": "TrainingDone",
      "type": "event"
    },
    {
      "inputs": [],
      "name": "fee",
      "outputs": [
        {
          "internalType": "uint256",
          "name": "",
          "type": "uint256"
        }
      ],
      "stateMutability": "view",
      "type": "function"
    },
    {
      "inputs": [
        {
          "internalType": "uint256",
          "name": "_tokenId",
          "type": "uint256"
        }
      ],
      "name": "finishTrainingAgi",
      "outputs": [],
      "stateMutability": "nonpayable",
      "type": "function"
    },
    {
      "inputs": [
        {
          "internalType": "uint256",
          "name": "_tokenId",
          "type": "uint256"
        }
      ],
      "name": "finishTrainingDex",
      "outputs": [],
      "stateMutability": "nonpayable",
      "type": "function"
    },
    {
      "inputs": [
        {
          "internalType": "uint256",
          "name": "_tokenId",
          "type": "uint256"
        }
      ],
      "name": "finishTrainingDur",
      "outputs": [],
      "stateMutability": "nonpayable",
      "type": "function"
    },
    {
      "inputs": [
        {
          "internalType": "uint256",
          "name": "_tokenId",
          "type": "uint256"
        }
      ],
      "name": "finishTrainingInt",
      "outputs": [],
      "stateMutability": "nonpayable",
      "type": "function"
    },
    {
      "inputs": [
        {
          "internalType": "uint256",
          "name": "_tokenId",
          "type": "uint256"
        }
      ],
      "name": "finishTrainingStr",
      "outputs": [],
      "stateMutability": "nonpayable",
      "type": "function"
    },
    {
      "inputs": [],
      "name": "keyHash",
      "outputs": [
        {
          "internalType": "bytes32",
          "name": "",
          "type": "bytes32"
        }
      ],
      "stateMutability": "view",
      "type": "function"
    },
    {
      "inputs": [],
      "name": "owner",
      "outputs": [
        {
          "internalType": "address",
          "name": "",
          "type": "address"
        }
      ],
      "stateMutability": "view",
      "type": "function"
    },
    {
      "inputs": [
        {
          "internalType": "bool",
          "name": "_state",
          "type": "bool"
        }
      ],
      "name": "pause",
      "outputs": [],
      "stateMutability": "nonpayable",
      "type": "function"
    },
    {
      "inputs": [],
      "name": "paused",
      "outputs": [
        {
          "internalType": "bool",
          "name": "",
          "type": "bool"
        }
      ],
      "stateMutability": "view",
      "type": "function"
    },
    {
      "inputs": [
        {
          "internalType": "bytes32",
          "name": "requestId",
          "type": "bytes32"
        },
        {
          "internalType": "uint256",
          "name": "randomness",
          "type": "uint256"
        }
      ],
      "name": "rawFulfillRandomness",
      "outputs": [],
      "stateMutability": "nonpayable",
      "type": "function"
    },
    {
      "inputs": [],
      "name": "renounceOwnership",
      "outputs": [],
      "stateMutability": "nonpayable",
      "type": "function"
    },
    {
      "inputs": [
        {
          "internalType": "uint256",
          "name": "_tokenId",
          "type": "uint256"
        }
      ],
      "name": "requestTraining",
      "outputs": [
        {
          "internalType": "bytes32",
          "name": "requestId",
          "type": "bytes32"
        }
      ],
      "stateMutability": "payable",
      "type": "function"
    },
    {
      "inputs": [
        {
          "internalType": "uint256",
          "name": "_newCost",
          "type": "uint256"
        }
      ],
      "name": "setCost",
      "outputs": [],
      "stateMutability": "nonpayable",
      "type": "function"
    },
    {
      "inputs": [
        {
          "internalType": "address",
          "name": "newOwner",
          "type": "address"
        }
      ],
      "name": "transferOwnership",
      "outputs": [],
      "stateMutability": "nonpayable",
      "type": "function"
    },
    {
      "inputs": [],
      "name": "withdraw",
      "outputs": [],
      "stateMutability": "payable",
      "type": "function"
    }
  ],
  "bytecode": "0x60c06040523480156200001157600080fd5b50604051620032fe380380620032fe833981810160405281019062000037919062000267565b838360016000819055508173ffffffffffffffffffffffffffffffffffffffff1660a08173ffffffffffffffffffffffffffffffffffffffff1660601b815250508073ffffffffffffffffffffffffffffffffffffffff1660808173ffffffffffffffffffffffffffffffffffffffff1660601b815250505050620000d1620000c56200015460201b60201c565b6200015c60201b60201c565b806005819055508160068190555084600360006101000a81548173ffffffffffffffffffffffffffffffffffffffff021916908373ffffffffffffffffffffffffffffffffffffffff160217905550662386f26fc100006004819055506000600760006101000a81548160ff02191690831515021790555050505050506200037f565b600033905090565b6000600260009054906101000a900473ffffffffffffffffffffffffffffffffffffffff16905081600260006101000a81548173ffffffffffffffffffffffffffffffffffffffff021916908373ffffffffffffffffffffffffffffffffffffffff1602179055508173ffffffffffffffffffffffffffffffffffffffff168173ffffffffffffffffffffffffffffffffffffffff167f8be0079c531659141344cd1fd0a4f28419497f9722a3daafe3b4186f6b6457e060405160405180910390a35050565b600081519050620002338162000331565b92915050565b6000815190506200024a816200034b565b92915050565b600081519050620002618162000365565b92915050565b600080600080600060a086880312156200028057600080fd5b6000620002908882890162000222565b9550506020620002a38882890162000222565b9450506040620002b68882890162000222565b9350506060620002c98882890162000239565b9250506080620002dc8882890162000250565b9150509295509295909350565b6000620002f68262000307565b9050919050565b6000819050919050565b600073ffffffffffffffffffffffffffffffffffffffff82169050919050565b6000819050919050565b6200033c81620002e9565b81146200034857600080fd5b50565b6200035681620002fd565b81146200036257600080fd5b50565b620003708162000327565b81146200037c57600080fd5b50565b60805160601c60a05160601c612f4c620003b2600039600081816119420152611d9c01526000611d600152612f4c6000f3fe6080604052600436106100f35760003560e01c80636b1ca3c71161008a5780638da5cb5b116100595780638da5cb5b146102be57806394985ddd146102e9578063ddca3f4314610312578063f2fde38b1461033d576100f3565b80636b1ca3c71461022c5780636cc3d5cf14610255578063715018a61461027e5780637c56df9c14610295576100f3565b806355a8dde3116100c657806355a8dde31461017d5780635c975abb146101a65780636038c980146101d157806361728f3914610201576100f3565b806302329a29146100f857806327e83e09146101215780633ccfd60b1461014a57806344a0d68a14610154575b600080fd5b34801561010457600080fd5b5061011f600480360381019061011a91906122f0565b610366565b005b34801561012d57600080fd5b50610148600480360381019061014391906123bf565b6103ff565b005b61015261070d565b005b34801561016057600080fd5b5061017b600480360381019061017691906123bf565b6107c9565b005b34801561018957600080fd5b506101a4600480360381019061019f91906123bf565b61084f565b005b3480156101b257600080fd5b506101bb610b74565b6040516101c8919061279e565b60405180910390f35b6101eb60048036038101906101e691906123bf565b610b87565b6040516101f891906127b9565b60405180910390f35b34801561020d57600080fd5b50610216610f29565b60405161022391906127b9565b60405180910390f35b34801561023857600080fd5b50610253600480360381019061024e91906123bf565b610f2f565b005b34801561026157600080fd5b5061027c600480360381019061027791906123bf565b61124f565b005b34801561028a57600080fd5b5061029361156f565b005b3480156102a157600080fd5b506102bc60048036038101906102b791906123bf565b6115f7565b005b3480156102ca57600080fd5b506102d3611916565b6040516102e09190612745565b60405180910390f35b3480156102f557600080fd5b50610310600480360381019061030b9190612342565b611940565b005b34801561031e57600080fd5b506103276119dc565b6040516103349190612962565b60405180910390f35b34801561034957600080fd5b50610364600480360381019061035f919061229e565b6119e2565b005b61036e611ada565b73ffffffffffffffffffffffffffffffffffffffff1661038c611916565b73ffffffffffffffffffffffffffffffffffffffff16146103e2576040517f08c379a00000000000000000000000000000000000000000000000000000000081526004016103d990612882565b60405180910390fd5b80600760006101000a81548160ff02191690831515021790555050565b60026000541415610445576040517f08c379a000000000000000000000000000000000000000000000000000000000815260040161043c90612922565b60405180910390fd5b60026000819055506000600360009054906101000a900473ffffffffffffffffffffffffffffffffffffffff1673ffffffffffffffffffffffffffffffffffffffff1663368dc9f2836040518263ffffffff1660e01b81526004016104aa9190612962565b60006040518083038186803b1580156104c257600080fd5b505afa1580156104d6573d6000803e3d6000fd5b505050506040513d6000823e3d601f19601f820116820180604052508101906104ff919061237e565b9050600061050c83611ae2565b905060008060329050600061052a8560400151866101200151611cdd565b905081606485600081518110610569577f4e487b7100000000000000000000000000000000000000000000000000000000600052603260045260246000fd5b602002602001015161057b9190612c54565b10156105f957600181856001815181106105be577f4e487b7100000000000000000000000000000000000000000000000000000000600052603260045260246000fd5b60200260200101516105d09190612c54565b8661012001516105e09190612a75565b6105ea9190612a75565b85610120018181525050600192505b600a856040015161060a9190612afc565b856101200151111561063257600a85604001516106279190612afc565b856101200181815250505b600085610140018181525050600360009054906101000a900473ffffffffffffffffffffffffffffffffffffffff1673ffffffffffffffffffffffffffffffffffffffff1663716fee4f87876040518363ffffffff1660e01b815260040161069b92919061297d565b600060405180830381600087803b1580156106b557600080fd5b505af11580156106c9573d6000803e3d6000fd5b50505050821515867f7090dee9b1fe76d1b5b7ed4707910d3c7bbac387f0eac8d52cab8d08c0011fed60405160405180910390a35050505050600160008190555050565b610715611ada565b73ffffffffffffffffffffffffffffffffffffffff16610733611916565b73ffffffffffffffffffffffffffffffffffffffff1614610789576040517f08c379a000000000000000000000000000000000000000000000000000000000815260040161078090612882565b60405180910390fd5b3373ffffffffffffffffffffffffffffffffffffffff166108fc479081150290604051600060405180830381858888f193505050506107c757600080fd5b565b6107d1611ada565b73ffffffffffffffffffffffffffffffffffffffff166107ef611916565b73ffffffffffffffffffffffffffffffffffffffff1614610845576040517f08c379a000000000000000000000000000000000000000000000000000000000815260040161083c90612882565b60405180910390fd5b8060048190555050565b60026000541415610895576040517f08c379a000000000000000000000000000000000000000000000000000000000815260040161088c90612922565b60405180910390fd5b60026000819055506000600360009054906101000a900473ffffffffffffffffffffffffffffffffffffffff1673ffffffffffffffffffffffffffffffffffffffff1663368dc9f2836040518263ffffffff1660e01b81526004016108fa9190612962565b60006040518083038186803b15801561091257600080fd5b505afa158015610926573d6000803e3d6000fd5b505050506040513d6000823e3d601f19601f8201168201806040525081019061094f919061237e565b9050600061095c83611ae2565b905060008061097a8460400151856101000151866101200151611d17565b905060006109918560400151866101000151611cdd565b9050816064856000815181106109d0577f4e487b7100000000000000000000000000000000000000000000000000000000600052603260045260246000fd5b60200260200101516109e29190612c54565b1015610a605760018185600181518110610a25577f4e487b7100000000000000000000000000000000000000000000000000000000600052603260045260246000fd5b6020026020010151610a379190612c54565b866101000151610a479190612a75565b610a519190612a75565b85610100018181525050600192505b600a8560400151610a719190612afc565b8561010001511115610a9957600a8560400151610a8e9190612afc565b856101000181815250505b600085610140018181525050600360009054906101000a900473ffffffffffffffffffffffffffffffffffffffff1673ffffffffffffffffffffffffffffffffffffffff1663716fee4f87876040518363ffffffff1660e01b8152600401610b0292919061297d565b600060405180830381600087803b158015610b1c57600080fd5b505af1158015610b30573d6000803e3d6000fd5b50505050821515867f7090dee9b1fe76d1b5b7ed4707910d3c7bbac387f0eac8d52cab8d08c0011fed60405160405180910390a35050505050600160008190555050565b600760009054906101000a900460ff1681565b6000600760009054906101000a900460ff1615610bd9576040517f08c379a0000000000000000000000000000000000000000000000000000000008152600401610bd090612942565b60405180910390fd5b600454341015610c1e576040517f08c379a0000000000000000000000000000000000000000000000000000000008152600401610c1590612902565b60405180910390fd5b600360009054906101000a900473ffffffffffffffffffffffffffffffffffffffff1673ffffffffffffffffffffffffffffffffffffffff16636352211e836040518263ffffffff1660e01b8152600401610c799190612962565b60206040518083038186803b158015610c9157600080fd5b505afa158015610ca5573d6000803e3d6000fd5b505050506040513d601f19601f82011682018060405250810190610cc991906122c7565b73ffffffffffffffffffffffffffffffffffffffff163373ffffffffffffffffffffffffffffffffffffffff1614610d36576040517f08c379a0000000000000000000000000000000000000000000000000000000008152600401610d2d906128e2565b60405180910390fd5b610d44600654600554611d5c565b90508160086000838152602001908152602001600020819055506000600360009054906101000a900473ffffffffffffffffffffffffffffffffffffffff1673ffffffffffffffffffffffffffffffffffffffff1663368dc9f2846040518263ffffffff1660e01b8152600401610dbb9190612962565b60006040518083038186803b158015610dd357600080fd5b505afa158015610de7573d6000803e3d6000fd5b505050506040513d6000823e3d601f19601f82011682018060405250810190610e10919061237e565b9050600081610140015114610e5a576040517f08c379a0000000000000000000000000000000000000000000000000000000008152600401610e5190612862565b60405180910390fd5b600181610140018181525050600360009054906101000a900473ffffffffffffffffffffffffffffffffffffffff1673ffffffffffffffffffffffffffffffffffffffff1663716fee4f84836040518363ffffffff1660e01b8152600401610ec392919061297d565b600060405180830381600087803b158015610edd57600080fd5b505af1158015610ef1573d6000803e3d6000fd5b5050505082827fd2e09d4c2cb0016a18f907f57752c3c7fab82da7a8db96055454b44354fe071660405160405180910390a350919050565b60065481565b60026000541415610f75576040517f08c379a0000000000000000000000000000000000000000000000000000000008152600401610f6c90612922565b60405180910390fd5b60026000819055506000600360009054906101000a900473ffffffffffffffffffffffffffffffffffffffff1673ffffffffffffffffffffffffffffffffffffffff1663368dc9f2836040518263ffffffff1660e01b8152600401610fda9190612962565b60006040518083038186803b158015610ff257600080fd5b505afa158015611006573d6000803e3d6000fd5b505050506040513d6000823e3d601f19601f8201168201806040525081019061102f919061237e565b9050600061103c83611ae2565b9050600061105883604001518460e00151856101200151611d17565b9050600061106e84604001518560e00151611cdd565b90506000826064856000815181106110af577f4e487b7100000000000000000000000000000000000000000000000000000000600052603260045260246000fd5b60200260200101516110c19190612c54565b101561113d5760018285600181518110611104577f4e487b7100000000000000000000000000000000000000000000000000000000600052603260045260246000fd5b60200260200101516111169190612c54565b8660e001516111259190612a75565b61112f9190612a75565b8560e0018181525050600190505b600a856040015161114e9190612afc565b8560e00151111561117457600a856040015161116a9190612afc565b8560e00181815250505b600085610140018181525050600360009054906101000a900473ffffffffffffffffffffffffffffffffffffffff1673ffffffffffffffffffffffffffffffffffffffff1663716fee4f87876040518363ffffffff1660e01b81526004016111dd92919061297d565b600060405180830381600087803b1580156111f757600080fd5b505af115801561120b573d6000803e3d6000fd5b50505050801515867f7090dee9b1fe76d1b5b7ed4707910d3c7bbac387f0eac8d52cab8d08c0011fed60405160405180910390a35050505050600160008190555050565b60026000541415611295576040517f08c379a000000000000000000000000000000000000000000000000000000000815260040161128c90612922565b60405180910390fd5b60026000819055506000600360009054906101000a900473ffffffffffffffffffffffffffffffffffffffff1673ffffffffffffffffffffffffffffffffffffffff1663368dc9f2836040518263ffffffff1660e01b81526004016112fa9190612962565b60006040518083038186803b15801561131257600080fd5b505afa158015611326573d6000803e3d6000fd5b505050506040513d6000823e3d601f19601f8201168201806040525081019061134f919061237e565b9050600061135c83611ae2565b9050600061137883604001518460a00151856101200151611d17565b9050600061138e84604001518560a00151611cdd565b90506000826064856000815181106113cf577f4e487b7100000000000000000000000000000000000000000000000000000000600052603260045260246000fd5b60200260200101516113e19190612c54565b101561145d5760018285600081518110611424577f4e487b7100000000000000000000000000000000000000000000000000000000600052603260045260246000fd5b60200260200101516114369190612c54565b8660a001516114459190612a75565b61144f9190612a75565b8560a0018181525050600190505b600a856040015161146e9190612afc565b8560a00151111561149457600a856040015161148a9190612afc565b8560a00181815250505b600085610140018181525050600360009054906101000a900473ffffffffffffffffffffffffffffffffffffffff1673ffffffffffffffffffffffffffffffffffffffff1663716fee4f87876040518363ffffffff1660e01b81526004016114fd92919061297d565b600060405180830381600087803b15801561151757600080fd5b505af115801561152b573d6000803e3d6000fd5b50505050801515867f7090dee9b1fe76d1b5b7ed4707910d3c7bbac387f0eac8d52cab8d08c0011fed60405160405180910390a35050505050600160008190555050565b611577611ada565b73ffffffffffffffffffffffffffffffffffffffff16611595611916565b73ffffffffffffffffffffffffffffffffffffffff16146115eb576040517f08c379a00000000000000000000000000000000000000000000000000000000081526004016115e290612882565b60405180910390fd5b6115f56000611ebd565b565b6002600054141561163d576040517f08c379a000000000000000000000000000000000000000000000000000000000815260040161163490612922565b60405180910390fd5b60026000819055506000600360009054906101000a900473ffffffffffffffffffffffffffffffffffffffff1673ffffffffffffffffffffffffffffffffffffffff1663368dc9f2836040518263ffffffff1660e01b81526004016116a29190612962565b60006040518083038186803b1580156116ba57600080fd5b505afa1580156116ce573d6000803e3d6000fd5b505050506040513d6000823e3d601f19601f820116820180604052508101906116f7919061237e565b9050600061170483611ae2565b905060008061172184604001518560c00151866101200151611d17565b9050600061173785604001518660c00151611cdd565b905081606485600081518110611776577f4e487b7100000000000000000000000000000000000000000000000000000000600052603260045260246000fd5b60200260200101516117889190612c54565b101561180457600181856001815181106117cb577f4e487b7100000000000000000000000000000000000000000000000000000000600052603260045260246000fd5b60200260200101516117dd9190612c54565b8660c001516117ec9190612a75565b6117f69190612a75565b8560c0018181525050600192505b600a85604001516118159190612afc565b8560c00151111561183b57600a85604001516118319190612afc565b8560c00181815250505b600085610140018181525050600360009054906101000a900473ffffffffffffffffffffffffffffffffffffffff1673ffffffffffffffffffffffffffffffffffffffff1663716fee4f87876040518363ffffffff1660e01b81526004016118a492919061297d565b600060405180830381600087803b1580156118be57600080fd5b505af11580156118d2573d6000803e3d6000fd5b50505050821515867f7090dee9b1fe76d1b5b7ed4707910d3c7bbac387f0eac8d52cab8d08c0011fed60405160405180910390a35050505050600160008190555050565b6000600260009054906101000a900473ffffffffffffffffffffffffffffffffffffffff16905090565b7f000000000000000000000000000000000000000000000000000000000000000073ffffffffffffffffffffffffffffffffffffffff163373ffffffffffffffffffffffffffffffffffffffff16146119ce576040517f08c379a00000000000000000000000000000000000000000000000000000000081526004016119c5906128a2565b60405180910390fd5b6119d88282611f83565b5050565b60055481565b6119ea611ada565b73ffffffffffffffffffffffffffffffffffffffff16611a08611916565b73ffffffffffffffffffffffffffffffffffffffff1614611a5e576040517f08c379a0000000000000000000000000000000000000000000000000000000008152600401611a5590612882565b60405180910390fd5b600073ffffffffffffffffffffffffffffffffffffffff168173ffffffffffffffffffffffffffffffffffffffff161415611ace576040517f08c379a0000000000000000000000000000000000000000000000000000000008152600401611ac590612842565b60405180910390fd5b611ad781611ebd565b50565b600033905090565b60606000600960008481526020019081526020016000205411611b3a576040517f08c379a0000000000000000000000000000000000000000000000000000000008152600401611b31906128c2565b60405180910390fd5b6000600267ffffffffffffffff811115611b7d577f4e487b7100000000000000000000000000000000000000000000000000000000600052604160045260246000fd5b604051908082528060200260200182016040528015611bab5781602001602082028036833780820191505090505b509050600960008481526020019081526020016000205481600081518110611bfc577f4e487b7100000000000000000000000000000000000000000000000000000000600052603260045260246000fd5b60200260200101818152505080600081518110611c42577f4e487b7100000000000000000000000000000000000000000000000000000000600052603260045260246000fd5b602002602001015183604051602001611c5c9291906129ad565b6040516020818303038152906040528051906020012060001c81600181518110611caf577f4e487b7100000000000000000000000000000000000000000000000000000000600052603260045260246000fd5b6020026020010181815250506000600960008581526020019081526020016000208190555080915050919050565b60006001600583600a86611cf19190612afc565b611cfb9190612b56565b611d059190612acb565b611d0f9190612a75565b905092915050565b60006005848385600a88611d2b9190612afc565b611d359190612b56565b611d3f9190612a75565b611d499190612acb565b611d539190612afc565b90509392505050565b60007f000000000000000000000000000000000000000000000000000000000000000073ffffffffffffffffffffffffffffffffffffffff16634000aea07f000000000000000000000000000000000000000000000000000000000000000084866000604051602001611dd09291906127d4565b6040516020818303038152906040526040518463ffffffff1660e01b8152600401611dfd93929190612760565b602060405180830381600087803b158015611e1757600080fd5b505af1158015611e2b573d6000803e3d6000fd5b505050506040513d601f19601f82011682018060405250810190611e4f9190612319565b506000611e72846000306001600089815260200190815260200160002054611fe6565b9050600180600086815260200190815260200160002054611e939190612a75565b6001600086815260200190815260200160002081905550611eb48482612022565b91505092915050565b6000600260009054906101000a900473ffffffffffffffffffffffffffffffffffffffff16905081600260006101000a81548173ffffffffffffffffffffffffffffffffffffffff021916908373ffffffffffffffffffffffffffffffffffffffff1602179055508173ffffffffffffffffffffffffffffffffffffffff168173ffffffffffffffffffffffffffffffffffffffff167f8be0079c531659141344cd1fd0a4f28419497f9722a3daafe3b4186f6b6457e060405160405180910390a35050565b60006008600084815260200190815260200160002054905081600960008381526020019081526020016000208190555081817fefe1b9b5e7978a88347163f393e0e5b89e31dbe384f7065fc99ae83ff1d26c9d60405160405180910390a3505050565b600084848484604051602001611fff94939291906127fd565b6040516020818303038152906040528051906020012060001c9050949350505050565b60008282604051602001612037929190612719565b60405160208183030381529060405280519060200120905092915050565b6000612068612063846129fb565b6129d6565b90508281526020810184848401111561208057600080fd5b61208b848285612bdc565b509392505050565b6000813590506120a281612eba565b92915050565b6000815190506120b781612eba565b92915050565b6000813590506120cc81612ed1565b92915050565b6000815190506120e181612ed1565b92915050565b6000813590506120f681612ee8565b92915050565b600082601f83011261210d57600080fd5b815161211d848260208601612055565b91505092915050565b6000610180828403121561213957600080fd5b6121446101806129d6565b9050600061215484828501612289565b600083015250602082015167ffffffffffffffff81111561217457600080fd5b612180848285016120fc565b602083015250604061219484828501612289565b60408301525060606121a884828501612289565b60608301525060806121bc84828501612289565b60808301525060a06121d084828501612289565b60a08301525060c06121e484828501612289565b60c08301525060e06121f884828501612289565b60e08301525061010061220d84828501612289565b6101008301525061012061222384828501612289565b6101208301525061014061223984828501612289565b6101408301525061016082015167ffffffffffffffff81111561225b57600080fd5b612267848285016120fc565b6101608301525092915050565b60008135905061228381612eff565b92915050565b60008151905061229881612eff565b92915050565b6000602082840312156122b057600080fd5b60006122be84828501612093565b91505092915050565b6000602082840312156122d957600080fd5b60006122e7848285016120a8565b91505092915050565b60006020828403121561230257600080fd5b6000612310848285016120bd565b91505092915050565b60006020828403121561232b57600080fd5b6000612339848285016120d2565b91505092915050565b6000806040838503121561235557600080fd5b6000612363858286016120e7565b925050602061237485828601612274565b9150509250929050565b60006020828403121561239057600080fd5b600082015167ffffffffffffffff8111156123aa57600080fd5b6123b684828501612126565b91505092915050565b6000602082840312156123d157600080fd5b60006123df84828501612274565b91505092915050565b6123f181612b8a565b82525050565b61240081612b9c565b82525050565b61240f81612ba8565b82525050565b61242661242182612ba8565b612c40565b82525050565b600061243782612a2c565b6124418185612a42565b9350612451818560208601612bdc565b61245a81612d12565b840191505092915050565b600061247082612a37565b61247a8185612a53565b935061248a818560208601612bdc565b61249381612d12565b840191505092915050565b60006124ab602683612a64565b91506124b682612d23565b604082019050919050565b60006124ce601783612a64565b91506124d982612d72565b602082019050919050565b60006124f1602083612a64565b91506124fc82612d9b565b602082019050919050565b6000612514601f83612a64565b915061251f82612dc4565b602082019050919050565b6000612537601a83612a64565b915061254282612ded565b602082019050919050565b600061255a601783612a64565b915061256582612e16565b602082019050919050565b600061257d600283612a64565b915061258882612e3f565b602082019050919050565b60006125a0601f83612a64565b91506125ab82612e68565b602082019050919050565b60006125c3600383612a64565b91506125ce82612e91565b602082019050919050565b6000610180830160008301516125f260008601826126e4565b506020830151848203602086015261260a8282612465565b915050604083015161261f60408601826126e4565b50606083015161263260608601826126e4565b50608083015161264560808601826126e4565b5060a083015161265860a08601826126e4565b5060c083015161266b60c08601826126e4565b5060e083015161267e60e08601826126e4565b506101008301516126936101008601826126e4565b506101208301516126a86101208601826126e4565b506101408301516126bd6101408601826126e4565b506101608301518482036101608601526126d78282612465565b9150508091505092915050565b6126ed81612bd2565b82525050565b6126fc81612bd2565b82525050565b61271361270e82612bd2565b612c4a565b82525050565b60006127258285612415565b6020820191506127358284612702565b6020820191508190509392505050565b600060208201905061275a60008301846123e8565b92915050565b600060608201905061277560008301866123e8565b61278260208301856126f3565b8181036040830152612794818461242c565b9050949350505050565b60006020820190506127b360008301846123f7565b92915050565b60006020820190506127ce6000830184612406565b92915050565b60006040820190506127e96000830185612406565b6127f660208301846126f3565b9392505050565b60006080820190506128126000830187612406565b61281f60208301866126f3565b61282c60408301856123e8565b61283960608301846126f3565b95945050505050565b6000602082019050818103600083015261285b8161249e565b9050919050565b6000602082019050818103600083015261287b816124c1565b9050919050565b6000602082019050818103600083015261289b816124e4565b9050919050565b600060208201905081810360008301526128bb81612507565b9050919050565b600060208201905081810360008301526128db8161252a565b9050919050565b600060208201905081810360008301526128fb8161254d565b9050919050565b6000602082019050818103600083015261291b81612570565b9050919050565b6000602082019050818103600083015261293b81612593565b9050919050565b6000602082019050818103600083015261295b816125b6565b9050919050565b600060208201905061297760008301846126f3565b92915050565b600060408201905061299260008301856126f3565b81810360208301526129a481846125d9565b90509392505050565b60006040820190506129c260008301856126f3565b6129cf60208301846126f3565b9392505050565b60006129e06129f1565b90506129ec8282612c0f565b919050565b6000604051905090565b600067ffffffffffffffff821115612a1657612a15612ce3565b5b612a1f82612d12565b9050602081019050919050565b600081519050919050565b600081519050919050565b600082825260208201905092915050565b600082825260208201905092915050565b600082825260208201905092915050565b6000612a8082612bd2565b9150612a8b83612bd2565b9250827fffffffffffffffffffffffffffffffffffffffffffffffffffffffffffffffff03821115612ac057612abf612c85565b5b828201905092915050565b6000612ad682612bd2565b9150612ae183612bd2565b925082612af157612af0612cb4565b5b828204905092915050565b6000612b0782612bd2565b9150612b1283612bd2565b9250817fffffffffffffffffffffffffffffffffffffffffffffffffffffffffffffffff0483118215151615612b4b57612b4a612c85565b5b828202905092915050565b6000612b6182612bd2565b9150612b6c83612bd2565b925082821015612b7f57612b7e612c85565b5b828203905092915050565b6000612b9582612bb2565b9050919050565b60008115159050919050565b6000819050919050565b600073ffffffffffffffffffffffffffffffffffffffff82169050919050565b6000819050919050565b60005b83811015612bfa578082015181840152602081019050612bdf565b83811115612c09576000848401525b50505050565b612c1882612d12565b810181811067ffffffffffffffff82111715612c3757612c36612ce3565b5b80604052505050565b6000819050919050565b6000819050919050565b6000612c5f82612bd2565b9150612c6a83612bd2565b925082612c7a57612c79612cb4565b5b828206905092915050565b7f4e487b7100000000000000000000000000000000000000000000000000000000600052601160045260246000fd5b7f4e487b7100000000000000000000000000000000000000000000000000000000600052601260045260246000fd5b7f4e487b7100000000000000000000000000000000000000000000000000000000600052604160045260246000fd5b6000601f19601f8301169050919050565b7f4f776e61626c653a206e6577206f776e657220697320746865207a65726f206160008201527f6464726573730000000000000000000000000000000000000000000000000000602082015250565b7f466967687465722069732062757379206f722064656164000000000000000000600082015250565b7f4f776e61626c653a2063616c6c6572206973206e6f7420746865206f776e6572600082015250565b7f4f6e6c7920565246436f6f7264696e61746f722063616e2066756c66696c6c00600082015250565b7f436861696e4c696e6b20565246206973206e6f74207265616479000000000000600082015250565b7f4e6f74206f776e6572206f66207468697320746f6b656e000000000000000000600082015250565b7f5750000000000000000000000000000000000000000000000000000000000000600082015250565b7f5265656e7472616e637947756172643a207265656e7472616e742063616c6c00600082015250565b7f544e410000000000000000000000000000000000000000000000000000000000600082015250565b612ec381612b8a565b8114612ece57600080fd5b50565b612eda81612b9c565b8114612ee557600080fd5b50565b612ef181612ba8565b8114612efc57600080fd5b50565b612f0881612bd2565b8114612f1357600080fd5b5056fea26469706673582212202054885f5cb4400f8bc177a8f535fe2993d6784984f7c4ad3341480ab5e9e53364736f6c63430008040033",
  "linkReferences": {},
  "deployedLinkReferences": {}
}