{
  "_format": "hh-sol-artifact-1",
  "contractName": "Training",
  "sourceName": "contracts/Training.sol",
  "abi": [
    {
      "inputs": [
        {
          "internalType": "address",
          "name": "_nftContract",
          "type": "address"
        },
        {
          "internalType": "address",
          "name": "_VRFCoordinator",
          "type": "address"
        },
        {
          "internalType": "address",
          "name": "_linkToken",
          "type": "address"
        },
        {
          "internalType": "bytes32",
          "name": "_keyHash",
          "type": "bytes32"
        },
        {
          "internalType": "uint256",
          "name": "_fee",
          "type": "uint256"
        }
      ],
      "stateMutability": "nonpayable",
      "type": "constructor"
    },
    {
      "anonymous": false,
      "inputs": [
        {
          "indexed": true,
          "internalType": "address",
          "name": "previousOwner",
          "type": "address"
        },
        {
          "indexed": true,
          "internalType": "address",
          "name": "newOwner",
          "type": "address"
        }
      ],
      "name": "OwnershipTransferred",
      "type": "event"
    },
    {
      "anonymous": false,
      "inputs": [
        {
          "indexed": true,
          "internalType": "uint256",
          "name": "tokenId",
          "type": "uint256"
        },
        {
          "indexed": true,
          "internalType": "uint256",
          "name": "randomNumber",
          "type": "uint256"
        }
      ],
      "name": "ReadyForTraining",
      "type": "event"
    },
    {
      "anonymous": false,
      "inputs": [
        {
          "indexed": true,
          "internalType": "bytes32",
          "name": "requestId",
          "type": "bytes32"
        },
        {
          "indexed": true,
          "internalType": "uint256",
          "name": "tokenId",
          "type": "uint256"
        }
      ],
      "name": "RequestedTraining",
      "type": "event"
    },
    {
      "anonymous": false,
      "inputs": [
        {
          "indexed": true,
          "internalType": "uint256",
          "name": "tokenId",
          "type": "uint256"
        },
        {
          "components": [
            {
              "internalType": "uint256",
              "name": "tokenId",
              "type": "uint256"
            },
            {
              "internalType": "string",
              "name": "name",
              "type": "string"
            },
            {
              "internalType": "uint256",
              "name": "level",
              "type": "uint256"
            },
            {
              "internalType": "uint256",
              "name": "wins",
              "type": "uint256"
            },
            {
              "internalType": "uint256",
              "name": "hp",
              "type": "uint256"
            },
            {
              "internalType": "uint256",
              "name": "strength",
              "type": "uint256"
            },
            {
              "internalType": "uint256",
              "name": "dexterity",
              "type": "uint256"
            },
            {
              "internalType": "uint256",
              "name": "agility",
              "type": "uint256"
            },
            {
              "internalType": "uint256",
              "name": "intelligence",
              "type": "uint256"
            },
            {
              "internalType": "uint256",
              "name": "durability",
              "type": "uint256"
            },
            {
              "internalType": "uint256",
              "name": "location",
              "type": "uint256"
            },
            {
              "internalType": "string",
              "name": "fighterType",
              "type": "string"
            }
          ],
          "indexed": true,
          "internalType": "struct lib.Fighter",
          "name": "fighter",
          "type": "tuple"
        },
        {
          "indexed": true,
          "internalType": "bool",
          "name": "isSuccessfull",
          "type": "bool"
        }
      ],
      "name": "TrainingDone",
      "type": "event"
    },
    {
      "inputs": [],
      "name": "fee",
      "outputs": [
        {
          "internalType": "uint256",
          "name": "",
          "type": "uint256"
        }
      ],
      "stateMutability": "view",
      "type": "function"
    },
    {
      "inputs": [
        {
          "internalType": "uint256",
          "name": "_tokenId",
          "type": "uint256"
        }
      ],
      "name": "finishTrainingAgi",
      "outputs": [],
      "stateMutability": "nonpayable",
      "type": "function"
    },
    {
      "inputs": [
        {
          "internalType": "uint256",
          "name": "_tokenId",
          "type": "uint256"
        }
      ],
      "name": "finishTrainingDex",
      "outputs": [],
      "stateMutability": "nonpayable",
      "type": "function"
    },
    {
      "inputs": [
        {
          "internalType": "uint256",
          "name": "_tokenId",
          "type": "uint256"
        }
      ],
      "name": "finishTrainingDur",
      "outputs": [],
      "stateMutability": "nonpayable",
      "type": "function"
    },
    {
      "inputs": [
        {
          "internalType": "uint256",
          "name": "_tokenId",
          "type": "uint256"
        }
      ],
      "name": "finishTrainingInt",
      "outputs": [],
      "stateMutability": "nonpayable",
      "type": "function"
    },
    {
      "inputs": [
        {
          "internalType": "uint256",
          "name": "_tokenId",
          "type": "uint256"
        }
      ],
      "name": "finishTrainingStr",
      "outputs": [],
      "stateMutability": "nonpayable",
      "type": "function"
    },
    {
      "inputs": [],
      "name": "keyHash",
      "outputs": [
        {
          "internalType": "bytes32",
          "name": "",
          "type": "bytes32"
        }
      ],
      "stateMutability": "view",
      "type": "function"
    },
    {
      "inputs": [],
      "name": "owner",
      "outputs": [
        {
          "internalType": "address",
          "name": "",
          "type": "address"
        }
      ],
      "stateMutability": "view",
      "type": "function"
    },
    {
      "inputs": [
        {
          "internalType": "bool",
          "name": "_state",
          "type": "bool"
        }
      ],
      "name": "pause",
      "outputs": [],
      "stateMutability": "nonpayable",
      "type": "function"
    },
    {
      "inputs": [],
      "name": "paused",
      "outputs": [
        {
          "internalType": "bool",
          "name": "",
          "type": "bool"
        }
      ],
      "stateMutability": "view",
      "type": "function"
    },
    {
      "inputs": [
        {
          "internalType": "bytes32",
          "name": "requestId",
          "type": "bytes32"
        },
        {
          "internalType": "uint256",
          "name": "randomness",
          "type": "uint256"
        }
      ],
      "name": "rawFulfillRandomness",
      "outputs": [],
      "stateMutability": "nonpayable",
      "type": "function"
    },
    {
      "inputs": [],
      "name": "renounceOwnership",
      "outputs": [],
      "stateMutability": "nonpayable",
      "type": "function"
    },
    {
      "inputs": [
        {
          "internalType": "uint256",
          "name": "_tokenId",
          "type": "uint256"
        }
      ],
      "name": "requestTraining",
      "outputs": [
        {
          "internalType": "bytes32",
          "name": "requestId",
          "type": "bytes32"
        }
      ],
      "stateMutability": "payable",
      "type": "function"
    },
    {
      "inputs": [
        {
          "internalType": "uint256",
          "name": "_newCost",
          "type": "uint256"
        }
      ],
      "name": "setCost",
      "outputs": [],
      "stateMutability": "nonpayable",
      "type": "function"
    },
    {
      "inputs": [
        {
          "internalType": "address",
          "name": "newOwner",
          "type": "address"
        }
      ],
      "name": "transferOwnership",
      "outputs": [],
      "stateMutability": "nonpayable",
      "type": "function"
    },
    {
      "inputs": [],
      "name": "withdraw",
      "outputs": [],
      "stateMutability": "payable",
      "type": "function"
    }
  ],
  "bytecode": "0x60c06040523480156200001157600080fd5b506040516200343c3803806200343c833981810160405281019062000037919062000267565b838360016000819055508173ffffffffffffffffffffffffffffffffffffffff1660a08173ffffffffffffffffffffffffffffffffffffffff1660601b815250508073ffffffffffffffffffffffffffffffffffffffff1660808173ffffffffffffffffffffffffffffffffffffffff1660601b815250505050620000d1620000c56200015460201b60201c565b6200015c60201b60201c565b806005819055508160068190555084600360006101000a81548173ffffffffffffffffffffffffffffffffffffffff021916908373ffffffffffffffffffffffffffffffffffffffff160217905550662386f26fc100006004819055506000600760006101000a81548160ff02191690831515021790555050505050506200037f565b600033905090565b6000600260009054906101000a900473ffffffffffffffffffffffffffffffffffffffff16905081600260006101000a81548173ffffffffffffffffffffffffffffffffffffffff021916908373ffffffffffffffffffffffffffffffffffffffff1602179055508173ffffffffffffffffffffffffffffffffffffffff168173ffffffffffffffffffffffffffffffffffffffff167f8be0079c531659141344cd1fd0a4f28419497f9722a3daafe3b4186f6b6457e060405160405180910390a35050565b600081519050620002338162000331565b92915050565b6000815190506200024a816200034b565b92915050565b600081519050620002618162000365565b92915050565b600080600080600060a086880312156200028057600080fd5b6000620002908882890162000222565b9550506020620002a38882890162000222565b9450506040620002b68882890162000222565b9350506060620002c98882890162000239565b9250506080620002dc8882890162000250565b9150509295509295909350565b6000620002f68262000307565b9050919050565b6000819050919050565b600073ffffffffffffffffffffffffffffffffffffffff82169050919050565b6000819050919050565b6200033c81620002e9565b81146200034857600080fd5b50565b6200035681620002fd565b81146200036257600080fd5b50565b620003708162000327565b81146200037c57600080fd5b50565b60805160601c60a05160601c61308a620003b26000396000818161196b0152611dc501526000611d89015261308a6000f3fe6080604052600436106100f35760003560e01c80636b1ca3c71161008a5780638da5cb5b116100595780638da5cb5b146102be57806394985ddd146102e9578063ddca3f4314610312578063f2fde38b1461033d576100f3565b80636b1ca3c71461022c5780636cc3d5cf14610255578063715018a61461027e5780637c56df9c14610295576100f3565b806355a8dde3116100c657806355a8dde31461017d5780635c975abb146101a65780636038c980146101d157806361728f3914610201576100f3565b806302329a29146100f857806327e83e09146101215780633ccfd60b1461014a57806344a0d68a14610154575b600080fd5b34801561010457600080fd5b5061011f600480360381019061011a9190612319565b610366565b005b34801561012d57600080fd5b50610148600480360381019061014391906123e8565b6103ff565b005b610152610723565b005b34801561016057600080fd5b5061017b600480360381019061017691906123e8565b6107df565b005b34801561018957600080fd5b506101a4600480360381019061019f91906123e8565b610865565b005b3480156101b257600080fd5b506101bb610ba0565b6040516101c8919061291a565b60405180910390f35b6101eb60048036038101906101e691906123e8565b610bb3565b6040516101f89190612935565b60405180910390f35b34801561020d57600080fd5b50610216610f10565b6040516102239190612935565b60405180910390f35b34801561023857600080fd5b50610253600480360381019061024e91906123e8565b610f16565b005b34801561026157600080fd5b5061027c600480360381019061027791906123e8565b61124c565b005b34801561028a57600080fd5b50610293611582565b005b3480156102a157600080fd5b506102bc60048036038101906102b791906123e8565b61160a565b005b3480156102ca57600080fd5b506102d361193f565b6040516102e091906128c1565b60405180910390f35b3480156102f557600080fd5b50610310600480360381019061030b919061236b565b611969565b005b34801561031e57600080fd5b50610327611a05565b6040516103349190612abe565b60405180910390f35b34801561034957600080fd5b50610364600480360381019061035f91906122c7565b611a0b565b005b61036e611b03565b73ffffffffffffffffffffffffffffffffffffffff1661038c61193f565b73ffffffffffffffffffffffffffffffffffffffff16146103e2576040517f08c379a00000000000000000000000000000000000000000000000000000000081526004016103d9906129fe565b60405180910390fd5b80600760006101000a81548160ff02191690831515021790555050565b60026000541415610445576040517f08c379a000000000000000000000000000000000000000000000000000000000815260040161043c90612a7e565b60405180910390fd5b60026000819055506000600360009054906101000a900473ffffffffffffffffffffffffffffffffffffffff1673ffffffffffffffffffffffffffffffffffffffff1663368dc9f2836040518263ffffffff1660e01b81526004016104aa9190612abe565b60006040518083038186803b1580156104c257600080fd5b505afa1580156104d6573d6000803e3d6000fd5b505050506040513d6000823e3d601f19601f820116820180604052508101906104ff91906123a7565b9050600061050c83611b0b565b905060008060329050600061052a8560400151866101200151611d06565b905081606485600081518110610569577f4e487b7100000000000000000000000000000000000000000000000000000000600052603260045260246000fd5b602002602001015161057b9190612dbb565b10156105f957600181856001815181106105be577f4e487b7100000000000000000000000000000000000000000000000000000000600052603260045260246000fd5b60200260200101516105d09190612dbb565b8661012001516105e09190612bdc565b6105ea9190612bdc565b85610120018181525050600192505b600a856040015161060a9190612c63565b856101200151111561063257600a85604001516106279190612c63565b856101200181815250505b600085610140018181525050600360009054906101000a900473ffffffffffffffffffffffffffffffffffffffff1673ffffffffffffffffffffffffffffffffffffffff1663716fee4f87876040518363ffffffff1660e01b815260040161069b929190612ad9565b600060405180830381600087803b1580156106b557600080fd5b505af11580156106c9573d6000803e3d6000fd5b50505050821515856040516106de91906128aa565b6040518091039020877f81c3dc58c2bab2a33d92ad0e4aecdbfa5ea7c4f0ab7d4fb35854157260d507a360405160405180910390a45050505050600160008190555050565b61072b611b03565b73ffffffffffffffffffffffffffffffffffffffff1661074961193f565b73ffffffffffffffffffffffffffffffffffffffff161461079f576040517f08c379a0000000000000000000000000000000000000000000000000000000008152600401610796906129fe565b60405180910390fd5b3373ffffffffffffffffffffffffffffffffffffffff166108fc479081150290604051600060405180830381858888f193505050506107dd57600080fd5b565b6107e7611b03565b73ffffffffffffffffffffffffffffffffffffffff1661080561193f565b73ffffffffffffffffffffffffffffffffffffffff161461085b576040517f08c379a0000000000000000000000000000000000000000000000000000000008152600401610852906129fe565b60405180910390fd5b8060048190555050565b600260005414156108ab576040517f08c379a00000000000000000000000000000000000000000000000000000000081526004016108a290612a7e565b60405180910390fd5b60026000819055506000600360009054906101000a900473ffffffffffffffffffffffffffffffffffffffff1673ffffffffffffffffffffffffffffffffffffffff1663368dc9f2836040518263ffffffff1660e01b81526004016109109190612abe565b60006040518083038186803b15801561092857600080fd5b505afa15801561093c573d6000803e3d6000fd5b505050506040513d6000823e3d601f19601f8201168201806040525081019061096591906123a7565b9050600061097283611b0b565b90506000806109908460400151856101000151866101200151611d40565b905060006109a78560400151866101000151611d06565b9050816064856000815181106109e6577f4e487b7100000000000000000000000000000000000000000000000000000000600052603260045260246000fd5b60200260200101516109f89190612dbb565b1015610a765760018185600181518110610a3b577f4e487b7100000000000000000000000000000000000000000000000000000000600052603260045260246000fd5b6020026020010151610a4d9190612dbb565b866101000151610a5d9190612bdc565b610a679190612bdc565b85610100018181525050600192505b600a8560400151610a879190612c63565b8561010001511115610aaf57600a8560400151610aa49190612c63565b856101000181815250505b600085610140018181525050600360009054906101000a900473ffffffffffffffffffffffffffffffffffffffff1673ffffffffffffffffffffffffffffffffffffffff1663716fee4f87876040518363ffffffff1660e01b8152600401610b18929190612ad9565b600060405180830381600087803b158015610b3257600080fd5b505af1158015610b46573d6000803e3d6000fd5b5050505082151585604051610b5b91906128aa565b6040518091039020877f81c3dc58c2bab2a33d92ad0e4aecdbfa5ea7c4f0ab7d4fb35854157260d507a360405160405180910390a45050505050600160008190555050565b600760009054906101000a900460ff1681565b6000600760009054906101000a900460ff1615610c05576040517f08c379a0000000000000000000000000000000000000000000000000000000008152600401610bfc90612a9e565b60405180910390fd5b600360009054906101000a900473ffffffffffffffffffffffffffffffffffffffff1673ffffffffffffffffffffffffffffffffffffffff16636352211e836040518263ffffffff1660e01b8152600401610c609190612abe565b60206040518083038186803b158015610c7857600080fd5b505afa158015610c8c573d6000803e3d6000fd5b505050506040513d601f19601f82011682018060405250810190610cb091906122f0565b73ffffffffffffffffffffffffffffffffffffffff163373ffffffffffffffffffffffffffffffffffffffff1614610d1d576040517f08c379a0000000000000000000000000000000000000000000000000000000008152600401610d1490612a5e565b60405180910390fd5b610d2b600654600554611d85565b90508160086000838152602001908152602001600020819055506000600360009054906101000a900473ffffffffffffffffffffffffffffffffffffffff1673ffffffffffffffffffffffffffffffffffffffff1663368dc9f2846040518263ffffffff1660e01b8152600401610da29190612abe565b60006040518083038186803b158015610dba57600080fd5b505afa158015610dce573d6000803e3d6000fd5b505050506040513d6000823e3d601f19601f82011682018060405250810190610df791906123a7565b9050600081610140015114610e41576040517f08c379a0000000000000000000000000000000000000000000000000000000008152600401610e38906129de565b60405180910390fd5b600181610140018181525050600360009054906101000a900473ffffffffffffffffffffffffffffffffffffffff1673ffffffffffffffffffffffffffffffffffffffff1663716fee4f84836040518363ffffffff1660e01b8152600401610eaa929190612ad9565b600060405180830381600087803b158015610ec457600080fd5b505af1158015610ed8573d6000803e3d6000fd5b5050505082827fd2e09d4c2cb0016a18f907f57752c3c7fab82da7a8db96055454b44354fe071660405160405180910390a350919050565b60065481565b60026000541415610f5c576040517f08c379a0000000000000000000000000000000000000000000000000000000008152600401610f5390612a7e565b60405180910390fd5b60026000819055506000600360009054906101000a900473ffffffffffffffffffffffffffffffffffffffff1673ffffffffffffffffffffffffffffffffffffffff1663368dc9f2836040518263ffffffff1660e01b8152600401610fc19190612abe565b60006040518083038186803b158015610fd957600080fd5b505afa158015610fed573d6000803e3d6000fd5b505050506040513d6000823e3d601f19601f8201168201806040525081019061101691906123a7565b9050600061102383611b0b565b9050600061103f83604001518460e00151856101200151611d40565b9050600061105584604001518560e00151611d06565b9050600082606485600081518110611096577f4e487b7100000000000000000000000000000000000000000000000000000000600052603260045260246000fd5b60200260200101516110a89190612dbb565b101561112457600182856001815181106110eb577f4e487b7100000000000000000000000000000000000000000000000000000000600052603260045260246000fd5b60200260200101516110fd9190612dbb565b8660e0015161110c9190612bdc565b6111169190612bdc565b8560e0018181525050600190505b600a85604001516111359190612c63565b8560e00151111561115b57600a85604001516111519190612c63565b8560e00181815250505b600085610140018181525050600360009054906101000a900473ffffffffffffffffffffffffffffffffffffffff1673ffffffffffffffffffffffffffffffffffffffff1663716fee4f87876040518363ffffffff1660e01b81526004016111c4929190612ad9565b600060405180830381600087803b1580156111de57600080fd5b505af11580156111f2573d6000803e3d6000fd5b505050508015158560405161120791906128aa565b6040518091039020877f81c3dc58c2bab2a33d92ad0e4aecdbfa5ea7c4f0ab7d4fb35854157260d507a360405160405180910390a45050505050600160008190555050565b60026000541415611292576040517f08c379a000000000000000000000000000000000000000000000000000000000815260040161128990612a7e565b60405180910390fd5b60026000819055506000600360009054906101000a900473ffffffffffffffffffffffffffffffffffffffff1673ffffffffffffffffffffffffffffffffffffffff1663368dc9f2836040518263ffffffff1660e01b81526004016112f79190612abe565b60006040518083038186803b15801561130f57600080fd5b505afa158015611323573d6000803e3d6000fd5b505050506040513d6000823e3d601f19601f8201168201806040525081019061134c91906123a7565b9050600061135983611b0b565b9050600061137583604001518460a00151856101200151611d40565b9050600061138b84604001518560a00151611d06565b90506000826064856000815181106113cc577f4e487b7100000000000000000000000000000000000000000000000000000000600052603260045260246000fd5b60200260200101516113de9190612dbb565b101561145a5760018285600081518110611421577f4e487b7100000000000000000000000000000000000000000000000000000000600052603260045260246000fd5b60200260200101516114339190612dbb565b8660a001516114429190612bdc565b61144c9190612bdc565b8560a0018181525050600190505b600a856040015161146b9190612c63565b8560a00151111561149157600a85604001516114879190612c63565b8560a00181815250505b600085610140018181525050600360009054906101000a900473ffffffffffffffffffffffffffffffffffffffff1673ffffffffffffffffffffffffffffffffffffffff1663716fee4f87876040518363ffffffff1660e01b81526004016114fa929190612ad9565b600060405180830381600087803b15801561151457600080fd5b505af1158015611528573d6000803e3d6000fd5b505050508015158560405161153d91906128aa565b6040518091039020877f81c3dc58c2bab2a33d92ad0e4aecdbfa5ea7c4f0ab7d4fb35854157260d507a360405160405180910390a45050505050600160008190555050565b61158a611b03565b73ffffffffffffffffffffffffffffffffffffffff166115a861193f565b73ffffffffffffffffffffffffffffffffffffffff16146115fe576040517f08c379a00000000000000000000000000000000000000000000000000000000081526004016115f5906129fe565b60405180910390fd5b6116086000611ee6565b565b60026000541415611650576040517f08c379a000000000000000000000000000000000000000000000000000000000815260040161164790612a7e565b60405180910390fd5b60026000819055506000600360009054906101000a900473ffffffffffffffffffffffffffffffffffffffff1673ffffffffffffffffffffffffffffffffffffffff1663368dc9f2836040518263ffffffff1660e01b81526004016116b59190612abe565b60006040518083038186803b1580156116cd57600080fd5b505afa1580156116e1573d6000803e3d6000fd5b505050506040513d6000823e3d601f19601f8201168201806040525081019061170a91906123a7565b9050600061171783611b0b565b905060008061173484604001518560c00151866101200151611d40565b9050600061174a85604001518660c00151611d06565b905081606485600081518110611789577f4e487b7100000000000000000000000000000000000000000000000000000000600052603260045260246000fd5b602002602001015161179b9190612dbb565b101561181757600181856001815181106117de577f4e487b7100000000000000000000000000000000000000000000000000000000600052603260045260246000fd5b60200260200101516117f09190612dbb565b8660c001516117ff9190612bdc565b6118099190612bdc565b8560c0018181525050600192505b600a85604001516118289190612c63565b8560c00151111561184e57600a85604001516118449190612c63565b8560c00181815250505b600085610140018181525050600360009054906101000a900473ffffffffffffffffffffffffffffffffffffffff1673ffffffffffffffffffffffffffffffffffffffff1663716fee4f87876040518363ffffffff1660e01b81526004016118b7929190612ad9565b600060405180830381600087803b1580156118d157600080fd5b505af11580156118e5573d6000803e3d6000fd5b50505050821515856040516118fa91906128aa565b6040518091039020877f81c3dc58c2bab2a33d92ad0e4aecdbfa5ea7c4f0ab7d4fb35854157260d507a360405160405180910390a45050505050600160008190555050565b6000600260009054906101000a900473ffffffffffffffffffffffffffffffffffffffff16905090565b7f000000000000000000000000000000000000000000000000000000000000000073ffffffffffffffffffffffffffffffffffffffff163373ffffffffffffffffffffffffffffffffffffffff16146119f7576040517f08c379a00000000000000000000000000000000000000000000000000000000081526004016119ee90612a1e565b60405180910390fd5b611a018282611fac565b5050565b60055481565b611a13611b03565b73ffffffffffffffffffffffffffffffffffffffff16611a3161193f565b73ffffffffffffffffffffffffffffffffffffffff1614611a87576040517f08c379a0000000000000000000000000000000000000000000000000000000008152600401611a7e906129fe565b60405180910390fd5b600073ffffffffffffffffffffffffffffffffffffffff168173ffffffffffffffffffffffffffffffffffffffff161415611af7576040517f08c379a0000000000000000000000000000000000000000000000000000000008152600401611aee906129be565b60405180910390fd5b611b0081611ee6565b50565b600033905090565b60606000600960008481526020019081526020016000205411611b63576040517f08c379a0000000000000000000000000000000000000000000000000000000008152600401611b5a90612a3e565b60405180910390fd5b6000600267ffffffffffffffff811115611ba6577f4e487b7100000000000000000000000000000000000000000000000000000000600052604160045260246000fd5b604051908082528060200260200182016040528015611bd45781602001602082028036833780820191505090505b509050600960008481526020019081526020016000205481600081518110611c25577f4e487b7100000000000000000000000000000000000000000000000000000000600052603260045260246000fd5b60200260200101818152505080600081518110611c6b577f4e487b7100000000000000000000000000000000000000000000000000000000600052603260045260246000fd5b602002602001015183604051602001611c85929190612b09565b6040516020818303038152906040528051906020012060001c81600181518110611cd8577f4e487b7100000000000000000000000000000000000000000000000000000000600052603260045260246000fd5b6020026020010181815250506000600960008581526020019081526020016000208190555080915050919050565b60006001600a83600a86611d1a9190612c63565b611d249190612cbd565b611d2e9190612c32565b611d389190612bdc565b905092915050565b60006005848385600a88611d549190612c63565b611d5e9190612cbd565b611d689190612bdc565b611d729190612c32565b611d7c9190612c63565b90509392505050565b60007f000000000000000000000000000000000000000000000000000000000000000073ffffffffffffffffffffffffffffffffffffffff16634000aea07f000000000000000000000000000000000000000000000000000000000000000084866000604051602001611df9929190612950565b6040516020818303038152906040526040518463ffffffff1660e01b8152600401611e26939291906128dc565b602060405180830381600087803b158015611e4057600080fd5b505af1158015611e54573d6000803e3d6000fd5b505050506040513d601f19601f82011682018060405250810190611e789190612342565b506000611e9b84600030600160008981526020019081526020016000205461200f565b9050600180600086815260200190815260200160002054611ebc9190612bdc565b6001600086815260200190815260200160002081905550611edd848261204b565b91505092915050565b6000600260009054906101000a900473ffffffffffffffffffffffffffffffffffffffff16905081600260006101000a81548173ffffffffffffffffffffffffffffffffffffffff021916908373ffffffffffffffffffffffffffffffffffffffff1602179055508173ffffffffffffffffffffffffffffffffffffffff168173ffffffffffffffffffffffffffffffffffffffff167f8be0079c531659141344cd1fd0a4f28419497f9722a3daafe3b4186f6b6457e060405160405180910390a35050565b60006008600084815260200190815260200160002054905081600960008381526020019081526020016000208190555081817fefe1b9b5e7978a88347163f393e0e5b89e31dbe384f7065fc99ae83ff1d26c9d60405160405180910390a3505050565b6000848484846040516020016120289493929190612979565b6040516020818303038152906040528051906020012060001c9050949350505050565b6000828260405160200161206092919061287e565b60405160208183030381529060405280519060200120905092915050565b600061209161208c84612b57565b612b32565b9050828152602081018484840111156120a957600080fd5b6120b4848285612d43565b509392505050565b6000813590506120cb81612ff8565b92915050565b6000815190506120e081612ff8565b92915050565b6000813590506120f58161300f565b92915050565b60008151905061210a8161300f565b92915050565b60008135905061211f81613026565b92915050565b600082601f83011261213657600080fd5b815161214684826020860161207e565b91505092915050565b6000610180828403121561216257600080fd5b61216d610180612b32565b9050600061217d848285016122b2565b600083015250602082015167ffffffffffffffff81111561219d57600080fd5b6121a984828501612125565b60208301525060406121bd848285016122b2565b60408301525060606121d1848285016122b2565b60608301525060806121e5848285016122b2565b60808301525060a06121f9848285016122b2565b60a08301525060c061220d848285016122b2565b60c08301525060e0612221848285016122b2565b60e083015250610100612236848285016122b2565b6101008301525061012061224c848285016122b2565b61012083015250610140612262848285016122b2565b6101408301525061016082015167ffffffffffffffff81111561228457600080fd5b61229084828501612125565b6101608301525092915050565b6000813590506122ac8161303d565b92915050565b6000815190506122c18161303d565b92915050565b6000602082840312156122d957600080fd5b60006122e7848285016120bc565b91505092915050565b60006020828403121561230257600080fd5b6000612310848285016120d1565b91505092915050565b60006020828403121561232b57600080fd5b6000612339848285016120e6565b91505092915050565b60006020828403121561235457600080fd5b6000612362848285016120fb565b91505092915050565b6000806040838503121561237e57600080fd5b600061238c85828601612110565b925050602061239d8582860161229d565b9150509250929050565b6000602082840312156123b957600080fd5b600082015167ffffffffffffffff8111156123d357600080fd5b6123df8482850161214f565b91505092915050565b6000602082840312156123fa57600080fd5b60006124088482850161229d565b91505092915050565b600061241d83836124f3565b905092915050565b60006124318383612858565b60208301905092915050565b61244681612cf1565b82525050565b61245581612d03565b82525050565b61246481612d0f565b82525050565b61247b61247682612d0f565b612da7565b82525050565b600061248c82612b88565b6124968185612b9e565b93506124a6818560208601612d43565b6124af81612e79565b840191505092915050565b60006124c582612b93565b6124cf8185612baf565b93506124df818560208601612d43565b6124e881612e79565b840191505092915050565b60006124fe82612b93565b6125088185612bd1565b9350612518818560208601612d43565b61252181612e79565b840191505092915050565b6000612539602683612bc0565b915061254482612e8a565b604082019050919050565b600061255c600f83612bc0565b915061256782612ed9565b602082019050919050565b600061257f602083612bc0565b915061258a82612f02565b602082019050919050565b60006125a2601f83612bc0565b91506125ad82612f2b565b602082019050919050565b60006125c5601a83612bc0565b91506125d082612f54565b602082019050919050565b60006125e8601783612bc0565b91506125f382612f7d565b602082019050919050565b600061260b601f83612bc0565b915061261682612fa6565b602082019050919050565b600061262e600383612bc0565b915061263982612fcf565b602082019050919050565b60006101808301600083015161265d600086018261283a565b506020830151848203602086015261267582826124ba565b915050604083015161268a604086018261283a565b50606083015161269d606086018261283a565b5060808301516126b0608086018261283a565b5060a08301516126c360a086018261283a565b5060c08301516126d660c086018261283a565b5060e08301516126e960e086018261283a565b506101008301516126fe61010086018261283a565b5061012083015161271361012086018261283a565b5061014083015161272861014086018261283a565b5061016083015184820361016086015261274282826124ba565b9150508091505092915050565b600080830160008301516127638582612425565b94505060208301516127758582612411565b94505060408301516127878582612425565b94505060608301516127998582612425565b94505060808301516127ab8582612425565b94505060a08301516127bd8582612425565b94505060c08301516127cf8582612425565b94505060e08301516127e18582612425565b9450506101008301516127f48582612425565b9450506101208301516128078582612425565b94505061014083015161281a8582612425565b94505061016083015161282d8582612411565b9450508391505092915050565b61284381612d39565b82525050565b61285281612d39565b82525050565b61286181612d39565b82525050565b61287861287382612d39565b612db1565b82525050565b600061288a828561246a565b60208201915061289a8284612867565b6020820191508190509392505050565b60006128b6828461274f565b915081905092915050565b60006020820190506128d6600083018461243d565b92915050565b60006060820190506128f1600083018661243d565b6128fe6020830185612849565b81810360408301526129108184612481565b9050949350505050565b600060208201905061292f600083018461244c565b92915050565b600060208201905061294a600083018461245b565b92915050565b6000604082019050612965600083018561245b565b6129726020830184612849565b9392505050565b600060808201905061298e600083018761245b565b61299b6020830186612849565b6129a8604083018561243d565b6129b56060830184612849565b95945050505050565b600060208201905081810360008301526129d78161252c565b9050919050565b600060208201905081810360008301526129f78161254f565b9050919050565b60006020820190508181036000830152612a1781612572565b9050919050565b60006020820190508181036000830152612a3781612595565b9050919050565b60006020820190508181036000830152612a57816125b8565b9050919050565b60006020820190508181036000830152612a77816125db565b9050919050565b60006020820190508181036000830152612a97816125fe565b9050919050565b60006020820190508181036000830152612ab781612621565b9050919050565b6000602082019050612ad36000830184612849565b92915050565b6000604082019050612aee6000830185612849565b8181036020830152612b008184612644565b90509392505050565b6000604082019050612b1e6000830185612849565b612b2b6020830184612849565b9392505050565b6000612b3c612b4d565b9050612b488282612d76565b919050565b6000604051905090565b600067ffffffffffffffff821115612b7257612b71612e4a565b5b612b7b82612e79565b9050602081019050919050565b600081519050919050565b600081519050919050565b600082825260208201905092915050565b600082825260208201905092915050565b600082825260208201905092915050565b600081905092915050565b6000612be782612d39565b9150612bf283612d39565b9250827fffffffffffffffffffffffffffffffffffffffffffffffffffffffffffffffff03821115612c2757612c26612dec565b5b828201905092915050565b6000612c3d82612d39565b9150612c4883612d39565b925082612c5857612c57612e1b565b5b828204905092915050565b6000612c6e82612d39565b9150612c7983612d39565b9250817fffffffffffffffffffffffffffffffffffffffffffffffffffffffffffffffff0483118215151615612cb257612cb1612dec565b5b828202905092915050565b6000612cc882612d39565b9150612cd383612d39565b925082821015612ce657612ce5612dec565b5b828203905092915050565b6000612cfc82612d19565b9050919050565b60008115159050919050565b6000819050919050565b600073ffffffffffffffffffffffffffffffffffffffff82169050919050565b6000819050919050565b60005b83811015612d61578082015181840152602081019050612d46565b83811115612d70576000848401525b50505050565b612d7f82612e79565b810181811067ffffffffffffffff82111715612d9e57612d9d612e4a565b5b80604052505050565b6000819050919050565b6000819050919050565b6000612dc682612d39565b9150612dd183612d39565b925082612de157612de0612e1b565b5b828206905092915050565b7f4e487b7100000000000000000000000000000000000000000000000000000000600052601160045260246000fd5b7f4e487b7100000000000000000000000000000000000000000000000000000000600052601260045260246000fd5b7f4e487b7100000000000000000000000000000000000000000000000000000000600052604160045260246000fd5b6000601f19601f8301169050919050565b7f4f776e61626c653a206e6577206f776e657220697320746865207a65726f206160008201527f6464726573730000000000000000000000000000000000000000000000000000602082015250565b7f4669676874657220697320627573790000000000000000000000000000000000600082015250565b7f4f776e61626c653a2063616c6c6572206973206e6f7420746865206f776e6572600082015250565b7f4f6e6c7920565246436f6f7264696e61746f722063616e2066756c66696c6c00600082015250565b7f436861696e4c696e6b20565246206973206e6f74207265616479000000000000600082015250565b7f4e6f74206f776e6572206f66207468697320746f6b656e000000000000000000600082015250565b7f5265656e7472616e637947756172643a207265656e7472616e742063616c6c00600082015250565b7f544e410000000000000000000000000000000000000000000000000000000000600082015250565b61300181612cf1565b811461300c57600080fd5b50565b61301881612d03565b811461302357600080fd5b50565b61302f81612d0f565b811461303a57600080fd5b50565b61304681612d39565b811461305157600080fd5b5056fea2646970667358221220a18345cbb08a62e28c321b56a28121c48006ccddd498292c23300de4f16259fc64736f6c63430008040033",
  "linkReferences": {},
  "deployedLinkReferences": {}
}